{
  "contractName": "EventNftMarket",
  "abi": [
    {
      "inputs": [],
      "stateMutability": "nonpayable",
      "type": "constructor"
    },
    {
      "anonymous": false,
      "inputs": [
        {
          "indexed": true,
          "internalType": "address",
          "name": "owner",
          "type": "address"
        },
        {
          "indexed": true,
          "internalType": "address",
          "name": "approved",
          "type": "address"
        },
        {
          "indexed": true,
          "internalType": "uint256",
          "name": "tokenId",
          "type": "uint256"
        }
      ],
      "name": "Approval",
      "type": "event"
    },
    {
      "anonymous": false,
      "inputs": [
        {
          "indexed": true,
          "internalType": "address",
          "name": "owner",
          "type": "address"
        },
        {
          "indexed": true,
          "internalType": "address",
          "name": "operator",
          "type": "address"
        },
        {
          "indexed": false,
          "internalType": "bool",
          "name": "approved",
          "type": "bool"
        }
      ],
      "name": "ApprovalForAll",
      "type": "event"
    },
    {
      "anonymous": false,
      "inputs": [
        {
          "indexed": false,
          "internalType": "uint256",
          "name": "id",
          "type": "uint256"
        },
        {
          "indexed": false,
          "internalType": "uint256",
          "name": "price",
          "type": "uint256"
        },
        {
          "indexed": false,
          "internalType": "address",
          "name": "creator",
          "type": "address"
        },
        {
          "indexed": false,
          "internalType": "bool",
          "name": "isTokenListed",
          "type": "bool"
        }
      ],
      "name": "EventNftCreated",
      "type": "event"
    },
    {
      "anonymous": false,
      "inputs": [
        {
          "indexed": false,
          "internalType": "uint256",
          "name": "id",
          "type": "uint256"
        },
        {
          "indexed": false,
          "internalType": "uint256",
          "name": "newPrice",
          "type": "uint256"
        },
        {
          "indexed": false,
          "internalType": "address",
          "name": "newCreator",
          "type": "address"
        },
        {
          "indexed": false,
          "internalType": "bool",
          "name": "newIsTokenListed",
          "type": "bool"
        }
      ],
      "name": "EventNftUpdated",
      "type": "event"
    },
    {
      "anonymous": false,
      "inputs": [
        {
          "indexed": true,
          "internalType": "address",
          "name": "previousOwner",
          "type": "address"
        },
        {
          "indexed": true,
          "internalType": "address",
          "name": "newOwner",
          "type": "address"
        }
      ],
      "name": "OwnershipTransferred",
      "type": "event"
    },
    {
      "anonymous": false,
      "inputs": [
        {
          "indexed": true,
          "internalType": "address",
          "name": "from",
          "type": "address"
        },
        {
          "indexed": true,
          "internalType": "address",
          "name": "to",
          "type": "address"
        },
        {
          "indexed": true,
          "internalType": "uint256",
          "name": "tokenId",
          "type": "uint256"
        }
      ],
      "name": "Transfer",
      "type": "event"
    },
    {
      "inputs": [
        {
          "internalType": "address",
          "name": "to",
          "type": "address"
        },
        {
          "internalType": "uint256",
          "name": "tokenId",
          "type": "uint256"
        }
      ],
      "name": "approve",
      "outputs": [],
      "stateMutability": "nonpayable",
      "type": "function"
    },
    {
      "inputs": [
        {
          "internalType": "address",
          "name": "owner",
          "type": "address"
        }
      ],
      "name": "balanceOf",
      "outputs": [
        {
          "internalType": "uint256",
          "name": "",
          "type": "uint256"
        }
      ],
      "stateMutability": "view",
      "type": "function",
      "constant": true
    },
    {
      "inputs": [
        {
          "internalType": "uint256",
          "name": "tokenId",
          "type": "uint256"
        }
      ],
      "name": "getApproved",
      "outputs": [
        {
          "internalType": "address",
          "name": "",
          "type": "address"
        }
      ],
      "stateMutability": "view",
      "type": "function",
      "constant": true
    },
    {
      "inputs": [
        {
          "internalType": "address",
          "name": "owner",
          "type": "address"
        },
        {
          "internalType": "address",
          "name": "operator",
          "type": "address"
        }
      ],
      "name": "isApprovedForAll",
      "outputs": [
        {
          "internalType": "bool",
          "name": "",
          "type": "bool"
        }
      ],
      "stateMutability": "view",
      "type": "function",
      "constant": true
    },
    {
      "inputs": [],
      "name": "name",
      "outputs": [
        {
          "internalType": "string",
          "name": "",
          "type": "string"
        }
      ],
      "stateMutability": "view",
      "type": "function",
      "constant": true
    },
    {
      "inputs": [],
      "name": "owner",
      "outputs": [
        {
          "internalType": "address",
          "name": "",
          "type": "address"
        }
      ],
      "stateMutability": "view",
      "type": "function",
      "constant": true
    },
    {
      "inputs": [
        {
          "internalType": "uint256",
          "name": "tokenId",
          "type": "uint256"
        }
      ],
      "name": "ownerOf",
      "outputs": [
        {
          "internalType": "address",
          "name": "",
          "type": "address"
        }
      ],
      "stateMutability": "view",
      "type": "function",
      "constant": true
    },
    {
      "inputs": [],
      "name": "renounceOwnership",
      "outputs": [],
      "stateMutability": "nonpayable",
      "type": "function"
    },
    {
      "inputs": [
        {
          "internalType": "address",
          "name": "from",
          "type": "address"
        },
        {
          "internalType": "address",
          "name": "to",
          "type": "address"
        },
        {
          "internalType": "uint256",
          "name": "tokenId",
          "type": "uint256"
        }
      ],
      "name": "safeTransferFrom",
      "outputs": [],
      "stateMutability": "nonpayable",
      "type": "function"
    },
    {
      "inputs": [
        {
          "internalType": "address",
          "name": "from",
          "type": "address"
        },
        {
          "internalType": "address",
          "name": "to",
          "type": "address"
        },
        {
          "internalType": "uint256",
          "name": "tokenId",
          "type": "uint256"
        },
        {
          "internalType": "bytes",
          "name": "data",
          "type": "bytes"
        }
      ],
      "name": "safeTransferFrom",
      "outputs": [],
      "stateMutability": "nonpayable",
      "type": "function"
    },
    {
      "inputs": [
        {
          "internalType": "address",
          "name": "operator",
          "type": "address"
        },
        {
          "internalType": "bool",
          "name": "approved",
          "type": "bool"
        }
      ],
      "name": "setApprovalForAll",
      "outputs": [],
      "stateMutability": "nonpayable",
      "type": "function"
    },
    {
      "inputs": [
        {
          "internalType": "bytes4",
          "name": "interfaceId",
          "type": "bytes4"
        }
      ],
      "name": "supportsInterface",
      "outputs": [
        {
          "internalType": "bool",
          "name": "",
          "type": "bool"
        }
      ],
      "stateMutability": "view",
      "type": "function",
      "constant": true
    },
    {
      "inputs": [],
      "name": "symbol",
      "outputs": [
        {
          "internalType": "string",
          "name": "",
          "type": "string"
        }
      ],
      "stateMutability": "view",
      "type": "function",
      "constant": true
    },
    {
      "inputs": [
        {
          "internalType": "uint256",
          "name": "tokenId",
          "type": "uint256"
        }
      ],
      "name": "tokenURI",
      "outputs": [
        {
          "internalType": "string",
          "name": "",
          "type": "string"
        }
      ],
      "stateMutability": "view",
      "type": "function",
      "constant": true
    },
    {
      "inputs": [
        {
          "internalType": "address",
          "name": "from",
          "type": "address"
        },
        {
          "internalType": "address",
          "name": "to",
          "type": "address"
        },
        {
          "internalType": "uint256",
          "name": "tokenId",
          "type": "uint256"
        }
      ],
      "name": "transferFrom",
      "outputs": [],
      "stateMutability": "nonpayable",
      "type": "function"
    },
    {
      "inputs": [
        {
          "internalType": "address",
          "name": "newOwner",
          "type": "address"
        }
      ],
      "name": "transferOwnership",
      "outputs": [],
      "stateMutability": "nonpayable",
      "type": "function"
    },
    {
      "inputs": [
        {
          "internalType": "uint256",
          "name": "tokenId",
          "type": "uint256"
        }
      ],
      "name": "isTokenNotOnSale",
      "outputs": [
        {
          "internalType": "bool",
          "name": "",
          "type": "bool"
        }
      ],
      "stateMutability": "payable",
      "type": "function",
      "payable": true
    },
    {
      "inputs": [
        {
          "internalType": "uint256",
          "name": "tokenId",
          "type": "uint256"
        }
      ],
      "name": "isTokenAlreadyOnSale",
      "outputs": [
        {
          "internalType": "bool",
          "name": "",
          "type": "bool"
        }
      ],
      "stateMutability": "payable",
      "type": "function",
      "payable": true
    },
    {
      "inputs": [],
      "name": "getNftTotalSupply",
      "outputs": [
        {
          "internalType": "uint256",
          "name": "",
          "type": "uint256"
        }
      ],
      "stateMutability": "view",
      "type": "function",
      "constant": true
    },
    {
      "inputs": [],
      "name": "fetchCurrentTokenIds",
      "outputs": [
        {
          "internalType": "uint256",
          "name": "",
          "type": "uint256"
        }
      ],
      "stateMutability": "view",
      "type": "function",
      "constant": true
    },
    {
      "inputs": [
        {
          "internalType": "uint256",
          "name": "index",
          "type": "uint256"
        }
      ],
      "name": "retrieveTokenByIndex",
      "outputs": [
        {
          "internalType": "uint256",
          "name": "",
          "type": "uint256"
        }
      ],
      "stateMutability": "view",
      "type": "function",
      "constant": true
    },
    {
      "inputs": [
        {
          "internalType": "string",
          "name": "name",
          "type": "string"
        },
        {
          "internalType": "uint256",
          "name": "price",
          "type": "uint256"
        }
      ],
      "name": "mintNftToken",
      "outputs": [
        {
          "internalType": "uint256",
          "name": "",
          "type": "uint256"
        }
      ],
      "stateMutability": "payable",
      "type": "function",
      "payable": true
    },
    {
      "inputs": [
        {
          "internalType": "uint256",
          "name": "tokenId",
          "type": "uint256"
        }
      ],
      "name": "getPriceOfNftToken",
      "outputs": [
        {
          "internalType": "uint256",
          "name": "",
          "type": "uint256"
        }
      ],
      "stateMutability": "view",
      "type": "function",
      "constant": true
    },
    {
      "inputs": [
        {
          "internalType": "uint256",
          "name": "tokenId",
          "type": "uint256"
        }
      ],
      "name": "buyNft",
      "outputs": [],
      "stateMutability": "payable",
      "type": "function",
      "payable": true
    },
    {
      "inputs": [
        {
          "internalType": "uint256",
          "name": "tokenId",
          "type": "uint256"
        }
      ],
      "name": "checkTokenCreatorIsOwner",
      "outputs": [
        {
          "internalType": "bool",
          "name": "",
          "type": "bool"
        }
      ],
      "stateMutability": "view",
      "type": "function",
      "constant": true
    },
    {
      "inputs": [
        {
          "internalType": "uint256",
          "name": "tokenId",
          "type": "uint256"
        },
        {
          "internalType": "uint256",
          "name": "newTokenPrice",
          "type": "uint256"
        }
      ],
      "name": "setNftOnSale",
      "outputs": [],
      "stateMutability": "payable",
      "type": "function",
      "payable": true
    },
    {
      "inputs": [],
      "name": "fetchAllNftsOnSale",
      "outputs": [
        {
          "components": [
            {
              "internalType": "uint256",
              "name": "id",
              "type": "uint256"
            },
            {
              "internalType": "uint256",
              "name": "price",
              "type": "uint256"
            },
            {
              "internalType": "address",
              "name": "tokenCreator",
              "type": "address"
            },
            {
              "internalType": "bool",
              "name": "isTokenListed",
              "type": "bool"
            }
          ],
          "internalType": "struct EventNftMarket.EventNft[]",
          "name": "",
          "type": "tuple[]"
        }
      ],
      "stateMutability": "view",
      "type": "function",
      "constant": true
    },
    {
      "inputs": [],
      "name": "fetchAllOwnedNFTs",
      "outputs": [
        {
          "components": [
            {
              "internalType": "uint256",
              "name": "id",
              "type": "uint256"
            },
            {
              "internalType": "uint256",
              "name": "price",
              "type": "uint256"
            },
            {
              "internalType": "address",
              "name": "tokenCreator",
              "type": "address"
            },
            {
              "internalType": "bool",
              "name": "isTokenListed",
              "type": "bool"
            }
          ],
          "internalType": "struct EventNftMarket.EventNft[]",
          "name": "",
          "type": "tuple[]"
        }
      ],
      "stateMutability": "view",
      "type": "function",
      "constant": true
    },
    {
      "inputs": [
        {
          "internalType": "address",
          "name": "tokenOwner",
          "type": "address"
        },
        {
          "internalType": "uint256",
          "name": "tokenIndex",
          "type": "uint256"
        }
      ],
      "name": "fetchTokenOwner",
      "outputs": [
        {
          "internalType": "uint256",
          "name": "",
          "type": "uint256"
        }
      ],
      "stateMutability": "view",
      "type": "function",
      "constant": true
    },
    {
      "inputs": [],
      "name": "fetchTokenSupply",
      "outputs": [
        {
          "internalType": "uint256",
          "name": "",
          "type": "uint256"
        }
      ],
      "stateMutability": "view",
      "type": "function",
      "constant": true
    },
    {
      "inputs": [
        {
          "internalType": "string",
          "name": "tokenURI",
          "type": "string"
        }
      ],
      "name": "checkTokenExists",
      "outputs": [
        {
          "internalType": "bool",
          "name": "",
          "type": "bool"
        }
      ],
      "stateMutability": "view",
      "type": "function",
      "constant": true
    },
    {
      "inputs": [
        {
          "internalType": "uint256",
          "name": "tokenId",
          "type": "uint256"
        }
      ],
      "name": "returnSingleNftItem",
      "outputs": [
        {
          "components": [
            {
              "internalType": "uint256",
              "name": "id",
              "type": "uint256"
            },
            {
              "internalType": "uint256",
              "name": "price",
              "type": "uint256"
            },
            {
              "internalType": "address",
              "name": "tokenCreator",
              "type": "address"
            },
            {
              "internalType": "bool",
              "name": "isTokenListed",
              "type": "bool"
            }
          ],
          "internalType": "struct EventNftMarket.EventNft",
          "name": "",
          "type": "tuple"
        }
      ],
      "stateMutability": "view",
      "type": "function",
      "constant": true
    }
  ],
  "bytecode": "0x60806040523480156200001157600080fd5b5060405180604001604052806011815260200170115d995b9d08151a58dad95d1cc8139195607a1b81525060405180604001604052806005815260200164115513919560da1b81525081600090816200006b919062000198565b5060016200007a828262000198565b50505062000097620000916200009d60201b60201c565b620000a1565b62000264565b3390565b600780546001600160a01b038381166001600160a01b0319831681179093556040519116919082907f8be0079c531659141344cd1fd0a4f28419497f9722a3daafe3b4186f6b6457e090600090a35050565b634e487b7160e01b600052604160045260246000fd5b600181811c908216806200011e57607f821691505b6020821081036200013f57634e487b7160e01b600052602260045260246000fd5b50919050565b601f8211156200019357600081815260208120601f850160051c810160208610156200016e5750805b601f850160051c820191505b818110156200018f578281556001016200017a565b5050505b505050565b81516001600160401b03811115620001b457620001b4620000f3565b620001cc81620001c5845462000109565b8462000145565b602080601f831160018114620002045760008415620001eb5750858301515b600019600386901b1c1916600185901b1785556200018f565b600085815260208120601f198616915b82811015620002355788860151825594840194600190910190840162000214565b5085821015620002545787850151600019600388901b60f8161c191681555b5050505050600190811b01905550565b61244680620002746000396000f3fe6080604052600436106101e35760003560e01c8063640ae16611610102578063c30c21a711610095578063cd2acaa511610064578063cd2acaa5146105b4578063d871ca15146105c9578063e985e9c5146105de578063f2fde38b1461062757600080fd5b8063c30c21a714610511578063c3a66a5b1461053e578063c5527e8014610551578063c87b56dd1461059457600080fd5b80638da5cb5b116100d15780638da5cb5b1461049e57806395d89b41146104bc578063a22cb465146104d1578063b88d4fde146104f157600080fd5b8063640ae1661461043457806370a0823114610454578063715018a61461047457806387888b5b1461048957600080fd5b8063243adbdd1161017a578063452757c511610149578063452757c5146103ca5780634ae58814146103ec578063546df207146103ff5780636352211e1461041457600080fd5b8063243adbdd1461032b57806329ae6c0c1461033e5780633ea95f2a1461036c57806342842e0e146103aa57600080fd5b8063095ea7b3116101b6578063095ea7b31461029757806309ceadae146102b9578063162f4e81146102d957806323b872dd1461030b57600080fd5b806301ffc9a7146101e857806304b49c3a1461021d57806306fdde031461023d578063081812fc1461025f575b600080fd5b3480156101f457600080fd5b50610208610203366004611cc4565b610647565b60405190151581526020015b60405180910390f35b34801561022957600080fd5b50610208610238366004611d8d565b610699565b34801561024957600080fd5b506102526106c9565b6040516102149190611e12565b34801561026b57600080fd5b5061027f61027a366004611e25565b61075b565b6040516001600160a01b039091168152602001610214565b3480156102a357600080fd5b506102b76102b2366004611e5a565b610782565b005b3480156102c557600080fd5b506102086102d4366004611e25565b61089c565b6102086102e7366004611e25565b6000908152600d6020526040902060020154600160a01b900460ff16151560011490565b34801561031757600080fd5b506102b7610326366004611e84565b6108c2565b6102b7610339366004611e25565b6108f3565b61020861034c366004611e25565b6000908152600d6020526040902060020154600160a01b900460ff161590565b34801561037857600080fd5b5061039c610387366004611e25565b6000908152600d602052604090206001015490565b604051908152602001610214565b3480156103b657600080fd5b506102b76103c5366004611e84565b610a4a565b3480156103d657600080fd5b506103df610a65565b6040516102149190611ec0565b61039c6103fa366004611f37565b610b7a565b34801561040b57600080fd5b506103df610bff565b34801561042057600080fd5b5061027f61042f366004611e25565b610d3a565b34801561044057600080fd5b5061039c61044f366004611e25565b610d9a565b34801561046057600080fd5b5061039c61046f366004611f7c565b610dc1565b34801561048057600080fd5b506102b7610e47565b34801561049557600080fd5b50600a5461039c565b3480156104aa57600080fd5b506007546001600160a01b031661027f565b3480156104c857600080fd5b50610252610e5b565b3480156104dd57600080fd5b506102b76104ec366004611f97565b610e6a565b3480156104fd57600080fd5b506102b761050c366004611fd3565b610e79565b34801561051d57600080fd5b5061053161052c366004611e25565b610eb1565b604051610214919061204f565b6102b761054c366004612085565b610f0e565b34801561055d57600080fd5b5061039c61056c366004611e5a565b6001600160a01b03919091166000908152600f60209081526040808320938352929052205490565b3480156105a057600080fd5b506102526105af366004611e25565b611094565b3480156105c057600080fd5b5061039c6111a4565b3480156105d557600080fd5b5061039c6111b4565b3480156105ea57600080fd5b506102086105f93660046120a7565b6001600160a01b03918216600090815260056020908152604080832093909416825291909152205460ff1690565b34801561063357600080fd5b506102b7610642366004611f7c565b6111c5565b60006001600160e01b031982166380ac58cd60e01b148061067857506001600160e01b03198216635b5e139f60e01b145b8061069357506301ffc9a760e01b6001600160e01b03198316145b92915050565b6000600c826040516106ab91906120da565b9081526040519081900360200190205460ff16151560011492915050565b6060600080546106d8906120f6565b80601f0160208091040260200160405190810160405280929190818152602001828054610704906120f6565b80156107515780601f1061072657610100808354040283529160200191610751565b820191906000526020600020905b81548152906001019060200180831161073457829003601f168201915b5050505050905090565b60006107668261123e565b506000908152600460205260409020546001600160a01b031690565b600061078d82610d3a565b9050806001600160a01b0316836001600160a01b0316036107ff5760405162461bcd60e51b815260206004820152602160248201527f4552433732313a20617070726f76616c20746f2063757272656e74206f776e656044820152603960f91b60648201526084015b60405180910390fd5b336001600160a01b038216148061081b575061081b81336105f9565b61088d5760405162461bcd60e51b815260206004820152603e60248201527f4552433732313a20617070726f76652063616c6c6572206973206e6f7420746f60448201527f6b656e206f776e6572206e6f7220617070726f76656420666f7220616c6c000060648201526084016107f6565b610897838361129d565b505050565b60006108a782610d3a565b6001600160a01b0316336001600160a01b0316149050919050565b6108cc338261130b565b6108e85760405162461bcd60e51b81526004016107f690612130565b610897838383611389565b60006108fe82610d3a565b9050336001600160a01b038216146109725760405162461bcd60e51b815260206004820152603160248201527f506c6561736520656e73757265207468617420796f752061726520746865206f6044820152703bb732b91037b3103a3432903a37b5b2b760791b60648201526084016107f6565b6000828152600d602052604090206001015434146109e45760405162461bcd60e51b815260206004820152602960248201527f506c65617365207375626d697420612076616c756520707269636520666f72206044820152683a3432903a37b5b2b760b91b60648201526084016107f6565b6000828152600d60205260409020600201805460ff60a01b19169055610a0a6008611525565b610a15813384611389565b6040516001600160a01b038216903480156108fc02916000818181858888f19350505050158015610897573d6000803e3d6000fd5b61089783838360405180602001604052806000815250610e79565b60606000610a7233610dc1565b905060008167ffffffffffffffff811115610a8f57610a8f611ce1565b604051908082528060200260200182016040528015610ac857816020015b610ab5611c7b565b815260200190600190039081610aad5790505b50905060005b82811015610b7357336000908152600f60209081526040808320848452825280832054808452600d83529281902081516080810183528154815260018201549381019390935260028101546001600160a01b03811692840192909252600160a01b90910460ff16151560608301528451909190859085908110610b5357610b5361217e565b602002602001018190525050508080610b6b906121aa565b915050610ace565b5092915050565b600033610b8b600980546001019055565b610b99600880546001019055565b6000610ba460095490565b9050610bb0828261157c565b610bba8186611596565b610bc48185611629565b6001600c86604051610bd691906120da565b908152604051908190036020019020805491151560ff1990921691909117905591505092915050565b60606000610c0c600a5490565b9050600080610c1a60085490565b905060008167ffffffffffffffff811115610c3757610c37611ce1565b604051908082528060200260200182016040528015610c7057816020015b610c5d611c7b565b815260200190600190039081610c555790505b50905060005b84811015610d31576000610c8982610d9a565b6000818152600d60205260409020600281015491925090600160a01b900460ff1615610d1c5760408051608081018252825481526001830154602082015260028301546001600160a01b03811692820192909252600160a01b90910460ff16151560608201528451859088908110610d0357610d0361217e565b6020908102919091010152610d196001876121c3565b95505b50508080610d29906121aa565b915050610c76565b50949350505050565b6000818152600260205260408120546001600160a01b0316806106935760405162461bcd60e51b8152602060048201526018602482015277115490cdcc8c4e881a5b9d985b1a59081d1bdad95b88125160421b60448201526064016107f6565b6000600a8281548110610daf57610daf61217e565b90600052602060002001549050919050565b60006001600160a01b038216610e2b5760405162461bcd60e51b815260206004820152602960248201527f4552433732313a2061646472657373207a65726f206973206e6f7420612076616044820152683634b21037bbb732b960b91b60648201526084016107f6565b506001600160a01b031660009081526003602052604090205490565b610e4f6116e3565b610e59600061173d565b565b6060600180546106d8906120f6565b610e7533838361178f565b5050565b610e83338361130b565b610e9f5760405162461bcd60e51b81526004016107f690612130565b610eab8484848461185d565b50505050565b610eb9611c7b565b506000908152600d6020908152604091829020825160808101845281548152600182015492810192909252600201546001600160a01b03811692820192909252600160a01b90910460ff161515606082015290565b610f178261089c565b610fba5760405162461bcd60e51b815260206004820152606260248201527f506c65617365206d616b6520737572652074686174207468652063726561746f60448201527f72206f662074686520746f6b656e206973207468652063757272656e74206f7760648201527f6e6572206265666f726520706c6163696e6720746865206e6674206f6e2073616084820152616c6560f01b60a482015260c4016107f6565b6000828152600d6020526040902060020154600160a01b900460ff16151560011461104d5760405162461bcd60e51b815260206004820152603960248201527f506c65617365206d616b65207375726520746861742074686520746f6b656e2060448201527f6973206e6f7420616c7265616479206f6e2073616c652e2e2e0000000000000060648201526084016107f6565b6000828152600d6020526040902060028101805460ff60a01b1916600160a01b17905560010181905561107f60085490565b600003610e7557610e75600880546001019055565b606061109f8261123e565b600082815260066020526040812080546110b8906120f6565b80601f01602080910402602001604051908101604052809291908181526020018280546110e4906120f6565b80156111315780601f1061110657610100808354040283529160200191611131565b820191906000526020600020905b81548152906001019060200180831161111457829003601f168201915b50505050509050600061114f60408051602081019091526000815290565b90508051600003611161575092915050565b81511561119357808260405160200161117b9291906121d6565b60405160208183030381529060405292505050919050565b61119c84611890565b949350505050565b60006111af60095490565b905090565b600a546000906111af9060016121c3565b6111cd6116e3565b6001600160a01b0381166112325760405162461bcd60e51b815260206004820152602660248201527f4f776e61626c653a206e6577206f776e657220697320746865207a65726f206160448201526564647265737360d01b60648201526084016107f6565b61123b8161173d565b50565b6000818152600260205260409020546001600160a01b031661123b5760405162461bcd60e51b8152602060048201526018602482015277115490cdcc8c4e881a5b9d985b1a59081d1bdad95b88125160421b60448201526064016107f6565b600081815260046020526040902080546001600160a01b0319166001600160a01b03841690811790915581906112d282610d3a565b6001600160a01b03167f8c5be1e5ebec7d5bd14f71427d1e84f3dd0314c0f7b2291e5b200ac8c7c3b92560405160405180910390a45050565b60008061131783610d3a565b9050806001600160a01b0316846001600160a01b0316148061135e57506001600160a01b0380821660009081526005602090815260408083209388168352929052205460ff165b8061119c5750836001600160a01b03166113778461075b565b6001600160a01b031614949350505050565b826001600160a01b031661139c82610d3a565b6001600160a01b0316146114005760405162461bcd60e51b815260206004820152602560248201527f4552433732313a207472616e736665722066726f6d20696e636f72726563742060448201526437bbb732b960d91b60648201526084016107f6565b6001600160a01b0382166114625760405162461bcd60e51b8152602060048201526024808201527f4552433732313a207472616e7366657220746f20746865207a65726f206164646044820152637265737360e01b60648201526084016107f6565b61146d60008261129d565b6001600160a01b0383166000908152600360205260408120805460019290611496908490612205565b90915550506001600160a01b03821660009081526003602052604081208054600192906114c49084906121c3565b909155505060008181526002602052604080822080546001600160a01b0319166001600160a01b0386811691821790925591518493918716917fddf252ad1be2c89b69c2b068fc378daa952ba7f163c4a11628f55a4df523b3ef91a4505050565b8054806115745760405162461bcd60e51b815260206004820152601b60248201527f436f756e7465723a2064656372656d656e74206f766572666c6f77000000000060448201526064016107f6565b600019019055565b610e75828260405180602001604052806000815250611904565b6000828152600260205260409020546001600160a01b03166116115760405162461bcd60e51b815260206004820152602e60248201527f45524337323155524953746f726167653a2055524920736574206f66206e6f6e60448201526d32bc34b9ba32b73a103a37b5b2b760911b60648201526084016107f6565b60008281526006602052604090206108978282612266565b60408051608080820183528482526020808301858152338486018181526001606080880182815260008c8152600d88528a90209851895594518883015591516002909701805494511515600160a01b026001600160a81b03199095166001600160a01b0390981697909717939093179095558551888152928301879052948201859052928101929092527f3b4ab3277db321b0645c3c3aa653dd70b098949182249f64b89dce020f966a54910160405180910390a1505050565b6007546001600160a01b03163314610e595760405162461bcd60e51b815260206004820181905260248201527f4f776e61626c653a2063616c6c6572206973206e6f7420746865206f776e657260448201526064016107f6565b600780546001600160a01b038381166001600160a01b0319831681179093556040519116919082907f8be0079c531659141344cd1fd0a4f28419497f9722a3daafe3b4186f6b6457e090600090a35050565b816001600160a01b0316836001600160a01b0316036117f05760405162461bcd60e51b815260206004820152601960248201527f4552433732313a20617070726f766520746f2063616c6c65720000000000000060448201526064016107f6565b6001600160a01b03838116600081815260056020908152604080832094871680845294825291829020805460ff191686151590811790915591519182527f17307eab39ab6107e8899845ad3d59bd9653f200f220920489ca2b5937696c31910160405180910390a3505050565b611868848484611389565b61187484848484611937565b610eab5760405162461bcd60e51b81526004016107f690612326565b606061189b8261123e565b60006118b260408051602081019091526000815290565b905060008151116118d257604051806020016040528060008152506118fd565b806118dc84611a38565b6040516020016118ed9291906121d6565b6040516020818303038152906040525b9392505050565b61190e8383611b39565b61191b6000848484611937565b6108975760405162461bcd60e51b81526004016107f690612326565b60006001600160a01b0384163b15611a2d57604051630a85bd0160e11b81526001600160a01b0385169063150b7a029061197b903390899088908890600401612378565b6020604051808303816000875af19250505080156119b6575060408051601f3d908101601f191682019092526119b3918101906123b5565b60015b611a13573d8080156119e4576040519150601f19603f3d011682016040523d82523d6000602084013e6119e9565b606091505b508051600003611a0b5760405162461bcd60e51b81526004016107f690612326565b805181602001fd5b6001600160e01b031916630a85bd0160e11b14905061119c565b506001949350505050565b606081600003611a5f5750506040805180820190915260018152600360fc1b602082015290565b8160005b8115611a895780611a73816121aa565b9150611a829050600a836123e8565b9150611a63565b60008167ffffffffffffffff811115611aa457611aa4611ce1565b6040519080825280601f01601f191660200182016040528015611ace576020820181803683370190505b5090505b841561119c57611ae3600183612205565b9150611af0600a866123fc565b611afb9060306121c3565b60f81b818381518110611b1057611b1061217e565b60200101906001600160f81b031916908160001a905350611b32600a866123e8565b9450611ad2565b6001600160a01b038216611b8f5760405162461bcd60e51b815260206004820181905260248201527f4552433732313a206d696e7420746f20746865207a65726f206164647265737360448201526064016107f6565b6000818152600260205260409020546001600160a01b031615611bf45760405162461bcd60e51b815260206004820152601c60248201527f4552433732313a20746f6b656e20616c7265616479206d696e7465640000000060448201526064016107f6565b6001600160a01b0382166000908152600360205260408120805460019290611c1d9084906121c3565b909155505060008181526002602052604080822080546001600160a01b0319166001600160a01b03861690811790915590518392907fddf252ad1be2c89b69c2b068fc378daa952ba7f163c4a11628f55a4df523b3ef908290a45050565b6040518060800160405280600081526020016000815260200160006001600160a01b031681526020016000151581525090565b6001600160e01b03198116811461123b57600080fd5b600060208284031215611cd657600080fd5b81356118fd81611cae565b634e487b7160e01b600052604160045260246000fd5b600067ffffffffffffffff80841115611d1257611d12611ce1565b604051601f8501601f19908116603f01168101908282118183101715611d3a57611d3a611ce1565b81604052809350858152868686011115611d5357600080fd5b858560208301376000602087830101525050509392505050565b600082601f830112611d7e57600080fd5b6118fd83833560208501611cf7565b600060208284031215611d9f57600080fd5b813567ffffffffffffffff811115611db657600080fd5b61119c84828501611d6d565b60005b83811015611ddd578181015183820152602001611dc5565b50506000910152565b60008151808452611dfe816020860160208601611dc2565b601f01601f19169290920160200192915050565b6020815260006118fd6020830184611de6565b600060208284031215611e3757600080fd5b5035919050565b80356001600160a01b0381168114611e5557600080fd5b919050565b60008060408385031215611e6d57600080fd5b611e7683611e3e565b946020939093013593505050565b600080600060608486031215611e9957600080fd5b611ea284611e3e565b9250611eb060208501611e3e565b9150604084013590509250925092565b6020808252825182820181905260009190848201906040850190845b81811015611f2b57611f1883855180518252602080820151908301526040808201516001600160a01b0316908301526060908101511515910152565b9284019260809290920191600101611edc565b50909695505050505050565b60008060408385031215611f4a57600080fd5b823567ffffffffffffffff811115611f6157600080fd5b611f6d85828601611d6d565b95602094909401359450505050565b600060208284031215611f8e57600080fd5b6118fd82611e3e565b60008060408385031215611faa57600080fd5b611fb383611e3e565b915060208301358015158114611fc857600080fd5b809150509250929050565b60008060008060808587031215611fe957600080fd5b611ff285611e3e565b935061200060208601611e3e565b925060408501359150606085013567ffffffffffffffff81111561202357600080fd5b8501601f8101871361203457600080fd5b61204387823560208401611cf7565b91505092959194509250565b81518152602080830151908201526040808301516001600160a01b03169082015260608083015115159082015260808101610693565b6000806040838503121561209857600080fd5b50508035926020909101359150565b600080604083850312156120ba57600080fd5b6120c383611e3e565b91506120d160208401611e3e565b90509250929050565b600082516120ec818460208701611dc2565b9190910192915050565b600181811c9082168061210a57607f821691505b60208210810361212a57634e487b7160e01b600052602260045260246000fd5b50919050565b6020808252602e908201527f4552433732313a2063616c6c6572206973206e6f7420746f6b656e206f776e6560408201526d1c881b9bdc88185c1c1c9bdd995960921b606082015260800190565b634e487b7160e01b600052603260045260246000fd5b634e487b7160e01b600052601160045260246000fd5b6000600182016121bc576121bc612194565b5060010190565b8082018082111561069357610693612194565b600083516121e8818460208801611dc2565b8351908301906121fc818360208801611dc2565b01949350505050565b8181038181111561069357610693612194565b601f82111561089757600081815260208120601f850160051c8101602086101561223f5750805b601f850160051c820191505b8181101561225e5782815560010161224b565b505050505050565b815167ffffffffffffffff81111561228057612280611ce1565b6122948161228e84546120f6565b84612218565b602080601f8311600181146122c957600084156122b15750858301515b600019600386901b1c1916600185901b17855561225e565b600085815260208120601f198616915b828110156122f8578886015182559484019460019091019084016122d9565b50858210156123165787850151600019600388901b60f8161c191681555b5050505050600190811b01905550565b60208082526032908201527f4552433732313a207472616e7366657220746f206e6f6e20455243373231526560408201527131b2b4bb32b91034b6b83632b6b2b73a32b960711b606082015260800190565b6001600160a01b03858116825284166020820152604081018390526080606082018190526000906123ab90830184611de6565b9695505050505050565b6000602082840312156123c757600080fd5b81516118fd81611cae565b634e487b7160e01b600052601260045260246000fd5b6000826123f7576123f76123d2565b500490565b60008261240b5761240b6123d2565b50069056fea2646970667358221220d69de613c063d0e8da4c8b89f44763250c897f8c95c1b07a25bf6bde246c7b0564736f6c63430008110033",
  "immutableReferences": {},
  "source": "// SPDX-License-Identifier: MIT\npragma solidity ^0.8.17;\nimport \"../node_modules/@openzeppelin/contracts/token/ERC721/extensions/ERC721URIStorage.sol\";\nimport \"../node_modules/@openzeppelin/contracts/utils/Counters.sol\";\nimport \"../node_modules/@openzeppelin/contracts/token/ERC721/ERC721.sol\";\nimport \"../node_modules/@openzeppelin/contracts/access/Ownable.sol\";\n\n// Interface for the NFT routines to be invoked\ninterface NftRoutines {\n    function mintNftToken(string memory tokenUri, uint256 tokenPrice) external payable returns (uint);\n    function setNftOnSale(uint256 tokenIndex, uint256 newTokenPrice) external payable; // 3. Routine to set the nft on sale\n    function buyNft(uint256 tokenInde) external payable; // Routing to buy the NFT given a token Index and price\n    function checkTokenCreatorIsOwner(uint256 tokenId) external returns (bool);\n}\n\ncontract EventNftMarket is ERC721URIStorage, Ownable, NftRoutines {\n    using Counters for Counters.Counter;\n\n    Counters.Counter private listedTokenItems; // Listed Token Items\n    Counters.Counter private tokenIds; // Number that stores how many token's we have\n\n    uint256[] private listOfNfts; // Store the list of NFTs in an array\n    bool private tokenMinted;\n\n    mapping(string => bool) private usedTokenURIs; // Map string to boolean for checking the used token URis\n    mapping(uint => EventNft) private mappedNftData;\n    mapping(uint => uint) private mappedIdToIndex; // Map an ID to the index of a token\n\n    mapping(address => mapping(uint => uint)) private ownedEventTokens; // Mapping between the address of the owner and an integer that stores the owner tokens ID\n    mapping(uint => uint) private _idToOwnedIndex;\n\n    struct EventNft { // Struct for holding Event NFT data\n        uint256 id;\n        uint256 price;\n        address tokenCreator;\n        bool isTokenListed; // Determines if the token is listed for sale or not\n    }\n\n    // 1. Event for Creating New Ticket nft Data\n    event EventNftCreated (\n        uint id,\n        uint price,\n        address creator,\n        bool isTokenListed\n    );\n\n    // 2. Event For Updating NFT data\n    event EventNftUpdated (\n        uint id,\n        uint newPrice,\n        address newCreator,\n        bool newIsTokenListed\n    );\n\n    constructor() ERC721(\"Event Tickets NFT\", \"ETNFT\") {}\n\n\n    function isTokenNotOnSale(uint256 tokenId) public payable returns (bool) {\n        return mappedNftData[tokenId].isTokenListed == false;\n    }\n\n    function isTokenAlreadyOnSale(uint256 tokenId) public payable returns (bool) {\n         return mappedNftData[tokenId].isTokenListed == true;\n    }\n\n    function getNftTotalSupply() public view returns (uint256) {\n        return listOfNfts.length;\n    }\n\n    function fetchCurrentTokenIds() public view returns (uint256) {\n        return tokenIds.current();\n    }\n\n    // @description: Fetch an NFT token by its index\n    function retrieveTokenByIndex(uint index) public view returns (uint) {\n       return listOfNfts[index];\n    }\n\n\n\n    function mintNftToken(string memory name, uint price) public payable override returns (uint) {        \n        address messageSender = msg.sender;\n\n        tokenIds.increment();\n        listedTokenItems.increment();\n\n        uint newTokenId = tokenIds.current();\n\n        _safeMint(messageSender, newTokenId);\n        _setTokenURI(newTokenId, name); \n\n        createNewNftItem(newTokenId, price);\n        usedTokenURIs[name] = true;\n\n        return newTokenId;\n     \n    }\n\n    function createNewNftItem(uint id, uint price) private {\n       address currentOwner = msg.sender;\n       mappedNftData[id] = EventNft(id, price, currentOwner, true);\n\n       emit EventNftCreated(id, price, msg.sender, true); // Emit new created event\n    }\n\n    function getPriceOfNftToken(uint256 tokenId) public view returns (uint256) {\n        uint currentPrice = mappedNftData[tokenId].price;\n        return currentPrice; // Return the token price of the nFT\n    }\n\n    function buyNft(uint256 tokenId) public payable {\n\n        address currentOwner = ERC721.ownerOf(tokenId);\n        require(msg.sender == currentOwner, \"Please ensure that you are the owner of the token\");\n        require(msg.value == getPriceOfNftToken(tokenId), \"Please submit a value price for the token\");\n\n        mappedNftData[tokenId].isTokenListed = false;         // Now we need to delist it from the struct\n\n        listedTokenItems.decrement(); // Decrement the listed items by 1.\n\n         _transfer(currentOwner, msg.sender, tokenId); // Transfer Ownership of the NFT from the current owner to ms.sender\n         payable(currentOwner).transfer(msg.value);\n    }\n\n    function checkTokenCreatorIsOwner(uint256 tokenId) public view override returns (bool) {\n        return msg.sender == ERC721.ownerOf(tokenId); // The owner of the token ID is equal to the ERC721 invoked routine of the token ID\n    }\n\n    function setNftOnSale(uint256 tokenId, uint256 newTokenPrice) external payable override {\n        require(checkTokenCreatorIsOwner(tokenId), \"Please make sure that the creator of the token is the current owner before placing the nft on sale\");\n        require(isTokenAlreadyOnSale(tokenId), \"Please make sure that the token is not already on sale...\");\n\n        mappedNftData[tokenId].isTokenListed = true;\n        mappedNftData[tokenId].price = newTokenPrice; // Update the new token price\n\n        if(listedTokenItems.current() == 0) { // If the current items on sale is by default 0\n            listedTokenItems.increment();    // Increment Listed Items\n        }\n\n    }\n\n    // @description: Retrieves all of the event ticket NFT's on sale.\n    // @returns: An array of Event NFT Tokens stored in memory\n\n    function fetchAllNftsOnSale() public view returns (EventNft[] memory) {\n        uint totalNftSupply = getNftTotalSupply();\n        uint currentTokenIndex = 0; // Current index of the token\n        \n        uint currentNftItem = listedTokenItems.current();\n\n        EventNft[] memory nftItems = new EventNft[](currentNftItem);\n\n        for(uint256 index = 0; index < totalNftSupply; index++) { // For every token in supply\n\n            uint256 tokenIndex = retrieveTokenByIndex(index); // Get the token at index\n\n            EventNft storage tokenItem = mappedNftData[tokenIndex];\n           \n           if(tokenItem.isTokenListed) { // If the token is listed\n              nftItems[currentTokenIndex] = tokenItem;\n              currentTokenIndex += 1; // Increment number of token indexes\n           }\n\n\n        }\n\n        return nftItems; // Return all of the NFT items\n    }\n\n    // Logic for getting all of the user's owned Event Ticket NFT's\n    // @description Fetch all of the user's owned NFTs\n    // @returns: An array of event nft items\n\n    function fetchAllOwnedNFTs() public view returns(EventNft[] memory) {\n       uint256 currentNftCount = ERC721.balanceOf(msg.sender);\n       EventNft[] memory nftItems = new EventNft[](currentNftCount);\n\n       for(uint256 index = 0; index < currentNftCount; index++) {\n\n         uint256 tokenId = fetchTokenOwner(msg.sender, index);\n\n         EventNft storage nftItem = mappedNftData[tokenId];\n         nftItems[index] = nftItem;\n       }\n\n       return nftItems;\n    }\n\n    function fetchTokenOwner(address tokenOwner, uint256 tokenIndex) public view returns(uint256) {\n        return ownedEventTokens[tokenOwner][tokenIndex];\n    }\n\n    // @description: Return the total supply of event ticket nft's by returning the array length.\n    function fetchTokenSupply() public view returns (uint256) {\n        return listOfNfts.length + 1;\n    }\n\n    function checkTokenExists(string memory tokenURI) public view returns (bool) {\n        return usedTokenURIs[tokenURI] == true;\n    }\n\n    function returnSingleNftItem(uint256 tokenId) public view returns(EventNft memory) {\n        return mappedNftData[tokenId]; // Return the mapped NFT ID to the token ID\n    }\n\n}",
  "sourcePath": "/Users/sabin2000/Documents/ticketblock/frontend/contracts/EventNftMarket.sol",
  "compiler": {
    "name": "solc",
    "version": "0.8.17+commit.8df45f5f.Emscripten.clang"
  },
  "schemaVersion": "3.4.9",
  "updatedAt": "2022-11-02T19:33:03.811Z",
  "networkType": "ethereum",
  "devdoc": {
    "kind": "dev",
    "methods": {
      "approve(address,uint256)": {
        "details": "See {IERC721-approve}."
      },
      "balanceOf(address)": {
        "details": "See {IERC721-balanceOf}."
      },
      "getApproved(uint256)": {
        "details": "See {IERC721-getApproved}."
      },
      "isApprovedForAll(address,address)": {
        "details": "See {IERC721-isApprovedForAll}."
      },
      "name()": {
        "details": "See {IERC721Metadata-name}."
      },
      "owner()": {
        "details": "Returns the address of the current owner."
      },
      "ownerOf(uint256)": {
        "details": "See {IERC721-ownerOf}."
      },
      "renounceOwnership()": {
        "details": "Leaves the contract without owner. It will not be possible to call `onlyOwner` functions anymore. Can only be called by the current owner. NOTE: Renouncing ownership will leave the contract without an owner, thereby removing any functionality that is only available to the owner."
      },
      "safeTransferFrom(address,address,uint256)": {
        "details": "See {IERC721-safeTransferFrom}."
      },
      "safeTransferFrom(address,address,uint256,bytes)": {
        "details": "See {IERC721-safeTransferFrom}."
      },
      "setApprovalForAll(address,bool)": {
        "details": "See {IERC721-setApprovalForAll}."
      },
      "supportsInterface(bytes4)": {
        "details": "See {IERC165-supportsInterface}."
      },
      "symbol()": {
        "details": "See {IERC721Metadata-symbol}."
      },
      "tokenURI(uint256)": {
        "details": "See {IERC721Metadata-tokenURI}."
      },
      "transferFrom(address,address,uint256)": {
        "details": "See {IERC721-transferFrom}."
      },
      "transferOwnership(address)": {
        "details": "Transfers ownership of the contract to a new account (`newOwner`). Can only be called by the current owner."
      }
    },
    "version": 1
  },
  "userdoc": {
    "kind": "user",
    "methods": {},
    "version": 1
  }
}