{
  "contractName": "EventNftMarket",
  "abi": [
    {
      "inputs": [],
      "stateMutability": "nonpayable",
      "type": "constructor"
    },
    {
      "anonymous": false,
      "inputs": [
        {
          "indexed": true,
          "internalType": "address",
          "name": "owner",
          "type": "address"
        },
        {
          "indexed": true,
          "internalType": "address",
          "name": "approved",
          "type": "address"
        },
        {
          "indexed": true,
          "internalType": "uint256",
          "name": "tokenId",
          "type": "uint256"
        }
      ],
      "name": "Approval",
      "type": "event"
    },
    {
      "anonymous": false,
      "inputs": [
        {
          "indexed": true,
          "internalType": "address",
          "name": "owner",
          "type": "address"
        },
        {
          "indexed": true,
          "internalType": "address",
          "name": "operator",
          "type": "address"
        },
        {
          "indexed": false,
          "internalType": "bool",
          "name": "approved",
          "type": "bool"
        }
      ],
      "name": "ApprovalForAll",
      "type": "event"
    },
    {
      "anonymous": false,
      "inputs": [
        {
          "indexed": false,
          "internalType": "uint256",
          "name": "tokenId",
          "type": "uint256"
        },
        {
          "indexed": false,
          "internalType": "string",
          "name": "name",
          "type": "string"
        },
        {
          "indexed": false,
          "internalType": "uint256",
          "name": "price",
          "type": "uint256"
        },
        {
          "indexed": false,
          "internalType": "address",
          "name": "creator",
          "type": "address"
        },
        {
          "indexed": false,
          "internalType": "bool",
          "name": "isListed",
          "type": "bool"
        }
      ],
      "name": "NftItemCreated",
      "type": "event"
    },
    {
      "anonymous": false,
      "inputs": [
        {
          "indexed": false,
          "internalType": "uint256",
          "name": "tokenId",
          "type": "uint256"
        },
        {
          "indexed": false,
          "internalType": "address",
          "name": "newTokenOwner",
          "type": "address"
        },
        {
          "indexed": false,
          "internalType": "string",
          "name": "name",
          "type": "string"
        },
        {
          "indexed": false,
          "internalType": "uint256",
          "name": "price",
          "type": "uint256"
        }
      ],
      "name": "NftPurchased",
      "type": "event"
    },
    {
      "anonymous": false,
      "inputs": [
        {
          "indexed": true,
          "internalType": "address",
          "name": "previousOwner",
          "type": "address"
        },
        {
          "indexed": true,
          "internalType": "address",
          "name": "newOwner",
          "type": "address"
        }
      ],
      "name": "OwnershipTransferred",
      "type": "event"
    },
    {
      "anonymous": false,
      "inputs": [
        {
          "indexed": true,
          "internalType": "address",
          "name": "from",
          "type": "address"
        },
        {
          "indexed": true,
          "internalType": "address",
          "name": "to",
          "type": "address"
        },
        {
          "indexed": true,
          "internalType": "uint256",
          "name": "tokenId",
          "type": "uint256"
        }
      ],
      "name": "Transfer",
      "type": "event"
    },
    {
      "inputs": [
        {
          "internalType": "address",
          "name": "to",
          "type": "address"
        },
        {
          "internalType": "uint256",
          "name": "tokenId",
          "type": "uint256"
        }
      ],
      "name": "approve",
      "outputs": [],
      "stateMutability": "nonpayable",
      "type": "function"
    },
    {
      "inputs": [
        {
          "internalType": "address",
          "name": "owner",
          "type": "address"
        }
      ],
      "name": "balanceOf",
      "outputs": [
        {
          "internalType": "uint256",
          "name": "",
          "type": "uint256"
        }
      ],
      "stateMutability": "view",
      "type": "function",
      "constant": true
    },
    {
      "inputs": [
        {
          "internalType": "uint256",
          "name": "tokenId",
          "type": "uint256"
        }
      ],
      "name": "getApproved",
      "outputs": [
        {
          "internalType": "address",
          "name": "",
          "type": "address"
        }
      ],
      "stateMutability": "view",
      "type": "function",
      "constant": true
    },
    {
      "inputs": [
        {
          "internalType": "address",
          "name": "owner",
          "type": "address"
        },
        {
          "internalType": "address",
          "name": "operator",
          "type": "address"
        }
      ],
      "name": "isApprovedForAll",
      "outputs": [
        {
          "internalType": "bool",
          "name": "",
          "type": "bool"
        }
      ],
      "stateMutability": "view",
      "type": "function",
      "constant": true
    },
    {
      "inputs": [],
      "name": "listingPrice",
      "outputs": [
        {
          "internalType": "uint256",
          "name": "",
          "type": "uint256"
        }
      ],
      "stateMutability": "view",
      "type": "function",
      "constant": true
    },
    {
      "inputs": [],
      "name": "name",
      "outputs": [
        {
          "internalType": "string",
          "name": "",
          "type": "string"
        }
      ],
      "stateMutability": "view",
      "type": "function",
      "constant": true
    },
    {
      "inputs": [
        {
          "internalType": "uint256",
          "name": "",
          "type": "uint256"
        }
      ],
      "name": "newTokenOwner",
      "outputs": [
        {
          "internalType": "address",
          "name": "",
          "type": "address"
        }
      ],
      "stateMutability": "view",
      "type": "function",
      "constant": true
    },
    {
      "inputs": [],
      "name": "owner",
      "outputs": [
        {
          "internalType": "address",
          "name": "",
          "type": "address"
        }
      ],
      "stateMutability": "view",
      "type": "function",
      "constant": true
    },
    {
      "inputs": [
        {
          "internalType": "uint256",
          "name": "tokenId",
          "type": "uint256"
        }
      ],
      "name": "ownerOf",
      "outputs": [
        {
          "internalType": "address",
          "name": "",
          "type": "address"
        }
      ],
      "stateMutability": "view",
      "type": "function",
      "constant": true
    },
    {
      "inputs": [],
      "name": "renounceOwnership",
      "outputs": [],
      "stateMutability": "nonpayable",
      "type": "function"
    },
    {
      "inputs": [
        {
          "internalType": "address",
          "name": "from",
          "type": "address"
        },
        {
          "internalType": "address",
          "name": "to",
          "type": "address"
        },
        {
          "internalType": "uint256",
          "name": "tokenId",
          "type": "uint256"
        }
      ],
      "name": "safeTransferFrom",
      "outputs": [],
      "stateMutability": "nonpayable",
      "type": "function"
    },
    {
      "inputs": [
        {
          "internalType": "address",
          "name": "from",
          "type": "address"
        },
        {
          "internalType": "address",
          "name": "to",
          "type": "address"
        },
        {
          "internalType": "uint256",
          "name": "tokenId",
          "type": "uint256"
        },
        {
          "internalType": "bytes",
          "name": "data",
          "type": "bytes"
        }
      ],
      "name": "safeTransferFrom",
      "outputs": [],
      "stateMutability": "nonpayable",
      "type": "function"
    },
    {
      "inputs": [
        {
          "internalType": "address",
          "name": "operator",
          "type": "address"
        },
        {
          "internalType": "bool",
          "name": "approved",
          "type": "bool"
        }
      ],
      "name": "setApprovalForAll",
      "outputs": [],
      "stateMutability": "nonpayable",
      "type": "function"
    },
    {
      "inputs": [
        {
          "internalType": "bytes4",
          "name": "interfaceId",
          "type": "bytes4"
        }
      ],
      "name": "supportsInterface",
      "outputs": [
        {
          "internalType": "bool",
          "name": "",
          "type": "bool"
        }
      ],
      "stateMutability": "view",
      "type": "function",
      "constant": true
    },
    {
      "inputs": [],
      "name": "symbol",
      "outputs": [
        {
          "internalType": "string",
          "name": "",
          "type": "string"
        }
      ],
      "stateMutability": "view",
      "type": "function",
      "constant": true
    },
    {
      "inputs": [
        {
          "internalType": "uint256",
          "name": "tokenId",
          "type": "uint256"
        }
      ],
      "name": "tokenURI",
      "outputs": [
        {
          "internalType": "string",
          "name": "",
          "type": "string"
        }
      ],
      "stateMutability": "view",
      "type": "function",
      "constant": true
    },
    {
      "inputs": [
        {
          "internalType": "address",
          "name": "from",
          "type": "address"
        },
        {
          "internalType": "address",
          "name": "to",
          "type": "address"
        },
        {
          "internalType": "uint256",
          "name": "tokenId",
          "type": "uint256"
        }
      ],
      "name": "transferFrom",
      "outputs": [],
      "stateMutability": "nonpayable",
      "type": "function"
    },
    {
      "inputs": [
        {
          "internalType": "address",
          "name": "newOwner",
          "type": "address"
        }
      ],
      "name": "transferOwnership",
      "outputs": [],
      "stateMutability": "nonpayable",
      "type": "function"
    },
    {
      "inputs": [
        {
          "internalType": "string",
          "name": "name",
          "type": "string"
        },
        {
          "internalType": "uint256",
          "name": "price",
          "type": "uint256"
        }
      ],
      "name": "mintToken",
      "outputs": [
        {
          "internalType": "uint256",
          "name": "",
          "type": "uint256"
        }
      ],
      "stateMutability": "payable",
      "type": "function",
      "payable": true
    },
    {
      "inputs": [],
      "name": "totalSupply",
      "outputs": [
        {
          "internalType": "uint256",
          "name": "",
          "type": "uint256"
        }
      ],
      "stateMutability": "view",
      "type": "function",
      "constant": true
    },
    {
      "inputs": [
        {
          "internalType": "uint256",
          "name": "index",
          "type": "uint256"
        }
      ],
      "name": "getTokenByIndex",
      "outputs": [
        {
          "internalType": "uint256",
          "name": "",
          "type": "uint256"
        }
      ],
      "stateMutability": "view",
      "type": "function",
      "constant": true
    },
    {
      "inputs": [
        {
          "internalType": "address",
          "name": "owner",
          "type": "address"
        },
        {
          "internalType": "uint256",
          "name": "index",
          "type": "uint256"
        }
      ],
      "name": "getTokenOfOwnerByIndex",
      "outputs": [
        {
          "internalType": "uint256",
          "name": "",
          "type": "uint256"
        }
      ],
      "stateMutability": "view",
      "type": "function",
      "constant": true
    },
    {
      "inputs": [
        {
          "internalType": "uint256",
          "name": "tokenId",
          "type": "uint256"
        }
      ],
      "name": "getNftItem",
      "outputs": [
        {
          "components": [
            {
              "internalType": "uint256",
              "name": "tokenId",
              "type": "uint256"
            },
            {
              "internalType": "string",
              "name": "name",
              "type": "string"
            },
            {
              "internalType": "uint256",
              "name": "price",
              "type": "uint256"
            },
            {
              "internalType": "address",
              "name": "creator",
              "type": "address"
            },
            {
              "internalType": "bool",
              "name": "isListed",
              "type": "bool"
            }
          ],
          "internalType": "struct EventNftMarket.NftItem",
          "name": "",
          "type": "tuple"
        }
      ],
      "stateMutability": "view",
      "type": "function",
      "constant": true
    },
    {
      "inputs": [],
      "name": "getListedItemsCount",
      "outputs": [
        {
          "internalType": "uint256",
          "name": "",
          "type": "uint256"
        }
      ],
      "stateMutability": "view",
      "type": "function",
      "constant": true
    },
    {
      "inputs": [
        {
          "internalType": "uint256",
          "name": "tokenId",
          "type": "uint256"
        }
      ],
      "name": "buyNft",
      "outputs": [],
      "stateMutability": "payable",
      "type": "function",
      "payable": true
    },
    {
      "inputs": [
        {
          "internalType": "uint256",
          "name": "tokenId",
          "type": "uint256"
        },
        {
          "internalType": "string",
          "name": "name",
          "type": "string"
        },
        {
          "internalType": "uint256",
          "name": "newPrice",
          "type": "uint256"
        }
      ],
      "name": "mintNftToken",
      "outputs": [],
      "stateMutability": "payable",
      "type": "function",
      "payable": true
    },
    {
      "inputs": [
        {
          "internalType": "uint256",
          "name": "tokenId",
          "type": "uint256"
        },
        {
          "internalType": "uint256",
          "name": "newPrice",
          "type": "uint256"
        }
      ],
      "name": "setNftOnSale",
      "outputs": [],
      "stateMutability": "payable",
      "type": "function",
      "payable": true
    }
  ],
  "bytecode": "0x60806040526658d15e17628000600a553480156200001c57600080fd5b506040518060400160405280600a815260200169115d995b9d1cc813919560b21b815250604051806040016040528060048152602001631153919560e21b81525081600090816200006e91906200019b565b5060016200007d82826200019b565b5050506200009a62000094620000a060201b60201c565b620000a4565b62000267565b3390565b600780546001600160a01b038381166001600160a01b0319831681179093556040519116919082907f8be0079c531659141344cd1fd0a4f28419497f9722a3daafe3b4186f6b6457e090600090a35050565b634e487b7160e01b600052604160045260246000fd5b600181811c908216806200012157607f821691505b6020821081036200014257634e487b7160e01b600052602260045260246000fd5b50919050565b601f8211156200019657600081815260208120601f850160051c81016020861015620001715750805b601f850160051c820191505b8181101562000192578281556001016200017d565b5050505b505050565b81516001600160401b03811115620001b757620001b7620000f6565b620001cf81620001c884546200010c565b8462000148565b602080601f831160018114620002075760008415620001ee5750858301515b600019600386901b1c1916600185901b17855562000192565b600085815260208120601f198616915b82811015620002385788860151825594840194600190910190840162000217565b5085821015620002575787850151600019600388901b60f8161c191681555b5050505050600190811b01905550565b61212c80620002776000396000f3fe60806040526004361061019c5760003560e01c806370aefa36116100ec578063c046372c1161008a578063c87b56dd11610064578063c87b56dd14610480578063e985e9c5146104a0578063f2fde38b146104e9578063fb3eb45e1461050957600080fd5b8063c046372c14610444578063c3a66a5b14610457578063c78f19f91461046a57600080fd5b806395d89b41116100c657806395d89b41146103cf578063a22cb465146103e4578063ac615f7014610404578063b88d4fde1461042457600080fd5b806370aefa3614610366578063715018a61461039c5780638da5cb5b146103b157600080fd5b8063243adbdd116101595780636352211e116101335780636352211e146102d9578063644b7a43146102f95780636f1a0af51461031957806370a082311461034657600080fd5b8063243adbdd1461029157806333353f48146102a457806342842e0e146102b957600080fd5b806301ffc9a7146101a157806306fdde03146101d6578063081812fc146101f8578063095ea7b31461023057806318160ddd1461025257806323b872dd14610271575b600080fd5b3480156101ad57600080fd5b506101c16101bc366004611966565b61051c565b60405190151581526020015b60405180910390f35b3480156101e257600080fd5b506101eb61056e565b6040516101cd91906119d3565b34801561020457600080fd5b506102186102133660046119e6565b610600565b6040516001600160a01b0390911681526020016101cd565b34801561023c57600080fd5b5061025061024b366004611a1b565b610627565b005b34801561025e57600080fd5b50600b545b6040519081526020016101cd565b34801561027d57600080fd5b5061025061028c366004611a45565b610741565b61025061029f3660046119e6565b610772565b3480156102b057600080fd5b5061026361091d565b3480156102c557600080fd5b506102506102d4366004611a45565b61092d565b3480156102e557600080fd5b506102186102f43660046119e6565b610948565b34801561030557600080fd5b506102636103143660046119e6565b6109a8565b34801561032557600080fd5b506103396103343660046119e6565b6109cf565b6040516101cd9190611a81565b34801561035257600080fd5b50610263610361366004611adb565b610afc565b34801561037257600080fd5b506102186103813660046119e6565b6011602052600090815260409020546001600160a01b031681565b3480156103a857600080fd5b50610250610b82565b3480156103bd57600080fd5b506007546001600160a01b0316610218565b3480156103db57600080fd5b506101eb610b96565b3480156103f057600080fd5b506102506103ff366004611af6565b610ba5565b34801561041057600080fd5b5061026361041f366004611a1b565b610bb4565b34801561043057600080fd5b5061025061043f366004611bbe565b610c2c565b610263610452366004611c5a565b610c64565b610250610465366004611c9f565b610cea565b34801561047657600080fd5b50610263600a5481565b34801561048c57600080fd5b506101eb61049b3660046119e6565b610d21565b3480156104ac57600080fd5b506101c16104bb366004611cc1565b6001600160a01b03918216600090815260056020908152604080832093909416825291909152205460ff1690565b3480156104f557600080fd5b50610250610504366004611adb565b610e31565b610250610517366004611cf4565b610eaa565b60006001600160e01b031982166380ac58cd60e01b148061054d57506001600160e01b03198216635b5e139f60e01b145b8061056857506301ffc9a760e01b6001600160e01b03198316145b92915050565b60606000805461057d90611d44565b80601f01602080910402602001604051908101604052809291908181526020018280546105a990611d44565b80156105f65780601f106105cb576101008083540402835291602001916105f6565b820191906000526020600020905b8154815290600101906020018083116105d957829003601f168201915b5050505050905090565b600061060b82610efd565b506000908152600460205260409020546001600160a01b031690565b600061063282610948565b9050806001600160a01b0316836001600160a01b0316036106a45760405162461bcd60e51b815260206004820152602160248201527f4552433732313a20617070726f76616c20746f2063757272656e74206f776e656044820152603960f91b60648201526084015b60405180910390fd5b336001600160a01b03821614806106c057506106c081336104bb565b6107325760405162461bcd60e51b815260206004820152603e60248201527f4552433732313a20617070726f76652063616c6c6572206973206e6f7420746f60448201527f6b656e206f776e6572206e6f7220617070726f76656420666f7220616c6c0000606482015260840161069b565b61073c8383610f5c565b505050565b61074b3382610fca565b6107675760405162461bcd60e51b815260040161069b90611d7e565b61073c838383611048565b6000818152600d6020526040812060028101546001909101805491929161079890611d44565b80601f01602080910402602001604051908101604052809291908181526020018280546107c490611d44565b80156108115780601f106107e657610100808354040283529160200191610811565b820191906000526020600020905b8154815290600101906020018083116107f457829003601f168201915b50505050509050600061082384610948565b6000858152600d60205260409020600301805460ff60a01b19169055905061084b60086111e4565b61085484610948565b600085815260116020526040902080546001600160a01b0319166001600160a01b039290921691909117905561088b813386611048565b6040516001600160a01b038216903480156108fc02916000818181858888f193505050501580156108c0573d6000803e3d6000fd5b50600084815260116020526040908190205490517fe3c099707a92dd41663e7f3deca1d4a744ad4c34d9d152d4690430448bae422a9161090f9187916001600160a01b03169086908890611dcc565b60405180910390a150505050565b600061092860085490565b905090565b61073c83838360405180602001604052806000815250610c2c565b6000818152600260205260408120546001600160a01b0316806105685760405162461bcd60e51b8152602060048201526018602482015277115490cdcc8c4e881a5b9d985b1a59081d1bdad95b88125160421b604482015260640161069b565b6000600b82815481106109bd576109bd611e07565b90600052602060002001549050919050565b610a0c6040518060a0016040528060008152602001606081526020016000815260200160006001600160a01b031681526020016000151581525090565b600d60008381526020019081526020016000206040518060a001604052908160008201548152602001600182018054610a4490611d44565b80601f0160208091040260200160405190810160405280929190818152602001828054610a7090611d44565b8015610abd5780601f10610a9257610100808354040283529160200191610abd565b820191906000526020600020905b815481529060010190602001808311610aa057829003601f168201915b5050509183525050600282015460208201526003909101546001600160a01b0381166040830152600160a01b900460ff16151560609091015292915050565b60006001600160a01b038216610b665760405162461bcd60e51b815260206004820152602960248201527f4552433732313a2061646472657373207a65726f206973206e6f7420612076616044820152683634b21037bbb732b960b91b606482015260840161069b565b506001600160a01b031660009081526003602052604090205490565b610b8a61123b565b610b946000611295565b565b60606001805461057d90611d44565b610bb03383836112e7565b5050565b6000610bbf83610afc565b8210610c035760405162461bcd60e51b8152602060048201526013602482015272496e646578206f7574206f6620626f756e647360681b604482015260640161069b565b506001600160a01b03919091166000908152600f60209081526040808320938352929052205490565b610c363383610fca565b610c525760405162461bcd60e51b815260040161069b90611d7e565b610c5e848484846113b5565b50505050565b6000610c74600980546001019055565b610c82600880546001019055565b336000610c8e60095490565b9050610c9a82826113e8565b610ca48186611402565b610caf818686611495565b6001600c86604051610cc19190611e1d565b908152604051908190036020019020805491151560ff1990921691909117905591505092915050565b6000828152600d6020526040902060038101805460ff60a01b1916600160a01b179055600201819055610bb0600880546001019055565b6060610d2c82610efd565b60008281526006602052604081208054610d4590611d44565b80601f0160208091040260200160405190810160405280929190818152602001828054610d7190611d44565b8015610dbe5780601f10610d9357610100808354040283529160200191610dbe565b820191906000526020600020905b815481529060010190602001808311610da157829003601f168201915b505050505090506000610ddc60408051602081019091526000815290565b90508051600003610dee575092915050565b815115610e20578082604051602001610e08929190611e39565b60405160208183030381529060405292505050919050565b610e2984611565565b949350505050565b610e3961123b565b6001600160a01b038116610e9e5760405162461bcd60e51b815260206004820152602660248201527f4f776e61626c653a206e6577206f776e657220697320746865207a65726f206160448201526564647265737360d01b606482015260840161069b565b610ea781611295565b50565b6000838152600d6020526040902060038101805460ff60a01b1916600160a01b179055600101610eda8382611eb6565b506000838152600d6020526040902060020181905561073c600880546001019055565b6000818152600260205260409020546001600160a01b0316610ea75760405162461bcd60e51b8152602060048201526018602482015277115490cdcc8c4e881a5b9d985b1a59081d1bdad95b88125160421b604482015260640161069b565b600081815260046020526040902080546001600160a01b0319166001600160a01b0384169081179091558190610f9182610948565b6001600160a01b03167f8c5be1e5ebec7d5bd14f71427d1e84f3dd0314c0f7b2291e5b200ac8c7c3b92560405160405180910390a45050565b600080610fd683610948565b9050806001600160a01b0316846001600160a01b0316148061101d57506001600160a01b0380821660009081526005602090815260408083209388168352929052205460ff165b80610e295750836001600160a01b031661103684610600565b6001600160a01b031614949350505050565b826001600160a01b031661105b82610948565b6001600160a01b0316146110bf5760405162461bcd60e51b815260206004820152602560248201527f4552433732313a207472616e736665722066726f6d20696e636f72726563742060448201526437bbb732b960d91b606482015260840161069b565b6001600160a01b0382166111215760405162461bcd60e51b8152602060048201526024808201527f4552433732313a207472616e7366657220746f20746865207a65726f206164646044820152637265737360e01b606482015260840161069b565b61112c600082610f5c565b6001600160a01b0383166000908152600360205260408120805460019290611155908490611f8c565b90915550506001600160a01b0382166000908152600360205260408120805460019290611183908490611f9f565b909155505060008181526002602052604080822080546001600160a01b0319166001600160a01b0386811691821790925591518493918716917fddf252ad1be2c89b69c2b068fc378daa952ba7f163c4a11628f55a4df523b3ef91a4505050565b8054806112335760405162461bcd60e51b815260206004820152601b60248201527f436f756e7465723a2064656372656d656e74206f766572666c6f770000000000604482015260640161069b565b600019019055565b6007546001600160a01b03163314610b945760405162461bcd60e51b815260206004820181905260248201527f4f776e61626c653a2063616c6c6572206973206e6f7420746865206f776e6572604482015260640161069b565b600780546001600160a01b038381166001600160a01b0319831681179093556040519116919082907f8be0079c531659141344cd1fd0a4f28419497f9722a3daafe3b4186f6b6457e090600090a35050565b816001600160a01b0316836001600160a01b0316036113485760405162461bcd60e51b815260206004820152601960248201527f4552433732313a20617070726f766520746f2063616c6c657200000000000000604482015260640161069b565b6001600160a01b03838116600081815260056020908152604080832094871680845294825291829020805460ff191686151590811790915591519182527f17307eab39ab6107e8899845ad3d59bd9653f200f220920489ca2b5937696c31910160405180910390a3505050565b6113c0848484611048565b6113cc848484846115d9565b610c5e5760405162461bcd60e51b815260040161069b90611fb2565b610bb08282604051806020016040528060008152506116da565b6000828152600260205260409020546001600160a01b031661147d5760405162461bcd60e51b815260206004820152602e60248201527f45524337323155524953746f726167653a2055524920736574206f66206e6f6e60448201526d32bc34b9ba32b73a103a37b5b2b760911b606482015260840161069b565b600082815260066020526040902061073c8282611eb6565b6040805160a081018252848152602080820185815282840185905233606084018190526001608085018190526000898152600d9094529490922083518155905191939091908201906114e79082611eb6565b5060408281015160028301556060830151600390920180546080909401511515600160a01b026001600160a81b03199094166001600160a01b0390931692909217929092179055517faaa9f369270a0a6c67736a819d20d637829db47edef52f4a0c54467b10e5cec09061090f908690869086903390600190612004565b606061157082610efd565b600061158760408051602081019091526000815290565b905060008151116115a757604051806020016040528060008152506115d2565b806115b18461170d565b6040516020016115c2929190611e39565b6040516020818303038152906040525b9392505050565b60006001600160a01b0384163b156116cf57604051630a85bd0160e11b81526001600160a01b0385169063150b7a029061161d903390899088908890600401612045565b6020604051808303816000875af1925050508015611658575060408051601f3d908101601f1916820190925261165591810190612082565b60015b6116b5573d808015611686576040519150601f19603f3d011682016040523d82523d6000602084013e61168b565b606091505b5080516000036116ad5760405162461bcd60e51b815260040161069b90611fb2565b805181602001fd5b6001600160e01b031916630a85bd0160e11b149050610e29565b506001949350505050565b6116e4838361180e565b6116f160008484846115d9565b61073c5760405162461bcd60e51b815260040161069b90611fb2565b6060816000036117345750506040805180820190915260018152600360fc1b602082015290565b8160005b811561175e57806117488161209f565b91506117579050600a836120ce565b9150611738565b60008167ffffffffffffffff81111561177957611779611b32565b6040519080825280601f01601f1916602001820160405280156117a3576020820181803683370190505b5090505b8415610e29576117b8600183611f8c565b91506117c5600a866120e2565b6117d0906030611f9f565b60f81b8183815181106117e5576117e5611e07565b60200101906001600160f81b031916908160001a905350611807600a866120ce565b94506117a7565b6001600160a01b0382166118645760405162461bcd60e51b815260206004820181905260248201527f4552433732313a206d696e7420746f20746865207a65726f2061646472657373604482015260640161069b565b6000818152600260205260409020546001600160a01b0316156118c95760405162461bcd60e51b815260206004820152601c60248201527f4552433732313a20746f6b656e20616c7265616479206d696e74656400000000604482015260640161069b565b6001600160a01b03821660009081526003602052604081208054600192906118f2908490611f9f565b909155505060008181526002602052604080822080546001600160a01b0319166001600160a01b03861690811790915590518392907fddf252ad1be2c89b69c2b068fc378daa952ba7f163c4a11628f55a4df523b3ef908290a45050565b6001600160e01b031981168114610ea757600080fd5b60006020828403121561197857600080fd5b81356115d281611950565b60005b8381101561199e578181015183820152602001611986565b50506000910152565b600081518084526119bf816020860160208601611983565b601f01601f19169290920160200192915050565b6020815260006115d260208301846119a7565b6000602082840312156119f857600080fd5b5035919050565b80356001600160a01b0381168114611a1657600080fd5b919050565b60008060408385031215611a2e57600080fd5b611a37836119ff565b946020939093013593505050565b600080600060608486031215611a5a57600080fd5b611a63846119ff565b9250611a71602085016119ff565b9150604084013590509250925092565b60208152815160208201526000602083015160a06040840152611aa760c08401826119a7565b90506040840151606084015260018060a01b0360608501511660808401526080840151151560a08401528091505092915050565b600060208284031215611aed57600080fd5b6115d2826119ff565b60008060408385031215611b0957600080fd5b611b12836119ff565b915060208301358015158114611b2757600080fd5b809150509250929050565b634e487b7160e01b600052604160045260246000fd5b600067ffffffffffffffff80841115611b6357611b63611b32565b604051601f8501601f19908116603f01168101908282118183101715611b8b57611b8b611b32565b81604052809350858152868686011115611ba457600080fd5b858560208301376000602087830101525050509392505050565b60008060008060808587031215611bd457600080fd5b611bdd856119ff565b9350611beb602086016119ff565b925060408501359150606085013567ffffffffffffffff811115611c0e57600080fd5b8501601f81018713611c1f57600080fd5b611c2e87823560208401611b48565b91505092959194509250565b600082601f830112611c4b57600080fd5b6115d283833560208501611b48565b60008060408385031215611c6d57600080fd5b823567ffffffffffffffff811115611c8457600080fd5b611c9085828601611c3a565b95602094909401359450505050565b60008060408385031215611cb257600080fd5b50508035926020909101359150565b60008060408385031215611cd457600080fd5b611cdd836119ff565b9150611ceb602084016119ff565b90509250929050565b600080600060608486031215611d0957600080fd5b83359250602084013567ffffffffffffffff811115611d2757600080fd5b611d3386828701611c3a565b925050604084013590509250925092565b600181811c90821680611d5857607f821691505b602082108103611d7857634e487b7160e01b600052602260045260246000fd5b50919050565b6020808252602e908201527f4552433732313a2063616c6c6572206973206e6f7420746f6b656e206f776e6560408201526d1c881b9bdc88185c1c1c9bdd995960921b606082015260800190565b8481526001600160a01b0384166020820152608060408201819052600090611df6908301856119a7565b905082606083015295945050505050565b634e487b7160e01b600052603260045260246000fd5b60008251611e2f818460208701611983565b9190910192915050565b60008351611e4b818460208801611983565b835190830190611e5f818360208801611983565b01949350505050565b601f82111561073c57600081815260208120601f850160051c81016020861015611e8f5750805b601f850160051c820191505b81811015611eae57828155600101611e9b565b505050505050565b815167ffffffffffffffff811115611ed057611ed0611b32565b611ee481611ede8454611d44565b84611e68565b602080601f831160018114611f195760008415611f015750858301515b600019600386901b1c1916600185901b178555611eae565b600085815260208120601f198616915b82811015611f4857888601518255948401946001909101908401611f29565b5085821015611f665787850151600019600388901b60f8161c191681555b5050505050600190811b01905550565b634e487b7160e01b600052601160045260246000fd5b8181038181111561056857610568611f76565b8082018082111561056857610568611f76565b60208082526032908201527f4552433732313a207472616e7366657220746f206e6f6e20455243373231526560408201527131b2b4bb32b91034b6b83632b6b2b73a32b960711b606082015260800190565b85815260a06020820152600061201d60a08301876119a7565b6040830195909552506001600160a01b03929092166060830152151560809091015292915050565b6001600160a01b0385811682528416602082015260408101839052608060608201819052600090612078908301846119a7565b9695505050505050565b60006020828403121561209457600080fd5b81516115d281611950565b6000600182016120b1576120b1611f76565b5060010190565b634e487b7160e01b600052601260045260246000fd5b6000826120dd576120dd6120b8565b500490565b6000826120f1576120f16120b8565b50069056fea2646970667358221220a13b26acdfa7365b8c83830564ef52d39ea2efb0e7d03e9c7bf08433e3bf831f64736f6c63430008110033",
  "immutableReferences": {},
  "source": "// SPDX-License-Identifier: MIT\npragma solidity ^0.8.17;\n\nimport \"../node_modules/@openzeppelin/contracts/token/ERC721/extensions/ERC721URIStorage.sol\";\nimport \"../node_modules/@openzeppelin/contracts/utils/Counters.sol\";\nimport \"../node_modules/@openzeppelin/contracts/token/ERC721/ERC721.sol\";\nimport \"../node_modules/@openzeppelin/contracts/access/Ownable.sol\";\n\ncontract EventNftMarket is ERC721URIStorage, Ownable {\n\n    using Counters for Counters.Counter;\n    Counters.Counter private _listedItems;\n    Counters.Counter private _tokenIds; \n\n    uint public listingPrice = 0.025 ether; // For how much we place the NFT on sale\n    uint256[] private _allNfts; // Array of all the NFTS\n\n        // Group Multiple Related Data for the token\n    struct NftItem {\n        uint tokenId; // Token ID\n        string name;\n        uint price; \n\n        address creator; // Creator of the token\n        bool isListed;\n    }\n\n    mapping(string => bool) private _usedTokenURIs;\n    mapping(uint => NftItem) private _idToNftItem;\n    mapping(uint => uint) private _idToNftIndex;\n\n    mapping(address => mapping(uint => uint)) private _ownedTokens; // Mapping between the address of the owner and an integer that stores the owner tokens ID\n    mapping(uint => uint) private _idToOwnedIndex;\n    mapping(uint256 => address) public newTokenOwner;\n\n    event NftItemCreated (\n        uint tokenId,\n        string name,\n        uint price,\n        address creator,\n        bool isListed\n    );\n\n    event NftPurchased (\n        uint tokenId,\n        address newTokenOwner,\n        string name,\n        uint price\n    );\n\n    constructor() ERC721(\"Events NFT\", \"ENFT\") {}\n\n    function mintToken(string memory name, uint price) public payable returns (uint) {\n\n       _tokenIds.increment(); // Increment the Token ID by 1\n       _listedItems.increment(); // Increment number of listed tokens by 1\n\n       address sender = msg.sender; // The address of the sender\n       uint newTokenId = _tokenIds.current(); // Get the current token ID\n\n       _safeMint(sender, newTokenId); // Call the _safeMint function on the sender with the new token id\n       _setTokenURI(newTokenId, name); // Set the new token URI with the token ID\n\n       _createNftItem(newTokenId, name, price); // Create new NFT item after minting it.\n       _usedTokenURIs[name] = true;\n\n       return newTokenId; // Return the new token ID\n    }\n\n    // Returns how many NFTs we have in circulation\n    function totalSupply() public view returns (uint) {\n        return _allNfts.length; \n    }\n\n    // Function to retrieve a particular NFT token by its index.\n    // @returns: The index as an integer\n\n    function getTokenByIndex(uint index) public view returns (uint) {\n        return _allNfts[index]; // Return index of the NFT\n    }\n\n    function getTokenOfOwnerByIndex(address owner, uint index) public view returns (uint) {\n        require(index < ERC721.balanceOf(owner), \"Index out of bounds\");\n\n        return _ownedTokens[owner][index];\n    }\n\n    function getNftItem(uint tokenId) public view returns (NftItem memory) {\n        return _idToNftItem[tokenId];\n    }\n\n    // Function gets a list of items\n    function getListedItemsCount() public view returns (uint) {\n        return _listedItems.current();\n    }\n\n    function buyNft(uint tokenId) public payable { \n\n        uint price = _idToNftItem[tokenId].price; \n        string memory name = _idToNftItem[tokenId].name;\n\n        address owner = ERC721.ownerOf(tokenId);  // Get the owner of the token\n\n        _idToNftItem[tokenId].isListed = false;\n        _listedItems.decrement(); // Delist the token from sale\n        newTokenOwner[tokenId] = ERC721.ownerOf(tokenId);\n        \n        _transfer(owner, msg.sender, tokenId); // Transfer ownership of the token with its associating ID\n        payable(owner).transfer(msg.value); // Transfer the token to the new owner and pay them in ETH\n\n        emit NftPurchased(tokenId, newTokenOwner[tokenId], name, price);\n    }\n\n    // @params: Token ID, Name and Price\n    function mintNftToken(uint tokenId, string memory name, uint newPrice) public payable {\n\n        _idToNftItem[tokenId].isListed = true;\n        \n        _idToNftItem[tokenId].name = name;\n        _idToNftItem[tokenId].price = newPrice; // Set new price\n\n        _listedItems.increment(); // Increment the listed items once we are listing it\n    }  \n\n    // Function to create NFT item. We need to know the token ID and the price\n    function _createNftItem(uint tokenId, string memory name, uint price) private {\n        address sender = msg.sender; // Store the sender address\n\n        _idToNftItem[tokenId] = NftItem(tokenId, name, price, sender, true);\n        emit NftItemCreated(tokenId, name, price, msg.sender, true); // Emit an NFT item created event\n    }\n\n       // Place the NFT for sale function.\n    function setNftOnSale(uint tokenId, uint newPrice) public payable {\n        _idToNftItem[tokenId].isListed = true;\n        _idToNftItem[tokenId].price = newPrice; // Set new price\n\n        _listedItems.increment(); // Increment the listed items once we are listing it\n    }  \n}",
  "sourcePath": "/Users/sabin2000/Documents/ticketblock/frontend/contracts/EventNftMarket.sol",
  "compiler": {
    "name": "solc",
    "version": "0.8.17+commit.8df45f5f.Emscripten.clang"
  },
  "schemaVersion": "3.4.9",
  "updatedAt": "2022-11-07T11:08:03.218Z",
  "networkType": "ethereum",
  "devdoc": {
    "kind": "dev",
    "methods": {
      "approve(address,uint256)": {
        "details": "See {IERC721-approve}."
      },
      "balanceOf(address)": {
        "details": "See {IERC721-balanceOf}."
      },
      "getApproved(uint256)": {
        "details": "See {IERC721-getApproved}."
      },
      "isApprovedForAll(address,address)": {
        "details": "See {IERC721-isApprovedForAll}."
      },
      "name()": {
        "details": "See {IERC721Metadata-name}."
      },
      "owner()": {
        "details": "Returns the address of the current owner."
      },
      "ownerOf(uint256)": {
        "details": "See {IERC721-ownerOf}."
      },
      "renounceOwnership()": {
        "details": "Leaves the contract without owner. It will not be possible to call `onlyOwner` functions anymore. Can only be called by the current owner. NOTE: Renouncing ownership will leave the contract without an owner, thereby removing any functionality that is only available to the owner."
      },
      "safeTransferFrom(address,address,uint256)": {
        "details": "See {IERC721-safeTransferFrom}."
      },
      "safeTransferFrom(address,address,uint256,bytes)": {
        "details": "See {IERC721-safeTransferFrom}."
      },
      "setApprovalForAll(address,bool)": {
        "details": "See {IERC721-setApprovalForAll}."
      },
      "supportsInterface(bytes4)": {
        "details": "See {IERC165-supportsInterface}."
      },
      "symbol()": {
        "details": "See {IERC721Metadata-symbol}."
      },
      "tokenURI(uint256)": {
        "details": "See {IERC721Metadata-tokenURI}."
      },
      "transferFrom(address,address,uint256)": {
        "details": "See {IERC721-transferFrom}."
      },
      "transferOwnership(address)": {
        "details": "Transfers ownership of the contract to a new account (`newOwner`). Can only be called by the current owner."
      }
    },
    "version": 1
  },
  "userdoc": {
    "kind": "user",
    "methods": {},
    "version": 1
  }
}