{
  "contractName": "EventNftMarket",
  "abi": [
    {
      "inputs": [],
      "stateMutability": "nonpayable",
      "type": "constructor"
    },
    {
      "anonymous": false,
      "inputs": [
        {
          "indexed": true,
          "internalType": "address",
          "name": "owner",
          "type": "address"
        },
        {
          "indexed": true,
          "internalType": "address",
          "name": "approved",
          "type": "address"
        },
        {
          "indexed": true,
          "internalType": "uint256",
          "name": "tokenId",
          "type": "uint256"
        }
      ],
      "name": "Approval",
      "type": "event"
    },
    {
      "anonymous": false,
      "inputs": [
        {
          "indexed": true,
          "internalType": "address",
          "name": "owner",
          "type": "address"
        },
        {
          "indexed": true,
          "internalType": "address",
          "name": "operator",
          "type": "address"
        },
        {
          "indexed": false,
          "internalType": "bool",
          "name": "approved",
          "type": "bool"
        }
      ],
      "name": "ApprovalForAll",
      "type": "event"
    },
    {
      "anonymous": false,
      "inputs": [
        {
          "indexed": false,
          "internalType": "uint256",
          "name": "tokenId",
          "type": "uint256"
        },
        {
          "indexed": false,
          "internalType": "string",
          "name": "name",
          "type": "string"
        },
        {
          "indexed": false,
          "internalType": "uint256",
          "name": "price",
          "type": "uint256"
        },
        {
          "indexed": false,
          "internalType": "address",
          "name": "creator",
          "type": "address"
        },
        {
          "indexed": false,
          "internalType": "bool",
          "name": "isListed",
          "type": "bool"
        }
      ],
      "name": "NftItemCreated",
      "type": "event"
    },
    {
      "anonymous": false,
      "inputs": [
        {
          "indexed": false,
          "internalType": "uint256",
          "name": "tokenId",
          "type": "uint256"
        },
        {
          "indexed": false,
          "internalType": "string",
          "name": "name",
          "type": "string"
        },
        {
          "indexed": false,
          "internalType": "uint256",
          "name": "price",
          "type": "uint256"
        }
      ],
      "name": "NftPurchased",
      "type": "event"
    },
    {
      "anonymous": false,
      "inputs": [
        {
          "indexed": true,
          "internalType": "address",
          "name": "previousOwner",
          "type": "address"
        },
        {
          "indexed": true,
          "internalType": "address",
          "name": "newOwner",
          "type": "address"
        }
      ],
      "name": "OwnershipTransferred",
      "type": "event"
    },
    {
      "anonymous": false,
      "inputs": [
        {
          "indexed": true,
          "internalType": "address",
          "name": "from",
          "type": "address"
        },
        {
          "indexed": true,
          "internalType": "address",
          "name": "to",
          "type": "address"
        },
        {
          "indexed": true,
          "internalType": "uint256",
          "name": "tokenId",
          "type": "uint256"
        }
      ],
      "name": "Transfer",
      "type": "event"
    },
    {
      "inputs": [
        {
          "internalType": "address",
          "name": "to",
          "type": "address"
        },
        {
          "internalType": "uint256",
          "name": "tokenId",
          "type": "uint256"
        }
      ],
      "name": "approve",
      "outputs": [],
      "stateMutability": "nonpayable",
      "type": "function"
    },
    {
      "inputs": [
        {
          "internalType": "address",
          "name": "owner",
          "type": "address"
        }
      ],
      "name": "balanceOf",
      "outputs": [
        {
          "internalType": "uint256",
          "name": "",
          "type": "uint256"
        }
      ],
      "stateMutability": "view",
      "type": "function",
      "constant": true
    },
    {
      "inputs": [
        {
          "internalType": "uint256",
          "name": "tokenId",
          "type": "uint256"
        }
      ],
      "name": "getApproved",
      "outputs": [
        {
          "internalType": "address",
          "name": "",
          "type": "address"
        }
      ],
      "stateMutability": "view",
      "type": "function",
      "constant": true
    },
    {
      "inputs": [
        {
          "internalType": "address",
          "name": "owner",
          "type": "address"
        },
        {
          "internalType": "address",
          "name": "operator",
          "type": "address"
        }
      ],
      "name": "isApprovedForAll",
      "outputs": [
        {
          "internalType": "bool",
          "name": "",
          "type": "bool"
        }
      ],
      "stateMutability": "view",
      "type": "function",
      "constant": true
    },
    {
      "inputs": [],
      "name": "listingPrice",
      "outputs": [
        {
          "internalType": "uint256",
          "name": "",
          "type": "uint256"
        }
      ],
      "stateMutability": "view",
      "type": "function",
      "constant": true
    },
    {
      "inputs": [],
      "name": "name",
      "outputs": [
        {
          "internalType": "string",
          "name": "",
          "type": "string"
        }
      ],
      "stateMutability": "view",
      "type": "function",
      "constant": true
    },
    {
      "inputs": [],
      "name": "owner",
      "outputs": [
        {
          "internalType": "address",
          "name": "",
          "type": "address"
        }
      ],
      "stateMutability": "view",
      "type": "function",
      "constant": true
    },
    {
      "inputs": [
        {
          "internalType": "uint256",
          "name": "tokenId",
          "type": "uint256"
        }
      ],
      "name": "ownerOf",
      "outputs": [
        {
          "internalType": "address",
          "name": "",
          "type": "address"
        }
      ],
      "stateMutability": "view",
      "type": "function",
      "constant": true
    },
    {
      "inputs": [],
      "name": "renounceOwnership",
      "outputs": [],
      "stateMutability": "nonpayable",
      "type": "function"
    },
    {
      "inputs": [
        {
          "internalType": "address",
          "name": "from",
          "type": "address"
        },
        {
          "internalType": "address",
          "name": "to",
          "type": "address"
        },
        {
          "internalType": "uint256",
          "name": "tokenId",
          "type": "uint256"
        }
      ],
      "name": "safeTransferFrom",
      "outputs": [],
      "stateMutability": "nonpayable",
      "type": "function"
    },
    {
      "inputs": [
        {
          "internalType": "address",
          "name": "from",
          "type": "address"
        },
        {
          "internalType": "address",
          "name": "to",
          "type": "address"
        },
        {
          "internalType": "uint256",
          "name": "tokenId",
          "type": "uint256"
        },
        {
          "internalType": "bytes",
          "name": "data",
          "type": "bytes"
        }
      ],
      "name": "safeTransferFrom",
      "outputs": [],
      "stateMutability": "nonpayable",
      "type": "function"
    },
    {
      "inputs": [
        {
          "internalType": "address",
          "name": "operator",
          "type": "address"
        },
        {
          "internalType": "bool",
          "name": "approved",
          "type": "bool"
        }
      ],
      "name": "setApprovalForAll",
      "outputs": [],
      "stateMutability": "nonpayable",
      "type": "function"
    },
    {
      "inputs": [
        {
          "internalType": "bytes4",
          "name": "interfaceId",
          "type": "bytes4"
        }
      ],
      "name": "supportsInterface",
      "outputs": [
        {
          "internalType": "bool",
          "name": "",
          "type": "bool"
        }
      ],
      "stateMutability": "view",
      "type": "function",
      "constant": true
    },
    {
      "inputs": [],
      "name": "symbol",
      "outputs": [
        {
          "internalType": "string",
          "name": "",
          "type": "string"
        }
      ],
      "stateMutability": "view",
      "type": "function",
      "constant": true
    },
    {
      "inputs": [
        {
          "internalType": "uint256",
          "name": "tokenId",
          "type": "uint256"
        }
      ],
      "name": "tokenURI",
      "outputs": [
        {
          "internalType": "string",
          "name": "",
          "type": "string"
        }
      ],
      "stateMutability": "view",
      "type": "function",
      "constant": true
    },
    {
      "inputs": [
        {
          "internalType": "address",
          "name": "from",
          "type": "address"
        },
        {
          "internalType": "address",
          "name": "to",
          "type": "address"
        },
        {
          "internalType": "uint256",
          "name": "tokenId",
          "type": "uint256"
        }
      ],
      "name": "transferFrom",
      "outputs": [],
      "stateMutability": "nonpayable",
      "type": "function"
    },
    {
      "inputs": [
        {
          "internalType": "address",
          "name": "newOwner",
          "type": "address"
        }
      ],
      "name": "transferOwnership",
      "outputs": [],
      "stateMutability": "nonpayable",
      "type": "function"
    },
    {
      "inputs": [
        {
          "internalType": "string",
          "name": "name",
          "type": "string"
        },
        {
          "internalType": "uint256",
          "name": "price",
          "type": "uint256"
        }
      ],
      "name": "mintToken",
      "outputs": [
        {
          "internalType": "uint256",
          "name": "",
          "type": "uint256"
        }
      ],
      "stateMutability": "payable",
      "type": "function",
      "payable": true
    },
    {
      "inputs": [],
      "name": "totalSupply",
      "outputs": [
        {
          "internalType": "uint256",
          "name": "",
          "type": "uint256"
        }
      ],
      "stateMutability": "view",
      "type": "function",
      "constant": true
    },
    {
      "inputs": [
        {
          "internalType": "uint256",
          "name": "index",
          "type": "uint256"
        }
      ],
      "name": "getTokenByIndex",
      "outputs": [
        {
          "internalType": "uint256",
          "name": "",
          "type": "uint256"
        }
      ],
      "stateMutability": "view",
      "type": "function",
      "constant": true
    },
    {
      "inputs": [
        {
          "internalType": "address",
          "name": "owner",
          "type": "address"
        },
        {
          "internalType": "uint256",
          "name": "index",
          "type": "uint256"
        }
      ],
      "name": "getTokenOfOwnerByIndex",
      "outputs": [
        {
          "internalType": "uint256",
          "name": "",
          "type": "uint256"
        }
      ],
      "stateMutability": "view",
      "type": "function",
      "constant": true
    },
    {
      "inputs": [
        {
          "internalType": "uint256",
          "name": "tokenId",
          "type": "uint256"
        }
      ],
      "name": "getNftItem",
      "outputs": [
        {
          "components": [
            {
              "internalType": "uint256",
              "name": "tokenId",
              "type": "uint256"
            },
            {
              "internalType": "string",
              "name": "name",
              "type": "string"
            },
            {
              "internalType": "uint256",
              "name": "price",
              "type": "uint256"
            },
            {
              "internalType": "address",
              "name": "creator",
              "type": "address"
            },
            {
              "internalType": "bool",
              "name": "isListed",
              "type": "bool"
            }
          ],
          "internalType": "struct EventNftMarket.NftItem",
          "name": "",
          "type": "tuple"
        }
      ],
      "stateMutability": "view",
      "type": "function",
      "constant": true
    },
    {
      "inputs": [],
      "name": "getListedItemsCount",
      "outputs": [
        {
          "internalType": "uint256",
          "name": "",
          "type": "uint256"
        }
      ],
      "stateMutability": "view",
      "type": "function",
      "constant": true
    },
    {
      "inputs": [
        {
          "internalType": "uint256",
          "name": "tokenId",
          "type": "uint256"
        }
      ],
      "name": "buyNft",
      "outputs": [],
      "stateMutability": "payable",
      "type": "function",
      "payable": true
    },
    {
      "inputs": [
        {
          "internalType": "uint256",
          "name": "tokenId",
          "type": "uint256"
        },
        {
          "internalType": "string",
          "name": "name",
          "type": "string"
        },
        {
          "internalType": "uint256",
          "name": "newPrice",
          "type": "uint256"
        }
      ],
      "name": "mintNftToken",
      "outputs": [],
      "stateMutability": "payable",
      "type": "function",
      "payable": true
    },
    {
      "inputs": [
        {
          "internalType": "uint256",
          "name": "tokenId",
          "type": "uint256"
        },
        {
          "internalType": "uint256",
          "name": "newPrice",
          "type": "uint256"
        }
      ],
      "name": "setNftOnSale",
      "outputs": [],
      "stateMutability": "payable",
      "type": "function",
      "payable": true
    }
  ],
  "bytecode": "0x60806040526658d15e17628000600a553480156200001c57600080fd5b506040518060400160405280600a815260200169115d995b9d1cc813919560b21b815250604051806040016040528060048152602001631153919560e21b81525081600090816200006e91906200019b565b5060016200007d82826200019b565b5050506200009a62000094620000a060201b60201c565b620000a4565b62000267565b3390565b600780546001600160a01b038381166001600160a01b0319831681179093556040519116919082907f8be0079c531659141344cd1fd0a4f28419497f9722a3daafe3b4186f6b6457e090600090a35050565b634e487b7160e01b600052604160045260246000fd5b600181811c908216806200012157607f821691505b6020821081036200014257634e487b7160e01b600052602260045260246000fd5b50919050565b601f8211156200019657600081815260208120601f850160051c81016020861015620001715750805b601f850160051c820191505b8181101562000192578281556001016200017d565b5050505b505050565b81516001600160401b03811115620001b757620001b7620000f6565b620001cf81620001c884546200010c565b8462000148565b602080601f831160018114620002075760008415620001ee5750858301515b600019600386901b1c1916600185901b17855562000192565b600085815260208120601f198616915b82811015620002385788860151825594840194600190910190840162000217565b5085821015620002575787850151600019600388901b60f8161c191681555b5050505050600190811b01905550565b61207980620002776000396000f3fe6080604052600436106101815760003560e01c8063715018a6116100d1578063c046372c1161008a578063c87b56dd11610064578063c87b56dd1461042f578063e985e9c51461044f578063f2fde38b14610498578063fb3eb45e146104b857600080fd5b8063c046372c146103f3578063c3a66a5b14610406578063c78f19f91461041957600080fd5b8063715018a61461034b5780638da5cb5b1461036057806395d89b411461037e578063a22cb46514610393578063ac615f70146103b3578063b88d4fde146103d357600080fd5b8063243adbdd1161013e5780636352211e116101185780636352211e146102be578063644b7a43146102de5780636f1a0af5146102fe57806370a082311461032b57600080fd5b8063243adbdd1461027657806333353f481461028957806342842e0e1461029e57600080fd5b806301ffc9a71461018657806306fdde03146101bb578063081812fc146101dd578063095ea7b31461021557806318160ddd1461023757806323b872dd14610256575b600080fd5b34801561019257600080fd5b506101a66101a13660046118c5565b6104cb565b60405190151581526020015b60405180910390f35b3480156101c757600080fd5b506101d061051d565b6040516101b29190611932565b3480156101e957600080fd5b506101fd6101f8366004611945565b6105af565b6040516001600160a01b0390911681526020016101b2565b34801561022157600080fd5b5061023561023036600461197a565b6105d6565b005b34801561024357600080fd5b50600b545b6040519081526020016101b2565b34801561026257600080fd5b506102356102713660046119a4565b6106f0565b610235610284366004611945565b610721565b34801561029557600080fd5b5061024861087c565b3480156102aa57600080fd5b506102356102b93660046119a4565b61088c565b3480156102ca57600080fd5b506101fd6102d9366004611945565b6108a7565b3480156102ea57600080fd5b506102486102f9366004611945565b610907565b34801561030a57600080fd5b5061031e610319366004611945565b61092e565b6040516101b291906119e0565b34801561033757600080fd5b50610248610346366004611a3a565b610a5b565b34801561035757600080fd5b50610235610ae1565b34801561036c57600080fd5b506007546001600160a01b03166101fd565b34801561038a57600080fd5b506101d0610af5565b34801561039f57600080fd5b506102356103ae366004611a55565b610b04565b3480156103bf57600080fd5b506102486103ce36600461197a565b610b13565b3480156103df57600080fd5b506102356103ee366004611b1d565b610b8b565b610248610401366004611bb9565b610bc3565b610235610414366004611bfe565b610c49565b34801561042557600080fd5b50610248600a5481565b34801561043b57600080fd5b506101d061044a366004611945565b610c80565b34801561045b57600080fd5b506101a661046a366004611c20565b6001600160a01b03918216600090815260056020908152604080832093909416825291909152205460ff1690565b3480156104a457600080fd5b506102356104b3366004611a3a565b610d90565b6102356104c6366004611c53565b610e09565b60006001600160e01b031982166380ac58cd60e01b14806104fc57506001600160e01b03198216635b5e139f60e01b145b8061051757506301ffc9a760e01b6001600160e01b03198316145b92915050565b60606000805461052c90611ca3565b80601f016020809104026020016040519081016040528092919081815260200182805461055890611ca3565b80156105a55780601f1061057a576101008083540402835291602001916105a5565b820191906000526020600020905b81548152906001019060200180831161058857829003601f168201915b5050505050905090565b60006105ba82610e5c565b506000908152600460205260409020546001600160a01b031690565b60006105e1826108a7565b9050806001600160a01b0316836001600160a01b0316036106535760405162461bcd60e51b815260206004820152602160248201527f4552433732313a20617070726f76616c20746f2063757272656e74206f776e656044820152603960f91b60648201526084015b60405180910390fd5b336001600160a01b038216148061066f575061066f813361046a565b6106e15760405162461bcd60e51b815260206004820152603e60248201527f4552433732313a20617070726f76652063616c6c6572206973206e6f7420746f60448201527f6b656e206f776e6572206e6f7220617070726f76656420666f7220616c6c0000606482015260840161064a565b6106eb8383610ebb565b505050565b6106fa3382610f29565b6107165760405162461bcd60e51b815260040161064a90611cdd565b6106eb838383610fa7565b6000818152600d6020526040812060028101546001909101805491929161074790611ca3565b80601f016020809104026020016040519081016040528092919081815260200182805461077390611ca3565b80156107c05780601f10610795576101008083540402835291602001916107c0565b820191906000526020600020905b8154815290600101906020018083116107a357829003601f168201915b5050505050905060006107d2846108a7565b6000858152600d60205260409020600301805460ff60a01b1916905590506107fa6008611143565b610805813386610fa7565b6040516001600160a01b038216903480156108fc02916000818181858888f1935050505015801561083a573d6000803e3d6000fd5b507fb7b1fc725e390be709331b55df67e032cd2795b00b4aba81b7a2fd98765572f184838560405161086e93929190611d2b565b60405180910390a150505050565b600061088760085490565b905090565b6106eb83838360405180602001604052806000815250610b8b565b6000818152600260205260408120546001600160a01b0316806105175760405162461bcd60e51b8152602060048201526018602482015277115490cdcc8c4e881a5b9d985b1a59081d1bdad95b88125160421b604482015260640161064a565b6000600b828154811061091c5761091c611d54565b90600052602060002001549050919050565b61096b6040518060a0016040528060008152602001606081526020016000815260200160006001600160a01b031681526020016000151581525090565b600d60008381526020019081526020016000206040518060a0016040529081600082015481526020016001820180546109a390611ca3565b80601f01602080910402602001604051908101604052809291908181526020018280546109cf90611ca3565b8015610a1c5780601f106109f157610100808354040283529160200191610a1c565b820191906000526020600020905b8154815290600101906020018083116109ff57829003601f168201915b5050509183525050600282015460208201526003909101546001600160a01b0381166040830152600160a01b900460ff16151560609091015292915050565b60006001600160a01b038216610ac55760405162461bcd60e51b815260206004820152602960248201527f4552433732313a2061646472657373207a65726f206973206e6f7420612076616044820152683634b21037bbb732b960b91b606482015260840161064a565b506001600160a01b031660009081526003602052604090205490565b610ae961119a565b610af360006111f4565b565b60606001805461052c90611ca3565b610b0f338383611246565b5050565b6000610b1e83610a5b565b8210610b625760405162461bcd60e51b8152602060048201526013602482015272496e646578206f7574206f6620626f756e647360681b604482015260640161064a565b506001600160a01b03919091166000908152600f60209081526040808320938352929052205490565b610b953383610f29565b610bb15760405162461bcd60e51b815260040161064a90611cdd565b610bbd84848484611314565b50505050565b6000610bd3600980546001019055565b610be1600880546001019055565b336000610bed60095490565b9050610bf98282611347565b610c038186611361565b610c0e8186866113f4565b6001600c86604051610c209190611d6a565b908152604051908190036020019020805491151560ff1990921691909117905591505092915050565b6000828152600d6020526040902060038101805460ff60a01b1916600160a01b179055600201819055610b0f600880546001019055565b6060610c8b82610e5c565b60008281526006602052604081208054610ca490611ca3565b80601f0160208091040260200160405190810160405280929190818152602001828054610cd090611ca3565b8015610d1d5780601f10610cf257610100808354040283529160200191610d1d565b820191906000526020600020905b815481529060010190602001808311610d0057829003601f168201915b505050505090506000610d3b60408051602081019091526000815290565b90508051600003610d4d575092915050565b815115610d7f578082604051602001610d67929190611d86565b60405160208183030381529060405292505050919050565b610d88846114c4565b949350505050565b610d9861119a565b6001600160a01b038116610dfd5760405162461bcd60e51b815260206004820152602660248201527f4f776e61626c653a206e6577206f776e657220697320746865207a65726f206160448201526564647265737360d01b606482015260840161064a565b610e06816111f4565b50565b6000838152600d6020526040902060038101805460ff60a01b1916600160a01b179055600101610e398382611e03565b506000838152600d602052604090206002018190556106eb600880546001019055565b6000818152600260205260409020546001600160a01b0316610e065760405162461bcd60e51b8152602060048201526018602482015277115490cdcc8c4e881a5b9d985b1a59081d1bdad95b88125160421b604482015260640161064a565b600081815260046020526040902080546001600160a01b0319166001600160a01b0384169081179091558190610ef0826108a7565b6001600160a01b03167f8c5be1e5ebec7d5bd14f71427d1e84f3dd0314c0f7b2291e5b200ac8c7c3b92560405160405180910390a45050565b600080610f35836108a7565b9050806001600160a01b0316846001600160a01b03161480610f7c57506001600160a01b0380821660009081526005602090815260408083209388168352929052205460ff165b80610d885750836001600160a01b0316610f95846105af565b6001600160a01b031614949350505050565b826001600160a01b0316610fba826108a7565b6001600160a01b03161461101e5760405162461bcd60e51b815260206004820152602560248201527f4552433732313a207472616e736665722066726f6d20696e636f72726563742060448201526437bbb732b960d91b606482015260840161064a565b6001600160a01b0382166110805760405162461bcd60e51b8152602060048201526024808201527f4552433732313a207472616e7366657220746f20746865207a65726f206164646044820152637265737360e01b606482015260840161064a565b61108b600082610ebb565b6001600160a01b03831660009081526003602052604081208054600192906110b4908490611ed9565b90915550506001600160a01b03821660009081526003602052604081208054600192906110e2908490611eec565b909155505060008181526002602052604080822080546001600160a01b0319166001600160a01b0386811691821790925591518493918716917fddf252ad1be2c89b69c2b068fc378daa952ba7f163c4a11628f55a4df523b3ef91a4505050565b8054806111925760405162461bcd60e51b815260206004820152601b60248201527f436f756e7465723a2064656372656d656e74206f766572666c6f770000000000604482015260640161064a565b600019019055565b6007546001600160a01b03163314610af35760405162461bcd60e51b815260206004820181905260248201527f4f776e61626c653a2063616c6c6572206973206e6f7420746865206f776e6572604482015260640161064a565b600780546001600160a01b038381166001600160a01b0319831681179093556040519116919082907f8be0079c531659141344cd1fd0a4f28419497f9722a3daafe3b4186f6b6457e090600090a35050565b816001600160a01b0316836001600160a01b0316036112a75760405162461bcd60e51b815260206004820152601960248201527f4552433732313a20617070726f766520746f2063616c6c657200000000000000604482015260640161064a565b6001600160a01b03838116600081815260056020908152604080832094871680845294825291829020805460ff191686151590811790915591519182527f17307eab39ab6107e8899845ad3d59bd9653f200f220920489ca2b5937696c31910160405180910390a3505050565b61131f848484610fa7565b61132b84848484611538565b610bbd5760405162461bcd60e51b815260040161064a90611eff565b610b0f828260405180602001604052806000815250611639565b6000828152600260205260409020546001600160a01b03166113dc5760405162461bcd60e51b815260206004820152602e60248201527f45524337323155524953746f726167653a2055524920736574206f66206e6f6e60448201526d32bc34b9ba32b73a103a37b5b2b760911b606482015260840161064a565b60008281526006602052604090206106eb8282611e03565b6040805160a081018252848152602080820185815282840185905233606084018190526001608085018190526000898152600d9094529490922083518155905191939091908201906114469082611e03565b5060408281015160028301556060830151600390920180546080909401511515600160a01b026001600160a81b03199094166001600160a01b0390931692909217929092179055517faaa9f369270a0a6c67736a819d20d637829db47edef52f4a0c54467b10e5cec09061086e908690869086903390600190611f51565b60606114cf82610e5c565b60006114e660408051602081019091526000815290565b905060008151116115065760405180602001604052806000815250611531565b806115108461166c565b604051602001611521929190611d86565b6040516020818303038152906040525b9392505050565b60006001600160a01b0384163b1561162e57604051630a85bd0160e11b81526001600160a01b0385169063150b7a029061157c903390899088908890600401611f92565b6020604051808303816000875af19250505080156115b7575060408051601f3d908101601f191682019092526115b491810190611fcf565b60015b611614573d8080156115e5576040519150601f19603f3d011682016040523d82523d6000602084013e6115ea565b606091505b50805160000361160c5760405162461bcd60e51b815260040161064a90611eff565b805181602001fd5b6001600160e01b031916630a85bd0160e11b149050610d88565b506001949350505050565b611643838361176d565b6116506000848484611538565b6106eb5760405162461bcd60e51b815260040161064a90611eff565b6060816000036116935750506040805180820190915260018152600360fc1b602082015290565b8160005b81156116bd57806116a781611fec565b91506116b69050600a8361201b565b9150611697565b60008167ffffffffffffffff8111156116d8576116d8611a91565b6040519080825280601f01601f191660200182016040528015611702576020820181803683370190505b5090505b8415610d8857611717600183611ed9565b9150611724600a8661202f565b61172f906030611eec565b60f81b81838151811061174457611744611d54565b60200101906001600160f81b031916908160001a905350611766600a8661201b565b9450611706565b6001600160a01b0382166117c35760405162461bcd60e51b815260206004820181905260248201527f4552433732313a206d696e7420746f20746865207a65726f2061646472657373604482015260640161064a565b6000818152600260205260409020546001600160a01b0316156118285760405162461bcd60e51b815260206004820152601c60248201527f4552433732313a20746f6b656e20616c7265616479206d696e74656400000000604482015260640161064a565b6001600160a01b0382166000908152600360205260408120805460019290611851908490611eec565b909155505060008181526002602052604080822080546001600160a01b0319166001600160a01b03861690811790915590518392907fddf252ad1be2c89b69c2b068fc378daa952ba7f163c4a11628f55a4df523b3ef908290a45050565b6001600160e01b031981168114610e0657600080fd5b6000602082840312156118d757600080fd5b8135611531816118af565b60005b838110156118fd5781810151838201526020016118e5565b50506000910152565b6000815180845261191e8160208601602086016118e2565b601f01601f19169290920160200192915050565b6020815260006115316020830184611906565b60006020828403121561195757600080fd5b5035919050565b80356001600160a01b038116811461197557600080fd5b919050565b6000806040838503121561198d57600080fd5b6119968361195e565b946020939093013593505050565b6000806000606084860312156119b957600080fd5b6119c28461195e565b92506119d06020850161195e565b9150604084013590509250925092565b60208152815160208201526000602083015160a06040840152611a0660c0840182611906565b90506040840151606084015260018060a01b0360608501511660808401526080840151151560a08401528091505092915050565b600060208284031215611a4c57600080fd5b6115318261195e565b60008060408385031215611a6857600080fd5b611a718361195e565b915060208301358015158114611a8657600080fd5b809150509250929050565b634e487b7160e01b600052604160045260246000fd5b600067ffffffffffffffff80841115611ac257611ac2611a91565b604051601f8501601f19908116603f01168101908282118183101715611aea57611aea611a91565b81604052809350858152868686011115611b0357600080fd5b858560208301376000602087830101525050509392505050565b60008060008060808587031215611b3357600080fd5b611b3c8561195e565b9350611b4a6020860161195e565b925060408501359150606085013567ffffffffffffffff811115611b6d57600080fd5b8501601f81018713611b7e57600080fd5b611b8d87823560208401611aa7565b91505092959194509250565b600082601f830112611baa57600080fd5b61153183833560208501611aa7565b60008060408385031215611bcc57600080fd5b823567ffffffffffffffff811115611be357600080fd5b611bef85828601611b99565b95602094909401359450505050565b60008060408385031215611c1157600080fd5b50508035926020909101359150565b60008060408385031215611c3357600080fd5b611c3c8361195e565b9150611c4a6020840161195e565b90509250929050565b600080600060608486031215611c6857600080fd5b83359250602084013567ffffffffffffffff811115611c8657600080fd5b611c9286828701611b99565b925050604084013590509250925092565b600181811c90821680611cb757607f821691505b602082108103611cd757634e487b7160e01b600052602260045260246000fd5b50919050565b6020808252602e908201527f4552433732313a2063616c6c6572206973206e6f7420746f6b656e206f776e6560408201526d1c881b9bdc88185c1c1c9bdd995960921b606082015260800190565b838152606060208201526000611d446060830185611906565b9050826040830152949350505050565b634e487b7160e01b600052603260045260246000fd5b60008251611d7c8184602087016118e2565b9190910192915050565b60008351611d988184602088016118e2565b835190830190611dac8183602088016118e2565b01949350505050565b601f8211156106eb57600081815260208120601f850160051c81016020861015611ddc5750805b601f850160051c820191505b81811015611dfb57828155600101611de8565b505050505050565b815167ffffffffffffffff811115611e1d57611e1d611a91565b611e3181611e2b8454611ca3565b84611db5565b602080601f831160018114611e665760008415611e4e5750858301515b600019600386901b1c1916600185901b178555611dfb565b600085815260208120601f198616915b82811015611e9557888601518255948401946001909101908401611e76565b5085821015611eb35787850151600019600388901b60f8161c191681555b5050505050600190811b01905550565b634e487b7160e01b600052601160045260246000fd5b8181038181111561051757610517611ec3565b8082018082111561051757610517611ec3565b60208082526032908201527f4552433732313a207472616e7366657220746f206e6f6e20455243373231526560408201527131b2b4bb32b91034b6b83632b6b2b73a32b960711b606082015260800190565b85815260a060208201526000611f6a60a0830187611906565b6040830195909552506001600160a01b03929092166060830152151560809091015292915050565b6001600160a01b0385811682528416602082015260408101839052608060608201819052600090611fc590830184611906565b9695505050505050565b600060208284031215611fe157600080fd5b8151611531816118af565b600060018201611ffe57611ffe611ec3565b5060010190565b634e487b7160e01b600052601260045260246000fd5b60008261202a5761202a612005565b500490565b60008261203e5761203e612005565b50069056fea2646970667358221220e1d06a4fa2104824583948d05e9127e472d26886f6c788602d05e2b9ef7701eb64736f6c63430008110033",
  "immutableReferences": {},
  "source": "// SPDX-License-Identifier: MIT\npragma solidity ^0.8.17;\n\nimport \"../node_modules/@openzeppelin/contracts/token/ERC721/extensions/ERC721URIStorage.sol\";\nimport \"../node_modules/@openzeppelin/contracts/utils/Counters.sol\";\nimport \"../node_modules/@openzeppelin/contracts/token/ERC721/ERC721.sol\";\nimport \"../node_modules/@openzeppelin/contracts/access/Ownable.sol\";\n\ncontract EventNftMarket is ERC721URIStorage, Ownable {\n\n    using Counters for Counters.Counter;\n    Counters.Counter private _listedItems;\n    Counters.Counter private _tokenIds; \n\n    uint public listingPrice = 0.025 ether; // For how much we place the NFT on sale\n    uint256[] private _allNfts; // Array of all the NFTS\n\n        // Group Multiple Related Data for the token\n    struct NftItem {\n        uint tokenId; // Token ID\n        string name;\n        uint price; \n\n        address creator; // Creator of the token\n        bool isListed;\n    }\n\n    mapping(string => bool) private _usedTokenURIs;\n    mapping(uint => NftItem) private _idToNftItem;\n    mapping(uint => uint) private _idToNftIndex;\n\n    mapping(address => mapping(uint => uint)) private _ownedTokens; // Mapping between the address of the owner and an integer that stores the owner tokens ID\n    mapping(uint => uint) private _idToOwnedIndex;\n\n    event NftItemCreated (\n        uint tokenId,\n        string name,\n        uint price,\n        address creator,\n        bool isListed\n    );\n\n    event NftPurchased (\n        uint tokenId,\n        string name,\n        uint price\n    );\n\n    constructor() ERC721(\"Events NFT\", \"ENFT\") {}\n\n    function mintToken(string memory name, uint price) public payable returns (uint) {\n\n       _tokenIds.increment(); // Increment the Token ID by 1\n       _listedItems.increment(); // Increment number of listed tokens by 1\n\n       address sender = msg.sender; // The address of the sender\n       uint newTokenId = _tokenIds.current(); // Get the current token ID\n\n       _safeMint(sender, newTokenId); // Call the _safeMint function on the sender with the new token id\n       _setTokenURI(newTokenId, name); // Set the new token URI with the token ID\n\n       _createNftItem(newTokenId, name, price); // Create new NFT item after minting it.\n       _usedTokenURIs[name] = true;\n\n       return newTokenId; // Return the new token ID\n    }\n\n    // Returns how many NFTs we have in circulation\n    function totalSupply() public view returns (uint) {\n        return _allNfts.length; \n    }\n\n    // Function to retrieve a particular NFT token by its index.\n    // @returns: The index as an integer\n\n    function getTokenByIndex(uint index) public view returns (uint) {\n        return _allNfts[index]; // Return index of the NFT\n    }\n\n    function getTokenOfOwnerByIndex(address owner, uint index) public view returns (uint) {\n        require(index < ERC721.balanceOf(owner), \"Index out of bounds\");\n\n        return _ownedTokens[owner][index];\n    }\n\n    function getNftItem(uint tokenId) public view returns (NftItem memory) {\n        return _idToNftItem[tokenId];\n    }\n\n    // Function gets a list of items\n    function getListedItemsCount() public view returns (uint) {\n        return _listedItems.current();\n    }\n\n    function buyNft(uint tokenId) public payable { // Function to buy NFT. The function payable which means the user must pay ether to invoke the function\n        uint price = _idToNftItem[tokenId].price; // Get the price of the item\n        string memory name = _idToNftItem[tokenId].name;\n\n        address owner = ERC721.ownerOf(tokenId); // Get the owner of the token using ownerOf\n\n        _idToNftItem[tokenId].isListed = false; // Token is no longer listed\n        _listedItems.decrement(); // Decrement the value\n        \n        _transfer(owner, msg.sender, tokenId); // Transfer Ownership of the NFT and pay the NFT owner\n        payable(owner).transfer(msg.value);\n\n        emit NftPurchased(tokenId, name, price);\n    }\n\n    // Place the NFT for sale function.\n    function mintNftToken(uint tokenId, string memory name, uint newPrice) public payable {\n\n        _idToNftItem[tokenId].isListed = true;\n        \n        _idToNftItem[tokenId].name = name;\n        _idToNftItem[tokenId].price = newPrice; // Set new price\n\n        _listedItems.increment(); // Increment the listed items once we are listing it\n    }  \n\n    // Function to create NFT item. We need to know the token ID and the price\n    function _createNftItem(uint tokenId, string memory name, uint price) private {\n        address sender = msg.sender; // Store the sender address\n\n        _idToNftItem[tokenId] = NftItem(tokenId, name, price, sender, true);\n        emit NftItemCreated(tokenId, name, price, msg.sender, true); // Emit an NFT item created event\n\n    }\n\n       // Place the NFT for sale function.\n    function setNftOnSale(uint tokenId, uint newPrice) public payable {\n        _idToNftItem[tokenId].isListed = true;\n        _idToNftItem[tokenId].price = newPrice; // Set new price\n\n        _listedItems.increment(); // Increment the listed items once we are listing it\n    }  \n}",
  "sourcePath": "/Users/sabin2000/Documents/ticketblock/frontend/contracts/EventNftMarket.sol",
  "compiler": {
    "name": "solc",
    "version": "0.8.17+commit.8df45f5f.Emscripten.clang"
  },
  "schemaVersion": "3.4.9",
  "updatedAt": "2022-11-07T09:46:25.825Z",
  "networkType": "ethereum",
  "devdoc": {
    "kind": "dev",
    "methods": {
      "approve(address,uint256)": {
        "details": "See {IERC721-approve}."
      },
      "balanceOf(address)": {
        "details": "See {IERC721-balanceOf}."
      },
      "getApproved(uint256)": {
        "details": "See {IERC721-getApproved}."
      },
      "isApprovedForAll(address,address)": {
        "details": "See {IERC721-isApprovedForAll}."
      },
      "name()": {
        "details": "See {IERC721Metadata-name}."
      },
      "owner()": {
        "details": "Returns the address of the current owner."
      },
      "ownerOf(uint256)": {
        "details": "See {IERC721-ownerOf}."
      },
      "renounceOwnership()": {
        "details": "Leaves the contract without owner. It will not be possible to call `onlyOwner` functions anymore. Can only be called by the current owner. NOTE: Renouncing ownership will leave the contract without an owner, thereby removing any functionality that is only available to the owner."
      },
      "safeTransferFrom(address,address,uint256)": {
        "details": "See {IERC721-safeTransferFrom}."
      },
      "safeTransferFrom(address,address,uint256,bytes)": {
        "details": "See {IERC721-safeTransferFrom}."
      },
      "setApprovalForAll(address,bool)": {
        "details": "See {IERC721-setApprovalForAll}."
      },
      "supportsInterface(bytes4)": {
        "details": "See {IERC165-supportsInterface}."
      },
      "symbol()": {
        "details": "See {IERC721Metadata-symbol}."
      },
      "tokenURI(uint256)": {
        "details": "See {IERC721Metadata-tokenURI}."
      },
      "transferFrom(address,address,uint256)": {
        "details": "See {IERC721-transferFrom}."
      },
      "transferOwnership(address)": {
        "details": "Transfers ownership of the contract to a new account (`newOwner`). Can only be called by the current owner."
      }
    },
    "version": 1
  },
  "userdoc": {
    "kind": "user",
    "methods": {},
    "version": 1
  }
}