{
  "contractName": "EventNftMarket",
  "abi": [
    {
      "inputs": [],
      "stateMutability": "nonpayable",
      "type": "constructor"
    },
    {
      "anonymous": false,
      "inputs": [
        {
          "indexed": true,
          "internalType": "address",
          "name": "owner",
          "type": "address"
        },
        {
          "indexed": true,
          "internalType": "address",
          "name": "approved",
          "type": "address"
        },
        {
          "indexed": true,
          "internalType": "uint256",
          "name": "tokenId",
          "type": "uint256"
        }
      ],
      "name": "Approval",
      "type": "event"
    },
    {
      "anonymous": false,
      "inputs": [
        {
          "indexed": true,
          "internalType": "address",
          "name": "owner",
          "type": "address"
        },
        {
          "indexed": true,
          "internalType": "address",
          "name": "operator",
          "type": "address"
        },
        {
          "indexed": false,
          "internalType": "bool",
          "name": "approved",
          "type": "bool"
        }
      ],
      "name": "ApprovalForAll",
      "type": "event"
    },
    {
      "anonymous": false,
      "inputs": [
        {
          "indexed": false,
          "internalType": "uint256",
          "name": "id",
          "type": "uint256"
        },
        {
          "indexed": false,
          "internalType": "uint256",
          "name": "price",
          "type": "uint256"
        },
        {
          "indexed": false,
          "internalType": "string",
          "name": "name",
          "type": "string"
        },
        {
          "indexed": false,
          "internalType": "address",
          "name": "creator",
          "type": "address"
        },
        {
          "indexed": false,
          "internalType": "bool",
          "name": "isTokenListed",
          "type": "bool"
        }
      ],
      "name": "EventNftCreated",
      "type": "event"
    },
    {
      "anonymous": false,
      "inputs": [
        {
          "indexed": false,
          "internalType": "uint256",
          "name": "id",
          "type": "uint256"
        },
        {
          "indexed": false,
          "internalType": "uint256",
          "name": "newPrice",
          "type": "uint256"
        },
        {
          "indexed": false,
          "internalType": "address",
          "name": "newCreator",
          "type": "address"
        },
        {
          "indexed": false,
          "internalType": "bool",
          "name": "newIsTokenListed",
          "type": "bool"
        }
      ],
      "name": "EventNftUpdated",
      "type": "event"
    },
    {
      "anonymous": false,
      "inputs": [
        {
          "components": [
            {
              "internalType": "uint256",
              "name": "id",
              "type": "uint256"
            },
            {
              "internalType": "string",
              "name": "name",
              "type": "string"
            },
            {
              "internalType": "uint256",
              "name": "price",
              "type": "uint256"
            },
            {
              "internalType": "address",
              "name": "tokenCreator",
              "type": "address"
            },
            {
              "internalType": "bool",
              "name": "isTokenListed",
              "type": "bool"
            }
          ],
          "indexed": false,
          "internalType": "struct EventNftMarket.EventNft[]",
          "name": "nfts",
          "type": "tuple[]"
        }
      ],
      "name": "FetchNfts",
      "type": "event"
    },
    {
      "anonymous": false,
      "inputs": [
        {
          "indexed": false,
          "internalType": "uint256",
          "name": "id",
          "type": "uint256"
        },
        {
          "indexed": false,
          "internalType": "bool",
          "name": "isTokenListed",
          "type": "bool"
        },
        {
          "indexed": false,
          "internalType": "address",
          "name": "currentOwner",
          "type": "address"
        },
        {
          "indexed": false,
          "internalType": "string",
          "name": "name",
          "type": "string"
        },
        {
          "indexed": false,
          "internalType": "uint256",
          "name": "price",
          "type": "uint256"
        }
      ],
      "name": "NftPurchased",
      "type": "event"
    },
    {
      "anonymous": false,
      "inputs": [
        {
          "indexed": true,
          "internalType": "address",
          "name": "previousOwner",
          "type": "address"
        },
        {
          "indexed": true,
          "internalType": "address",
          "name": "newOwner",
          "type": "address"
        }
      ],
      "name": "OwnershipTransferred",
      "type": "event"
    },
    {
      "anonymous": false,
      "inputs": [
        {
          "indexed": false,
          "internalType": "uint256",
          "name": "id",
          "type": "uint256"
        },
        {
          "indexed": false,
          "internalType": "string",
          "name": "name",
          "type": "string"
        },
        {
          "indexed": false,
          "internalType": "uint256",
          "name": "price",
          "type": "uint256"
        }
      ],
      "name": "SetNftOnSale",
      "type": "event"
    },
    {
      "anonymous": false,
      "inputs": [
        {
          "indexed": true,
          "internalType": "address",
          "name": "from",
          "type": "address"
        },
        {
          "indexed": true,
          "internalType": "address",
          "name": "to",
          "type": "address"
        },
        {
          "indexed": true,
          "internalType": "uint256",
          "name": "tokenId",
          "type": "uint256"
        }
      ],
      "name": "Transfer",
      "type": "event"
    },
    {
      "inputs": [
        {
          "internalType": "address",
          "name": "to",
          "type": "address"
        },
        {
          "internalType": "uint256",
          "name": "tokenId",
          "type": "uint256"
        }
      ],
      "name": "approve",
      "outputs": [],
      "stateMutability": "nonpayable",
      "type": "function"
    },
    {
      "inputs": [
        {
          "internalType": "address",
          "name": "owner",
          "type": "address"
        }
      ],
      "name": "balanceOf",
      "outputs": [
        {
          "internalType": "uint256",
          "name": "",
          "type": "uint256"
        }
      ],
      "stateMutability": "view",
      "type": "function",
      "constant": true
    },
    {
      "inputs": [
        {
          "internalType": "uint256",
          "name": "tokenId",
          "type": "uint256"
        }
      ],
      "name": "getApproved",
      "outputs": [
        {
          "internalType": "address",
          "name": "",
          "type": "address"
        }
      ],
      "stateMutability": "view",
      "type": "function",
      "constant": true
    },
    {
      "inputs": [
        {
          "internalType": "address",
          "name": "owner",
          "type": "address"
        },
        {
          "internalType": "address",
          "name": "operator",
          "type": "address"
        }
      ],
      "name": "isApprovedForAll",
      "outputs": [
        {
          "internalType": "bool",
          "name": "",
          "type": "bool"
        }
      ],
      "stateMutability": "view",
      "type": "function",
      "constant": true
    },
    {
      "inputs": [],
      "name": "name",
      "outputs": [
        {
          "internalType": "string",
          "name": "",
          "type": "string"
        }
      ],
      "stateMutability": "view",
      "type": "function",
      "constant": true
    },
    {
      "inputs": [],
      "name": "owner",
      "outputs": [
        {
          "internalType": "address",
          "name": "",
          "type": "address"
        }
      ],
      "stateMutability": "view",
      "type": "function",
      "constant": true
    },
    {
      "inputs": [
        {
          "internalType": "uint256",
          "name": "tokenId",
          "type": "uint256"
        }
      ],
      "name": "ownerOf",
      "outputs": [
        {
          "internalType": "address",
          "name": "",
          "type": "address"
        }
      ],
      "stateMutability": "view",
      "type": "function",
      "constant": true
    },
    {
      "inputs": [],
      "name": "renounceOwnership",
      "outputs": [],
      "stateMutability": "nonpayable",
      "type": "function"
    },
    {
      "inputs": [
        {
          "internalType": "address",
          "name": "from",
          "type": "address"
        },
        {
          "internalType": "address",
          "name": "to",
          "type": "address"
        },
        {
          "internalType": "uint256",
          "name": "tokenId",
          "type": "uint256"
        }
      ],
      "name": "safeTransferFrom",
      "outputs": [],
      "stateMutability": "nonpayable",
      "type": "function"
    },
    {
      "inputs": [
        {
          "internalType": "address",
          "name": "from",
          "type": "address"
        },
        {
          "internalType": "address",
          "name": "to",
          "type": "address"
        },
        {
          "internalType": "uint256",
          "name": "tokenId",
          "type": "uint256"
        },
        {
          "internalType": "bytes",
          "name": "data",
          "type": "bytes"
        }
      ],
      "name": "safeTransferFrom",
      "outputs": [],
      "stateMutability": "nonpayable",
      "type": "function"
    },
    {
      "inputs": [
        {
          "internalType": "address",
          "name": "operator",
          "type": "address"
        },
        {
          "internalType": "bool",
          "name": "approved",
          "type": "bool"
        }
      ],
      "name": "setApprovalForAll",
      "outputs": [],
      "stateMutability": "nonpayable",
      "type": "function"
    },
    {
      "inputs": [
        {
          "internalType": "bytes4",
          "name": "interfaceId",
          "type": "bytes4"
        }
      ],
      "name": "supportsInterface",
      "outputs": [
        {
          "internalType": "bool",
          "name": "",
          "type": "bool"
        }
      ],
      "stateMutability": "view",
      "type": "function",
      "constant": true
    },
    {
      "inputs": [],
      "name": "symbol",
      "outputs": [
        {
          "internalType": "string",
          "name": "",
          "type": "string"
        }
      ],
      "stateMutability": "view",
      "type": "function",
      "constant": true
    },
    {
      "inputs": [
        {
          "internalType": "uint256",
          "name": "tokenId",
          "type": "uint256"
        }
      ],
      "name": "tokenURI",
      "outputs": [
        {
          "internalType": "string",
          "name": "",
          "type": "string"
        }
      ],
      "stateMutability": "view",
      "type": "function",
      "constant": true
    },
    {
      "inputs": [
        {
          "internalType": "address",
          "name": "from",
          "type": "address"
        },
        {
          "internalType": "address",
          "name": "to",
          "type": "address"
        },
        {
          "internalType": "uint256",
          "name": "tokenId",
          "type": "uint256"
        }
      ],
      "name": "transferFrom",
      "outputs": [],
      "stateMutability": "nonpayable",
      "type": "function"
    },
    {
      "inputs": [
        {
          "internalType": "address",
          "name": "newOwner",
          "type": "address"
        }
      ],
      "name": "transferOwnership",
      "outputs": [],
      "stateMutability": "nonpayable",
      "type": "function"
    },
    {
      "inputs": [
        {
          "internalType": "uint256",
          "name": "tokenId",
          "type": "uint256"
        }
      ],
      "name": "isTokenNotOnSale",
      "outputs": [
        {
          "internalType": "bool",
          "name": "",
          "type": "bool"
        }
      ],
      "stateMutability": "payable",
      "type": "function",
      "payable": true
    },
    {
      "inputs": [
        {
          "internalType": "uint256",
          "name": "tokenId",
          "type": "uint256"
        }
      ],
      "name": "isTokenAlreadyOnSale",
      "outputs": [
        {
          "internalType": "bool",
          "name": "",
          "type": "bool"
        }
      ],
      "stateMutability": "payable",
      "type": "function",
      "payable": true
    },
    {
      "inputs": [],
      "name": "getNftTotalSupply",
      "outputs": [
        {
          "internalType": "uint256",
          "name": "",
          "type": "uint256"
        }
      ],
      "stateMutability": "view",
      "type": "function",
      "constant": true
    },
    {
      "inputs": [],
      "name": "fetchCurrentTokenIds",
      "outputs": [
        {
          "internalType": "uint256",
          "name": "",
          "type": "uint256"
        }
      ],
      "stateMutability": "view",
      "type": "function",
      "constant": true
    },
    {
      "inputs": [
        {
          "internalType": "uint256",
          "name": "index",
          "type": "uint256"
        }
      ],
      "name": "retrieveTokenByIndex",
      "outputs": [
        {
          "internalType": "uint256",
          "name": "",
          "type": "uint256"
        }
      ],
      "stateMutability": "view",
      "type": "function",
      "constant": true
    },
    {
      "inputs": [
        {
          "internalType": "string",
          "name": "name",
          "type": "string"
        },
        {
          "internalType": "uint256",
          "name": "price",
          "type": "uint256"
        }
      ],
      "name": "mintNftToken",
      "outputs": [
        {
          "internalType": "uint256",
          "name": "",
          "type": "uint256"
        }
      ],
      "stateMutability": "payable",
      "type": "function",
      "payable": true
    },
    {
      "inputs": [
        {
          "internalType": "uint256",
          "name": "tokenId",
          "type": "uint256"
        }
      ],
      "name": "getPriceOfNftToken",
      "outputs": [
        {
          "internalType": "uint256",
          "name": "",
          "type": "uint256"
        }
      ],
      "stateMutability": "view",
      "type": "function",
      "constant": true
    },
    {
      "inputs": [
        {
          "internalType": "uint256",
          "name": "id",
          "type": "uint256"
        }
      ],
      "name": "buyNft",
      "outputs": [],
      "stateMutability": "payable",
      "type": "function",
      "payable": true
    },
    {
      "inputs": [
        {
          "internalType": "uint256",
          "name": "tokenId",
          "type": "uint256"
        }
      ],
      "name": "checkTokenCreatorIsOwner",
      "outputs": [
        {
          "internalType": "bool",
          "name": "",
          "type": "bool"
        }
      ],
      "stateMutability": "view",
      "type": "function",
      "constant": true
    },
    {
      "inputs": [
        {
          "internalType": "uint256",
          "name": "id",
          "type": "uint256"
        },
        {
          "internalType": "string",
          "name": "name",
          "type": "string"
        },
        {
          "internalType": "uint256",
          "name": "price",
          "type": "uint256"
        }
      ],
      "name": "setNftOnSale",
      "outputs": [
        {
          "internalType": "uint256",
          "name": "",
          "type": "uint256"
        }
      ],
      "stateMutability": "payable",
      "type": "function",
      "payable": true
    },
    {
      "inputs": [],
      "name": "fetchAllNftsOnSale",
      "outputs": [
        {
          "components": [
            {
              "internalType": "uint256",
              "name": "id",
              "type": "uint256"
            },
            {
              "internalType": "string",
              "name": "name",
              "type": "string"
            },
            {
              "internalType": "uint256",
              "name": "price",
              "type": "uint256"
            },
            {
              "internalType": "address",
              "name": "tokenCreator",
              "type": "address"
            },
            {
              "internalType": "bool",
              "name": "isTokenListed",
              "type": "bool"
            }
          ],
          "internalType": "struct EventNftMarket.EventNft[]",
          "name": "",
          "type": "tuple[]"
        }
      ],
      "stateMutability": "view",
      "type": "function",
      "constant": true
    },
    {
      "inputs": [],
      "name": "fetchAllOwnedNFTs",
      "outputs": [
        {
          "components": [
            {
              "internalType": "uint256",
              "name": "id",
              "type": "uint256"
            },
            {
              "internalType": "string",
              "name": "name",
              "type": "string"
            },
            {
              "internalType": "uint256",
              "name": "price",
              "type": "uint256"
            },
            {
              "internalType": "address",
              "name": "tokenCreator",
              "type": "address"
            },
            {
              "internalType": "bool",
              "name": "isTokenListed",
              "type": "bool"
            }
          ],
          "internalType": "struct EventNftMarket.EventNft[]",
          "name": "",
          "type": "tuple[]"
        }
      ],
      "stateMutability": "view",
      "type": "function",
      "constant": true
    },
    {
      "inputs": [
        {
          "internalType": "address",
          "name": "tokenOwner",
          "type": "address"
        },
        {
          "internalType": "uint256",
          "name": "tokenIndex",
          "type": "uint256"
        }
      ],
      "name": "fetchTokenOwner",
      "outputs": [
        {
          "internalType": "uint256",
          "name": "",
          "type": "uint256"
        }
      ],
      "stateMutability": "view",
      "type": "function",
      "constant": true
    },
    {
      "inputs": [],
      "name": "fetchTokenSupply",
      "outputs": [
        {
          "internalType": "uint256",
          "name": "",
          "type": "uint256"
        }
      ],
      "stateMutability": "view",
      "type": "function",
      "constant": true
    },
    {
      "inputs": [
        {
          "internalType": "string",
          "name": "tokenURI",
          "type": "string"
        }
      ],
      "name": "checkTokenExists",
      "outputs": [
        {
          "internalType": "bool",
          "name": "",
          "type": "bool"
        }
      ],
      "stateMutability": "view",
      "type": "function",
      "constant": true
    },
    {
      "inputs": [
        {
          "internalType": "uint256",
          "name": "tokenId",
          "type": "uint256"
        }
      ],
      "name": "returnSingleNftItem",
      "outputs": [
        {
          "components": [
            {
              "internalType": "uint256",
              "name": "id",
              "type": "uint256"
            },
            {
              "internalType": "string",
              "name": "name",
              "type": "string"
            },
            {
              "internalType": "uint256",
              "name": "price",
              "type": "uint256"
            },
            {
              "internalType": "address",
              "name": "tokenCreator",
              "type": "address"
            },
            {
              "internalType": "bool",
              "name": "isTokenListed",
              "type": "bool"
            }
          ],
          "internalType": "struct EventNftMarket.EventNft",
          "name": "",
          "type": "tuple"
        }
      ],
      "stateMutability": "view",
      "type": "function",
      "constant": true
    }
  ],
  "bytecode": "0x60806040523480156200001157600080fd5b5060405180604001604052806011815260200170115d995b9d08151a58dad95d1cc8139195607a1b81525060405180604001604052806005815260200164115513919560da1b81525081600090816200006b919062000198565b5060016200007a828262000198565b50505062000097620000916200009d60201b60201c565b620000a1565b62000264565b3390565b600780546001600160a01b038381166001600160a01b0319831681179093556040519116919082907f8be0079c531659141344cd1fd0a4f28419497f9722a3daafe3b4186f6b6457e090600090a35050565b634e487b7160e01b600052604160045260246000fd5b600181811c908216806200011e57607f821691505b6020821081036200013f57634e487b7160e01b600052602260045260246000fd5b50919050565b601f8211156200019357600081815260208120601f850160051c810160208610156200016e5750805b601f850160051c820191505b818110156200018f578281556001016200017a565b5050505b505050565b81516001600160401b03811115620001b457620001b4620000f3565b620001cc81620001c5845462000109565b8462000145565b602080601f831160018114620002045760008415620001eb5750858301515b600019600386901b1c1916600185901b1785556200018f565b600085815260208120601f198616915b82811015620002355788860151825594840194600190910190840162000214565b5085821015620002545787850151600019600388901b60f8161c191681555b5050505050600190811b01905550565b61266580620002746000396000f3fe6080604052600436106101e35760003560e01c8063640ae16611610102578063c30c21a711610095578063d871ca1511610064578063d871ca15146105b6578063d872f1b8146105cb578063e985e9c5146105de578063f2fde38b1461062757600080fd5b8063c30c21a714610511578063c5527e801461053e578063c87b56dd14610581578063cd2acaa5146105a157600080fd5b80638da5cb5b116100d15780638da5cb5b1461049e57806395d89b41146104bc578063a22cb465146104d1578063b88d4fde146104f157600080fd5b8063640ae1661461043457806370a0823114610454578063715018a61461047457806387888b5b1461048957600080fd5b8063243adbdd1161017a578063452757c511610149578063452757c5146103ca5780634ae58814146103ec578063546df207146103ff5780636352211e1461041457600080fd5b8063243adbdd1461032b57806329ae6c0c1461033e5780633ea95f2a1461036c57806342842e0e146103aa57600080fd5b8063095ea7b3116101b6578063095ea7b31461029757806309ceadae146102b9578063162f4e81146102d957806323b872dd1461030b57600080fd5b806301ffc9a7146101e857806304b49c3a1461021d57806306fdde031461023d578063081812fc1461025f575b600080fd5b3480156101f457600080fd5b50610208610203366004611d6f565b610647565b60405190151581526020015b60405180910390f35b34801561022957600080fd5b50610208610238366004611e38565b610699565b34801561024957600080fd5b506102526106c9565b6040516102149190611ebd565b34801561026b57600080fd5b5061027f61027a366004611ed0565b61075b565b6040516001600160a01b039091168152602001610214565b3480156102a357600080fd5b506102b76102b2366004611f05565b610782565b005b3480156102c557600080fd5b506102086102d4366004611ed0565b61089c565b6102086102e7366004611ed0565b6000908152600d6020526040902060030154600160a01b900460ff16151560011490565b34801561031757600080fd5b506102b7610326366004611f2f565b6108c2565b6102b7610339366004611ed0565b6108f3565b61020861034c366004611ed0565b6000908152600d6020526040902060030154600160a01b900460ff161590565b34801561037857600080fd5b5061039c610387366004611ed0565b6000908152600d602052604090206002015490565b604051908152602001610214565b3480156103b657600080fd5b506102b76103c5366004611f2f565b6109d0565b3480156103d657600080fd5b506103df6109eb565b6040516102149190611fbe565b61039c6103fa366004612020565b610b94565b34801561040b57600080fd5b506103df610c1a565b34801561042057600080fd5b5061027f61042f366004611ed0565b610ded565b34801561044057600080fd5b5061039c61044f366004611ed0565b610e4d565b34801561046057600080fd5b5061039c61046f366004612065565b610e74565b34801561048057600080fd5b506102b7610efa565b34801561049557600080fd5b50600a5461039c565b3480156104aa57600080fd5b506007546001600160a01b031661027f565b3480156104c857600080fd5b50610252610f0e565b3480156104dd57600080fd5b506102b76104ec366004612080565b610f1d565b3480156104fd57600080fd5b506102b761050c3660046120bc565b610f2c565b34801561051d57600080fd5b5061053161052c366004611ed0565b610f64565b6040516102149190612138565b34801561054a57600080fd5b5061039c610559366004611f05565b6001600160a01b03919091166000908152600f60209081526040808320938352929052205490565b34801561058d57600080fd5b5061025261059c366004611ed0565b61105c565b3480156105ad57600080fd5b5061039c61116c565b3480156105c257600080fd5b5061039c61117c565b61039c6105d936600461214b565b61118d565b3480156105ea57600080fd5b506102086105f936600461219b565b6001600160a01b03918216600090815260056020908152604080832093909416825291909152205460ff1690565b34801561063357600080fd5b506102b7610642366004612065565b611245565b60006001600160e01b031982166380ac58cd60e01b148061067857506001600160e01b03198216635b5e139f60e01b145b8061069357506301ffc9a760e01b6001600160e01b03198316145b92915050565b6000600c826040516106ab91906121ce565b9081526040519081900360200190205460ff16151560011492915050565b6060600080546106d8906121ea565b80601f0160208091040260200160405190810160405280929190818152602001828054610704906121ea565b80156107515780601f1061072657610100808354040283529160200191610751565b820191906000526020600020905b81548152906001019060200180831161073457829003601f168201915b5050505050905090565b6000610766826112be565b506000908152600460205260409020546001600160a01b031690565b600061078d82610ded565b9050806001600160a01b0316836001600160a01b0316036107ff5760405162461bcd60e51b815260206004820152602160248201527f4552433732313a20617070726f76616c20746f2063757272656e74206f776e656044820152603960f91b60648201526084015b60405180910390fd5b336001600160a01b038216148061081b575061081b81336105f9565b61088d5760405162461bcd60e51b815260206004820152603e60248201527f4552433732313a20617070726f76652063616c6c6572206973206e6f7420746f60448201527f6b656e206f776e6572206e6f7220617070726f76656420666f7220616c6c000060648201526084016107f6565b610897838361131d565b505050565b60006108a782610ded565b6001600160a01b0316336001600160a01b0316149050919050565b6108cc338261138b565b6108e85760405162461bcd60e51b81526004016107f690612224565b610897838383611409565b60006108fe82610ded565b6000838152600d60205260409020600301805460ff60a01b19169055905061092660086115a5565b610931813384611409565b6040516001600160a01b038216903480156108fc02916000818181858888f19350505050158015610966573d6000803e3d6000fd5b506000828152600d6020526040908190206003810154600282015492517fc67c9acfcb9a8d1c03fc7c5f7ab649bb90a29721c387be7dec8e3892d2a3f652936109c4938793600160a01b900460ff16928792600190920191906122ef565b60405180910390a15050565b61089783838360405180602001604052806000815250610f2c565b606060006109f833610e74565b905060008167ffffffffffffffff811115610a1557610a15611d8c565b604051908082528060200260200182016040528015610a4e57816020015b610a3b611d1f565b815260200190600190039081610a335790505b50905060005b82811015610b8d57336000908152600f60209081526040808320848452825280832054808452600d835292819020815160a0810190925280548252600181018054919384929084019190610aa7906121ea565b80601f0160208091040260200160405190810160405280929190818152602001828054610ad3906121ea565b8015610b205780601f10610af557610100808354040283529160200191610b20565b820191906000526020600020905b815481529060010190602001808311610b0357829003601f168201915b5050509183525050600282015460208201526003909101546001600160a01b0381166040830152600160a01b900460ff1615156060909101528451859085908110610b6d57610b6d612333565b602002602001018190525050508080610b859061235f565b915050610a54565b5092915050565b600033610ba5600980546001019055565b610bb3600880546001019055565b6000610bbe60095490565b9050610bca82826115fc565b610bd48186611616565b610bdf8185876116a9565b6001600c86604051610bf191906121ce565b908152604051908190036020019020805491151560ff1990921691909117905591505092915050565b60606000610c27600a5490565b9050600080610c3560085490565b905060008167ffffffffffffffff811115610c5257610c52611d8c565b604051908082528060200260200182016040528015610c8b57816020015b610c78611d1f565b815260200190600190039081610c705790505b50905060005b84811015610de4576000610ca482610e4d565b6000818152600d60205260409020600381015491925090600160a01b900460ff1615610dcf57806040518060a001604052908160008201548152602001600182018054610cf0906121ea565b80601f0160208091040260200160405190810160405280929190818152602001828054610d1c906121ea565b8015610d695780601f10610d3e57610100808354040283529160200191610d69565b820191906000526020600020905b815481529060010190602001808311610d4c57829003601f168201915b5050509183525050600282015460208201526003909101546001600160a01b0381166040830152600160a01b900460ff1615156060909101528451859088908110610db657610db6612333565b6020908102919091010152610dcc600187612378565b95505b50508080610ddc9061235f565b915050610c91565b50949350505050565b6000818152600260205260408120546001600160a01b0316806106935760405162461bcd60e51b8152602060048201526018602482015277115490cdcc8c4e881a5b9d985b1a59081d1bdad95b88125160421b60448201526064016107f6565b6000600a8281548110610e6257610e62612333565b90600052602060002001549050919050565b60006001600160a01b038216610ede5760405162461bcd60e51b815260206004820152602960248201527f4552433732313a2061646472657373207a65726f206973206e6f7420612076616044820152683634b21037bbb732b960b91b60648201526084016107f6565b506001600160a01b031660009081526003602052604090205490565b610f02611787565b610f0c60006117e1565b565b6060600180546106d8906121ea565b610f28338383611833565b5050565b610f36338361138b565b610f525760405162461bcd60e51b81526004016107f690612224565b610f5e84848484611901565b50505050565b610f6c611d1f565b600d60008381526020019081526020016000206040518060a001604052908160008201548152602001600182018054610fa4906121ea565b80601f0160208091040260200160405190810160405280929190818152602001828054610fd0906121ea565b801561101d5780601f10610ff25761010080835404028352916020019161101d565b820191906000526020600020905b81548152906001019060200180831161100057829003601f168201915b5050509183525050600282015460208201526003909101546001600160a01b0381166040830152600160a01b900460ff16151560609091015292915050565b6060611067826112be565b60008281526006602052604081208054611080906121ea565b80601f01602080910402602001604051908101604052809291908181526020018280546110ac906121ea565b80156110f95780601f106110ce576101008083540402835291602001916110f9565b820191906000526020600020905b8154815290600101906020018083116110dc57829003601f168201915b50505050509050600061111760408051602081019091526000815290565b90508051600003611129575092915050565b81511561115b57808260405160200161114392919061238b565b60405160208183030381529060405292505050919050565b61116484611934565b949350505050565b600061117760095490565b905090565b600a54600090611177906001612378565b6000838152600d6020526040812060038101805460ff60a01b1916600160a01b179055600281018390556001016111c48482612408565b506008546000036111dd576111dd600880546001019055565b6000848152600d6020526040908190208054600282015492517f3128eedd2293c3b0143f08f209b28ab37b038b249f6ab236108d141f1b59fa4b9361122593600101916124c8565b60405180910390a15050506000908152600d602052604090206002015490565b61124d611787565b6001600160a01b0381166112b25760405162461bcd60e51b815260206004820152602660248201527f4f776e61626c653a206e6577206f776e657220697320746865207a65726f206160448201526564647265737360d01b60648201526084016107f6565b6112bb816117e1565b50565b6000818152600260205260409020546001600160a01b03166112bb5760405162461bcd60e51b8152602060048201526018602482015277115490cdcc8c4e881a5b9d985b1a59081d1bdad95b88125160421b60448201526064016107f6565b600081815260046020526040902080546001600160a01b0319166001600160a01b038416908117909155819061135282610ded565b6001600160a01b03167f8c5be1e5ebec7d5bd14f71427d1e84f3dd0314c0f7b2291e5b200ac8c7c3b92560405160405180910390a45050565b60008061139783610ded565b9050806001600160a01b0316846001600160a01b031614806113de57506001600160a01b0380821660009081526005602090815260408083209388168352929052205460ff165b806111645750836001600160a01b03166113f78461075b565b6001600160a01b031614949350505050565b826001600160a01b031661141c82610ded565b6001600160a01b0316146114805760405162461bcd60e51b815260206004820152602560248201527f4552433732313a207472616e736665722066726f6d20696e636f72726563742060448201526437bbb732b960d91b60648201526084016107f6565b6001600160a01b0382166114e25760405162461bcd60e51b8152602060048201526024808201527f4552433732313a207472616e7366657220746f20746865207a65726f206164646044820152637265737360e01b60648201526084016107f6565b6114ed60008261131d565b6001600160a01b03831660009081526003602052604081208054600192906115169084906124f1565b90915550506001600160a01b0382166000908152600360205260408120805460019290611544908490612378565b909155505060008181526002602052604080822080546001600160a01b0319166001600160a01b0386811691821790925591518493918716917fddf252ad1be2c89b69c2b068fc378daa952ba7f163c4a11628f55a4df523b3ef91a4505050565b8054806115f45760405162461bcd60e51b815260206004820152601b60248201527f436f756e7465723a2064656372656d656e74206f766572666c6f77000000000060448201526064016107f6565b600019019055565b610f288282604051806020016040528060008152506119a8565b6000828152600260205260409020546001600160a01b03166116915760405162461bcd60e51b815260206004820152602e60248201527f45524337323155524953746f726167653a2055524920736574206f66206e6f6e60448201526d32bc34b9ba32b73a103a37b5b2b760911b60648201526084016107f6565b60008281526006602052604090206108978282612408565b6040805160a081018252848152602080820184815282840186905233606084018190526001608085018190526000898152600d9094529490922083518155905191939091908201906116fb9082612408565b5060408281015160028301556060830151600390920180546080909401511515600160a01b026001600160a81b03199094166001600160a01b0390931692909217929092179055517ff52082ce502251341b7a8bff2b16d85efd8570914ea8407a092c195c8dfc7b3290611779908690869086903390600190612504565b60405180910390a150505050565b6007546001600160a01b03163314610f0c5760405162461bcd60e51b815260206004820181905260248201527f4f776e61626c653a2063616c6c6572206973206e6f7420746865206f776e657260448201526064016107f6565b600780546001600160a01b038381166001600160a01b0319831681179093556040519116919082907f8be0079c531659141344cd1fd0a4f28419497f9722a3daafe3b4186f6b6457e090600090a35050565b816001600160a01b0316836001600160a01b0316036118945760405162461bcd60e51b815260206004820152601960248201527f4552433732313a20617070726f766520746f2063616c6c65720000000000000060448201526064016107f6565b6001600160a01b03838116600081815260056020908152604080832094871680845294825291829020805460ff191686151590811790915591519182527f17307eab39ab6107e8899845ad3d59bd9653f200f220920489ca2b5937696c31910160405180910390a3505050565b61190c848484611409565b611918848484846119db565b610f5e5760405162461bcd60e51b81526004016107f690612545565b606061193f826112be565b600061195660408051602081019091526000815290565b9050600081511161197657604051806020016040528060008152506119a1565b8061198084611adc565b60405160200161199192919061238b565b6040516020818303038152906040525b9392505050565b6119b28383611bdd565b6119bf60008484846119db565b6108975760405162461bcd60e51b81526004016107f690612545565b60006001600160a01b0384163b15611ad157604051630a85bd0160e11b81526001600160a01b0385169063150b7a0290611a1f903390899088908890600401612597565b6020604051808303816000875af1925050508015611a5a575060408051601f3d908101601f19168201909252611a57918101906125d4565b60015b611ab7573d808015611a88576040519150601f19603f3d011682016040523d82523d6000602084013e611a8d565b606091505b508051600003611aaf5760405162461bcd60e51b81526004016107f690612545565b805181602001fd5b6001600160e01b031916630a85bd0160e11b149050611164565b506001949350505050565b606081600003611b035750506040805180820190915260018152600360fc1b602082015290565b8160005b8115611b2d5780611b178161235f565b9150611b269050600a83612607565b9150611b07565b60008167ffffffffffffffff811115611b4857611b48611d8c565b6040519080825280601f01601f191660200182016040528015611b72576020820181803683370190505b5090505b841561116457611b876001836124f1565b9150611b94600a8661261b565b611b9f906030612378565b60f81b818381518110611bb457611bb4612333565b60200101906001600160f81b031916908160001a905350611bd6600a86612607565b9450611b76565b6001600160a01b038216611c335760405162461bcd60e51b815260206004820181905260248201527f4552433732313a206d696e7420746f20746865207a65726f206164647265737360448201526064016107f6565b6000818152600260205260409020546001600160a01b031615611c985760405162461bcd60e51b815260206004820152601c60248201527f4552433732313a20746f6b656e20616c7265616479206d696e7465640000000060448201526064016107f6565b6001600160a01b0382166000908152600360205260408120805460019290611cc1908490612378565b909155505060008181526002602052604080822080546001600160a01b0319166001600160a01b03861690811790915590518392907fddf252ad1be2c89b69c2b068fc378daa952ba7f163c4a11628f55a4df523b3ef908290a45050565b6040518060a0016040528060008152602001606081526020016000815260200160006001600160a01b031681526020016000151581525090565b6001600160e01b0319811681146112bb57600080fd5b600060208284031215611d8157600080fd5b81356119a181611d59565b634e487b7160e01b600052604160045260246000fd5b600067ffffffffffffffff80841115611dbd57611dbd611d8c565b604051601f8501601f19908116603f01168101908282118183101715611de557611de5611d8c565b81604052809350858152868686011115611dfe57600080fd5b858560208301376000602087830101525050509392505050565b600082601f830112611e2957600080fd5b6119a183833560208501611da2565b600060208284031215611e4a57600080fd5b813567ffffffffffffffff811115611e6157600080fd5b61116484828501611e18565b60005b83811015611e88578181015183820152602001611e70565b50506000910152565b60008151808452611ea9816020860160208601611e6d565b601f01601f19169290920160200192915050565b6020815260006119a16020830184611e91565b600060208284031215611ee257600080fd5b5035919050565b80356001600160a01b0381168114611f0057600080fd5b919050565b60008060408385031215611f1857600080fd5b611f2183611ee9565b946020939093013593505050565b600080600060608486031215611f4457600080fd5b611f4d84611ee9565b9250611f5b60208501611ee9565b9150604084013590509250925092565b805182526000602082015160a06020850152611f8a60a0850182611e91565b604084810151908601526060808501516001600160a01b031690860152608093840151151593909401929092525090919050565b6000602080830181845280855180835260408601915060408160051b870101925083870160005b8281101561201357603f19888603018452612001858351611f6b565b94509285019290850190600101611fe5565b5092979650505050505050565b6000806040838503121561203357600080fd5b823567ffffffffffffffff81111561204a57600080fd5b61205685828601611e18565b95602094909401359450505050565b60006020828403121561207757600080fd5b6119a182611ee9565b6000806040838503121561209357600080fd5b61209c83611ee9565b9150602083013580151581146120b157600080fd5b809150509250929050565b600080600080608085870312156120d257600080fd5b6120db85611ee9565b93506120e960208601611ee9565b925060408501359150606085013567ffffffffffffffff81111561210c57600080fd5b8501601f8101871361211d57600080fd5b61212c87823560208401611da2565b91505092959194509250565b6020815260006119a16020830184611f6b565b60008060006060848603121561216057600080fd5b83359250602084013567ffffffffffffffff81111561217e57600080fd5b61218a86828701611e18565b925050604084013590509250925092565b600080604083850312156121ae57600080fd5b6121b783611ee9565b91506121c560208401611ee9565b90509250929050565b600082516121e0818460208701611e6d565b9190910192915050565b600181811c908216806121fe57607f821691505b60208210810361221e57634e487b7160e01b600052602260045260246000fd5b50919050565b6020808252602e908201527f4552433732313a2063616c6c6572206973206e6f7420746f6b656e206f776e6560408201526d1c881b9bdc88185c1c1c9bdd995960921b606082015260800190565b6000815461227f816121ea565b80855260206001838116801561229c57600181146122b6576122e4565b60ff1985168884015283151560051b8801830195506122e4565b866000528260002060005b858110156122dc5781548a82018601529083019084016122c1565b890184019650505b505050505092915050565b85815284151560208201526001600160a01b038416604082015260a06060820181905260009061232190830185612272565b90508260808301529695505050505050565b634e487b7160e01b600052603260045260246000fd5b634e487b7160e01b600052601160045260246000fd5b60006001820161237157612371612349565b5060010190565b8082018082111561069357610693612349565b6000835161239d818460208801611e6d565b8351908301906123b1818360208801611e6d565b01949350505050565b601f82111561089757600081815260208120601f850160051c810160208610156123e15750805b601f850160051c820191505b81811015612400578281556001016123ed565b505050505050565b815167ffffffffffffffff81111561242257612422611d8c565b6124368161243084546121ea565b846123ba565b602080601f83116001811461246b57600084156124535750858301515b600019600386901b1c1916600185901b178555612400565b600085815260208120601f198616915b8281101561249a5788860151825594840194600190910190840161247b565b50858210156124b85787850151600019600388901b60f8161c191681555b5050505050600190811b01905550565b8381526060602082015260006124e16060830185612272565b9050826040830152949350505050565b8181038181111561069357610693612349565b85815284602082015260a06040820152600061252360a0830186611e91565b6001600160a01b03949094166060830152509015156080909101529392505050565b60208082526032908201527f4552433732313a207472616e7366657220746f206e6f6e20455243373231526560408201527131b2b4bb32b91034b6b83632b6b2b73a32b960711b606082015260800190565b6001600160a01b03858116825284166020820152604081018390526080606082018190526000906125ca90830184611e91565b9695505050505050565b6000602082840312156125e657600080fd5b81516119a181611d59565b634e487b7160e01b600052601260045260246000fd5b600082612616576126166125f1565b500490565b60008261262a5761262a6125f1565b50069056fea2646970667358221220794fd51244edd4b107df5f540b927d6e5590db7fa072469c5d4e740c00c03bba64736f6c63430008110033",
  "immutableReferences": {},
  "source": "// SPDX-License-Identifier: MIT\npragma solidity ^0.8.17;\nimport \"../node_modules/@openzeppelin/contracts/token/ERC721/extensions/ERC721URIStorage.sol\";\nimport \"../node_modules/@openzeppelin/contracts/utils/Counters.sol\";\nimport \"../node_modules/@openzeppelin/contracts/token/ERC721/ERC721.sol\";\nimport \"../node_modules/@openzeppelin/contracts/access/Ownable.sol\";\n\n// Interface for the NFT routines to be invoked\ninterface NftRoutines {\n    function mintNftToken(string memory name, uint price) external payable returns (uint);\n    function setNftOnSale(uint id, string memory name, uint price) external payable returns (uint); // 3. Routine to set the nft on sale\n    function buyNft(uint id) external payable; // Routing to buy the NFT given a token Index and price\n    function checkTokenCreatorIsOwner(uint256 tokenId) external returns (bool);\n}\n\ncontract EventNftMarket is ERC721URIStorage, Ownable, NftRoutines {\n    using Counters for Counters.Counter;\n\n    Counters.Counter private listedTokenItems; // Listed Token Items\n    Counters.Counter private tokenIds; // Number that stores how many token's we have\n\n    uint256[] private listOfNfts; // Store the list of NFTs in an array\n    bool private tokenMinted;\n\n    mapping(string => bool) private usedTokenURIs; // Map string to boolean for checking the used token URis\n    mapping(uint => EventNft) private mappedNftData;\n    mapping(uint => uint) private mappedIdToIndex; // Map an ID to the index of a token\n\n    mapping(address => mapping(uint => uint)) private ownedEventTokens; // Mapping between the address of the owner and an integer that stores the owner tokens ID\n    mapping(uint => uint) private _idToOwnedIndex;\n\n    struct EventNft { // Struct for holding Event NFT data\n        uint256 id;\n        string name;\n        uint256 price;\n        address tokenCreator;\n        bool isTokenListed; // Determines if the token is listed for sale or not\n    }\n\n    // 1. Event for Creating New Ticket nft Data\n    event EventNftCreated (\n        uint id,\n        uint price,\n        string name,\n        address creator,\n        bool isTokenListed\n    );\n\n    // 2. Event For Updating NFT data\n    event EventNftUpdated (\n        uint id,\n        uint newPrice,\n        address newCreator,\n        bool newIsTokenListed\n    );\n\n    event SetNftOnSale (\n        uint id,\n        string name,\n        uint price\n    );\n\n    event FetchNfts (\n        EventNft[] nfts\n    );\n\n    event NftPurchased (\n        uint id,\n        bool isTokenListed,\n        address currentOwner,\n        string name,\n        uint price\n    );\n\n    constructor() ERC721(\"Event Tickets NFT\", \"ETNFT\") {}\n\n\n    function isTokenNotOnSale(uint256 tokenId) public payable returns (bool) {\n        return mappedNftData[tokenId].isTokenListed == false;\n    }\n\n    function isTokenAlreadyOnSale(uint256 tokenId) public payable returns (bool) {\n         return mappedNftData[tokenId].isTokenListed == true;\n    }\n\n    function getNftTotalSupply() public view returns (uint256) {\n        return listOfNfts.length;\n    }\n\n    function fetchCurrentTokenIds() public view returns (uint256) {\n        return tokenIds.current();\n    }\n\n    // @description: Fetch an NFT token by its index\n    function retrieveTokenByIndex(uint index) public view returns (uint) {\n       return listOfNfts[index];\n    }\n\n    function mintNftToken(string memory name, uint price) public payable override returns (uint) {        \n        address messageSender = msg.sender;\n\n        tokenIds.increment();\n        listedTokenItems.increment();\n\n        uint newTokenId = tokenIds.current();\n\n        _safeMint(messageSender, newTokenId);\n        _setTokenURI(newTokenId, name); \n\n        createNewNftItem(newTokenId, price, name);\n        usedTokenURIs[name] = true;\n\n        return newTokenId;\n     \n    }\n\n    function createNewNftItem(uint id, uint price, string memory name) private {\n       address currentOwner = msg.sender;\n       mappedNftData[id] = EventNft(id, name, price, currentOwner, true);\n\n       emit EventNftCreated(id, price, name, msg.sender, true); // Emit new created event\n    }\n\n    function getPriceOfNftToken(uint256 tokenId) public view returns (uint256) {\n        uint currentPrice = mappedNftData[tokenId].price;\n        return currentPrice; // Return the token price of the nFT\n    }\n\n    function buyNft(uint id) public payable {\n\n        address currentOwner = ERC721.ownerOf(id);\n        mappedNftData[id].isTokenListed = false;         // Now we need to delist it from the struct\n\n        listedTokenItems.decrement(); // Decrement the listed items by 1.\n\n         _transfer(currentOwner, msg.sender, id); // Transfer Ownership of the NFT from the current owner to ms.sender\n         payable(currentOwner).transfer(msg.value);\n\n         emit NftPurchased(id, mappedNftData[id].isTokenListed, currentOwner, mappedNftData[id].name, mappedNftData[id].price);\n         \n    }\n\n    function checkTokenCreatorIsOwner(uint256 tokenId) public view override returns (bool) {\n        return msg.sender == ERC721.ownerOf(tokenId); // The owner of the token ID is equal to the ERC721 invoked routine of the token ID\n    }\n\n    function setNftOnSale(uint id, string memory name, uint price) external payable override returns (uint) {\n\n        mappedNftData[id].isTokenListed = true;\n        mappedNftData[id].price = price; // Update the new token price\n        mappedNftData[id].name = name;\n\n        if(listedTokenItems.current() == 0) { // If the current items on sale is by default 0\n            listedTokenItems.increment();    // Increment Listed Items\n        }\n\n        emit SetNftOnSale(mappedNftData[id].id, mappedNftData[id].name, mappedNftData[id].price);\n\n        return mappedNftData[id].price;\n\n    }\n\n    // @description: Retrieves all of the event ticket NFT's on sale.\n    // @returns: An array of Event NFT Tokens stored in memory\n\n    function fetchAllNftsOnSale() public view returns (EventNft[] memory) {\n        uint totalNftSupply = getNftTotalSupply();\n        uint currentTokenIndex = 0; // Current index of the token\n        \n        uint currentNftItem = listedTokenItems.current();\n\n        EventNft[] memory nftItems = new EventNft[](currentNftItem);\n\n        for(uint256 index = 0; index < totalNftSupply; index++) { // For every token in supply\n\n            uint256 tokenIndex = retrieveTokenByIndex(index); // Get the token at index\n\n            EventNft storage tokenItem = mappedNftData[tokenIndex];\n           \n           if(tokenItem.isTokenListed) { // If the token is listed\n              nftItems[currentTokenIndex] = tokenItem;\n              currentTokenIndex += 1; // Increment number of token indexes\n           }\n\n        }   \n\n        return nftItems; // Return all of the NFT items\n    }\n\n    // Logic for getting all of the user's owned Event Ticket NFT's\n    // @description Fetch all of the user's owned NFTs\n    // @returns: An array of event nft items\n\n    function fetchAllOwnedNFTs() public view returns(EventNft[] memory) {\n       uint256 currentNftCount = ERC721.balanceOf(msg.sender);\n       EventNft[] memory nftItems = new EventNft[](currentNftCount);\n\n       for(uint256 index = 0; index < currentNftCount; index++) {\n\n         uint256 tokenId = fetchTokenOwner(msg.sender, index);\n\n         EventNft storage nftItem = mappedNftData[tokenId];\n         nftItems[index] = nftItem;\n       }\n\n       return nftItems;\n    }\n\n    function fetchTokenOwner(address tokenOwner, uint256 tokenIndex) public view returns(uint256) {\n        return ownedEventTokens[tokenOwner][tokenIndex];\n    }\n\n    // @description: Return the total supply of event ticket nft's by returning the array length.\n    function fetchTokenSupply() public view returns (uint256) {\n        return listOfNfts.length + 1;\n    }\n\n    function checkTokenExists(string memory tokenURI) public view returns (bool) {\n        return usedTokenURIs[tokenURI] == true;\n    }\n\n    function returnSingleNftItem(uint256 tokenId) public view returns(EventNft memory) {\n        return mappedNftData[tokenId]; // Return the mapped NFT ID to the token ID\n    }\n\n}",
  "sourcePath": "/Users/sabin2000/Documents/ticketblock/frontend/contracts/EventNftMarket.sol",
  "compiler": {
    "name": "solc",
    "version": "0.8.17+commit.8df45f5f.Emscripten.clang"
  },
  "schemaVersion": "3.4.9",
  "updatedAt": "2022-11-04T21:32:21.676Z",
  "networkType": "ethereum",
  "devdoc": {
    "kind": "dev",
    "methods": {
      "approve(address,uint256)": {
        "details": "See {IERC721-approve}."
      },
      "balanceOf(address)": {
        "details": "See {IERC721-balanceOf}."
      },
      "getApproved(uint256)": {
        "details": "See {IERC721-getApproved}."
      },
      "isApprovedForAll(address,address)": {
        "details": "See {IERC721-isApprovedForAll}."
      },
      "name()": {
        "details": "See {IERC721Metadata-name}."
      },
      "owner()": {
        "details": "Returns the address of the current owner."
      },
      "ownerOf(uint256)": {
        "details": "See {IERC721-ownerOf}."
      },
      "renounceOwnership()": {
        "details": "Leaves the contract without owner. It will not be possible to call `onlyOwner` functions anymore. Can only be called by the current owner. NOTE: Renouncing ownership will leave the contract without an owner, thereby removing any functionality that is only available to the owner."
      },
      "safeTransferFrom(address,address,uint256)": {
        "details": "See {IERC721-safeTransferFrom}."
      },
      "safeTransferFrom(address,address,uint256,bytes)": {
        "details": "See {IERC721-safeTransferFrom}."
      },
      "setApprovalForAll(address,bool)": {
        "details": "See {IERC721-setApprovalForAll}."
      },
      "supportsInterface(bytes4)": {
        "details": "See {IERC165-supportsInterface}."
      },
      "symbol()": {
        "details": "See {IERC721Metadata-symbol}."
      },
      "tokenURI(uint256)": {
        "details": "See {IERC721Metadata-tokenURI}."
      },
      "transferFrom(address,address,uint256)": {
        "details": "See {IERC721-transferFrom}."
      },
      "transferOwnership(address)": {
        "details": "Transfers ownership of the contract to a new account (`newOwner`). Can only be called by the current owner."
      }
    },
    "version": 1
  },
  "userdoc": {
    "kind": "user",
    "methods": {},
    "version": 1
  }
}