{
  "contractName": "EventNftMarket",
  "abi": [
    {
      "inputs": [],
      "stateMutability": "nonpayable",
      "type": "constructor"
    },
    {
      "anonymous": false,
      "inputs": [
        {
          "indexed": true,
          "internalType": "address",
          "name": "owner",
          "type": "address"
        },
        {
          "indexed": true,
          "internalType": "address",
          "name": "approved",
          "type": "address"
        },
        {
          "indexed": true,
          "internalType": "uint256",
          "name": "tokenId",
          "type": "uint256"
        }
      ],
      "name": "Approval",
      "type": "event"
    },
    {
      "anonymous": false,
      "inputs": [
        {
          "indexed": true,
          "internalType": "address",
          "name": "owner",
          "type": "address"
        },
        {
          "indexed": true,
          "internalType": "address",
          "name": "operator",
          "type": "address"
        },
        {
          "indexed": false,
          "internalType": "bool",
          "name": "approved",
          "type": "bool"
        }
      ],
      "name": "ApprovalForAll",
      "type": "event"
    },
    {
      "anonymous": false,
      "inputs": [
        {
          "indexed": false,
          "internalType": "uint256",
          "name": "tokenId",
          "type": "uint256"
        },
        {
          "indexed": false,
          "internalType": "uint256",
          "name": "price",
          "type": "uint256"
        },
        {
          "indexed": false,
          "internalType": "address",
          "name": "creator",
          "type": "address"
        },
        {
          "indexed": false,
          "internalType": "bool",
          "name": "isTokenListed",
          "type": "bool"
        }
      ],
      "name": "EventNftCreated",
      "type": "event"
    },
    {
      "anonymous": false,
      "inputs": [
        {
          "indexed": true,
          "internalType": "address",
          "name": "previousOwner",
          "type": "address"
        },
        {
          "indexed": true,
          "internalType": "address",
          "name": "newOwner",
          "type": "address"
        }
      ],
      "name": "OwnershipTransferred",
      "type": "event"
    },
    {
      "anonymous": false,
      "inputs": [
        {
          "indexed": true,
          "internalType": "address",
          "name": "from",
          "type": "address"
        },
        {
          "indexed": true,
          "internalType": "address",
          "name": "to",
          "type": "address"
        },
        {
          "indexed": true,
          "internalType": "uint256",
          "name": "tokenId",
          "type": "uint256"
        }
      ],
      "name": "Transfer",
      "type": "event"
    },
    {
      "inputs": [
        {
          "internalType": "address",
          "name": "to",
          "type": "address"
        },
        {
          "internalType": "uint256",
          "name": "tokenId",
          "type": "uint256"
        }
      ],
      "name": "approve",
      "outputs": [],
      "stateMutability": "nonpayable",
      "type": "function"
    },
    {
      "inputs": [
        {
          "internalType": "address",
          "name": "owner",
          "type": "address"
        }
      ],
      "name": "balanceOf",
      "outputs": [
        {
          "internalType": "uint256",
          "name": "",
          "type": "uint256"
        }
      ],
      "stateMutability": "view",
      "type": "function"
    },
    {
      "inputs": [
        {
          "internalType": "uint256",
          "name": "tokenId",
          "type": "uint256"
        }
      ],
      "name": "getApproved",
      "outputs": [
        {
          "internalType": "address",
          "name": "",
          "type": "address"
        }
      ],
      "stateMutability": "view",
      "type": "function"
    },
    {
      "inputs": [
        {
          "internalType": "address",
          "name": "owner",
          "type": "address"
        },
        {
          "internalType": "address",
          "name": "operator",
          "type": "address"
        }
      ],
      "name": "isApprovedForAll",
      "outputs": [
        {
          "internalType": "bool",
          "name": "",
          "type": "bool"
        }
      ],
      "stateMutability": "view",
      "type": "function"
    },
    {
      "inputs": [],
      "name": "name",
      "outputs": [
        {
          "internalType": "string",
          "name": "",
          "type": "string"
        }
      ],
      "stateMutability": "view",
      "type": "function"
    },
    {
      "inputs": [],
      "name": "owner",
      "outputs": [
        {
          "internalType": "address",
          "name": "",
          "type": "address"
        }
      ],
      "stateMutability": "view",
      "type": "function"
    },
    {
      "inputs": [
        {
          "internalType": "uint256",
          "name": "tokenId",
          "type": "uint256"
        }
      ],
      "name": "ownerOf",
      "outputs": [
        {
          "internalType": "address",
          "name": "",
          "type": "address"
        }
      ],
      "stateMutability": "view",
      "type": "function"
    },
    {
      "inputs": [],
      "name": "renounceOwnership",
      "outputs": [],
      "stateMutability": "nonpayable",
      "type": "function"
    },
    {
      "inputs": [
        {
          "internalType": "address",
          "name": "from",
          "type": "address"
        },
        {
          "internalType": "address",
          "name": "to",
          "type": "address"
        },
        {
          "internalType": "uint256",
          "name": "tokenId",
          "type": "uint256"
        }
      ],
      "name": "safeTransferFrom",
      "outputs": [],
      "stateMutability": "nonpayable",
      "type": "function"
    },
    {
      "inputs": [
        {
          "internalType": "address",
          "name": "from",
          "type": "address"
        },
        {
          "internalType": "address",
          "name": "to",
          "type": "address"
        },
        {
          "internalType": "uint256",
          "name": "tokenId",
          "type": "uint256"
        },
        {
          "internalType": "bytes",
          "name": "data",
          "type": "bytes"
        }
      ],
      "name": "safeTransferFrom",
      "outputs": [],
      "stateMutability": "nonpayable",
      "type": "function"
    },
    {
      "inputs": [
        {
          "internalType": "address",
          "name": "operator",
          "type": "address"
        },
        {
          "internalType": "bool",
          "name": "approved",
          "type": "bool"
        }
      ],
      "name": "setApprovalForAll",
      "outputs": [],
      "stateMutability": "nonpayable",
      "type": "function"
    },
    {
      "inputs": [
        {
          "internalType": "bytes4",
          "name": "interfaceId",
          "type": "bytes4"
        }
      ],
      "name": "supportsInterface",
      "outputs": [
        {
          "internalType": "bool",
          "name": "",
          "type": "bool"
        }
      ],
      "stateMutability": "view",
      "type": "function"
    },
    {
      "inputs": [],
      "name": "symbol",
      "outputs": [
        {
          "internalType": "string",
          "name": "",
          "type": "string"
        }
      ],
      "stateMutability": "view",
      "type": "function"
    },
    {
      "inputs": [
        {
          "internalType": "uint256",
          "name": "tokenId",
          "type": "uint256"
        }
      ],
      "name": "tokenURI",
      "outputs": [
        {
          "internalType": "string",
          "name": "",
          "type": "string"
        }
      ],
      "stateMutability": "view",
      "type": "function"
    },
    {
      "inputs": [
        {
          "internalType": "address",
          "name": "from",
          "type": "address"
        },
        {
          "internalType": "address",
          "name": "to",
          "type": "address"
        },
        {
          "internalType": "uint256",
          "name": "tokenId",
          "type": "uint256"
        }
      ],
      "name": "transferFrom",
      "outputs": [],
      "stateMutability": "nonpayable",
      "type": "function"
    },
    {
      "inputs": [
        {
          "internalType": "address",
          "name": "newOwner",
          "type": "address"
        }
      ],
      "name": "transferOwnership",
      "outputs": [],
      "stateMutability": "nonpayable",
      "type": "function"
    },
    {
      "inputs": [
        {
          "internalType": "uint256",
          "name": "newListingPrice",
          "type": "uint256"
        }
      ],
      "name": "initialiseListingPrice",
      "outputs": [],
      "stateMutability": "nonpayable",
      "type": "function"
    },
    {
      "inputs": [
        {
          "internalType": "string",
          "name": "tokenUri",
          "type": "string"
        },
        {
          "internalType": "uint256",
          "name": "tokenPrice",
          "type": "uint256"
        }
      ],
      "name": "mintNftToken",
      "outputs": [
        {
          "internalType": "uint256",
          "name": "",
          "type": "uint256"
        }
      ],
      "stateMutability": "payable",
      "type": "function"
    },
    {
      "inputs": [
        {
          "internalType": "uint256",
          "name": "tokenIndex",
          "type": "uint256"
        },
        {
          "internalType": "uint256",
          "name": "newTokenPrice",
          "type": "uint256"
        }
      ],
      "name": "setNftOnSale",
      "outputs": [],
      "stateMutability": "payable",
      "type": "function"
    },
    {
      "inputs": [
        {
          "internalType": "uint256",
          "name": "tokenIndex",
          "type": "uint256"
        }
      ],
      "name": "removeNftFromSale",
      "outputs": [],
      "stateMutability": "payable",
      "type": "function"
    },
    {
      "inputs": [
        {
          "internalType": "uint256",
          "name": "tokenIndex",
          "type": "uint256"
        },
        {
          "internalType": "uint256",
          "name": "tokenPrice",
          "type": "uint256"
        }
      ],
      "name": "buyNft",
      "outputs": [
        {
          "internalType": "uint256",
          "name": "",
          "type": "uint256"
        }
      ],
      "stateMutability": "payable",
      "type": "function"
    },
    {
      "inputs": [
        {
          "internalType": "uint256",
          "name": "index",
          "type": "uint256"
        }
      ],
      "name": "retrieveTokenByIndex",
      "outputs": [
        {
          "internalType": "uint256",
          "name": "",
          "type": "uint256"
        }
      ],
      "stateMutability": "view",
      "type": "function"
    },
    {
      "inputs": [],
      "name": "fetchTokenSupply",
      "outputs": [
        {
          "internalType": "uint256",
          "name": "",
          "type": "uint256"
        }
      ],
      "stateMutability": "view",
      "type": "function"
    },
    {
      "inputs": [
        {
          "internalType": "string",
          "name": "tokenURI",
          "type": "string"
        }
      ],
      "name": "checkTokenExists",
      "outputs": [
        {
          "internalType": "bool",
          "name": "",
          "type": "bool"
        }
      ],
      "stateMutability": "view",
      "type": "function"
    },
    {
      "inputs": [],
      "name": "fetchAllNftsOnSale",
      "outputs": [
        {
          "components": [
            {
              "internalType": "uint256",
              "name": "tokenId",
              "type": "uint256"
            },
            {
              "internalType": "uint256",
              "name": "tokenPrice",
              "type": "uint256"
            },
            {
              "internalType": "address",
              "name": "tokenCreator",
              "type": "address"
            },
            {
              "internalType": "bool",
              "name": "isTokenListed",
              "type": "bool"
            }
          ],
          "internalType": "struct EventNftMarket.EventNft[]",
          "name": "",
          "type": "tuple[]"
        }
      ],
      "stateMutability": "view",
      "type": "function"
    },
    {
      "inputs": [
        {
          "internalType": "uint256",
          "name": "tokenId",
          "type": "uint256"
        }
      ],
      "name": "returnSingleNftItem",
      "outputs": [
        {
          "components": [
            {
              "internalType": "uint256",
              "name": "tokenId",
              "type": "uint256"
            },
            {
              "internalType": "uint256",
              "name": "tokenPrice",
              "type": "uint256"
            },
            {
              "internalType": "address",
              "name": "tokenCreator",
              "type": "address"
            },
            {
              "internalType": "bool",
              "name": "isTokenListed",
              "type": "bool"
            }
          ],
          "internalType": "struct EventNftMarket.EventNft",
          "name": "",
          "type": "tuple"
        }
      ],
      "stateMutability": "view",
      "type": "function"
    },
    {
      "inputs": [],
      "name": "fetchAllOwnedNFTs",
      "outputs": [
        {
          "components": [
            {
              "internalType": "uint256",
              "name": "tokenId",
              "type": "uint256"
            },
            {
              "internalType": "uint256",
              "name": "tokenPrice",
              "type": "uint256"
            },
            {
              "internalType": "address",
              "name": "tokenCreator",
              "type": "address"
            },
            {
              "internalType": "bool",
              "name": "isTokenListed",
              "type": "bool"
            }
          ],
          "internalType": "struct EventNftMarket.EventNft[]",
          "name": "",
          "type": "tuple[]"
        }
      ],
      "stateMutability": "view",
      "type": "function"
    }
  ],
  "bytecode": "0x6080604052666a94d74f430000600a553480156200001c57600080fd5b506040518060400160405280601581526020017f4576656e74205469636b657473204e4654204e4654000000000000000000000081525060405180604001604052806005815260200164115513919560da1b8152508160009081620000829190620001af565b506001620000918282620001af565b505050620000ae620000a8620000b460201b60201c565b620000b8565b6200027b565b3390565b600780546001600160a01b038381166001600160a01b0319831681179093556040519116919082907f8be0079c531659141344cd1fd0a4f28419497f9722a3daafe3b4186f6b6457e090600090a35050565b634e487b7160e01b600052604160045260246000fd5b600181811c908216806200013557607f821691505b6020821081036200015657634e487b7160e01b600052602260045260246000fd5b50919050565b601f821115620001aa57600081815260208120601f850160051c81016020861015620001855750805b601f850160051c820191505b81811015620001a65782815560010162000191565b5050505b505050565b81516001600160401b03811115620001cb57620001cb6200010a565b620001e381620001dc845462000120565b846200015c565b602080601f8311600181146200021b5760008415620002025750858301515b600019600386901b1c1916600185901b178555620001a6565b600085815260208120601f198616915b828110156200024c578886015182559484019460019091019084016200022b565b50858210156200026b5787850151600019600388901b60f8161c191681555b5050505050600190811b01905550565b6119b3806200028b6000396000f3fe60806040526004361061019c5760003560e01c806370a08231116100ec578063c30c21a71161008a578063d871ca1511610064578063d871ca15146104dc578063e985e9c5146104f1578063f0d2fad814610511578063f2fde38b1461052257600080fd5b8063c30c21a714610408578063c3a66a5b146104a9578063c87b56dd146104bc57600080fd5b80638da5cb5b116100c65780638da5cb5b1461039557806395d89b41146103b3578063a22cb465146103c8578063b88d4fde146103e857600080fd5b806370a0823114610340578063715018a6146103605780637b4809081461037557600080fd5b806342842e0e11610159578063546df20711610133578063546df207146102b2578063556f8084146102f25780636352211e14610300578063640ae1661461032057600080fd5b806342842e0e14610292578063452757c5146102b25780634ae58814146102ce57600080fd5b806301ffc9a7146101a157806304b49c3a146101d657806306fdde03146101f6578063081812fc14610218578063095ea7b31461025057806323b872dd14610272575b600080fd5b3480156101ad57600080fd5b506101c16101bc36600461133f565b610542565b60405190151581526020015b60405180910390f35b3480156101e257600080fd5b506101c16101f1366004611408565b610594565b34801561020257600080fd5b5061020b6105c4565b6040516101cd919061148d565b34801561022457600080fd5b506102386102333660046114a0565b610656565b6040516001600160a01b0390911681526020016101cd565b34801561025c57600080fd5b5061027061026b3660046114d5565b61067d565b005b34801561027e57600080fd5b5061027061028d3660046114ff565b610797565b34801561029e57600080fd5b506102706102ad3660046114ff565b6107c8565b3480156102be57600080fd5b5060606040516101cd919061153b565b6102e46102dc3660046115b2565b600092915050565b6040519081526020016101cd565b6102e46102dc3660046115f7565b34801561030c57600080fd5b5061023861031b3660046114a0565b6107e3565b34801561032c57600080fd5b506102e461033b3660046114a0565b610843565b34801561034c57600080fd5b506102e461035b366004611619565b61086a565b34801561036c57600080fd5b506102706108f0565b34801561038157600080fd5b506102706103903660046114a0565b610904565b3480156103a157600080fd5b506007546001600160a01b0316610238565b3480156103bf57600080fd5b5061020b610972565b3480156103d457600080fd5b506102706103e3366004611634565b610981565b3480156103f457600080fd5b50610270610403366004611670565b610990565b34801561041457600080fd5b5061049c6104233660046114a0565b604080516080810182526000808252602082018190529181018290526060810191909152506000908152600d6020908152604091829020825160808101845281548152600182015492810192909252600201546001600160a01b03811692820192909252600160a01b90910460ff161515606082015290565b6040516101cd91906116ec565b6102706104b73660046115f7565b6109c8565b3480156104c857600080fd5b5061020b6104d73660046114a0565b610a8b565b3480156104e857600080fd5b50600b546102e4565b3480156104fd57600080fd5b506101c161050c366004611722565b610b9b565b61027061051f3660046114a0565b50565b34801561052e57600080fd5b5061027061053d366004611619565b610bc9565b60006001600160e01b031982166380ac58cd60e01b148061057357506001600160e01b03198216635b5e139f60e01b145b8061058e57506301ffc9a760e01b6001600160e01b03198316145b92915050565b6000600c826040516105a69190611755565b9081526040519081900360200190205460ff16151560011492915050565b6060600080546105d390611771565b80601f01602080910402602001604051908101604052809291908181526020018280546105ff90611771565b801561064c5780601f106106215761010080835404028352916020019161064c565b820191906000526020600020905b81548152906001019060200180831161062f57829003601f168201915b5050505050905090565b600061066182610c3f565b506000908152600460205260409020546001600160a01b031690565b6000610688826107e3565b9050806001600160a01b0316836001600160a01b0316036106fa5760405162461bcd60e51b815260206004820152602160248201527f4552433732313a20617070726f76616c20746f2063757272656e74206f776e656044820152603960f91b60648201526084015b60405180910390fd5b336001600160a01b038216148061071657506107168133610b9b565b6107885760405162461bcd60e51b815260206004820152603e60248201527f4552433732313a20617070726f76652063616c6c6572206973206e6f7420746f60448201527f6b656e206f776e6572206e6f7220617070726f76656420666f7220616c6c000060648201526084016106f1565b6107928383610c9e565b505050565b6107a13382610d0c565b6107bd5760405162461bcd60e51b81526004016106f1906117ab565b610792838383610d6a565b61079283838360405180602001604052806000815250610990565b6000818152600260205260408120546001600160a01b03168061058e5760405162461bcd60e51b8152602060048201526018602482015277115490cdcc8c4e881a5b9d985b1a59081d1bdad95b88125160421b60448201526064016106f1565b6000600b8281548110610858576108586117f9565b90600052602060002001549050919050565b60006001600160a01b0382166108d45760405162461bcd60e51b815260206004820152602960248201527f4552433732313a2061646472657373207a65726f206973206e6f7420612076616044820152683634b21037bbb732b960b91b60648201526084016106f1565b506001600160a01b031660009081526003602052604090205490565b6108f8610f06565b6109026000610f60565b565b61090c610f06565b600080821161096c5760405162461bcd60e51b815260206004820152602660248201527f4d616b652073757265207468617420746865206c697374696e67206973203e2060448201526530204757454960d01b60648201526084016106f1565b50600a55565b6060600180546105d390611771565b61098c338383610fb2565b5050565b61099a3383610d0c565b6109b65760405162461bcd60e51b81526004016106f1906117ab565b6109c284848484611080565b50505050565b60006109d3836107e3565b9050336001600160a01b0382168114610a445760405162461bcd60e51b815260206004820152602d60248201527f506c6561736520656e7375726520796f752061726520746865206f776e65722060448201526c37b3103a3434b9903a37b5b2b760991b60648201526084016106f1565b6000848152600d6020526040902060028101805460ff60a01b1916600160a01b179055600101839055610a7660085490565b6000036109c2576109c2600880546001019055565b6060610a9682610c3f565b60008281526006602052604081208054610aaf90611771565b80601f0160208091040260200160405190810160405280929190818152602001828054610adb90611771565b8015610b285780601f10610afd57610100808354040283529160200191610b28565b820191906000526020600020905b815481529060010190602001808311610b0b57829003601f168201915b505050505090506000610b4660408051602081019091526000815290565b90508051600003610b58575092915050565b815115610b8a578082604051602001610b7292919061180f565b60405160208183030381529060405292505050919050565b610b93846110b3565b949350505050565b6001600160a01b03918216600090815260056020908152604080832093909416825291909152205460ff1690565b610bd1610f06565b6001600160a01b038116610c365760405162461bcd60e51b815260206004820152602660248201527f4f776e61626c653a206e6577206f776e657220697320746865207a65726f206160448201526564647265737360d01b60648201526084016106f1565b61051f81610f60565b6000818152600260205260409020546001600160a01b031661051f5760405162461bcd60e51b8152602060048201526018602482015277115490cdcc8c4e881a5b9d985b1a59081d1bdad95b88125160421b60448201526064016106f1565b600081815260046020526040902080546001600160a01b0319166001600160a01b0384169081179091558190610cd3826107e3565b6001600160a01b03167f8c5be1e5ebec7d5bd14f71427d1e84f3dd0314c0f7b2291e5b200ac8c7c3b92560405160405180910390a45050565b600080610d18836107e3565b9050806001600160a01b0316846001600160a01b03161480610d3f5750610d3f8185610b9b565b80610b935750836001600160a01b0316610d5884610656565b6001600160a01b031614949350505050565b826001600160a01b0316610d7d826107e3565b6001600160a01b031614610de15760405162461bcd60e51b815260206004820152602560248201527f4552433732313a207472616e736665722066726f6d20696e636f72726563742060448201526437bbb732b960d91b60648201526084016106f1565b6001600160a01b038216610e435760405162461bcd60e51b8152602060048201526024808201527f4552433732313a207472616e7366657220746f20746865207a65726f206164646044820152637265737360e01b60648201526084016106f1565b610e4e600082610c9e565b6001600160a01b0383166000908152600360205260408120805460019290610e77908490611854565b90915550506001600160a01b0382166000908152600360205260408120805460019290610ea5908490611867565b909155505060008181526002602052604080822080546001600160a01b0319166001600160a01b0386811691821790925591518493918716917fddf252ad1be2c89b69c2b068fc378daa952ba7f163c4a11628f55a4df523b3ef91a4505050565b6007546001600160a01b031633146109025760405162461bcd60e51b815260206004820181905260248201527f4f776e61626c653a2063616c6c6572206973206e6f7420746865206f776e657260448201526064016106f1565b600780546001600160a01b038381166001600160a01b0319831681179093556040519116919082907f8be0079c531659141344cd1fd0a4f28419497f9722a3daafe3b4186f6b6457e090600090a35050565b816001600160a01b0316836001600160a01b0316036110135760405162461bcd60e51b815260206004820152601960248201527f4552433732313a20617070726f766520746f2063616c6c65720000000000000060448201526064016106f1565b6001600160a01b03838116600081815260056020908152604080832094871680845294825291829020805460ff191686151590811790915591519182527f17307eab39ab6107e8899845ad3d59bd9653f200f220920489ca2b5937696c31910160405180910390a3505050565b61108b848484610d6a565b61109784848484611127565b6109c25760405162461bcd60e51b81526004016106f19061187a565b60606110be82610c3f565b60006110d560408051602081019091526000815290565b905060008151116110f55760405180602001604052806000815250611120565b806110ff84611228565b60405160200161111092919061180f565b6040516020818303038152906040525b9392505050565b60006001600160a01b0384163b1561121d57604051630a85bd0160e11b81526001600160a01b0385169063150b7a029061116b9033908990889088906004016118cc565b6020604051808303816000875af19250505080156111a6575060408051601f3d908101601f191682019092526111a391810190611909565b60015b611203573d8080156111d4576040519150601f19603f3d011682016040523d82523d6000602084013e6111d9565b606091505b5080516000036111fb5760405162461bcd60e51b81526004016106f19061187a565b805181602001fd5b6001600160e01b031916630a85bd0160e11b149050610b93565b506001949350505050565b60608160000361124f5750506040805180820190915260018152600360fc1b602082015290565b8160005b8115611279578061126381611926565b91506112729050600a83611955565b9150611253565b60008167ffffffffffffffff8111156112945761129461135c565b6040519080825280601f01601f1916602001820160405280156112be576020820181803683370190505b5090505b8415610b93576112d3600183611854565b91506112e0600a86611969565b6112eb906030611867565b60f81b818381518110611300576113006117f9565b60200101906001600160f81b031916908160001a905350611322600a86611955565b94506112c2565b6001600160e01b03198116811461051f57600080fd5b60006020828403121561135157600080fd5b813561112081611329565b634e487b7160e01b600052604160045260246000fd5b600067ffffffffffffffff8084111561138d5761138d61135c565b604051601f8501601f19908116603f011681019082821181831017156113b5576113b561135c565b816040528093508581528686860111156113ce57600080fd5b858560208301376000602087830101525050509392505050565b600082601f8301126113f957600080fd5b61112083833560208501611372565b60006020828403121561141a57600080fd5b813567ffffffffffffffff81111561143157600080fd5b610b93848285016113e8565b60005b83811015611458578181015183820152602001611440565b50506000910152565b6000815180845261147981602086016020860161143d565b601f01601f19169290920160200192915050565b6020815260006111206020830184611461565b6000602082840312156114b257600080fd5b5035919050565b80356001600160a01b03811681146114d057600080fd5b919050565b600080604083850312156114e857600080fd5b6114f1836114b9565b946020939093013593505050565b60008060006060848603121561151457600080fd5b61151d846114b9565b925061152b602085016114b9565b9150604084013590509250925092565b6020808252825182820181905260009190848201906040850190845b818110156115a65761159383855180518252602080820151908301526040808201516001600160a01b0316908301526060908101511515910152565b9284019260809290920191600101611557565b50909695505050505050565b600080604083850312156115c557600080fd5b823567ffffffffffffffff8111156115dc57600080fd5b6115e8858286016113e8565b95602094909401359450505050565b6000806040838503121561160a57600080fd5b50508035926020909101359150565b60006020828403121561162b57600080fd5b611120826114b9565b6000806040838503121561164757600080fd5b611650836114b9565b91506020830135801515811461166557600080fd5b809150509250929050565b6000806000806080858703121561168657600080fd5b61168f856114b9565b935061169d602086016114b9565b925060408501359150606085013567ffffffffffffffff8111156116c057600080fd5b8501601f810187136116d157600080fd5b6116e087823560208401611372565b91505092959194509250565b81518152602080830151908201526040808301516001600160a01b0316908201526060808301511515908201526080810161058e565b6000806040838503121561173557600080fd5b61173e836114b9565b915061174c602084016114b9565b90509250929050565b6000825161176781846020870161143d565b9190910192915050565b600181811c9082168061178557607f821691505b6020821081036117a557634e487b7160e01b600052602260045260246000fd5b50919050565b6020808252602e908201527f4552433732313a2063616c6c6572206973206e6f7420746f6b656e206f776e6560408201526d1c881b9bdc88185c1c1c9bdd995960921b606082015260800190565b634e487b7160e01b600052603260045260246000fd5b6000835161182181846020880161143d565b83519083019061183581836020880161143d565b01949350505050565b634e487b7160e01b600052601160045260246000fd5b8181038181111561058e5761058e61183e565b8082018082111561058e5761058e61183e565b60208082526032908201527f4552433732313a207472616e7366657220746f206e6f6e20455243373231526560408201527131b2b4bb32b91034b6b83632b6b2b73a32b960711b606082015260800190565b6001600160a01b03858116825284166020820152604081018390526080606082018190526000906118ff90830184611461565b9695505050505050565b60006020828403121561191b57600080fd5b815161112081611329565b6000600182016119385761193861183e565b5060010190565b634e487b7160e01b600052601260045260246000fd5b6000826119645761196461193f565b500490565b6000826119785761197861193f565b50069056fea264697066735822122052b8b7e5693c423205a9a6c95d5392886139b6f0e1eda4ce715abf57bc87cb4f64736f6c63430008110033",
  "immutableReferences": {},
  "source": "// SPDX-License-Identifier: MIT\npragma solidity ^0.8.17;\nimport \"../node_modules/@openzeppelin/contracts/token/ERC721/extensions/ERC721URIStorage.sol\";\nimport \"../node_modules/@openzeppelin/contracts/utils/Counters.sol\";\nimport \"../node_modules/@openzeppelin/contracts/token/ERC721/ERC721.sol\";\nimport \"../node_modules/@openzeppelin/contracts/access/Ownable.sol\";\n\n// Interface for the NFT routines to be invoked\ninterface NftRoutines {\n    function initialiseListingPrice(uint256 newListingPrice) external;\n    function mintNftToken(string memory tokenUri, uint256 tokenPrice) external payable returns (uint256);\n    function setNftOnSale(uint256 tokenIndex, uint256 newTokenPrice) external payable; // 3. Routine to set the nft on sale\n    function buyNft(uint256 tokenIndex, uint256 tokenPrice) external payable returns (uint256); // Routing to buy the NFT given a token Index and price\n    function removeNftFromSale(uint256 tokenIndex) external payable; // Removing an NFT from sale requires that we pay some ether \n}\n\ncontract EventNftMarket is ERC721URIStorage, Ownable, NftRoutines {\n    using Counters for Counters.Counter;\n\n    Counters.Counter private listedTokenItems; // Listed Token Items\n    Counters.Counter private tokenIds; // Number that stores how many token's we have\n\n    uint256 ticketListingPrice = 0.030 ether; // Listing price for the event NFT. Initially sell one for 0.030 ETHER\n    uint256[] private listOfNfts; // Store the list of NFTs in an array\n\n    mapping(string => bool) private usedTokenURIs; // Map string to boolean for checking the used token URis\n    mapping(uint => EventNft) private mappedNftData;\n    mapping(uint => uint) private mappedIdToIndex;\n\n    mapping(address => mapping(uint => uint)) private ownedEventTokens; // Mapping between the address of the owner and an integer that stores the owner tokens ID\n    mapping(uint => uint) private _idToOwnedIndex;\n\n    struct EventNft { // Struct for holding Event NFT data\n        uint256 tokenId;\n        uint256 tokenPrice;\n        address tokenCreator;\n        bool isTokenListed; // Determines if the token is listed for sale or not\n    }\n\n    event EventNftCreated (\n        uint tokenId,\n        uint price,\n        address creator,\n        bool isTokenListed\n    );\n\n    constructor() ERC721(\"Event Tickets NFT NFT\", \"ETNFT\") {}\n\n    // @description: Set the listing price for a token\n    function initialiseListingPrice(uint256 newListingPrice) public override onlyOwner {\n        uint256 defaultPrice = 0;\n        require(newListingPrice > defaultPrice, \"Make sure that the listing is > 0 GWEI\");\n        ticketListingPrice = newListingPrice;\n    }\n\n    // @description: Register a new token on the blockchain.\n    // @returns: The ID of that token minted\n    function mintNftToken(string memory tokenUri, uint256 tokenPrice) public payable override returns (uint256) {\n        // Logic Here to mint an NFT token\n    }\n\n    function setNftOnSale(uint256 tokenIndex, uint256 newTokenPrice) public payable {\n        address nftOwner = ERC721.ownerOf(tokenIndex);\n        address ownerOfNft = msg.sender; // Store the owner of the NFT\n\n        require(ownerOfNft == nftOwner, \"Please ensure you are the owner of this token\");\n        \n        // Update struct values\n        mappedNftData[tokenIndex].isTokenListed = true;\n        mappedNftData[tokenIndex].tokenPrice = newTokenPrice; // Update the new token price\n\n        // Increment Listed Items\n        if(listedTokenItems.current() == 0) { // If the current items on sale is by default 0\n            listedTokenItems.increment();\n        }\n\n    }\n\n    function removeNftFromSale(uint256 tokenIndex) external payable override {\n                \n    }\n\n    function buyNft(uint256 tokenIndex, uint256 tokenPrice) external payable override returns (uint256) {\n\n    }\n\n    // @description: Fetch a token by its index\n    function retrieveTokenByIndex(uint index) public view returns (uint) {\n       return listOfNfts[index];\n    }\n\n    // @description: Return the total supply of event ticket nft's by returning the array length.\n    function fetchTokenSupply() public view returns (uint256) {\n        return listOfNfts.length;\n    }\n\n    function checkTokenExists(string memory tokenURI) public view returns (bool) {\n        return usedTokenURIs[tokenURI] == true;\n    }\n\n    // @description: Retrieves all of the event ticket NFT's on sale.\n    // @returns: An array of Event NFT Tokens stored in memory\n    function fetchAllNftsOnSale() public view returns (EventNft[] memory) {\n\n    }\n\n    function returnSingleNftItem(uint256 tokenId) public view returns(EventNft memory) {\n        return mappedNftData[tokenId]; // Return the mapped NFT ID to the token ID\n    }\n\n // Logic for getting all of the user's owned Event Ticket NFT's\n    // @description Fetch all of the user's owned NFTs\n    // @returns: An array of event nft items\n    function fetchAllOwnedNFTs() public view returns(EventNft[] memory) {\n       \n    }\n\n}",
  "sourcePath": "/Users/sabin2000/Documents/ticketblock/frontend/contracts/EventNftMarket.sol",
  "compiler": {
    "name": "solc",
    "version": "0.8.17+commit.8df45f5f.Emscripten.clang"
  },
  "schemaVersion": "3.4.9",
  "updatedAt": "2022-10-13T12:26:02.384Z",
  "devdoc": {
    "kind": "dev",
    "methods": {
      "approve(address,uint256)": {
        "details": "See {IERC721-approve}."
      },
      "balanceOf(address)": {
        "details": "See {IERC721-balanceOf}."
      },
      "getApproved(uint256)": {
        "details": "See {IERC721-getApproved}."
      },
      "isApprovedForAll(address,address)": {
        "details": "See {IERC721-isApprovedForAll}."
      },
      "name()": {
        "details": "See {IERC721Metadata-name}."
      },
      "owner()": {
        "details": "Returns the address of the current owner."
      },
      "ownerOf(uint256)": {
        "details": "See {IERC721-ownerOf}."
      },
      "renounceOwnership()": {
        "details": "Leaves the contract without owner. It will not be possible to call `onlyOwner` functions anymore. Can only be called by the current owner. NOTE: Renouncing ownership will leave the contract without an owner, thereby removing any functionality that is only available to the owner."
      },
      "safeTransferFrom(address,address,uint256)": {
        "details": "See {IERC721-safeTransferFrom}."
      },
      "safeTransferFrom(address,address,uint256,bytes)": {
        "details": "See {IERC721-safeTransferFrom}."
      },
      "setApprovalForAll(address,bool)": {
        "details": "See {IERC721-setApprovalForAll}."
      },
      "supportsInterface(bytes4)": {
        "details": "See {IERC165-supportsInterface}."
      },
      "symbol()": {
        "details": "See {IERC721Metadata-symbol}."
      },
      "tokenURI(uint256)": {
        "details": "See {IERC721Metadata-tokenURI}."
      },
      "transferFrom(address,address,uint256)": {
        "details": "See {IERC721-transferFrom}."
      },
      "transferOwnership(address)": {
        "details": "Transfers ownership of the contract to a new account (`newOwner`). Can only be called by the current owner."
      }
    },
    "version": 1
  },
  "userdoc": {
    "kind": "user",
    "methods": {},
    "version": 1
  }
}