{
  "contractName": "EventNftMarket",
  "abi": [
    {
      "inputs": [
        {
          "internalType": "uint256",
          "name": "_ticketListingPrice",
          "type": "uint256"
        }
      ],
      "stateMutability": "nonpayable",
      "type": "constructor"
    },
    {
      "anonymous": false,
      "inputs": [
        {
          "indexed": true,
          "internalType": "address",
          "name": "owner",
          "type": "address"
        },
        {
          "indexed": true,
          "internalType": "address",
          "name": "approved",
          "type": "address"
        },
        {
          "indexed": true,
          "internalType": "uint256",
          "name": "tokenId",
          "type": "uint256"
        }
      ],
      "name": "Approval",
      "type": "event"
    },
    {
      "anonymous": false,
      "inputs": [
        {
          "indexed": true,
          "internalType": "address",
          "name": "owner",
          "type": "address"
        },
        {
          "indexed": true,
          "internalType": "address",
          "name": "operator",
          "type": "address"
        },
        {
          "indexed": false,
          "internalType": "bool",
          "name": "approved",
          "type": "bool"
        }
      ],
      "name": "ApprovalForAll",
      "type": "event"
    },
    {
      "anonymous": false,
      "inputs": [
        {
          "indexed": false,
          "internalType": "uint256",
          "name": "tokenId",
          "type": "uint256"
        },
        {
          "indexed": false,
          "internalType": "uint256",
          "name": "price",
          "type": "uint256"
        },
        {
          "indexed": false,
          "internalType": "address",
          "name": "creator",
          "type": "address"
        },
        {
          "indexed": false,
          "internalType": "bool",
          "name": "isTokenListed",
          "type": "bool"
        }
      ],
      "name": "EventNftCreated",
      "type": "event"
    },
    {
      "anonymous": false,
      "inputs": [
        {
          "indexed": false,
          "internalType": "uint256",
          "name": "tokenId",
          "type": "uint256"
        },
        {
          "indexed": false,
          "internalType": "uint256",
          "name": "newPrice",
          "type": "uint256"
        },
        {
          "indexed": false,
          "internalType": "address",
          "name": "newCreator",
          "type": "address"
        },
        {
          "indexed": false,
          "internalType": "bool",
          "name": "newIsTokenListed",
          "type": "bool"
        }
      ],
      "name": "EventNftUpdated",
      "type": "event"
    },
    {
      "anonymous": false,
      "inputs": [
        {
          "indexed": true,
          "internalType": "address",
          "name": "previousOwner",
          "type": "address"
        },
        {
          "indexed": true,
          "internalType": "address",
          "name": "newOwner",
          "type": "address"
        }
      ],
      "name": "OwnershipTransferred",
      "type": "event"
    },
    {
      "anonymous": false,
      "inputs": [
        {
          "indexed": true,
          "internalType": "address",
          "name": "from",
          "type": "address"
        },
        {
          "indexed": true,
          "internalType": "address",
          "name": "to",
          "type": "address"
        },
        {
          "indexed": true,
          "internalType": "uint256",
          "name": "tokenId",
          "type": "uint256"
        }
      ],
      "name": "Transfer",
      "type": "event"
    },
    {
      "inputs": [
        {
          "internalType": "address",
          "name": "to",
          "type": "address"
        },
        {
          "internalType": "uint256",
          "name": "tokenId",
          "type": "uint256"
        }
      ],
      "name": "approve",
      "outputs": [],
      "stateMutability": "nonpayable",
      "type": "function"
    },
    {
      "inputs": [
        {
          "internalType": "address",
          "name": "owner",
          "type": "address"
        }
      ],
      "name": "balanceOf",
      "outputs": [
        {
          "internalType": "uint256",
          "name": "",
          "type": "uint256"
        }
      ],
      "stateMutability": "view",
      "type": "function"
    },
    {
      "inputs": [
        {
          "internalType": "uint256",
          "name": "tokenId",
          "type": "uint256"
        }
      ],
      "name": "getApproved",
      "outputs": [
        {
          "internalType": "address",
          "name": "",
          "type": "address"
        }
      ],
      "stateMutability": "view",
      "type": "function"
    },
    {
      "inputs": [
        {
          "internalType": "address",
          "name": "owner",
          "type": "address"
        },
        {
          "internalType": "address",
          "name": "operator",
          "type": "address"
        }
      ],
      "name": "isApprovedForAll",
      "outputs": [
        {
          "internalType": "bool",
          "name": "",
          "type": "bool"
        }
      ],
      "stateMutability": "view",
      "type": "function"
    },
    {
      "inputs": [],
      "name": "name",
      "outputs": [
        {
          "internalType": "string",
          "name": "",
          "type": "string"
        }
      ],
      "stateMutability": "view",
      "type": "function"
    },
    {
      "inputs": [],
      "name": "owner",
      "outputs": [
        {
          "internalType": "address",
          "name": "",
          "type": "address"
        }
      ],
      "stateMutability": "view",
      "type": "function"
    },
    {
      "inputs": [
        {
          "internalType": "uint256",
          "name": "tokenId",
          "type": "uint256"
        }
      ],
      "name": "ownerOf",
      "outputs": [
        {
          "internalType": "address",
          "name": "",
          "type": "address"
        }
      ],
      "stateMutability": "view",
      "type": "function"
    },
    {
      "inputs": [],
      "name": "renounceOwnership",
      "outputs": [],
      "stateMutability": "nonpayable",
      "type": "function"
    },
    {
      "inputs": [
        {
          "internalType": "address",
          "name": "from",
          "type": "address"
        },
        {
          "internalType": "address",
          "name": "to",
          "type": "address"
        },
        {
          "internalType": "uint256",
          "name": "tokenId",
          "type": "uint256"
        }
      ],
      "name": "safeTransferFrom",
      "outputs": [],
      "stateMutability": "nonpayable",
      "type": "function"
    },
    {
      "inputs": [
        {
          "internalType": "address",
          "name": "from",
          "type": "address"
        },
        {
          "internalType": "address",
          "name": "to",
          "type": "address"
        },
        {
          "internalType": "uint256",
          "name": "tokenId",
          "type": "uint256"
        },
        {
          "internalType": "bytes",
          "name": "data",
          "type": "bytes"
        }
      ],
      "name": "safeTransferFrom",
      "outputs": [],
      "stateMutability": "nonpayable",
      "type": "function"
    },
    {
      "inputs": [
        {
          "internalType": "address",
          "name": "operator",
          "type": "address"
        },
        {
          "internalType": "bool",
          "name": "approved",
          "type": "bool"
        }
      ],
      "name": "setApprovalForAll",
      "outputs": [],
      "stateMutability": "nonpayable",
      "type": "function"
    },
    {
      "inputs": [
        {
          "internalType": "bytes4",
          "name": "interfaceId",
          "type": "bytes4"
        }
      ],
      "name": "supportsInterface",
      "outputs": [
        {
          "internalType": "bool",
          "name": "",
          "type": "bool"
        }
      ],
      "stateMutability": "view",
      "type": "function"
    },
    {
      "inputs": [],
      "name": "symbol",
      "outputs": [
        {
          "internalType": "string",
          "name": "",
          "type": "string"
        }
      ],
      "stateMutability": "view",
      "type": "function"
    },
    {
      "inputs": [
        {
          "internalType": "uint256",
          "name": "tokenId",
          "type": "uint256"
        }
      ],
      "name": "tokenURI",
      "outputs": [
        {
          "internalType": "string",
          "name": "",
          "type": "string"
        }
      ],
      "stateMutability": "view",
      "type": "function"
    },
    {
      "inputs": [
        {
          "internalType": "address",
          "name": "from",
          "type": "address"
        },
        {
          "internalType": "address",
          "name": "to",
          "type": "address"
        },
        {
          "internalType": "uint256",
          "name": "tokenId",
          "type": "uint256"
        }
      ],
      "name": "transferFrom",
      "outputs": [],
      "stateMutability": "nonpayable",
      "type": "function"
    },
    {
      "inputs": [
        {
          "internalType": "address",
          "name": "newOwner",
          "type": "address"
        }
      ],
      "name": "transferOwnership",
      "outputs": [],
      "stateMutability": "nonpayable",
      "type": "function"
    },
    {
      "inputs": [
        {
          "internalType": "uint256",
          "name": "newListingPrice",
          "type": "uint256"
        }
      ],
      "name": "initialiseListingPrice",
      "outputs": [],
      "stateMutability": "nonpayable",
      "type": "function"
    },
    {
      "inputs": [
        {
          "internalType": "uint256",
          "name": "tokenId",
          "type": "uint256"
        }
      ],
      "name": "isTokenNotOnSale",
      "outputs": [
        {
          "internalType": "bool",
          "name": "",
          "type": "bool"
        }
      ],
      "stateMutability": "payable",
      "type": "function"
    },
    {
      "inputs": [
        {
          "internalType": "uint256",
          "name": "tokenId",
          "type": "uint256"
        }
      ],
      "name": "isTokenAlreadyOnSale",
      "outputs": [
        {
          "internalType": "bool",
          "name": "",
          "type": "bool"
        }
      ],
      "stateMutability": "payable",
      "type": "function"
    },
    {
      "inputs": [],
      "name": "getNftTotalSupply",
      "outputs": [
        {
          "internalType": "uint256",
          "name": "",
          "type": "uint256"
        }
      ],
      "stateMutability": "view",
      "type": "function"
    },
    {
      "inputs": [],
      "name": "fetchCurrentTokenIds",
      "outputs": [
        {
          "internalType": "uint256",
          "name": "",
          "type": "uint256"
        }
      ],
      "stateMutability": "view",
      "type": "function"
    },
    {
      "inputs": [
        {
          "internalType": "uint256",
          "name": "index",
          "type": "uint256"
        }
      ],
      "name": "retrieveTokenByIndex",
      "outputs": [
        {
          "internalType": "uint256",
          "name": "",
          "type": "uint256"
        }
      ],
      "stateMutability": "view",
      "type": "function"
    },
    {
      "inputs": [
        {
          "internalType": "string",
          "name": "tokenUri",
          "type": "string"
        },
        {
          "internalType": "uint256",
          "name": "tokenPrice",
          "type": "uint256"
        }
      ],
      "name": "mintNftToken",
      "outputs": [
        {
          "internalType": "uint256",
          "name": "",
          "type": "uint256"
        }
      ],
      "stateMutability": "payable",
      "type": "function"
    },
    {
      "inputs": [
        {
          "internalType": "uint256",
          "name": "tokenId",
          "type": "uint256"
        }
      ],
      "name": "getPriceOfNftToken",
      "outputs": [
        {
          "internalType": "uint256",
          "name": "",
          "type": "uint256"
        }
      ],
      "stateMutability": "view",
      "type": "function"
    },
    {
      "inputs": [
        {
          "internalType": "uint256",
          "name": "tokenId",
          "type": "uint256"
        }
      ],
      "name": "buyNft",
      "outputs": [],
      "stateMutability": "payable",
      "type": "function"
    },
    {
      "inputs": [
        {
          "internalType": "uint256",
          "name": "tokenId",
          "type": "uint256"
        }
      ],
      "name": "checkTokenCreatorIsOwner",
      "outputs": [
        {
          "internalType": "bool",
          "name": "",
          "type": "bool"
        }
      ],
      "stateMutability": "view",
      "type": "function"
    },
    {
      "inputs": [],
      "name": "isValidListingPrice",
      "outputs": [
        {
          "internalType": "bool",
          "name": "",
          "type": "bool"
        }
      ],
      "stateMutability": "payable",
      "type": "function"
    },
    {
      "inputs": [
        {
          "internalType": "uint256",
          "name": "tokenId",
          "type": "uint256"
        },
        {
          "internalType": "uint256",
          "name": "newTokenPrice",
          "type": "uint256"
        }
      ],
      "name": "setNftOnSale",
      "outputs": [],
      "stateMutability": "payable",
      "type": "function"
    },
    {
      "inputs": [],
      "name": "fetchAllNftsOnSale",
      "outputs": [
        {
          "components": [
            {
              "internalType": "uint256",
              "name": "tokenId",
              "type": "uint256"
            },
            {
              "internalType": "uint256",
              "name": "tokenPrice",
              "type": "uint256"
            },
            {
              "internalType": "address",
              "name": "tokenCreator",
              "type": "address"
            },
            {
              "internalType": "bool",
              "name": "isTokenListed",
              "type": "bool"
            }
          ],
          "internalType": "struct EventNftMarket.EventNft[]",
          "name": "",
          "type": "tuple[]"
        }
      ],
      "stateMutability": "view",
      "type": "function"
    },
    {
      "inputs": [],
      "name": "fetchAllOwnedNFTs",
      "outputs": [
        {
          "components": [
            {
              "internalType": "uint256",
              "name": "tokenId",
              "type": "uint256"
            },
            {
              "internalType": "uint256",
              "name": "tokenPrice",
              "type": "uint256"
            },
            {
              "internalType": "address",
              "name": "tokenCreator",
              "type": "address"
            },
            {
              "internalType": "bool",
              "name": "isTokenListed",
              "type": "bool"
            }
          ],
          "internalType": "struct EventNftMarket.EventNft[]",
          "name": "",
          "type": "tuple[]"
        }
      ],
      "stateMutability": "view",
      "type": "function"
    },
    {
      "inputs": [
        {
          "internalType": "address",
          "name": "tokenOwner",
          "type": "address"
        },
        {
          "internalType": "uint256",
          "name": "tokenIndex",
          "type": "uint256"
        }
      ],
      "name": "fetchTokenOwner",
      "outputs": [
        {
          "internalType": "uint256",
          "name": "",
          "type": "uint256"
        }
      ],
      "stateMutability": "view",
      "type": "function"
    },
    {
      "inputs": [],
      "name": "fetchTokenSupply",
      "outputs": [
        {
          "internalType": "uint256",
          "name": "",
          "type": "uint256"
        }
      ],
      "stateMutability": "view",
      "type": "function"
    },
    {
      "inputs": [
        {
          "internalType": "string",
          "name": "tokenURI",
          "type": "string"
        }
      ],
      "name": "checkTokenExists",
      "outputs": [
        {
          "internalType": "bool",
          "name": "",
          "type": "bool"
        }
      ],
      "stateMutability": "view",
      "type": "function"
    },
    {
      "inputs": [
        {
          "internalType": "uint256",
          "name": "tokenId",
          "type": "uint256"
        }
      ],
      "name": "returnSingleNftItem",
      "outputs": [
        {
          "components": [
            {
              "internalType": "uint256",
              "name": "tokenId",
              "type": "uint256"
            },
            {
              "internalType": "uint256",
              "name": "tokenPrice",
              "type": "uint256"
            },
            {
              "internalType": "address",
              "name": "tokenCreator",
              "type": "address"
            },
            {
              "internalType": "bool",
              "name": "isTokenListed",
              "type": "bool"
            }
          ],
          "internalType": "struct EventNftMarket.EventNft",
          "name": "",
          "type": "tuple"
        }
      ],
      "stateMutability": "view",
      "type": "function"
    }
  ],
  "bytecode": "0x6080604052666a94d74f430000600a553480156200001c57600080fd5b5060405162002877380380620028778339810160408190526200003f9162000123565b60405180604001604052806011815260200170115d995b9d08151a58dad95d1cc8139195607a1b81525060405180604001604052806005815260200164115513919560da1b8152508160009081620000989190620001e2565b506001620000a78282620001e2565b505050620000c4620000be620000cd60201b60201c565b620000d1565b600a55620002ae565b3390565b600780546001600160a01b038381166001600160a01b0319831681179093556040519116919082907f8be0079c531659141344cd1fd0a4f28419497f9722a3daafe3b4186f6b6457e090600090a35050565b6000602082840312156200013657600080fd5b5051919050565b634e487b7160e01b600052604160045260246000fd5b600181811c908216806200016857607f821691505b6020821081036200018957634e487b7160e01b600052602260045260246000fd5b50919050565b601f821115620001dd57600081815260208120601f850160051c81016020861015620001b85750805b601f850160051c820191505b81811015620001d957828155600101620001c4565b5050505b505050565b81516001600160401b03811115620001fe57620001fe6200013d565b62000216816200020f845462000153565b846200018f565b602080601f8311600181146200024e5760008415620002355750858301515b600019600386901b1c1916600185901b178555620001d9565b600085815260208120601f198616915b828110156200027f578886015182559484019460019091019084016200025e565b50858210156200029e5787850151600019600388901b60f8161c191681555b5050505050600190811b01905550565b6125b980620002be6000396000f3fe6080604052600436106101f95760003560e01c8063640ae1661161010d578063b88d4fde116100a0578063c87b56dd1161006f578063c87b56dd146105d4578063cd2acaa5146105f4578063d871ca15146104c9578063e985e9c514610609578063f2fde38b1461065257600080fd5b8063b88d4fde14610531578063c30c21a714610551578063c3a66a5b1461057e578063c5527e801461059157600080fd5b806387888b5b116100dc57806387888b5b146104c95780638da5cb5b146104de57806395d89b41146104fc578063a22cb4651461051157600080fd5b8063640ae1661461045457806370a0823114610474578063715018a6146104945780637b480908146104a957600080fd5b8063243adbdd11610190578063452757c51161015f578063452757c5146103e05780634ae588141461040257806352ad5bf014610415578063546df2071461041f5780636352211e1461043457600080fd5b8063243adbdd1461034157806329ae6c0c146103545780633ea95f2a1461038257806342842e0e146103c057600080fd5b8063095ea7b3116101cc578063095ea7b3146102ad57806309ceadae146102cf578063162f4e81146102ef57806323b872dd1461032157600080fd5b806301ffc9a7146101fe57806304b49c3a1461023357806306fdde0314610253578063081812fc14610275575b600080fd5b34801561020a57600080fd5b5061021e610219366004611e37565b610672565b60405190151581526020015b60405180910390f35b34801561023f57600080fd5b5061021e61024e366004611f00565b6106c4565b34801561025f57600080fd5b506102686106f4565b60405161022a9190611f85565b34801561028157600080fd5b50610295610290366004611f98565b610786565b6040516001600160a01b03909116815260200161022a565b3480156102b957600080fd5b506102cd6102c8366004611fcd565b6107ad565b005b3480156102db57600080fd5b5061021e6102ea366004611f98565b6108c7565b61021e6102fd366004611f98565b6000908152600e6020526040902060020154600160a01b900460ff16151560011490565b34801561032d57600080fd5b506102cd61033c366004611ff7565b6108ed565b6102cd61034f366004611f98565b61091e565b61021e610362366004611f98565b6000908152600e6020526040902060020154600160a01b900460ff161590565b34801561038e57600080fd5b506103b261039d366004611f98565b6000908152600e602052604090206001015490565b60405190815260200161022a565b3480156103cc57600080fd5b506102cd6103db366004611ff7565b610a75565b3480156103ec57600080fd5b506103f5610a90565b60405161022a9190612033565b6103b26104103660046120aa565b610ba5565b600a54341461021e565b34801561042b57600080fd5b506103f5610d15565b34801561044057600080fd5b5061029561044f366004611f98565b610e50565b34801561046057600080fd5b506103b261046f366004611f98565b610eb0565b34801561048057600080fd5b506103b261048f3660046120ef565b610ed7565b3480156104a057600080fd5b506102cd610f5d565b3480156104b557600080fd5b506102cd6104c4366004611f98565b610f71565b3480156104d557600080fd5b50600b546103b2565b3480156104ea57600080fd5b506007546001600160a01b0316610295565b34801561050857600080fd5b50610268610fdf565b34801561051d57600080fd5b506102cd61052c36600461210a565b610fee565b34801561053d57600080fd5b506102cd61054c366004612146565b610ffd565b34801561055d57600080fd5b5061057161056c366004611f98565b611035565b60405161022a91906121c2565b6102cd61058c3660046121f8565b611092565b34801561059d57600080fd5b506103b26105ac366004611fcd565b6001600160a01b03919091166000908152601060209081526040808320938352929052205490565b3480156105e057600080fd5b506102686105ef366004611f98565b611218565b34801561060057600080fd5b506103b2611328565b34801561061557600080fd5b5061021e61062436600461221a565b6001600160a01b03918216600090815260056020908152604080832093909416825291909152205460ff1690565b34801561065e57600080fd5b506102cd61066d3660046120ef565b611338565b60006001600160e01b031982166380ac58cd60e01b14806106a357506001600160e01b03198216635b5e139f60e01b145b806106be57506301ffc9a760e01b6001600160e01b03198316145b92915050565b6000600d826040516106d6919061224d565b9081526040519081900360200190205460ff16151560011492915050565b60606000805461070390612269565b80601f016020809104026020016040519081016040528092919081815260200182805461072f90612269565b801561077c5780601f106107515761010080835404028352916020019161077c565b820191906000526020600020905b81548152906001019060200180831161075f57829003601f168201915b5050505050905090565b6000610791826113b1565b506000908152600460205260409020546001600160a01b031690565b60006107b882610e50565b9050806001600160a01b0316836001600160a01b03160361082a5760405162461bcd60e51b815260206004820152602160248201527f4552433732313a20617070726f76616c20746f2063757272656e74206f776e656044820152603960f91b60648201526084015b60405180910390fd5b336001600160a01b038216148061084657506108468133610624565b6108b85760405162461bcd60e51b815260206004820152603e60248201527f4552433732313a20617070726f76652063616c6c6572206973206e6f7420746f60448201527f6b656e206f776e6572206e6f7220617070726f76656420666f7220616c6c00006064820152608401610821565b6108c28383611410565b505050565b60006108d282610e50565b6001600160a01b0316336001600160a01b0316149050919050565b6108f7338261147e565b6109135760405162461bcd60e51b8152600401610821906122a3565b6108c28383836114fc565b600061092982610e50565b9050336001600160a01b0382161461099d5760405162461bcd60e51b815260206004820152603160248201527f506c6561736520656e73757265207468617420796f752061726520746865206f6044820152703bb732b91037b3103a3432903a37b5b2b760791b6064820152608401610821565b6000828152600e60205260409020600101543414610a0f5760405162461bcd60e51b815260206004820152602960248201527f506c65617365207375626d697420612076616c756520707269636520666f72206044820152683a3432903a37b5b2b760b91b6064820152608401610821565b6000828152600e60205260409020600201805460ff60a01b19169055610a356008611698565b610a408133846114fc565b6040516001600160a01b038216903480156108fc02916000818181858888f193505050501580156108c2573d6000803e3d6000fd5b6108c283838360405180602001604052806000815250610ffd565b60606000610a9d33610ed7565b905060008167ffffffffffffffff811115610aba57610aba611e54565b604051908082528060200260200182016040528015610af357816020015b610ae0611dee565b815260200190600190039081610ad85790505b50905060005b82811015610b9e57336000908152601060209081526040808320848452825280832054808452600e83529281902081516080810183528154815260018201549381019390935260028101546001600160a01b03811692840192909252600160a01b90910460ff16151560608301528451909190859085908110610b7e57610b7e6122f1565b602002602001018190525050508080610b969061231d565b915050610af9565b5092915050565b6000610bb0836106c4565b15610c0d5760405162461bcd60e51b815260206004820152602760248201527f506c6561736520656e7375726520746861742074686520746f6b656e205552496044820152662065786973747360c81b6064820152608401610821565b600a543414610c925760405162461bcd60e51b8152602060048201526044602482018190527f506c6561736520656e7375726520746865207072696365206f6620746865206e908201527f657720746f6b656e2069732073657420746f20746865206c697374696e6720706064820152637269636560e01b608482015260a401610821565b33610ca1600980546001019055565b610caf600880546001019055565b6000610cba60095490565b9050610cc682826116ef565b610cd08186611709565b610cda818561179c565b6001600d86604051610cec919061224d565b908152604051908190036020019020805491151560ff1990921691909117905591505092915050565b60606000610d22600b5490565b9050600080610d3060085490565b905060008167ffffffffffffffff811115610d4d57610d4d611e54565b604051908082528060200260200182016040528015610d8657816020015b610d73611dee565b815260200190600190039081610d6b5790505b50905060005b84811015610e47576000610d9f82610eb0565b6000818152600e60205260409020600281015491925090600160a01b900460ff1615610e325760408051608081018252825481526001830154602082015260028301546001600160a01b03811692820192909252600160a01b90910460ff16151560608201528451859088908110610e1957610e196122f1565b6020908102919091010152610e2f600187612336565b95505b50508080610e3f9061231d565b915050610d8c565b50949350505050565b6000818152600260205260408120546001600160a01b0316806106be5760405162461bcd60e51b8152602060048201526018602482015277115490cdcc8c4e881a5b9d985b1a59081d1bdad95b88125160421b6044820152606401610821565b6000600b8281548110610ec557610ec56122f1565b90600052602060002001549050919050565b60006001600160a01b038216610f415760405162461bcd60e51b815260206004820152602960248201527f4552433732313a2061646472657373207a65726f206973206e6f7420612076616044820152683634b21037bbb732b960b91b6064820152608401610821565b506001600160a01b031660009081526003602052604090205490565b610f65611856565b610f6f60006118b0565b565b610f79611856565b6000808211610fd95760405162461bcd60e51b815260206004820152602660248201527f4d616b652073757265207468617420746865206c697374696e67206973203e2060448201526530204757454960d01b6064820152608401610821565b50600a55565b60606001805461070390612269565b610ff9338383611902565b5050565b611007338361147e565b6110235760405162461bcd60e51b8152600401610821906122a3565b61102f848484846119d0565b50505050565b61103d611dee565b506000908152600e6020908152604091829020825160808101845281548152600182015492810192909252600201546001600160a01b03811692820192909252600160a01b90910460ff161515606082015290565b61109b826108c7565b61113e5760405162461bcd60e51b815260206004820152606260248201527f506c65617365206d616b6520737572652074686174207468652063726561746f60448201527f72206f662074686520746f6b656e206973207468652063757272656e74206f7760648201527f6e6572206265666f726520706c6163696e6720746865206e6674206f6e2073616084820152616c6560f01b60a482015260c401610821565b6000828152600e6020526040902060020154600160a01b900460ff1615156001146111d15760405162461bcd60e51b815260206004820152603960248201527f506c65617365206d616b65207375726520746861742074686520746f6b656e2060448201527f6973206e6f7420616c7265616479206f6e2073616c652e2e2e000000000000006064820152608401610821565b6000828152600e6020526040902060028101805460ff60a01b1916600160a01b17905560010181905561120360085490565b600003610ff957610ff9600880546001019055565b6060611223826113b1565b6000828152600660205260408120805461123c90612269565b80601f016020809104026020016040519081016040528092919081815260200182805461126890612269565b80156112b55780601f1061128a576101008083540402835291602001916112b5565b820191906000526020600020905b81548152906001019060200180831161129857829003601f168201915b5050505050905060006112d360408051602081019091526000815290565b905080516000036112e5575092915050565b8151156113175780826040516020016112ff929190612349565b60405160208183030381529060405292505050919050565b61132084611a03565b949350505050565b600061133360095490565b905090565b611340611856565b6001600160a01b0381166113a55760405162461bcd60e51b815260206004820152602660248201527f4f776e61626c653a206e6577206f776e657220697320746865207a65726f206160448201526564647265737360d01b6064820152608401610821565b6113ae816118b0565b50565b6000818152600260205260409020546001600160a01b03166113ae5760405162461bcd60e51b8152602060048201526018602482015277115490cdcc8c4e881a5b9d985b1a59081d1bdad95b88125160421b6044820152606401610821565b600081815260046020526040902080546001600160a01b0319166001600160a01b038416908117909155819061144582610e50565b6001600160a01b03167f8c5be1e5ebec7d5bd14f71427d1e84f3dd0314c0f7b2291e5b200ac8c7c3b92560405160405180910390a45050565b60008061148a83610e50565b9050806001600160a01b0316846001600160a01b031614806114d157506001600160a01b0380821660009081526005602090815260408083209388168352929052205460ff165b806113205750836001600160a01b03166114ea84610786565b6001600160a01b031614949350505050565b826001600160a01b031661150f82610e50565b6001600160a01b0316146115735760405162461bcd60e51b815260206004820152602560248201527f4552433732313a207472616e736665722066726f6d20696e636f72726563742060448201526437bbb732b960d91b6064820152608401610821565b6001600160a01b0382166115d55760405162461bcd60e51b8152602060048201526024808201527f4552433732313a207472616e7366657220746f20746865207a65726f206164646044820152637265737360e01b6064820152608401610821565b6115e0600082611410565b6001600160a01b0383166000908152600360205260408120805460019290611609908490612378565b90915550506001600160a01b0382166000908152600360205260408120805460019290611637908490612336565b909155505060008181526002602052604080822080546001600160a01b0319166001600160a01b0386811691821790925591518493918716917fddf252ad1be2c89b69c2b068fc378daa952ba7f163c4a11628f55a4df523b3ef91a4505050565b8054806116e75760405162461bcd60e51b815260206004820152601b60248201527f436f756e7465723a2064656372656d656e74206f766572666c6f7700000000006044820152606401610821565b600019019055565b610ff9828260405180602001604052806000815250611a77565b6000828152600260205260409020546001600160a01b03166117845760405162461bcd60e51b815260206004820152602e60248201527f45524337323155524953746f726167653a2055524920736574206f66206e6f6e60448201526d32bc34b9ba32b73a103a37b5b2b760911b6064820152608401610821565b60008281526006602052604090206108c282826123d9565b60408051608080820183528482526020808301858152338486018181526001606080880182815260008c8152600e88528a90209851895594518883015591516002909701805494511515600160a01b026001600160a81b03199095166001600160a01b0390981697909717939093179095558551888152928301879052948201859052928101929092527f3b4ab3277db321b0645c3c3aa653dd70b098949182249f64b89dce020f966a54910160405180910390a1505050565b6007546001600160a01b03163314610f6f5760405162461bcd60e51b815260206004820181905260248201527f4f776e61626c653a2063616c6c6572206973206e6f7420746865206f776e65726044820152606401610821565b600780546001600160a01b038381166001600160a01b0319831681179093556040519116919082907f8be0079c531659141344cd1fd0a4f28419497f9722a3daafe3b4186f6b6457e090600090a35050565b816001600160a01b0316836001600160a01b0316036119635760405162461bcd60e51b815260206004820152601960248201527f4552433732313a20617070726f766520746f2063616c6c6572000000000000006044820152606401610821565b6001600160a01b03838116600081815260056020908152604080832094871680845294825291829020805460ff191686151590811790915591519182527f17307eab39ab6107e8899845ad3d59bd9653f200f220920489ca2b5937696c31910160405180910390a3505050565b6119db8484846114fc565b6119e784848484611aaa565b61102f5760405162461bcd60e51b815260040161082190612499565b6060611a0e826113b1565b6000611a2560408051602081019091526000815290565b90506000815111611a455760405180602001604052806000815250611a70565b80611a4f84611bab565b604051602001611a60929190612349565b6040516020818303038152906040525b9392505050565b611a818383611cac565b611a8e6000848484611aaa565b6108c25760405162461bcd60e51b815260040161082190612499565b60006001600160a01b0384163b15611ba057604051630a85bd0160e11b81526001600160a01b0385169063150b7a0290611aee9033908990889088906004016124eb565b6020604051808303816000875af1925050508015611b29575060408051601f3d908101601f19168201909252611b2691810190612528565b60015b611b86573d808015611b57576040519150601f19603f3d011682016040523d82523d6000602084013e611b5c565b606091505b508051600003611b7e5760405162461bcd60e51b815260040161082190612499565b805181602001fd5b6001600160e01b031916630a85bd0160e11b149050611320565b506001949350505050565b606081600003611bd25750506040805180820190915260018152600360fc1b602082015290565b8160005b8115611bfc5780611be68161231d565b9150611bf59050600a8361255b565b9150611bd6565b60008167ffffffffffffffff811115611c1757611c17611e54565b6040519080825280601f01601f191660200182016040528015611c41576020820181803683370190505b5090505b841561132057611c56600183612378565b9150611c63600a8661256f565b611c6e906030612336565b60f81b818381518110611c8357611c836122f1565b60200101906001600160f81b031916908160001a905350611ca5600a8661255b565b9450611c45565b6001600160a01b038216611d025760405162461bcd60e51b815260206004820181905260248201527f4552433732313a206d696e7420746f20746865207a65726f20616464726573736044820152606401610821565b6000818152600260205260409020546001600160a01b031615611d675760405162461bcd60e51b815260206004820152601c60248201527f4552433732313a20746f6b656e20616c7265616479206d696e746564000000006044820152606401610821565b6001600160a01b0382166000908152600360205260408120805460019290611d90908490612336565b909155505060008181526002602052604080822080546001600160a01b0319166001600160a01b03861690811790915590518392907fddf252ad1be2c89b69c2b068fc378daa952ba7f163c4a11628f55a4df523b3ef908290a45050565b6040518060800160405280600081526020016000815260200160006001600160a01b031681526020016000151581525090565b6001600160e01b0319811681146113ae57600080fd5b600060208284031215611e4957600080fd5b8135611a7081611e21565b634e487b7160e01b600052604160045260246000fd5b600067ffffffffffffffff80841115611e8557611e85611e54565b604051601f8501601f19908116603f01168101908282118183101715611ead57611ead611e54565b81604052809350858152868686011115611ec657600080fd5b858560208301376000602087830101525050509392505050565b600082601f830112611ef157600080fd5b611a7083833560208501611e6a565b600060208284031215611f1257600080fd5b813567ffffffffffffffff811115611f2957600080fd5b61132084828501611ee0565b60005b83811015611f50578181015183820152602001611f38565b50506000910152565b60008151808452611f71816020860160208601611f35565b601f01601f19169290920160200192915050565b602081526000611a706020830184611f59565b600060208284031215611faa57600080fd5b5035919050565b80356001600160a01b0381168114611fc857600080fd5b919050565b60008060408385031215611fe057600080fd5b611fe983611fb1565b946020939093013593505050565b60008060006060848603121561200c57600080fd5b61201584611fb1565b925061202360208501611fb1565b9150604084013590509250925092565b6020808252825182820181905260009190848201906040850190845b8181101561209e5761208b83855180518252602080820151908301526040808201516001600160a01b0316908301526060908101511515910152565b928401926080929092019160010161204f565b50909695505050505050565b600080604083850312156120bd57600080fd5b823567ffffffffffffffff8111156120d457600080fd5b6120e085828601611ee0565b95602094909401359450505050565b60006020828403121561210157600080fd5b611a7082611fb1565b6000806040838503121561211d57600080fd5b61212683611fb1565b91506020830135801515811461213b57600080fd5b809150509250929050565b6000806000806080858703121561215c57600080fd5b61216585611fb1565b935061217360208601611fb1565b925060408501359150606085013567ffffffffffffffff81111561219657600080fd5b8501601f810187136121a757600080fd5b6121b687823560208401611e6a565b91505092959194509250565b81518152602080830151908201526040808301516001600160a01b031690820152606080830151151590820152608081016106be565b6000806040838503121561220b57600080fd5b50508035926020909101359150565b6000806040838503121561222d57600080fd5b61223683611fb1565b915061224460208401611fb1565b90509250929050565b6000825161225f818460208701611f35565b9190910192915050565b600181811c9082168061227d57607f821691505b60208210810361229d57634e487b7160e01b600052602260045260246000fd5b50919050565b6020808252602e908201527f4552433732313a2063616c6c6572206973206e6f7420746f6b656e206f776e6560408201526d1c881b9bdc88185c1c1c9bdd995960921b606082015260800190565b634e487b7160e01b600052603260045260246000fd5b634e487b7160e01b600052601160045260246000fd5b60006001820161232f5761232f612307565b5060010190565b808201808211156106be576106be612307565b6000835161235b818460208801611f35565b83519083019061236f818360208801611f35565b01949350505050565b818103818111156106be576106be612307565b601f8211156108c257600081815260208120601f850160051c810160208610156123b25750805b601f850160051c820191505b818110156123d1578281556001016123be565b505050505050565b815167ffffffffffffffff8111156123f3576123f3611e54565b612407816124018454612269565b8461238b565b602080601f83116001811461243c57600084156124245750858301515b600019600386901b1c1916600185901b1785556123d1565b600085815260208120601f198616915b8281101561246b5788860151825594840194600190910190840161244c565b50858210156124895787850151600019600388901b60f8161c191681555b5050505050600190811b01905550565b60208082526032908201527f4552433732313a207472616e7366657220746f206e6f6e20455243373231526560408201527131b2b4bb32b91034b6b83632b6b2b73a32b960711b606082015260800190565b6001600160a01b038581168252841660208201526040810183905260806060820181905260009061251e90830184611f59565b9695505050505050565b60006020828403121561253a57600080fd5b8151611a7081611e21565b634e487b7160e01b600052601260045260246000fd5b60008261256a5761256a612545565b500490565b60008261257e5761257e612545565b50069056fea26469706673582212205bb1ca5b0c85aca597b51fe7b0cfeaee34bbb4dace202a36439d92625a4d7a8164736f6c63430008110033",
  "immutableReferences": {},
  "source": "// SPDX-License-Identifier: MIT\npragma solidity ^0.8.17;\nimport \"../node_modules/@openzeppelin/contracts/token/ERC721/extensions/ERC721URIStorage.sol\";\nimport \"../node_modules/@openzeppelin/contracts/utils/Counters.sol\";\nimport \"../node_modules/@openzeppelin/contracts/token/ERC721/ERC721.sol\";\nimport \"../node_modules/@openzeppelin/contracts/access/Ownable.sol\";\n\n// Interface for the NFT routines to be invoked\ninterface NftRoutines {\n    function initialiseListingPrice(uint256 newListingPrice) external;\n    function mintNftToken(string memory tokenUri, uint256 tokenPrice) external payable returns (uint256);\n    function setNftOnSale(uint256 tokenIndex, uint256 newTokenPrice) external payable; // 3. Routine to set the nft on sale\n    function buyNft(uint256 tokenInde) external payable; // Routing to buy the NFT given a token Index and price\n    function checkTokenCreatorIsOwner(uint256 tokenId) external returns (bool);\n}\n\ncontract EventNftMarket is ERC721URIStorage, Ownable, NftRoutines {\n    using Counters for Counters.Counter;\n\n    Counters.Counter private listedTokenItems; // Listed Token Items\n    Counters.Counter private tokenIds; // Number that stores how many token's we have\n\n    uint256 ticketListingPrice = 0.030 ether; // Listing price for the event NFT. Initially sell one for 0.030 ETHER\n    uint256[] private listOfNfts; // Store the list of NFTs in an array\n    bool private tokenMinted;\n\n    mapping(string => bool) private usedTokenURIs; // Map string to boolean for checking the used token URis\n    mapping(uint => EventNft) private mappedNftData;\n    mapping(uint => uint) private mappedIdToIndex; // Map an ID to the index of a token\n\n    mapping(address => mapping(uint => uint)) private ownedEventTokens; // Mapping between the address of the owner and an integer that stores the owner tokens ID\n    mapping(uint => uint) private _idToOwnedIndex;\n\n    struct EventNft { // Struct for holding Event NFT data\n        uint256 tokenId;\n        uint256 tokenPrice;\n        address tokenCreator;\n        bool isTokenListed; // Determines if the token is listed for sale or not\n    }\n\n    // 1. Event for Creating New Ticket nft Data\n    event EventNftCreated (\n        uint tokenId,\n        uint price,\n        address creator,\n        bool isTokenListed\n    );\n\n    // 2. Event For Updating NFT data\n    event EventNftUpdated (\n        uint tokenId,\n        uint newPrice,\n        address newCreator,\n        bool newIsTokenListed\n    );\n\n    constructor(uint256 _ticketListingPrice) ERC721(\"Event Tickets NFT\", \"ETNFT\") {\n        ticketListingPrice = _ticketListingPrice;\n    }\n\n    // @description: Set the listing price for a token\n    function initialiseListingPrice(uint256 newListingPrice) public override onlyOwner {\n        uint256 defaultPrice = 0;\n        require(newListingPrice > defaultPrice, \"Make sure that the listing is > 0 GWEI\");\n        ticketListingPrice = newListingPrice;\n    }\n\n    function isTokenNotOnSale(uint256 tokenId) public payable returns (bool) {\n        return mappedNftData[tokenId].isTokenListed == false;\n    }\n\n    function isTokenAlreadyOnSale(uint256 tokenId) public payable returns (bool) {\n         return mappedNftData[tokenId].isTokenListed == true;\n    }\n\n    function getNftTotalSupply() public view returns (uint256) {\n        return listOfNfts.length;\n    }\n\n    function fetchCurrentTokenIds() public view returns (uint256) {\n        return tokenIds.current();\n    }\n\n    // @description: Fetch an NFT token by its index\n    function retrieveTokenByIndex(uint index) public view returns (uint) {\n       return listOfNfts[index];\n    }\n\n\n    // @description: Register a new token on the blockchain.\n    // @returns: The ID of that token minted\n    // @ Pre Condition: Must ensure that the token URI (data) exists and the price of the new token is the actual listing price for the token\n    // @ Post Condition: Return the new token Id that is created by invoking the _safeMint() in-built function and the create new nft function\n    // @ Parameters: Token URI & Price of the token\n\n\n    function mintNftToken(string memory tokenUri, uint256 tokenPrice) public payable override returns (uint256) {\n        require(!checkTokenExists(tokenUri), \"Please ensure that the token URI exists\");\n        require(msg.value == ticketListingPrice, \"Please ensure the price of the new token is set to the listing price\");\n        \n        address messageSender = msg.sender;\n\n        tokenIds.increment();\n        listedTokenItems.increment();\n        uint newTokenId = tokenIds.current();\n\n        _safeMint(messageSender, newTokenId);\n        _setTokenURI(newTokenId, tokenUri); \n\n        createNewNftItem(newTokenId, tokenPrice);\n        usedTokenURIs[tokenUri] = true;\n\n        return newTokenId;\n    }\n\n    function createNewNftItem(uint256 tokenId, uint256 tokenPrice) private {\n       address currentOwner = msg.sender;\n       mappedNftData[tokenId] = EventNft(tokenId, tokenPrice, currentOwner, true);\n       emit EventNftCreated(tokenId, tokenPrice, msg.sender, true); // Emit new created event\n    }\n\n    function getPriceOfNftToken(uint256 tokenId) public view returns (uint256) {\n        uint currentPrice = mappedNftData[tokenId].tokenPrice;\n        return currentPrice;\n    }\n\n    function buyNft(uint256 tokenId) public payable {\n        address currentOwner = ERC721.ownerOf(tokenId);\n        \n        require(msg.sender == currentOwner, \"Please ensure that you are the owner of the token\");\n        require(msg.value == getPriceOfNftToken(tokenId), \"Please submit a value price for the token\");\n\n        // Now we need to delist it from the struct\n        mappedNftData[tokenId].isTokenListed = false;\n        listedTokenItems.decrement(); // Decrement the listed items by 1.\n\n         _transfer(currentOwner, msg.sender, tokenId); // Transfer Ownership of the NFT from the current owner to ms.sender\n         payable(currentOwner).transfer(msg.value);\n    }\n\n    function checkTokenCreatorIsOwner(uint256 tokenId) public view override returns (bool) {\n        return msg.sender == ERC721.ownerOf(tokenId); // The owner of the token ID is equal to the ERC721 invoked routine of the token ID\n    }\n\n    // Check if the listing price is valid or not\n    function isValidListingPrice() public payable returns (bool) {\n        return msg.value == ticketListingPrice;\n    }\n\n    function setNftOnSale(uint256 tokenId, uint256 newTokenPrice) external payable override {\n        require(checkTokenCreatorIsOwner(tokenId), \"Please make sure that the creator of the token is the current owner before placing the nft on sale\");\n        require(isTokenAlreadyOnSale(tokenId), \"Please make sure that the token is not already on sale...\");\n\n        mappedNftData[tokenId].isTokenListed = true;\n        mappedNftData[tokenId].tokenPrice = newTokenPrice; // Update the new token price\n\n        if(listedTokenItems.current() == 0) { // If the current items on sale is by default 0\n            listedTokenItems.increment();    // Increment Listed Items\n        }\n\n    }\n\n    // @description: Retrieves all of the event ticket NFT's on sale.\n    // @returns: An array of Event NFT Tokens stored in memory\n\n    function fetchAllNftsOnSale() public view returns (EventNft[] memory) {\n        uint totalNftSupply = getNftTotalSupply();\n        uint currentTokenIndex = 0; // Current index of the token\n        uint currentNftItem = listedTokenItems.current();\n\n        EventNft[] memory nftItems = new EventNft[](currentNftItem);\n\n        for(uint256 index = 0; index < totalNftSupply; index++) { // For every token in supply\n\n            uint256 tokenIndex = retrieveTokenByIndex(index); // Get the token at index\n\n            EventNft storage tokenItem = mappedNftData[tokenIndex];\n           \n           if(tokenItem.isTokenListed) { // If the token is listed\n              nftItems[currentTokenIndex] = tokenItem; // Set the token index from the nft items array to the token item\n              currentTokenIndex += 1; // Increment number of token indexes\n           }\n        }\n\n        return nftItems; // Return all of the NFT items\n    }\n\n    // Logic for getting all of the user's owned Event Ticket NFT's\n    // @description Fetch all of the user's owned NFTs\n    // @returns: An array of event nft items\n\n    function fetchAllOwnedNFTs() public view returns(EventNft[] memory) {\n       uint256 currentNftCount = ERC721.balanceOf(msg.sender);\n       EventNft[] memory nftItems = new EventNft[](currentNftCount);\n\n       for(uint256 index = 0; index < currentNftCount; index++) {\n\n         uint256 tokenId = fetchTokenOwner(msg.sender, index);\n\n         EventNft storage nftItem = mappedNftData[tokenId];\n         nftItems[index] = nftItem;\n       }\n\n       return nftItems;\n    }\n\n    function fetchTokenOwner(address tokenOwner, uint256 tokenIndex) public view returns(uint256) {\n        return ownedEventTokens[tokenOwner][tokenIndex];\n    }\n\n    // @description: Return the total supply of event ticket nft's by returning the array length.\n    function fetchTokenSupply() public view returns (uint256) {\n        return listOfNfts.length;\n    }\n\n    function checkTokenExists(string memory tokenURI) public view returns (bool) {\n        return usedTokenURIs[tokenURI] == true;\n    }\n\n    function returnSingleNftItem(uint256 tokenId) public view returns(EventNft memory) {\n        return mappedNftData[tokenId]; // Return the mapped NFT ID to the token ID\n    }\n\n}",
  "sourcePath": "/Users/sabin2000/Documents/ticketblock/frontend/contracts/EventNftMarket.sol",
  "compiler": {
    "name": "solc",
    "version": "0.8.17+commit.8df45f5f.Emscripten.clang"
  },
  "schemaVersion": "3.4.9",
  "updatedAt": "2022-10-28T09:24:43.709Z",
  "devdoc": {
    "kind": "dev",
    "methods": {
      "approve(address,uint256)": {
        "details": "See {IERC721-approve}."
      },
      "balanceOf(address)": {
        "details": "See {IERC721-balanceOf}."
      },
      "getApproved(uint256)": {
        "details": "See {IERC721-getApproved}."
      },
      "isApprovedForAll(address,address)": {
        "details": "See {IERC721-isApprovedForAll}."
      },
      "name()": {
        "details": "See {IERC721Metadata-name}."
      },
      "owner()": {
        "details": "Returns the address of the current owner."
      },
      "ownerOf(uint256)": {
        "details": "See {IERC721-ownerOf}."
      },
      "renounceOwnership()": {
        "details": "Leaves the contract without owner. It will not be possible to call `onlyOwner` functions anymore. Can only be called by the current owner. NOTE: Renouncing ownership will leave the contract without an owner, thereby removing any functionality that is only available to the owner."
      },
      "safeTransferFrom(address,address,uint256)": {
        "details": "See {IERC721-safeTransferFrom}."
      },
      "safeTransferFrom(address,address,uint256,bytes)": {
        "details": "See {IERC721-safeTransferFrom}."
      },
      "setApprovalForAll(address,bool)": {
        "details": "See {IERC721-setApprovalForAll}."
      },
      "supportsInterface(bytes4)": {
        "details": "See {IERC165-supportsInterface}."
      },
      "symbol()": {
        "details": "See {IERC721Metadata-symbol}."
      },
      "tokenURI(uint256)": {
        "details": "See {IERC721Metadata-tokenURI}."
      },
      "transferFrom(address,address,uint256)": {
        "details": "See {IERC721-transferFrom}."
      },
      "transferOwnership(address)": {
        "details": "Transfers ownership of the contract to a new account (`newOwner`). Can only be called by the current owner."
      }
    },
    "version": 1
  },
  "userdoc": {
    "kind": "user",
    "methods": {},
    "version": 1
  }
}