{
  "contractName": "EventNftMarket",
  "abi": [
    {
      "inputs": [],
      "stateMutability": "nonpayable",
      "type": "constructor"
    },
    {
      "anonymous": false,
      "inputs": [
        {
          "indexed": true,
          "internalType": "address",
          "name": "owner",
          "type": "address"
        },
        {
          "indexed": true,
          "internalType": "address",
          "name": "approved",
          "type": "address"
        },
        {
          "indexed": true,
          "internalType": "uint256",
          "name": "tokenId",
          "type": "uint256"
        }
      ],
      "name": "Approval",
      "type": "event"
    },
    {
      "anonymous": false,
      "inputs": [
        {
          "indexed": true,
          "internalType": "address",
          "name": "owner",
          "type": "address"
        },
        {
          "indexed": true,
          "internalType": "address",
          "name": "operator",
          "type": "address"
        },
        {
          "indexed": false,
          "internalType": "bool",
          "name": "approved",
          "type": "bool"
        }
      ],
      "name": "ApprovalForAll",
      "type": "event"
    },
    {
      "anonymous": false,
      "inputs": [
        {
          "indexed": false,
          "internalType": "uint256",
          "name": "tokenId",
          "type": "uint256"
        },
        {
          "indexed": false,
          "internalType": "uint256",
          "name": "price",
          "type": "uint256"
        },
        {
          "indexed": false,
          "internalType": "address",
          "name": "creator",
          "type": "address"
        },
        {
          "indexed": false,
          "internalType": "bool",
          "name": "isTokenListed",
          "type": "bool"
        }
      ],
      "name": "EventNftCreated",
      "type": "event"
    },
    {
      "anonymous": false,
      "inputs": [
        {
          "indexed": true,
          "internalType": "address",
          "name": "previousOwner",
          "type": "address"
        },
        {
          "indexed": true,
          "internalType": "address",
          "name": "newOwner",
          "type": "address"
        }
      ],
      "name": "OwnershipTransferred",
      "type": "event"
    },
    {
      "anonymous": false,
      "inputs": [
        {
          "indexed": true,
          "internalType": "address",
          "name": "from",
          "type": "address"
        },
        {
          "indexed": true,
          "internalType": "address",
          "name": "to",
          "type": "address"
        },
        {
          "indexed": true,
          "internalType": "uint256",
          "name": "tokenId",
          "type": "uint256"
        }
      ],
      "name": "Transfer",
      "type": "event"
    },
    {
      "inputs": [
        {
          "internalType": "address",
          "name": "to",
          "type": "address"
        },
        {
          "internalType": "uint256",
          "name": "tokenId",
          "type": "uint256"
        }
      ],
      "name": "approve",
      "outputs": [],
      "stateMutability": "nonpayable",
      "type": "function"
    },
    {
      "inputs": [
        {
          "internalType": "address",
          "name": "owner",
          "type": "address"
        }
      ],
      "name": "balanceOf",
      "outputs": [
        {
          "internalType": "uint256",
          "name": "",
          "type": "uint256"
        }
      ],
      "stateMutability": "view",
      "type": "function"
    },
    {
      "inputs": [
        {
          "internalType": "uint256",
          "name": "tokenId",
          "type": "uint256"
        }
      ],
      "name": "getApproved",
      "outputs": [
        {
          "internalType": "address",
          "name": "",
          "type": "address"
        }
      ],
      "stateMutability": "view",
      "type": "function"
    },
    {
      "inputs": [
        {
          "internalType": "address",
          "name": "owner",
          "type": "address"
        },
        {
          "internalType": "address",
          "name": "operator",
          "type": "address"
        }
      ],
      "name": "isApprovedForAll",
      "outputs": [
        {
          "internalType": "bool",
          "name": "",
          "type": "bool"
        }
      ],
      "stateMutability": "view",
      "type": "function"
    },
    {
      "inputs": [],
      "name": "name",
      "outputs": [
        {
          "internalType": "string",
          "name": "",
          "type": "string"
        }
      ],
      "stateMutability": "view",
      "type": "function"
    },
    {
      "inputs": [],
      "name": "owner",
      "outputs": [
        {
          "internalType": "address",
          "name": "",
          "type": "address"
        }
      ],
      "stateMutability": "view",
      "type": "function"
    },
    {
      "inputs": [
        {
          "internalType": "uint256",
          "name": "tokenId",
          "type": "uint256"
        }
      ],
      "name": "ownerOf",
      "outputs": [
        {
          "internalType": "address",
          "name": "",
          "type": "address"
        }
      ],
      "stateMutability": "view",
      "type": "function"
    },
    {
      "inputs": [],
      "name": "renounceOwnership",
      "outputs": [],
      "stateMutability": "nonpayable",
      "type": "function"
    },
    {
      "inputs": [
        {
          "internalType": "address",
          "name": "from",
          "type": "address"
        },
        {
          "internalType": "address",
          "name": "to",
          "type": "address"
        },
        {
          "internalType": "uint256",
          "name": "tokenId",
          "type": "uint256"
        }
      ],
      "name": "safeTransferFrom",
      "outputs": [],
      "stateMutability": "nonpayable",
      "type": "function"
    },
    {
      "inputs": [
        {
          "internalType": "address",
          "name": "from",
          "type": "address"
        },
        {
          "internalType": "address",
          "name": "to",
          "type": "address"
        },
        {
          "internalType": "uint256",
          "name": "tokenId",
          "type": "uint256"
        },
        {
          "internalType": "bytes",
          "name": "data",
          "type": "bytes"
        }
      ],
      "name": "safeTransferFrom",
      "outputs": [],
      "stateMutability": "nonpayable",
      "type": "function"
    },
    {
      "inputs": [
        {
          "internalType": "address",
          "name": "operator",
          "type": "address"
        },
        {
          "internalType": "bool",
          "name": "approved",
          "type": "bool"
        }
      ],
      "name": "setApprovalForAll",
      "outputs": [],
      "stateMutability": "nonpayable",
      "type": "function"
    },
    {
      "inputs": [
        {
          "internalType": "bytes4",
          "name": "interfaceId",
          "type": "bytes4"
        }
      ],
      "name": "supportsInterface",
      "outputs": [
        {
          "internalType": "bool",
          "name": "",
          "type": "bool"
        }
      ],
      "stateMutability": "view",
      "type": "function"
    },
    {
      "inputs": [],
      "name": "symbol",
      "outputs": [
        {
          "internalType": "string",
          "name": "",
          "type": "string"
        }
      ],
      "stateMutability": "view",
      "type": "function"
    },
    {
      "inputs": [
        {
          "internalType": "uint256",
          "name": "tokenId",
          "type": "uint256"
        }
      ],
      "name": "tokenURI",
      "outputs": [
        {
          "internalType": "string",
          "name": "",
          "type": "string"
        }
      ],
      "stateMutability": "view",
      "type": "function"
    },
    {
      "inputs": [
        {
          "internalType": "address",
          "name": "from",
          "type": "address"
        },
        {
          "internalType": "address",
          "name": "to",
          "type": "address"
        },
        {
          "internalType": "uint256",
          "name": "tokenId",
          "type": "uint256"
        }
      ],
      "name": "transferFrom",
      "outputs": [],
      "stateMutability": "nonpayable",
      "type": "function"
    },
    {
      "inputs": [
        {
          "internalType": "address",
          "name": "newOwner",
          "type": "address"
        }
      ],
      "name": "transferOwnership",
      "outputs": [],
      "stateMutability": "nonpayable",
      "type": "function"
    },
    {
      "inputs": [
        {
          "internalType": "uint256",
          "name": "newListingPrice",
          "type": "uint256"
        }
      ],
      "name": "initialiseListingPrice",
      "outputs": [],
      "stateMutability": "nonpayable",
      "type": "function"
    },
    {
      "inputs": [],
      "name": "fetchCurrentTokenIds",
      "outputs": [
        {
          "internalType": "uint256",
          "name": "",
          "type": "uint256"
        }
      ],
      "stateMutability": "view",
      "type": "function"
    },
    {
      "inputs": [
        {
          "internalType": "string",
          "name": "tokenUri",
          "type": "string"
        },
        {
          "internalType": "uint256",
          "name": "tokenPrice",
          "type": "uint256"
        }
      ],
      "name": "mintNftToken",
      "outputs": [
        {
          "internalType": "uint256",
          "name": "",
          "type": "uint256"
        }
      ],
      "stateMutability": "payable",
      "type": "function"
    },
    {
      "inputs": [
        {
          "internalType": "uint256",
          "name": "tokenId",
          "type": "uint256"
        }
      ],
      "name": "getPriceOfNftToken",
      "outputs": [
        {
          "internalType": "uint256",
          "name": "",
          "type": "uint256"
        }
      ],
      "stateMutability": "view",
      "type": "function"
    },
    {
      "inputs": [
        {
          "internalType": "uint256",
          "name": "tokenId",
          "type": "uint256"
        }
      ],
      "name": "buyNft",
      "outputs": [],
      "stateMutability": "payable",
      "type": "function"
    },
    {
      "inputs": [
        {
          "internalType": "uint256",
          "name": "tokenId",
          "type": "uint256"
        }
      ],
      "name": "checkTokenCreatorIsOwner",
      "outputs": [
        {
          "internalType": "bool",
          "name": "",
          "type": "bool"
        }
      ],
      "stateMutability": "view",
      "type": "function"
    },
    {
      "inputs": [],
      "name": "isValidListingPrice",
      "outputs": [
        {
          "internalType": "bool",
          "name": "",
          "type": "bool"
        }
      ],
      "stateMutability": "payable",
      "type": "function"
    },
    {
      "inputs": [
        {
          "internalType": "uint256",
          "name": "tokenId",
          "type": "uint256"
        }
      ],
      "name": "isTokenNotOnSale",
      "outputs": [
        {
          "internalType": "bool",
          "name": "",
          "type": "bool"
        }
      ],
      "stateMutability": "payable",
      "type": "function"
    },
    {
      "inputs": [
        {
          "internalType": "uint256",
          "name": "tokenId",
          "type": "uint256"
        }
      ],
      "name": "isTokenAlreadyOnSale",
      "outputs": [
        {
          "internalType": "bool",
          "name": "",
          "type": "bool"
        }
      ],
      "stateMutability": "payable",
      "type": "function"
    },
    {
      "inputs": [
        {
          "internalType": "uint256",
          "name": "tokenId",
          "type": "uint256"
        },
        {
          "internalType": "uint256",
          "name": "newTokenPrice",
          "type": "uint256"
        }
      ],
      "name": "setNftOnSale",
      "outputs": [],
      "stateMutability": "payable",
      "type": "function"
    },
    {
      "inputs": [
        {
          "internalType": "uint256",
          "name": "tokenId",
          "type": "uint256"
        }
      ],
      "name": "removeNftFromSale",
      "outputs": [],
      "stateMutability": "payable",
      "type": "function"
    },
    {
      "inputs": [],
      "name": "fetchAllNftsOnSale",
      "outputs": [
        {
          "components": [
            {
              "internalType": "uint256",
              "name": "tokenId",
              "type": "uint256"
            },
            {
              "internalType": "uint256",
              "name": "tokenPrice",
              "type": "uint256"
            },
            {
              "internalType": "address",
              "name": "tokenCreator",
              "type": "address"
            },
            {
              "internalType": "bool",
              "name": "isTokenListed",
              "type": "bool"
            }
          ],
          "internalType": "struct EventNftMarket.EventNft[]",
          "name": "",
          "type": "tuple[]"
        }
      ],
      "stateMutability": "view",
      "type": "function"
    },
    {
      "inputs": [],
      "name": "fetchAllOwnedNFTs",
      "outputs": [
        {
          "components": [
            {
              "internalType": "uint256",
              "name": "tokenId",
              "type": "uint256"
            },
            {
              "internalType": "uint256",
              "name": "tokenPrice",
              "type": "uint256"
            },
            {
              "internalType": "address",
              "name": "tokenCreator",
              "type": "address"
            },
            {
              "internalType": "bool",
              "name": "isTokenListed",
              "type": "bool"
            }
          ],
          "internalType": "struct EventNftMarket.EventNft[]",
          "name": "",
          "type": "tuple[]"
        }
      ],
      "stateMutability": "view",
      "type": "function"
    },
    {
      "inputs": [
        {
          "internalType": "uint256",
          "name": "index",
          "type": "uint256"
        }
      ],
      "name": "retrieveTokenByIndex",
      "outputs": [
        {
          "internalType": "uint256",
          "name": "",
          "type": "uint256"
        }
      ],
      "stateMutability": "view",
      "type": "function"
    },
    {
      "inputs": [],
      "name": "fetchTokenSupply",
      "outputs": [
        {
          "internalType": "uint256",
          "name": "",
          "type": "uint256"
        }
      ],
      "stateMutability": "view",
      "type": "function"
    },
    {
      "inputs": [
        {
          "internalType": "string",
          "name": "tokenURI",
          "type": "string"
        }
      ],
      "name": "checkTokenExists",
      "outputs": [
        {
          "internalType": "bool",
          "name": "",
          "type": "bool"
        }
      ],
      "stateMutability": "view",
      "type": "function"
    },
    {
      "inputs": [
        {
          "internalType": "uint256",
          "name": "tokenId",
          "type": "uint256"
        }
      ],
      "name": "returnSingleNftItem",
      "outputs": [
        {
          "components": [
            {
              "internalType": "uint256",
              "name": "tokenId",
              "type": "uint256"
            },
            {
              "internalType": "uint256",
              "name": "tokenPrice",
              "type": "uint256"
            },
            {
              "internalType": "address",
              "name": "tokenCreator",
              "type": "address"
            },
            {
              "internalType": "bool",
              "name": "isTokenListed",
              "type": "bool"
            }
          ],
          "internalType": "struct EventNftMarket.EventNft",
          "name": "",
          "type": "tuple"
        }
      ],
      "stateMutability": "view",
      "type": "function"
    }
  ],
  "bytecode": "0x6080604052666a94d74f430000600a553480156200001c57600080fd5b506040518060400160405280601581526020017f4576656e74205469636b657473204e4654204e4654000000000000000000000081525060405180604001604052806005815260200164115513919560da1b8152508160009081620000829190620001af565b506001620000918282620001af565b505050620000ae620000a8620000b460201b60201c565b620000b8565b6200027b565b3390565b600780546001600160a01b038381166001600160a01b0319831681179093556040519116919082907f8be0079c531659141344cd1fd0a4f28419497f9722a3daafe3b4186f6b6457e090600090a35050565b634e487b7160e01b600052604160045260246000fd5b600181811c908216806200013557607f821691505b6020821081036200015657634e487b7160e01b600052602260045260246000fd5b50919050565b601f821115620001aa57600081815260208120601f850160051c81016020861015620001855750805b601f850160051c820191505b81811015620001a65782815560010162000191565b5050505b505050565b81516001600160401b03811115620001cb57620001cb6200010a565b620001e381620001dc845462000120565b846200015c565b602080601f8311600181146200021b5760008415620002025750858301515b600019600386901b1c1916600185901b178555620001a6565b600085815260208120601f198616915b828110156200024c578886015182559484019460019091019084016200022b565b50858210156200026b5787850151600019600388901b60f8161c191681555b5050505050600190811b01905550565b611f0c806200028b6000396000f3fe6080604052600436106101ee5760003560e01c80636352211e1161010d578063b88d4fde116100a0578063cd2acaa51161006f578063cd2acaa5146105cb578063d871ca15146105e0578063e985e9c5146105f5578063f0d2fad814610615578063f2fde38b1461062857600080fd5b8063b88d4fde146104d7578063c30c21a7146104f7578063c3a66a5b14610598578063c87b56dd146105ab57600080fd5b80637b480908116100dc5780637b480908146104645780638da5cb5b1461048457806395d89b41146104a2578063a22cb465146104b757600080fd5b80636352211e146103ef578063640ae1661461040f57806370a082311461042f578063715018a61461044f57600080fd5b8063243adbdd11610185578063452757c511610154578063452757c5146103b65780634ae58814146103d257806352ad5bf0146103e5578063546df207146103b657600080fd5b8063243adbdd1461031757806329ae6c0c1461032a5780633ea95f2a1461035857806342842e0e1461039657600080fd5b8063095ea7b3116101c1578063095ea7b3146102a257806309ceadae146102c4578063162f4e81146102e457806323b872dd146102f757600080fd5b806301ffc9a7146101f357806304b49c3a1461022857806306fdde0314610248578063081812fc1461026a575b600080fd5b3480156101ff57600080fd5b5061021361020e366004611898565b610648565b60405190151581526020015b60405180910390f35b34801561023457600080fd5b50610213610243366004611961565b61069a565b34801561025457600080fd5b5061025d6106ca565b60405161021f91906119e6565b34801561027657600080fd5b5061028a6102853660046119f9565b61075c565b6040516001600160a01b03909116815260200161021f565b3480156102ae57600080fd5b506102c26102bd366004611a2e565b610783565b005b3480156102d057600080fd5b506102136102df3660046119f9565b61089d565b6102136102f23660046119f9565b6108c3565b34801561030357600080fd5b506102c2610312366004611a58565b6108e8565b6102c26103253660046119f9565b610919565b6102136103383660046119f9565b6000908152600d6020526040902060020154600160a01b900460ff161590565b34801561036457600080fd5b506103886103733660046119f9565b6000908152600d602052604090206001015490565b60405190815260200161021f565b3480156103a257600080fd5b506102c26103b1366004611a58565b610a70565b3480156103c257600080fd5b50606060405161021f9190611a94565b6103886103e0366004611b0b565b610a8b565b600a543414610213565b3480156103fb57600080fd5b5061028a61040a3660046119f9565b610ba2565b34801561041b57600080fd5b5061038861042a3660046119f9565b610c02565b34801561043b57600080fd5b5061038861044a366004611b50565b610c29565b34801561045b57600080fd5b506102c2610caf565b34801561047057600080fd5b506102c261047f3660046119f9565b610cc3565b34801561049057600080fd5b506007546001600160a01b031661028a565b3480156104ae57600080fd5b5061025d610d31565b3480156104c357600080fd5b506102c26104d2366004611b6b565b610d40565b3480156104e357600080fd5b506102c26104f2366004611ba7565b610d4f565b34801561050357600080fd5b5061058b6105123660046119f9565b604080516080810182526000808252602082018190529181018290526060810191909152506000908152600d6020908152604091829020825160808101845281548152600182015492810192909252600201546001600160a01b03811692820192909252600160a01b90910460ff161515606082015290565b60405161021f9190611c23565b6102c26105a6366004611c59565b610d87565b3480156105b757600080fd5b5061025d6105c63660046119f9565b610ef5565b3480156105d757600080fd5b50610388611005565b3480156105ec57600080fd5b50600b54610388565b34801561060157600080fd5b50610213610610366004611c7b565b611015565b6102c26106233660046119f9565b611043565b34801561063457600080fd5b506102c2610643366004611b50565b6110cb565b60006001600160e01b031982166380ac58cd60e01b148061067957506001600160e01b03198216635b5e139f60e01b145b8061069457506301ffc9a760e01b6001600160e01b03198316145b92915050565b6000600c826040516106ac9190611cae565b9081526040519081900360200190205460ff16151560011492915050565b6060600080546106d990611cca565b80601f016020809104026020016040519081016040528092919081815260200182805461070590611cca565b80156107525780601f1061072757610100808354040283529160200191610752565b820191906000526020600020905b81548152906001019060200180831161073557829003601f168201915b5050505050905090565b600061076782611141565b506000908152600460205260409020546001600160a01b031690565b600061078e82610ba2565b9050806001600160a01b0316836001600160a01b0316036108005760405162461bcd60e51b815260206004820152602160248201527f4552433732313a20617070726f76616c20746f2063757272656e74206f776e656044820152603960f91b60648201526084015b60405180910390fd5b336001600160a01b038216148061081c575061081c8133611015565b61088e5760405162461bcd60e51b815260206004820152603e60248201527f4552433732313a20617070726f76652063616c6c6572206973206e6f7420746f60448201527f6b656e206f776e6572206e6f7220617070726f76656420666f7220616c6c000060648201526084016107f7565b61089883836111a0565b505050565b60006108a882610ba2565b6001600160a01b0316336001600160a01b0316149050919050565b6000908152600d602052604090206002015460ff600160a01b90910416151560011490565b6108f2338261120e565b61090e5760405162461bcd60e51b81526004016107f790611d04565b61089883838361126c565b600061092482610ba2565b9050336001600160a01b038216146109985760405162461bcd60e51b815260206004820152603160248201527f506c6561736520656e73757265207468617420796f752061726520746865206f6044820152703bb732b91037b3103a3432903a37b5b2b760791b60648201526084016107f7565b6000828152600d60205260409020600101543414610a0a5760405162461bcd60e51b815260206004820152602960248201527f506c65617365207375626d697420612076616c756520707269636520666f72206044820152683a3432903a37b5b2b760b91b60648201526084016107f7565b6000828152600d60205260409020600201805460ff60a01b19169055610a306008611408565b610a3b81338461126c565b6040516001600160a01b038216903480156108fc02916000818181858888f19350505050158015610898573d6000803e3d6000fd5b61089883838360405180602001604052806000815250610d4f565b600a5460009033903414610b115760405162461bcd60e51b815260206004820152604160248201527f506c65617365206d616b65207375726520746865207072696365206f6620746860448201527f65204e46542069732073657420746f20746865206c697374696e6720707269636064820152606560f81b608482015260a4016107f7565b610b1a8461069a565b15610b9b5760405162461bcd60e51b8152602060048201526044602482018190527f4265666f7265207265676973746572696e672061206e657720746f6b656e2e20908201527f506c6561736520656e73757265207468617420697420646f6573206e6f7420656064820152631e1a5cdd60e21b608482015260a4016107f7565b5092915050565b6000818152600260205260408120546001600160a01b0316806106945760405162461bcd60e51b8152602060048201526018602482015277115490cdcc8c4e881a5b9d985b1a59081d1bdad95b88125160421b60448201526064016107f7565b6000600b8281548110610c1757610c17611d52565b90600052602060002001549050919050565b60006001600160a01b038216610c935760405162461bcd60e51b815260206004820152602960248201527f4552433732313a2061646472657373207a65726f206973206e6f7420612076616044820152683634b21037bbb732b960b91b60648201526084016107f7565b506001600160a01b031660009081526003602052604090205490565b610cb761145f565b610cc160006114b9565b565b610ccb61145f565b6000808211610d2b5760405162461bcd60e51b815260206004820152602660248201527f4d616b652073757265207468617420746865206c697374696e67206973203e2060448201526530204757454960d01b60648201526084016107f7565b50600a55565b6060600180546106d990611cca565b610d4b33838361150b565b5050565b610d59338361120e565b610d755760405162461bcd60e51b81526004016107f790611d04565b610d81848484846115d9565b50505050565b610d908261089d565b610e335760405162461bcd60e51b815260206004820152606260248201527f506c65617365206d616b6520737572652074686174207468652063726561746f60448201527f72206f662074686520746f6b656e206973207468652063757272656e74206f7760648201527f6e6572206265666f726520706c6163696e6720746865206e6674206f6e2073616084820152616c6560f01b60a482015260c4016107f7565b610e3c826108c3565b610eae5760405162461bcd60e51b815260206004820152603960248201527f506c65617365206d616b65207375726520746861742074686520746f6b656e2060448201527f6973206e6f7420616c7265616479206f6e2073616c652e2e2e0000000000000060648201526084016107f7565b6000828152600d6020526040902060028101805460ff60a01b1916600160a01b179055600101819055610ee060085490565b600003610d4b57610d4b600880546001019055565b6060610f0082611141565b60008281526006602052604081208054610f1990611cca565b80601f0160208091040260200160405190810160405280929190818152602001828054610f4590611cca565b8015610f925780601f10610f6757610100808354040283529160200191610f92565b820191906000526020600020905b815481529060010190602001808311610f7557829003601f168201915b505050505090506000610fb060408051602081019091526000815290565b90508051600003610fc2575092915050565b815115610ff4578082604051602001610fdc929190611d68565b60405160208183030381529060405292505050919050565b610ffd8461160c565b949350505050565b600061101060095490565b905090565b6001600160a01b03918216600090815260056020908152604080832093909416825291909152205460ff1690565b61104c816108c3565b6110c85760405162461bcd60e51b815260206004820152604160248201527f4265666f72652072656d6f76696e672066726f6d2073616c652e20506c65617360448201527f65206d616b65207375726520697420697320616c7265616479206f6e2073616c6064820152606560f81b608482015260a4016107f7565b50565b6110d361145f565b6001600160a01b0381166111385760405162461bcd60e51b815260206004820152602660248201527f4f776e61626c653a206e6577206f776e657220697320746865207a65726f206160448201526564647265737360d01b60648201526084016107f7565b6110c8816114b9565b6000818152600260205260409020546001600160a01b03166110c85760405162461bcd60e51b8152602060048201526018602482015277115490cdcc8c4e881a5b9d985b1a59081d1bdad95b88125160421b60448201526064016107f7565b600081815260046020526040902080546001600160a01b0319166001600160a01b03841690811790915581906111d582610ba2565b6001600160a01b03167f8c5be1e5ebec7d5bd14f71427d1e84f3dd0314c0f7b2291e5b200ac8c7c3b92560405160405180910390a45050565b60008061121a83610ba2565b9050806001600160a01b0316846001600160a01b0316148061124157506112418185611015565b80610ffd5750836001600160a01b031661125a8461075c565b6001600160a01b031614949350505050565b826001600160a01b031661127f82610ba2565b6001600160a01b0316146112e35760405162461bcd60e51b815260206004820152602560248201527f4552433732313a207472616e736665722066726f6d20696e636f72726563742060448201526437bbb732b960d91b60648201526084016107f7565b6001600160a01b0382166113455760405162461bcd60e51b8152602060048201526024808201527f4552433732313a207472616e7366657220746f20746865207a65726f206164646044820152637265737360e01b60648201526084016107f7565b6113506000826111a0565b6001600160a01b0383166000908152600360205260408120805460019290611379908490611dad565b90915550506001600160a01b03821660009081526003602052604081208054600192906113a7908490611dc0565b909155505060008181526002602052604080822080546001600160a01b0319166001600160a01b0386811691821790925591518493918716917fddf252ad1be2c89b69c2b068fc378daa952ba7f163c4a11628f55a4df523b3ef91a4505050565b8054806114575760405162461bcd60e51b815260206004820152601b60248201527f436f756e7465723a2064656372656d656e74206f766572666c6f77000000000060448201526064016107f7565b600019019055565b6007546001600160a01b03163314610cc15760405162461bcd60e51b815260206004820181905260248201527f4f776e61626c653a2063616c6c6572206973206e6f7420746865206f776e657260448201526064016107f7565b600780546001600160a01b038381166001600160a01b0319831681179093556040519116919082907f8be0079c531659141344cd1fd0a4f28419497f9722a3daafe3b4186f6b6457e090600090a35050565b816001600160a01b0316836001600160a01b03160361156c5760405162461bcd60e51b815260206004820152601960248201527f4552433732313a20617070726f766520746f2063616c6c65720000000000000060448201526064016107f7565b6001600160a01b03838116600081815260056020908152604080832094871680845294825291829020805460ff191686151590811790915591519182527f17307eab39ab6107e8899845ad3d59bd9653f200f220920489ca2b5937696c31910160405180910390a3505050565b6115e484848461126c565b6115f084848484611680565b610d815760405162461bcd60e51b81526004016107f790611dd3565b606061161782611141565b600061162e60408051602081019091526000815290565b9050600081511161164e5760405180602001604052806000815250611679565b8061165884611781565b604051602001611669929190611d68565b6040516020818303038152906040525b9392505050565b60006001600160a01b0384163b1561177657604051630a85bd0160e11b81526001600160a01b0385169063150b7a02906116c4903390899088908890600401611e25565b6020604051808303816000875af19250505080156116ff575060408051601f3d908101601f191682019092526116fc91810190611e62565b60015b61175c573d80801561172d576040519150601f19603f3d011682016040523d82523d6000602084013e611732565b606091505b5080516000036117545760405162461bcd60e51b81526004016107f790611dd3565b805181602001fd5b6001600160e01b031916630a85bd0160e11b149050610ffd565b506001949350505050565b6060816000036117a85750506040805180820190915260018152600360fc1b602082015290565b8160005b81156117d257806117bc81611e7f565b91506117cb9050600a83611eae565b91506117ac565b60008167ffffffffffffffff8111156117ed576117ed6118b5565b6040519080825280601f01601f191660200182016040528015611817576020820181803683370190505b5090505b8415610ffd5761182c600183611dad565b9150611839600a86611ec2565b611844906030611dc0565b60f81b81838151811061185957611859611d52565b60200101906001600160f81b031916908160001a90535061187b600a86611eae565b945061181b565b6001600160e01b0319811681146110c857600080fd5b6000602082840312156118aa57600080fd5b813561167981611882565b634e487b7160e01b600052604160045260246000fd5b600067ffffffffffffffff808411156118e6576118e66118b5565b604051601f8501601f19908116603f0116810190828211818310171561190e5761190e6118b5565b8160405280935085815286868601111561192757600080fd5b858560208301376000602087830101525050509392505050565b600082601f83011261195257600080fd5b611679838335602085016118cb565b60006020828403121561197357600080fd5b813567ffffffffffffffff81111561198a57600080fd5b610ffd84828501611941565b60005b838110156119b1578181015183820152602001611999565b50506000910152565b600081518084526119d2816020860160208601611996565b601f01601f19169290920160200192915050565b60208152600061167960208301846119ba565b600060208284031215611a0b57600080fd5b5035919050565b80356001600160a01b0381168114611a2957600080fd5b919050565b60008060408385031215611a4157600080fd5b611a4a83611a12565b946020939093013593505050565b600080600060608486031215611a6d57600080fd5b611a7684611a12565b9250611a8460208501611a12565b9150604084013590509250925092565b6020808252825182820181905260009190848201906040850190845b81811015611aff57611aec83855180518252602080820151908301526040808201516001600160a01b0316908301526060908101511515910152565b9284019260809290920191600101611ab0565b50909695505050505050565b60008060408385031215611b1e57600080fd5b823567ffffffffffffffff811115611b3557600080fd5b611b4185828601611941565b95602094909401359450505050565b600060208284031215611b6257600080fd5b61167982611a12565b60008060408385031215611b7e57600080fd5b611b8783611a12565b915060208301358015158114611b9c57600080fd5b809150509250929050565b60008060008060808587031215611bbd57600080fd5b611bc685611a12565b9350611bd460208601611a12565b925060408501359150606085013567ffffffffffffffff811115611bf757600080fd5b8501601f81018713611c0857600080fd5b611c17878235602084016118cb565b91505092959194509250565b81518152602080830151908201526040808301516001600160a01b03169082015260608083015115159082015260808101610694565b60008060408385031215611c6c57600080fd5b50508035926020909101359150565b60008060408385031215611c8e57600080fd5b611c9783611a12565b9150611ca560208401611a12565b90509250929050565b60008251611cc0818460208701611996565b9190910192915050565b600181811c90821680611cde57607f821691505b602082108103611cfe57634e487b7160e01b600052602260045260246000fd5b50919050565b6020808252602e908201527f4552433732313a2063616c6c6572206973206e6f7420746f6b656e206f776e6560408201526d1c881b9bdc88185c1c1c9bdd995960921b606082015260800190565b634e487b7160e01b600052603260045260246000fd5b60008351611d7a818460208801611996565b835190830190611d8e818360208801611996565b01949350505050565b634e487b7160e01b600052601160045260246000fd5b8181038181111561069457610694611d97565b8082018082111561069457610694611d97565b60208082526032908201527f4552433732313a207472616e7366657220746f206e6f6e20455243373231526560408201527131b2b4bb32b91034b6b83632b6b2b73a32b960711b606082015260800190565b6001600160a01b0385811682528416602082015260408101839052608060608201819052600090611e58908301846119ba565b9695505050505050565b600060208284031215611e7457600080fd5b815161167981611882565b600060018201611e9157611e91611d97565b5060010190565b634e487b7160e01b600052601260045260246000fd5b600082611ebd57611ebd611e98565b500490565b600082611ed157611ed1611e98565b50069056fea2646970667358221220fb3af1380b77f0b1045b68d516db457845984a4e41bc030b49be6fdd7d5469ca64736f6c63430008110033",
  "immutableReferences": {},
  "source": "// SPDX-License-Identifier: MIT\npragma solidity ^0.8.17;\nimport \"../node_modules/@openzeppelin/contracts/token/ERC721/extensions/ERC721URIStorage.sol\";\nimport \"../node_modules/@openzeppelin/contracts/utils/Counters.sol\";\nimport \"../node_modules/@openzeppelin/contracts/token/ERC721/ERC721.sol\";\nimport \"../node_modules/@openzeppelin/contracts/access/Ownable.sol\";\n\n// Interface for the NFT routines to be invoked\ninterface NftRoutines {\n    function initialiseListingPrice(uint256 newListingPrice) external;\n    function mintNftToken(string memory tokenUri, uint256 tokenPrice) external payable returns (uint256);\n    function setNftOnSale(uint256 tokenIndex, uint256 newTokenPrice) external payable; // 3. Routine to set the nft on sale\n    function buyNft(uint256 tokenInde) external payable; // Routing to buy the NFT given a token Index and price\n    function removeNftFromSale(uint256 tokenIndex) external payable; // Removing an NFT from sale requires that we pay some ether \n    function checkTokenCreatorIsOwner(uint256 tokenId) external returns (bool);\n}\n\ncontract EventNftMarket is ERC721URIStorage, Ownable, NftRoutines {\n    using Counters for Counters.Counter;\n\n    Counters.Counter private listedTokenItems; // Listed Token Items\n    Counters.Counter private tokenIds; // Number that stores how many token's we have\n\n    uint256 ticketListingPrice = 0.030 ether; // Listing price for the event NFT. Initially sell one for 0.030 ETHER\n    uint256[] private listOfNfts; // Store the list of NFTs in an array\n\n    mapping(string => bool) private usedTokenURIs; // Map string to boolean for checking the used token URis\n    mapping(uint => EventNft) private mappedNftData;\n    mapping(uint => uint) private mappedIdToIndex; // Map an ID to the index of a token\n\n    mapping(address => mapping(uint => uint)) private ownedEventTokens; // Mapping between the address of the owner and an integer that stores the owner tokens ID\n    mapping(uint => uint) private _idToOwnedIndex;\n\n    struct EventNft { // Struct for holding Event NFT data\n        uint256 tokenId;\n        uint256 tokenPrice;\n        address tokenCreator;\n        bool isTokenListed; // Determines if the token is listed for sale or not\n    }\n\n    event EventNftCreated (\n        uint tokenId,\n        uint price,\n        address creator,\n        bool isTokenListed\n    );\n\n    constructor() ERC721(\"Event Tickets NFT NFT\", \"ETNFT\") {}\n\n    // @description: Set the listing price for a token\n    function initialiseListingPrice(uint256 newListingPrice) public override onlyOwner {\n        uint256 defaultPrice = 0;\n        require(newListingPrice > defaultPrice, \"Make sure that the listing is > 0 GWEI\");\n        ticketListingPrice = newListingPrice;\n    }\n\n    function fetchCurrentTokenIds() public view returns (uint256) {\n        return tokenIds.current();\n    }\n\n\n    // @description: Register a new token on the blockchain.\n    // @returns: The ID of that token minted\n     // Logic Here to mint an NFT token\n\n// TODO\n    function mintNftToken(string memory tokenUri, uint256 tokenPrice) public payable override returns (uint256) {\n        address tokenOwner = msg.sender;\n        require(msg.value == ticketListingPrice, \"Please make sure the price of the NFT is set to the listing price\");\n        require(!checkTokenExists(tokenUri), \"Before registering a new token. Please ensure that it does not exist\"); // Check to see if the token does NOT already exist\n\n        // 1.\n\n    }\n\n    function createNewNftItem(uint256 tokenId, uint256 tokenPrice) private {\n       address currentOwner = msg.sender;\n       mappedNftData[tokenId] = EventNft(tokenId, tokenPrice, currentOwner, true);\n\n       // Emit new event\n    }\n\n    function getPriceOfNftToken(uint256 tokenId) public view returns (uint256) {\n        uint currentPrice = mappedNftData[tokenId].tokenPrice;\n        return currentPrice;\n    }\n\n    function buyNft(uint256 tokenId) public payable {\n        address currentOwner = ERC721.ownerOf(tokenId);\n        require(msg.sender == currentOwner, \"Please ensure that you are the owner of the token\");\n        require(msg.value == getPriceOfNftToken(tokenId), \"Please submit a value price for the token\");\n\n        // Now we need to delist it from the struct\n        mappedNftData[tokenId].isTokenListed = false;\n        listedTokenItems.decrement(); // Decrement the listed items by 1.\n\n         _transfer(currentOwner, msg.sender, tokenId); // Transfer Ownership of the NFT from the current owner to ms.sender\n         payable(currentOwner).transfer(msg.value); // Pay the new owner\n    }\n\n    function checkTokenCreatorIsOwner(uint256 tokenId) public view override returns (bool) {\n        return msg.sender == ERC721.ownerOf(tokenId); // The owner of the token ID is equal to the ERC721 invoked routine of the token ID\n    }\n\n    function isValidListingPrice() public payable returns (bool) {\n        return msg.value == ticketListingPrice;\n    }\n\n    function isTokenNotOnSale(uint256 tokenId) public payable returns (bool) {\n        return mappedNftData[tokenId].isTokenListed == !true;\n    }\n\n    function isTokenAlreadyOnSale(uint256 tokenId) public payable returns (bool) {\n         return mappedNftData[tokenId].isTokenListed == !false;\n    }\n\n    function setNftOnSale(uint256 tokenId, uint256 newTokenPrice) external payable override {\n        require(checkTokenCreatorIsOwner(tokenId), \"Please make sure that the creator of the token is the current owner before placing the nft on sale\");\n        require(isTokenAlreadyOnSale(tokenId), \"Please make sure that the token is not already on sale...\");\n\n        mappedNftData[tokenId].isTokenListed = true;\n        mappedNftData[tokenId].tokenPrice = newTokenPrice; // Update the new token price\n\n                // Increment Listed Items\n        if(listedTokenItems.current() == 0) { // If the current items on sale is by default 0\n            listedTokenItems.increment();\n        }\n\n    }\n\n    function removeNftFromSale(uint256 tokenId) external payable override {\n        require(isTokenAlreadyOnSale(tokenId), \"Before removing from sale. Please make sure it is already on sale\");\n    }\n\n\n        // @description: Retrieves all of the event ticket NFT's on sale.\n    // @returns: An array of Event NFT Tokens stored in memory\n    function fetchAllNftsOnSale() public view returns (EventNft[] memory) {\n\n    }\n\n        // Logic for getting all of the user's owned Event Ticket NFT's\n    // @description Fetch all of the user's owned NFTs\n    // @returns: An array of event nft items\n    \n    function fetchAllOwnedNFTs() public view returns(EventNft[] memory) {\n       \n    }\n\n\n    // @description: Fetch a token by its index\n    function retrieveTokenByIndex(uint index) public view returns (uint) {\n       return listOfNfts[index];\n    }\n\n    // @description: Return the total supply of event ticket nft's by returning the array length.\n    function fetchTokenSupply() public view returns (uint256) {\n        return listOfNfts.length;\n    }\n\n    function checkTokenExists(string memory tokenURI) public view returns (bool) {\n        return usedTokenURIs[tokenURI] == true;\n    }\n\n    function returnSingleNftItem(uint256 tokenId) public view returns(EventNft memory) {\n        return mappedNftData[tokenId]; // Return the mapped NFT ID to the token ID\n    }\n\n}",
  "sourcePath": "/Users/sabin2000/Documents/ticketblock/frontend/contracts/EventNftMarket.sol",
  "compiler": {
    "name": "solc",
    "version": "0.8.17+commit.8df45f5f.Emscripten.clang"
  },
  "schemaVersion": "3.4.9",
  "updatedAt": "2022-10-13T13:26:47.195Z",
  "devdoc": {
    "kind": "dev",
    "methods": {
      "approve(address,uint256)": {
        "details": "See {IERC721-approve}."
      },
      "balanceOf(address)": {
        "details": "See {IERC721-balanceOf}."
      },
      "getApproved(uint256)": {
        "details": "See {IERC721-getApproved}."
      },
      "isApprovedForAll(address,address)": {
        "details": "See {IERC721-isApprovedForAll}."
      },
      "name()": {
        "details": "See {IERC721Metadata-name}."
      },
      "owner()": {
        "details": "Returns the address of the current owner."
      },
      "ownerOf(uint256)": {
        "details": "See {IERC721-ownerOf}."
      },
      "renounceOwnership()": {
        "details": "Leaves the contract without owner. It will not be possible to call `onlyOwner` functions anymore. Can only be called by the current owner. NOTE: Renouncing ownership will leave the contract without an owner, thereby removing any functionality that is only available to the owner."
      },
      "safeTransferFrom(address,address,uint256)": {
        "details": "See {IERC721-safeTransferFrom}."
      },
      "safeTransferFrom(address,address,uint256,bytes)": {
        "details": "See {IERC721-safeTransferFrom}."
      },
      "setApprovalForAll(address,bool)": {
        "details": "See {IERC721-setApprovalForAll}."
      },
      "supportsInterface(bytes4)": {
        "details": "See {IERC165-supportsInterface}."
      },
      "symbol()": {
        "details": "See {IERC721Metadata-symbol}."
      },
      "tokenURI(uint256)": {
        "details": "See {IERC721Metadata-tokenURI}."
      },
      "transferFrom(address,address,uint256)": {
        "details": "See {IERC721-transferFrom}."
      },
      "transferOwnership(address)": {
        "details": "Transfers ownership of the contract to a new account (`newOwner`). Can only be called by the current owner."
      }
    },
    "version": 1
  },
  "userdoc": {
    "kind": "user",
    "methods": {},
    "version": 1
  }
}