{
  "contractName": "EventNftMarket",
  "abi": [
    {
      "inputs": [],
      "stateMutability": "nonpayable",
      "type": "constructor"
    },
    {
      "anonymous": false,
      "inputs": [
        {
          "indexed": true,
          "internalType": "address",
          "name": "owner",
          "type": "address"
        },
        {
          "indexed": true,
          "internalType": "address",
          "name": "approved",
          "type": "address"
        },
        {
          "indexed": true,
          "internalType": "uint256",
          "name": "tokenId",
          "type": "uint256"
        }
      ],
      "name": "Approval",
      "type": "event"
    },
    {
      "anonymous": false,
      "inputs": [
        {
          "indexed": true,
          "internalType": "address",
          "name": "owner",
          "type": "address"
        },
        {
          "indexed": true,
          "internalType": "address",
          "name": "operator",
          "type": "address"
        },
        {
          "indexed": false,
          "internalType": "bool",
          "name": "approved",
          "type": "bool"
        }
      ],
      "name": "ApprovalForAll",
      "type": "event"
    },
    {
      "anonymous": false,
      "inputs": [
        {
          "indexed": false,
          "internalType": "uint256",
          "name": "tokenId",
          "type": "uint256"
        },
        {
          "indexed": false,
          "internalType": "uint256",
          "name": "price",
          "type": "uint256"
        },
        {
          "indexed": false,
          "internalType": "address",
          "name": "creator",
          "type": "address"
        },
        {
          "indexed": false,
          "internalType": "bool",
          "name": "isTokenListed",
          "type": "bool"
        }
      ],
      "name": "EventNftCreated",
      "type": "event"
    },
    {
      "anonymous": false,
      "inputs": [
        {
          "indexed": false,
          "internalType": "uint256",
          "name": "tokenId",
          "type": "uint256"
        },
        {
          "indexed": false,
          "internalType": "uint256",
          "name": "newPrice",
          "type": "uint256"
        },
        {
          "indexed": false,
          "internalType": "address",
          "name": "newCreator",
          "type": "address"
        },
        {
          "indexed": false,
          "internalType": "bool",
          "name": "newIsTokenListed",
          "type": "bool"
        }
      ],
      "name": "EventNftUpdated",
      "type": "event"
    },
    {
      "anonymous": false,
      "inputs": [
        {
          "indexed": true,
          "internalType": "address",
          "name": "previousOwner",
          "type": "address"
        },
        {
          "indexed": true,
          "internalType": "address",
          "name": "newOwner",
          "type": "address"
        }
      ],
      "name": "OwnershipTransferred",
      "type": "event"
    },
    {
      "anonymous": false,
      "inputs": [
        {
          "indexed": true,
          "internalType": "address",
          "name": "from",
          "type": "address"
        },
        {
          "indexed": true,
          "internalType": "address",
          "name": "to",
          "type": "address"
        },
        {
          "indexed": true,
          "internalType": "uint256",
          "name": "tokenId",
          "type": "uint256"
        }
      ],
      "name": "Transfer",
      "type": "event"
    },
    {
      "inputs": [
        {
          "internalType": "address",
          "name": "to",
          "type": "address"
        },
        {
          "internalType": "uint256",
          "name": "tokenId",
          "type": "uint256"
        }
      ],
      "name": "approve",
      "outputs": [],
      "stateMutability": "nonpayable",
      "type": "function"
    },
    {
      "inputs": [
        {
          "internalType": "address",
          "name": "owner",
          "type": "address"
        }
      ],
      "name": "balanceOf",
      "outputs": [
        {
          "internalType": "uint256",
          "name": "",
          "type": "uint256"
        }
      ],
      "stateMutability": "view",
      "type": "function"
    },
    {
      "inputs": [
        {
          "internalType": "uint256",
          "name": "tokenId",
          "type": "uint256"
        }
      ],
      "name": "getApproved",
      "outputs": [
        {
          "internalType": "address",
          "name": "",
          "type": "address"
        }
      ],
      "stateMutability": "view",
      "type": "function"
    },
    {
      "inputs": [
        {
          "internalType": "address",
          "name": "owner",
          "type": "address"
        },
        {
          "internalType": "address",
          "name": "operator",
          "type": "address"
        }
      ],
      "name": "isApprovedForAll",
      "outputs": [
        {
          "internalType": "bool",
          "name": "",
          "type": "bool"
        }
      ],
      "stateMutability": "view",
      "type": "function"
    },
    {
      "inputs": [],
      "name": "name",
      "outputs": [
        {
          "internalType": "string",
          "name": "",
          "type": "string"
        }
      ],
      "stateMutability": "view",
      "type": "function"
    },
    {
      "inputs": [],
      "name": "owner",
      "outputs": [
        {
          "internalType": "address",
          "name": "",
          "type": "address"
        }
      ],
      "stateMutability": "view",
      "type": "function"
    },
    {
      "inputs": [
        {
          "internalType": "uint256",
          "name": "tokenId",
          "type": "uint256"
        }
      ],
      "name": "ownerOf",
      "outputs": [
        {
          "internalType": "address",
          "name": "",
          "type": "address"
        }
      ],
      "stateMutability": "view",
      "type": "function"
    },
    {
      "inputs": [],
      "name": "renounceOwnership",
      "outputs": [],
      "stateMutability": "nonpayable",
      "type": "function"
    },
    {
      "inputs": [
        {
          "internalType": "address",
          "name": "from",
          "type": "address"
        },
        {
          "internalType": "address",
          "name": "to",
          "type": "address"
        },
        {
          "internalType": "uint256",
          "name": "tokenId",
          "type": "uint256"
        }
      ],
      "name": "safeTransferFrom",
      "outputs": [],
      "stateMutability": "nonpayable",
      "type": "function"
    },
    {
      "inputs": [
        {
          "internalType": "address",
          "name": "from",
          "type": "address"
        },
        {
          "internalType": "address",
          "name": "to",
          "type": "address"
        },
        {
          "internalType": "uint256",
          "name": "tokenId",
          "type": "uint256"
        },
        {
          "internalType": "bytes",
          "name": "data",
          "type": "bytes"
        }
      ],
      "name": "safeTransferFrom",
      "outputs": [],
      "stateMutability": "nonpayable",
      "type": "function"
    },
    {
      "inputs": [
        {
          "internalType": "address",
          "name": "operator",
          "type": "address"
        },
        {
          "internalType": "bool",
          "name": "approved",
          "type": "bool"
        }
      ],
      "name": "setApprovalForAll",
      "outputs": [],
      "stateMutability": "nonpayable",
      "type": "function"
    },
    {
      "inputs": [
        {
          "internalType": "bytes4",
          "name": "interfaceId",
          "type": "bytes4"
        }
      ],
      "name": "supportsInterface",
      "outputs": [
        {
          "internalType": "bool",
          "name": "",
          "type": "bool"
        }
      ],
      "stateMutability": "view",
      "type": "function"
    },
    {
      "inputs": [],
      "name": "symbol",
      "outputs": [
        {
          "internalType": "string",
          "name": "",
          "type": "string"
        }
      ],
      "stateMutability": "view",
      "type": "function"
    },
    {
      "inputs": [
        {
          "internalType": "uint256",
          "name": "tokenId",
          "type": "uint256"
        }
      ],
      "name": "tokenURI",
      "outputs": [
        {
          "internalType": "string",
          "name": "",
          "type": "string"
        }
      ],
      "stateMutability": "view",
      "type": "function"
    },
    {
      "inputs": [
        {
          "internalType": "address",
          "name": "from",
          "type": "address"
        },
        {
          "internalType": "address",
          "name": "to",
          "type": "address"
        },
        {
          "internalType": "uint256",
          "name": "tokenId",
          "type": "uint256"
        }
      ],
      "name": "transferFrom",
      "outputs": [],
      "stateMutability": "nonpayable",
      "type": "function"
    },
    {
      "inputs": [
        {
          "internalType": "address",
          "name": "newOwner",
          "type": "address"
        }
      ],
      "name": "transferOwnership",
      "outputs": [],
      "stateMutability": "nonpayable",
      "type": "function"
    },
    {
      "inputs": [
        {
          "internalType": "uint256",
          "name": "newListingPrice",
          "type": "uint256"
        }
      ],
      "name": "initialiseListingPrice",
      "outputs": [],
      "stateMutability": "nonpayable",
      "type": "function"
    },
    {
      "inputs": [
        {
          "internalType": "uint256",
          "name": "tokenId",
          "type": "uint256"
        }
      ],
      "name": "isTokenNotOnSale",
      "outputs": [
        {
          "internalType": "bool",
          "name": "",
          "type": "bool"
        }
      ],
      "stateMutability": "payable",
      "type": "function"
    },
    {
      "inputs": [
        {
          "internalType": "uint256",
          "name": "tokenId",
          "type": "uint256"
        }
      ],
      "name": "isTokenAlreadyOnSale",
      "outputs": [
        {
          "internalType": "bool",
          "name": "",
          "type": "bool"
        }
      ],
      "stateMutability": "payable",
      "type": "function"
    },
    {
      "inputs": [],
      "name": "getNftTotalSupply",
      "outputs": [
        {
          "internalType": "uint256",
          "name": "",
          "type": "uint256"
        }
      ],
      "stateMutability": "view",
      "type": "function"
    },
    {
      "inputs": [],
      "name": "fetchCurrentTokenIds",
      "outputs": [
        {
          "internalType": "uint256",
          "name": "",
          "type": "uint256"
        }
      ],
      "stateMutability": "view",
      "type": "function"
    },
    {
      "inputs": [
        {
          "internalType": "uint256",
          "name": "index",
          "type": "uint256"
        }
      ],
      "name": "retrieveTokenByIndex",
      "outputs": [
        {
          "internalType": "uint256",
          "name": "",
          "type": "uint256"
        }
      ],
      "stateMutability": "view",
      "type": "function"
    },
    {
      "inputs": [
        {
          "internalType": "string",
          "name": "tokenUri",
          "type": "string"
        },
        {
          "internalType": "uint256",
          "name": "tokenPrice",
          "type": "uint256"
        }
      ],
      "name": "mintNftToken",
      "outputs": [
        {
          "internalType": "uint256",
          "name": "",
          "type": "uint256"
        }
      ],
      "stateMutability": "payable",
      "type": "function"
    },
    {
      "inputs": [
        {
          "internalType": "uint256",
          "name": "tokenId",
          "type": "uint256"
        }
      ],
      "name": "getPriceOfNftToken",
      "outputs": [
        {
          "internalType": "uint256",
          "name": "",
          "type": "uint256"
        }
      ],
      "stateMutability": "view",
      "type": "function"
    },
    {
      "inputs": [
        {
          "internalType": "uint256",
          "name": "tokenId",
          "type": "uint256"
        }
      ],
      "name": "buyNft",
      "outputs": [],
      "stateMutability": "payable",
      "type": "function"
    },
    {
      "inputs": [
        {
          "internalType": "uint256",
          "name": "tokenId",
          "type": "uint256"
        }
      ],
      "name": "checkTokenCreatorIsOwner",
      "outputs": [
        {
          "internalType": "bool",
          "name": "",
          "type": "bool"
        }
      ],
      "stateMutability": "view",
      "type": "function"
    },
    {
      "inputs": [],
      "name": "isValidListingPrice",
      "outputs": [
        {
          "internalType": "bool",
          "name": "",
          "type": "bool"
        }
      ],
      "stateMutability": "payable",
      "type": "function"
    },
    {
      "inputs": [
        {
          "internalType": "uint256",
          "name": "tokenId",
          "type": "uint256"
        },
        {
          "internalType": "uint256",
          "name": "newTokenPrice",
          "type": "uint256"
        }
      ],
      "name": "setNftOnSale",
      "outputs": [],
      "stateMutability": "payable",
      "type": "function"
    },
    {
      "inputs": [
        {
          "internalType": "uint256",
          "name": "tokenId",
          "type": "uint256"
        }
      ],
      "name": "removeNftFromSale",
      "outputs": [],
      "stateMutability": "payable",
      "type": "function"
    },
    {
      "inputs": [],
      "name": "fetchAllNftsOnSale",
      "outputs": [
        {
          "components": [
            {
              "internalType": "uint256",
              "name": "tokenId",
              "type": "uint256"
            },
            {
              "internalType": "uint256",
              "name": "tokenPrice",
              "type": "uint256"
            },
            {
              "internalType": "address",
              "name": "tokenCreator",
              "type": "address"
            },
            {
              "internalType": "bool",
              "name": "isTokenListed",
              "type": "bool"
            }
          ],
          "internalType": "struct EventNftMarket.EventNft[]",
          "name": "",
          "type": "tuple[]"
        }
      ],
      "stateMutability": "view",
      "type": "function"
    },
    {
      "inputs": [],
      "name": "fetchAllOwnedNFTs",
      "outputs": [
        {
          "components": [
            {
              "internalType": "uint256",
              "name": "tokenId",
              "type": "uint256"
            },
            {
              "internalType": "uint256",
              "name": "tokenPrice",
              "type": "uint256"
            },
            {
              "internalType": "address",
              "name": "tokenCreator",
              "type": "address"
            },
            {
              "internalType": "bool",
              "name": "isTokenListed",
              "type": "bool"
            }
          ],
          "internalType": "struct EventNftMarket.EventNft[]",
          "name": "",
          "type": "tuple[]"
        }
      ],
      "stateMutability": "view",
      "type": "function"
    },
    {
      "inputs": [],
      "name": "fetchTokenSupply",
      "outputs": [
        {
          "internalType": "uint256",
          "name": "",
          "type": "uint256"
        }
      ],
      "stateMutability": "view",
      "type": "function"
    },
    {
      "inputs": [
        {
          "internalType": "string",
          "name": "tokenURI",
          "type": "string"
        }
      ],
      "name": "checkTokenExists",
      "outputs": [
        {
          "internalType": "bool",
          "name": "",
          "type": "bool"
        }
      ],
      "stateMutability": "view",
      "type": "function"
    },
    {
      "inputs": [
        {
          "internalType": "uint256",
          "name": "tokenId",
          "type": "uint256"
        }
      ],
      "name": "returnSingleNftItem",
      "outputs": [
        {
          "components": [
            {
              "internalType": "uint256",
              "name": "tokenId",
              "type": "uint256"
            },
            {
              "internalType": "uint256",
              "name": "tokenPrice",
              "type": "uint256"
            },
            {
              "internalType": "address",
              "name": "tokenCreator",
              "type": "address"
            },
            {
              "internalType": "bool",
              "name": "isTokenListed",
              "type": "bool"
            }
          ],
          "internalType": "struct EventNftMarket.EventNft",
          "name": "",
          "type": "tuple"
        }
      ],
      "stateMutability": "view",
      "type": "function"
    }
  ],
  "bytecode": "0x6080604052666a94d74f430000600a553480156200001c57600080fd5b506040518060400160405280601581526020017f4576656e74205469636b657473204e4654204e4654000000000000000000000081525060405180604001604052806005815260200164115513919560da1b8152508160009081620000829190620001af565b506001620000918282620001af565b505050620000ae620000a8620000b460201b60201c565b620000b8565b6200027b565b3390565b600780546001600160a01b038381166001600160a01b0319831681179093556040519116919082907f8be0079c531659141344cd1fd0a4f28419497f9722a3daafe3b4186f6b6457e090600090a35050565b634e487b7160e01b600052604160045260246000fd5b600181811c908216806200013557607f821691505b6020821081036200015657634e487b7160e01b600052602260045260246000fd5b50919050565b601f821115620001aa57600081815260208120601f850160051c81016020861015620001855750805b601f850160051c820191505b81811015620001a65782815560010162000191565b5050505b505050565b81516001600160401b03811115620001cb57620001cb6200010a565b620001e381620001dc845462000120565b846200015c565b602080601f8311600181146200021b5760008415620002025750858301515b600019600386901b1c1916600185901b178555620001a6565b600085815260208120601f198616915b828110156200024c578886015182559484019460019091019084016200022b565b50858210156200026b5787850151600019600388901b60f8161c191681555b5050505050600190811b01905550565b6124a4806200028b6000396000f3fe6080604052600436106101f95760003560e01c8063640ae1661161010d578063b88d4fde116100a0578063cd2acaa51161006f578063cd2acaa514610601578063d871ca15146104a5578063e985e9c514610616578063f0d2fad81461065f578063f2fde38b1461067257600080fd5b8063b88d4fde1461050d578063c30c21a71461052d578063c3a66a5b146105ce578063c87b56dd146105e157600080fd5b806387888b5b116100dc57806387888b5b146104a55780638da5cb5b146104ba57806395d89b41146104d8578063a22cb465146104ed57600080fd5b8063640ae1661461043057806370a0823114610450578063715018a6146104705780637b4809081461048557600080fd5b8063243adbdd11610190578063452757c51161015f578063452757c5146103c15780634ae58814146103de57806352ad5bf0146103f1578063546df207146103fb5780636352211e1461041057600080fd5b8063243adbdd1461032257806329ae6c0c146103355780633ea95f2a1461036357806342842e0e146103a157600080fd5b8063095ea7b3116101cc578063095ea7b3146102ad57806309ceadae146102cf578063162f4e81146102ef57806323b872dd1461030257600080fd5b806301ffc9a7146101fe57806304b49c3a1461023357806306fdde0314610253578063081812fc14610275575b600080fd5b34801561020a57600080fd5b5061021e610219366004611d22565b610692565b60405190151581526020015b60405180910390f35b34801561023f57600080fd5b5061021e61024e366004611deb565b6106e4565b34801561025f57600080fd5b50610268610714565b60405161022a9190611e70565b34801561028157600080fd5b50610295610290366004611e83565b6107a6565b6040516001600160a01b03909116815260200161022a565b3480156102b957600080fd5b506102cd6102c8366004611eb8565b6107cd565b005b3480156102db57600080fd5b5061021e6102ea366004611e83565b6108e7565b61021e6102fd366004611e83565b61090d565b34801561030e57600080fd5b506102cd61031d366004611ee2565b610932565b6102cd610330366004611e83565b610963565b61021e610343366004611e83565b6000908152600e6020526040902060020154600160a01b900460ff161590565b34801561036f57600080fd5b5061039361037e366004611e83565b6000908152600e602052604090206001015490565b60405190815260200161022a565b3480156103ad57600080fd5b506102cd6103bc366004611ee2565b610aba565b3480156103cd57600080fd5b5060605b60405161022a9190611f1e565b6103936103ec366004611f95565b610ad5565b600a54341461021e565b34801561040757600080fd5b506103d1610c12565b34801561041c57600080fd5b5061029561042b366004611e83565b610d66565b34801561043c57600080fd5b5061039361044b366004611e83565b610dc6565b34801561045c57600080fd5b5061039361046b366004611fda565b610ded565b34801561047c57600080fd5b506102cd610e73565b34801561049157600080fd5b506102cd6104a0366004611e83565b610e87565b3480156104b157600080fd5b50600b54610393565b3480156104c657600080fd5b506007546001600160a01b0316610295565b3480156104e457600080fd5b50610268610ef5565b3480156104f957600080fd5b506102cd610508366004611ff5565b610f04565b34801561051957600080fd5b506102cd610528366004612031565b610f13565b34801561053957600080fd5b506105c1610548366004611e83565b604080516080810182526000808252602082018190529181018290526060810191909152506000908152600e6020908152604091829020825160808101845281548152600182015492810192909252600201546001600160a01b03811692820192909252600160a01b90910460ff161515606082015290565b60405161022a91906120ad565b6102cd6105dc3660046120e3565b610f4b565b3480156105ed57600080fd5b506102686105fc366004611e83565b6110b9565b34801561060d57600080fd5b506103936111c1565b34801561062257600080fd5b5061021e610631366004612105565b6001600160a01b03918216600090815260056020908152604080832093909416825291909152205460ff1690565b6102cd61066d366004611e83565b6111d1565b34801561067e57600080fd5b506102cd61068d366004611fda565b611259565b60006001600160e01b031982166380ac58cd60e01b14806106c357506001600160e01b03198216635b5e139f60e01b145b806106de57506301ffc9a760e01b6001600160e01b03198316145b92915050565b6000600d826040516106f69190612138565b9081526040519081900360200190205460ff16151560011492915050565b60606000805461072390612154565b80601f016020809104026020016040519081016040528092919081815260200182805461074f90612154565b801561079c5780601f106107715761010080835404028352916020019161079c565b820191906000526020600020905b81548152906001019060200180831161077f57829003601f168201915b5050505050905090565b60006107b1826112cf565b506000908152600460205260409020546001600160a01b031690565b60006107d882610d66565b9050806001600160a01b0316836001600160a01b03160361084a5760405162461bcd60e51b815260206004820152602160248201527f4552433732313a20617070726f76616c20746f2063757272656e74206f776e656044820152603960f91b60648201526084015b60405180910390fd5b336001600160a01b038216148061086657506108668133610631565b6108d85760405162461bcd60e51b815260206004820152603e60248201527f4552433732313a20617070726f76652063616c6c6572206973206e6f7420746f60448201527f6b656e206f776e6572206e6f7220617070726f76656420666f7220616c6c00006064820152608401610841565b6108e2838361132e565b505050565b60006108f282610d66565b6001600160a01b0316336001600160a01b0316149050919050565b6000908152600e602052604090206002015460ff600160a01b90910416151560011490565b61093c338261139c565b6109585760405162461bcd60e51b81526004016108419061218e565b6108e283838361141a565b600061096e82610d66565b9050336001600160a01b038216146109e25760405162461bcd60e51b815260206004820152603160248201527f506c6561736520656e73757265207468617420796f752061726520746865206f6044820152703bb732b91037b3103a3432903a37b5b2b760791b6064820152608401610841565b6000828152600e60205260409020600101543414610a545760405162461bcd60e51b815260206004820152602960248201527f506c65617365207375626d697420612076616c756520707269636520666f72206044820152683a3432903a37b5b2b760b91b6064820152608401610841565b6000828152600e60205260409020600201805460ff60a01b19169055610a7a60086115b6565b610a8581338461141a565b6040516001600160a01b038216903480156108fc02916000818181858888f193505050501580156108e2573d6000803e3d6000fd5b6108e283838360405180602001604052806000815250610f13565b6000610ae0836106e4565b15610b3d5760405162461bcd60e51b815260206004820152602760248201527f506c6561736520656e7375726520746861742074686520746f6b656e205552496044820152662065786973747360c81b6064820152608401610841565b600a543414610bc25760405162461bcd60e51b8152602060048201526044602482018190527f506c6561736520656e7375726520746865207072696365206f6620746865206e908201527f657720746f6b656e2069732073657420746f20746865206c697374696e6720706064820152637269636560e01b608482015260a401610841565b33610bd1600980546001019055565b610bdf600880546001019055565b6000610bea60095490565b9050610bf6828261160d565b610c008186611627565b610c0a81856116ba565b949350505050565b60606000610c1f600b5490565b9050600080610c2d60085490565b905060008167ffffffffffffffff811115610c4a57610c4a611d3f565b604051908082528060200260200182016040528015610c9c57816020015b604080516080810182526000808252602080830182905292820181905260608201528252600019909201910181610c685790505b50905060005b84811015610d5d576000610cb582610dc6565b6000818152600e60205260409020600281015491925090600160a01b900460ff1615610d485760408051608081018252825481526001830154602082015260028301546001600160a01b03811692820192909252600160a01b90910460ff16151560608201528451859088908110610d2f57610d2f6121dc565b6020908102919091010152610d45600187612208565b95505b50508080610d559061221b565b915050610ca2565b50949350505050565b6000818152600260205260408120546001600160a01b0316806106de5760405162461bcd60e51b8152602060048201526018602482015277115490cdcc8c4e881a5b9d985b1a59081d1bdad95b88125160421b6044820152606401610841565b6000600b8281548110610ddb57610ddb6121dc565b90600052602060002001549050919050565b60006001600160a01b038216610e575760405162461bcd60e51b815260206004820152602960248201527f4552433732313a2061646472657373207a65726f206973206e6f7420612076616044820152683634b21037bbb732b960b91b6064820152608401610841565b506001600160a01b031660009081526003602052604090205490565b610e7b611774565b610e8560006117ce565b565b610e8f611774565b6000808211610eef5760405162461bcd60e51b815260206004820152602660248201527f4d616b652073757265207468617420746865206c697374696e67206973203e2060448201526530204757454960d01b6064820152608401610841565b50600a55565b60606001805461072390612154565b610f0f338383611820565b5050565b610f1d338361139c565b610f395760405162461bcd60e51b81526004016108419061218e565b610f45848484846118ee565b50505050565b610f54826108e7565b610ff75760405162461bcd60e51b815260206004820152606260248201527f506c65617365206d616b6520737572652074686174207468652063726561746f60448201527f72206f662074686520746f6b656e206973207468652063757272656e74206f7760648201527f6e6572206265666f726520706c6163696e6720746865206e6674206f6e2073616084820152616c6560f01b60a482015260c401610841565b6110008261090d565b6110725760405162461bcd60e51b815260206004820152603960248201527f506c65617365206d616b65207375726520746861742074686520746f6b656e2060448201527f6973206e6f7420616c7265616479206f6e2073616c652e2e2e000000000000006064820152608401610841565b6000828152600e6020526040902060028101805460ff60a01b1916600160a01b1790556001018190556110a460085490565b600003610f0f57610f0f600880546001019055565b60606110c4826112cf565b600082815260066020526040812080546110dd90612154565b80601f016020809104026020016040519081016040528092919081815260200182805461110990612154565b80156111565780601f1061112b57610100808354040283529160200191611156565b820191906000526020600020905b81548152906001019060200180831161113957829003601f168201915b50505050509050600061117460408051602081019091526000815290565b90508051600003611186575092915050565b8151156111b85780826040516020016111a0929190612234565b60405160208183030381529060405292505050919050565b610c0a84611921565b60006111cc60095490565b905090565b6111da8161090d565b6112565760405162461bcd60e51b815260206004820152604160248201527f4265666f72652072656d6f76696e672066726f6d2073616c652e20506c65617360448201527f65206d616b65207375726520697420697320616c7265616479206f6e2073616c6064820152606560f81b608482015260a401610841565b50565b611261611774565b6001600160a01b0381166112c65760405162461bcd60e51b815260206004820152602660248201527f4f776e61626c653a206e6577206f776e657220697320746865207a65726f206160448201526564647265737360d01b6064820152608401610841565b611256816117ce565b6000818152600260205260409020546001600160a01b03166112565760405162461bcd60e51b8152602060048201526018602482015277115490cdcc8c4e881a5b9d985b1a59081d1bdad95b88125160421b6044820152606401610841565b600081815260046020526040902080546001600160a01b0319166001600160a01b038416908117909155819061136382610d66565b6001600160a01b03167f8c5be1e5ebec7d5bd14f71427d1e84f3dd0314c0f7b2291e5b200ac8c7c3b92560405160405180910390a45050565b6000806113a883610d66565b9050806001600160a01b0316846001600160a01b031614806113ef57506001600160a01b0380821660009081526005602090815260408083209388168352929052205460ff165b80610c0a5750836001600160a01b0316611408846107a6565b6001600160a01b031614949350505050565b826001600160a01b031661142d82610d66565b6001600160a01b0316146114915760405162461bcd60e51b815260206004820152602560248201527f4552433732313a207472616e736665722066726f6d20696e636f72726563742060448201526437bbb732b960d91b6064820152608401610841565b6001600160a01b0382166114f35760405162461bcd60e51b8152602060048201526024808201527f4552433732313a207472616e7366657220746f20746865207a65726f206164646044820152637265737360e01b6064820152608401610841565b6114fe60008261132e565b6001600160a01b0383166000908152600360205260408120805460019290611527908490612263565b90915550506001600160a01b0382166000908152600360205260408120805460019290611555908490612208565b909155505060008181526002602052604080822080546001600160a01b0319166001600160a01b0386811691821790925591518493918716917fddf252ad1be2c89b69c2b068fc378daa952ba7f163c4a11628f55a4df523b3ef91a4505050565b8054806116055760405162461bcd60e51b815260206004820152601b60248201527f436f756e7465723a2064656372656d656e74206f766572666c6f7700000000006044820152606401610841565b600019019055565b610f0f828260405180602001604052806000815250611995565b6000828152600260205260409020546001600160a01b03166116a25760405162461bcd60e51b815260206004820152602e60248201527f45524337323155524953746f726167653a2055524920736574206f66206e6f6e60448201526d32bc34b9ba32b73a103a37b5b2b760911b6064820152608401610841565b60008281526006602052604090206108e282826122c4565b60408051608080820183528482526020808301858152338486018181526001606080880182815260008c8152600e88528a90209851895594518883015591516002909701805494511515600160a01b026001600160a81b03199095166001600160a01b0390981697909717939093179095558551888152928301879052948201859052928101929092527f3b4ab3277db321b0645c3c3aa653dd70b098949182249f64b89dce020f966a54910160405180910390a1505050565b6007546001600160a01b03163314610e855760405162461bcd60e51b815260206004820181905260248201527f4f776e61626c653a2063616c6c6572206973206e6f7420746865206f776e65726044820152606401610841565b600780546001600160a01b038381166001600160a01b0319831681179093556040519116919082907f8be0079c531659141344cd1fd0a4f28419497f9722a3daafe3b4186f6b6457e090600090a35050565b816001600160a01b0316836001600160a01b0316036118815760405162461bcd60e51b815260206004820152601960248201527f4552433732313a20617070726f766520746f2063616c6c6572000000000000006044820152606401610841565b6001600160a01b03838116600081815260056020908152604080832094871680845294825291829020805460ff191686151590811790915591519182527f17307eab39ab6107e8899845ad3d59bd9653f200f220920489ca2b5937696c31910160405180910390a3505050565b6118f984848461141a565b611905848484846119c8565b610f455760405162461bcd60e51b815260040161084190612384565b606061192c826112cf565b600061194360408051602081019091526000815290565b90506000815111611963576040518060200160405280600081525061198e565b8061196d84611ac9565b60405160200161197e929190612234565b6040516020818303038152906040525b9392505050565b61199f8383611bca565b6119ac60008484846119c8565b6108e25760405162461bcd60e51b815260040161084190612384565b60006001600160a01b0384163b15611abe57604051630a85bd0160e11b81526001600160a01b0385169063150b7a0290611a0c9033908990889088906004016123d6565b6020604051808303816000875af1925050508015611a47575060408051601f3d908101601f19168201909252611a4491810190612413565b60015b611aa4573d808015611a75576040519150601f19603f3d011682016040523d82523d6000602084013e611a7a565b606091505b508051600003611a9c5760405162461bcd60e51b815260040161084190612384565b805181602001fd5b6001600160e01b031916630a85bd0160e11b149050610c0a565b506001949350505050565b606081600003611af05750506040805180820190915260018152600360fc1b602082015290565b8160005b8115611b1a5780611b048161221b565b9150611b139050600a83612446565b9150611af4565b60008167ffffffffffffffff811115611b3557611b35611d3f565b6040519080825280601f01601f191660200182016040528015611b5f576020820181803683370190505b5090505b8415610c0a57611b74600183612263565b9150611b81600a8661245a565b611b8c906030612208565b60f81b818381518110611ba157611ba16121dc565b60200101906001600160f81b031916908160001a905350611bc3600a86612446565b9450611b63565b6001600160a01b038216611c205760405162461bcd60e51b815260206004820181905260248201527f4552433732313a206d696e7420746f20746865207a65726f20616464726573736044820152606401610841565b6000818152600260205260409020546001600160a01b031615611c855760405162461bcd60e51b815260206004820152601c60248201527f4552433732313a20746f6b656e20616c7265616479206d696e746564000000006044820152606401610841565b6001600160a01b0382166000908152600360205260408120805460019290611cae908490612208565b909155505060008181526002602052604080822080546001600160a01b0319166001600160a01b03861690811790915590518392907fddf252ad1be2c89b69c2b068fc378daa952ba7f163c4a11628f55a4df523b3ef908290a45050565b6001600160e01b03198116811461125657600080fd5b600060208284031215611d3457600080fd5b813561198e81611d0c565b634e487b7160e01b600052604160045260246000fd5b600067ffffffffffffffff80841115611d7057611d70611d3f565b604051601f8501601f19908116603f01168101908282118183101715611d9857611d98611d3f565b81604052809350858152868686011115611db157600080fd5b858560208301376000602087830101525050509392505050565b600082601f830112611ddc57600080fd5b61198e83833560208501611d55565b600060208284031215611dfd57600080fd5b813567ffffffffffffffff811115611e1457600080fd5b610c0a84828501611dcb565b60005b83811015611e3b578181015183820152602001611e23565b50506000910152565b60008151808452611e5c816020860160208601611e20565b601f01601f19169290920160200192915050565b60208152600061198e6020830184611e44565b600060208284031215611e9557600080fd5b5035919050565b80356001600160a01b0381168114611eb357600080fd5b919050565b60008060408385031215611ecb57600080fd5b611ed483611e9c565b946020939093013593505050565b600080600060608486031215611ef757600080fd5b611f0084611e9c565b9250611f0e60208501611e9c565b9150604084013590509250925092565b6020808252825182820181905260009190848201906040850190845b81811015611f8957611f7683855180518252602080820151908301526040808201516001600160a01b0316908301526060908101511515910152565b9284019260809290920191600101611f3a565b50909695505050505050565b60008060408385031215611fa857600080fd5b823567ffffffffffffffff811115611fbf57600080fd5b611fcb85828601611dcb565b95602094909401359450505050565b600060208284031215611fec57600080fd5b61198e82611e9c565b6000806040838503121561200857600080fd5b61201183611e9c565b91506020830135801515811461202657600080fd5b809150509250929050565b6000806000806080858703121561204757600080fd5b61205085611e9c565b935061205e60208601611e9c565b925060408501359150606085013567ffffffffffffffff81111561208157600080fd5b8501601f8101871361209257600080fd5b6120a187823560208401611d55565b91505092959194509250565b81518152602080830151908201526040808301516001600160a01b031690820152606080830151151590820152608081016106de565b600080604083850312156120f657600080fd5b50508035926020909101359150565b6000806040838503121561211857600080fd5b61212183611e9c565b915061212f60208401611e9c565b90509250929050565b6000825161214a818460208701611e20565b9190910192915050565b600181811c9082168061216857607f821691505b60208210810361218857634e487b7160e01b600052602260045260246000fd5b50919050565b6020808252602e908201527f4552433732313a2063616c6c6572206973206e6f7420746f6b656e206f776e6560408201526d1c881b9bdc88185c1c1c9bdd995960921b606082015260800190565b634e487b7160e01b600052603260045260246000fd5b634e487b7160e01b600052601160045260246000fd5b808201808211156106de576106de6121f2565b60006001820161222d5761222d6121f2565b5060010190565b60008351612246818460208801611e20565b83519083019061225a818360208801611e20565b01949350505050565b818103818111156106de576106de6121f2565b601f8211156108e257600081815260208120601f850160051c8101602086101561229d5750805b601f850160051c820191505b818110156122bc578281556001016122a9565b505050505050565b815167ffffffffffffffff8111156122de576122de611d3f565b6122f2816122ec8454612154565b84612276565b602080601f831160018114612327576000841561230f5750858301515b600019600386901b1c1916600185901b1785556122bc565b600085815260208120601f198616915b8281101561235657888601518255948401946001909101908401612337565b50858210156123745787850151600019600388901b60f8161c191681555b5050505050600190811b01905550565b60208082526032908201527f4552433732313a207472616e7366657220746f206e6f6e20455243373231526560408201527131b2b4bb32b91034b6b83632b6b2b73a32b960711b606082015260800190565b6001600160a01b038581168252841660208201526040810183905260806060820181905260009061240990830184611e44565b9695505050505050565b60006020828403121561242557600080fd5b815161198e81611d0c565b634e487b7160e01b600052601260045260246000fd5b60008261245557612455612430565b500490565b60008261246957612469612430565b50069056fea26469706673582212200ee4e97b2d0f5b079f12779044e9317edef0740d82e4aba4150901798e18190664736f6c63430008110033",
  "immutableReferences": {},
  "source": "// SPDX-License-Identifier: MIT\npragma solidity ^0.8.17;\nimport \"../node_modules/@openzeppelin/contracts/token/ERC721/extensions/ERC721URIStorage.sol\";\nimport \"../node_modules/@openzeppelin/contracts/utils/Counters.sol\";\nimport \"../node_modules/@openzeppelin/contracts/token/ERC721/ERC721.sol\";\nimport \"../node_modules/@openzeppelin/contracts/access/Ownable.sol\";\n\n// Interface for the NFT routines to be invoked\ninterface NftRoutines {\n    function initialiseListingPrice(uint256 newListingPrice) external;\n    function mintNftToken(string memory tokenUri, uint256 tokenPrice) external payable returns (uint256);\n    function setNftOnSale(uint256 tokenIndex, uint256 newTokenPrice) external payable; // 3. Routine to set the nft on sale\n    function buyNft(uint256 tokenInde) external payable; // Routing to buy the NFT given a token Index and price\n    function removeNftFromSale(uint256 tokenIndex) external payable; // Removing an NFT from sale requires that we pay some ether \n    function checkTokenCreatorIsOwner(uint256 tokenId) external returns (bool);\n}\n\ncontract EventNftMarket is ERC721URIStorage, Ownable, NftRoutines {\n    using Counters for Counters.Counter;\n\n    Counters.Counter private listedTokenItems; // Listed Token Items\n    Counters.Counter private tokenIds; // Number that stores how many token's we have\n\n    uint256 ticketListingPrice = 0.030 ether; // Listing price for the event NFT. Initially sell one for 0.030 ETHER\n    uint256[] private listOfNfts; // Store the list of NFTs in an array\n    bool private tokenMinted;\n\n    mapping(string => bool) private usedTokenURIs; // Map string to boolean for checking the used token URis\n    mapping(uint => EventNft) private mappedNftData;\n    mapping(uint => uint) private mappedIdToIndex; // Map an ID to the index of a token\n\n    mapping(address => mapping(uint => uint)) private ownedEventTokens; // Mapping between the address of the owner and an integer that stores the owner tokens ID\n    mapping(uint => uint) private _idToOwnedIndex;\n\n    struct EventNft { // Struct for holding Event NFT data\n        uint256 tokenId;\n        uint256 tokenPrice;\n        address tokenCreator;\n        bool isTokenListed; // Determines if the token is listed for sale or not\n    }\n\n    // 1. Event for Creating New Ticket nft Data\n    event EventNftCreated (\n        uint tokenId,\n        uint price,\n        address creator,\n        bool isTokenListed\n    );\n\n    // 2. Event For Updating NFT data\n    event EventNftUpdated (\n        uint tokenId,\n        uint newPrice,\n        address newCreator,\n        bool newIsTokenListed\n    );\n\n    constructor() ERC721(\"Event Tickets NFT NFT\", \"ETNFT\") {}\n\n    // @description: Set the listing price for a token\n    function initialiseListingPrice(uint256 newListingPrice) public override onlyOwner {\n        uint256 defaultPrice = 0;\n        require(newListingPrice > defaultPrice, \"Make sure that the listing is > 0 GWEI\");\n        ticketListingPrice = newListingPrice;\n    }\n\n\n    function isTokenNotOnSale(uint256 tokenId) public payable returns (bool) {\n        return mappedNftData[tokenId].isTokenListed == !true;\n    }\n\n    function isTokenAlreadyOnSale(uint256 tokenId) public payable returns (bool) {\n         return mappedNftData[tokenId].isTokenListed == !false;\n    }\n\n    function getNftTotalSupply() public view returns (uint256) {\n        return listOfNfts.length;\n    }\n\n    function fetchCurrentTokenIds() public view returns (uint256) {\n        return tokenIds.current();\n    }\n\n    // @description: Fetch an NFT token by its index\n    function retrieveTokenByIndex(uint index) public view returns (uint) {\n       return listOfNfts[index];\n    }\n\n\n    // @description: Register a new token on the blockchain.\n    // @returns: The ID of that token minted\n     // Logic Here to mint an NFT token\n     // 1. If the token URI does not exist, mint the token\n     // 2. Ensure that the price of the new token is set to the listing price (how much we want to sell it for)\n     // 3. Increment the token ID by 1\n     // 4. Add 1 to the number of listed tokens (after creation)\n     // 5. Get the current Token ID\n\n    function mintNftToken(string memory tokenUri, uint256 tokenPrice) public payable override returns (uint256) {\n        require(!checkTokenExists(tokenUri), \"Please ensure that the token URI exists\");\n        require(msg.value == ticketListingPrice, \"Please ensure the price of the new token is set to the listing price\");\n        address messageSender = msg.sender;\n\n        tokenIds.increment();\n        listedTokenItems.increment();\n        uint newTokenId = tokenIds.current();\n\n        _safeMint(messageSender, newTokenId);\n        _setTokenURI(newTokenId, tokenUri); // Set the new token URI with the token ID\n\n        createNewNftItem(newTokenId, tokenPrice); // Invoke routine to create the new NFT item below\n\n        return newTokenId;\n    }\n\n    function createNewNftItem(uint256 tokenId, uint256 tokenPrice) private {\n       address currentOwner = msg.sender;\n       mappedNftData[tokenId] = EventNft(tokenId, tokenPrice, currentOwner, true);\n\n       emit EventNftCreated(tokenId, tokenPrice, msg.sender, true); // Emit new created event\n\n    }\n\n    function getPriceOfNftToken(uint256 tokenId) public view returns (uint256) {\n        uint currentPrice = mappedNftData[tokenId].tokenPrice;\n        return currentPrice;\n    }\n\n    function buyNft(uint256 tokenId) public payable {\n        address currentOwner = ERC721.ownerOf(tokenId);\n        require(msg.sender == currentOwner, \"Please ensure that you are the owner of the token\");\n        require(msg.value == getPriceOfNftToken(tokenId), \"Please submit a value price for the token\");\n\n        // Now we need to delist it from the struct\n        mappedNftData[tokenId].isTokenListed = false;\n        listedTokenItems.decrement(); // Decrement the listed items by 1.\n\n         _transfer(currentOwner, msg.sender, tokenId); // Transfer Ownership of the NFT from the current owner to ms.sender\n         payable(currentOwner).transfer(msg.value); // Pay the new owner\n    }\n\n    function checkTokenCreatorIsOwner(uint256 tokenId) public view override returns (bool) {\n        return msg.sender == ERC721.ownerOf(tokenId); // The owner of the token ID is equal to the ERC721 invoked routine of the token ID\n    }\n\n    // Check if the listing price is valid or not\n    function isValidListingPrice() public payable returns (bool) {\n        return msg.value == ticketListingPrice;\n    }\n\n    function setNftOnSale(uint256 tokenId, uint256 newTokenPrice) external payable override {\n        require(checkTokenCreatorIsOwner(tokenId), \"Please make sure that the creator of the token is the current owner before placing the nft on sale\");\n        require(isTokenAlreadyOnSale(tokenId), \"Please make sure that the token is not already on sale...\");\n\n        mappedNftData[tokenId].isTokenListed = true;\n        mappedNftData[tokenId].tokenPrice = newTokenPrice; // Update the new token price\n\n                // Increment Listed Items\n        if(listedTokenItems.current() == 0) { // If the current items on sale is by default 0\n            listedTokenItems.increment();\n        }\n\n    }\n\n    function removeNftFromSale(uint256 tokenId) external payable override {\n        require(isTokenAlreadyOnSale(tokenId), \"Before removing from sale. Please make sure it is already on sale\");\n    }\n\n\n    // @description: Retrieves all of the event ticket NFT's on sale.\n    // @returns: An array of Event NFT Tokens stored in memory\n\n    function fetchAllNftsOnSale() public view returns (EventNft[] memory) {\n        uint totalNftSupply = getNftTotalSupply();\n        uint currentTokenIndex = 0; // Current index of the token\n        uint currentNftItem = listedTokenItems.current();\n\n        EventNft[] memory nftItems = new EventNft[](currentNftItem);\n\n        for(uint256 index = 0; index < totalNftSupply; index++) {\n\n            uint256 tokenIndex = retrieveTokenByIndex(index);\n\n            EventNft storage tokenItem = mappedNftData[tokenIndex];\n           \n           if(tokenItem.isTokenListed) {\n              nftItems[currentTokenIndex] = tokenItem;\n              currentTokenIndex +=1;\n           }\n        }\n\n        return nftItems; // Return all of the NFT items\n    }\n\n        // Logic for getting all of the user's owned Event Ticket NFT's\n    // @description Fetch all of the user's owned NFTs\n    // @returns: An array of event nft items\n\n    function fetchAllOwnedNFTs() public view returns(EventNft[] memory) {\n       \n    }\n\n    // @description: Return the total supply of event ticket nft's by returning the array length.\n    function fetchTokenSupply() public view returns (uint256) {\n        return listOfNfts.length;\n    }\n\n    function checkTokenExists(string memory tokenURI) public view returns (bool) {\n        return usedTokenURIs[tokenURI] == true;\n    }\n\n    function returnSingleNftItem(uint256 tokenId) public view returns(EventNft memory) {\n        return mappedNftData[tokenId]; // Return the mapped NFT ID to the token ID\n    }\n\n}",
  "sourcePath": "/Users/sabin2000/Documents/ticketblock/frontend/contracts/EventNftMarket.sol",
  "compiler": {
    "name": "solc",
    "version": "0.8.17+commit.8df45f5f.Emscripten.clang"
  },
  "schemaVersion": "3.4.9",
  "updatedAt": "2022-10-24T09:17:12.661Z",
  "devdoc": {
    "kind": "dev",
    "methods": {
      "approve(address,uint256)": {
        "details": "See {IERC721-approve}."
      },
      "balanceOf(address)": {
        "details": "See {IERC721-balanceOf}."
      },
      "getApproved(uint256)": {
        "details": "See {IERC721-getApproved}."
      },
      "isApprovedForAll(address,address)": {
        "details": "See {IERC721-isApprovedForAll}."
      },
      "name()": {
        "details": "See {IERC721Metadata-name}."
      },
      "owner()": {
        "details": "Returns the address of the current owner."
      },
      "ownerOf(uint256)": {
        "details": "See {IERC721-ownerOf}."
      },
      "renounceOwnership()": {
        "details": "Leaves the contract without owner. It will not be possible to call `onlyOwner` functions anymore. Can only be called by the current owner. NOTE: Renouncing ownership will leave the contract without an owner, thereby removing any functionality that is only available to the owner."
      },
      "safeTransferFrom(address,address,uint256)": {
        "details": "See {IERC721-safeTransferFrom}."
      },
      "safeTransferFrom(address,address,uint256,bytes)": {
        "details": "See {IERC721-safeTransferFrom}."
      },
      "setApprovalForAll(address,bool)": {
        "details": "See {IERC721-setApprovalForAll}."
      },
      "supportsInterface(bytes4)": {
        "details": "See {IERC165-supportsInterface}."
      },
      "symbol()": {
        "details": "See {IERC721Metadata-symbol}."
      },
      "tokenURI(uint256)": {
        "details": "See {IERC721Metadata-tokenURI}."
      },
      "transferFrom(address,address,uint256)": {
        "details": "See {IERC721-transferFrom}."
      },
      "transferOwnership(address)": {
        "details": "Transfers ownership of the contract to a new account (`newOwner`). Can only be called by the current owner."
      }
    },
    "version": 1
  },
  "userdoc": {
    "kind": "user",
    "methods": {},
    "version": 1
  }
}