{
  "contractName": "EventNftMarket",
  "abi": [
    {
      "inputs": [],
      "stateMutability": "nonpayable",
      "type": "constructor"
    },
    {
      "anonymous": false,
      "inputs": [
        {
          "indexed": true,
          "internalType": "address",
          "name": "owner",
          "type": "address"
        },
        {
          "indexed": true,
          "internalType": "address",
          "name": "approved",
          "type": "address"
        },
        {
          "indexed": true,
          "internalType": "uint256",
          "name": "tokenId",
          "type": "uint256"
        }
      ],
      "name": "Approval",
      "type": "event"
    },
    {
      "anonymous": false,
      "inputs": [
        {
          "indexed": true,
          "internalType": "address",
          "name": "owner",
          "type": "address"
        },
        {
          "indexed": true,
          "internalType": "address",
          "name": "operator",
          "type": "address"
        },
        {
          "indexed": false,
          "internalType": "bool",
          "name": "approved",
          "type": "bool"
        }
      ],
      "name": "ApprovalForAll",
      "type": "event"
    },
    {
      "anonymous": false,
      "inputs": [
        {
          "indexed": false,
          "internalType": "uint256",
          "name": "tokenId",
          "type": "uint256"
        },
        {
          "indexed": false,
          "internalType": "uint256",
          "name": "price",
          "type": "uint256"
        },
        {
          "indexed": false,
          "internalType": "address",
          "name": "creator",
          "type": "address"
        },
        {
          "indexed": false,
          "internalType": "bool",
          "name": "isTokenListed",
          "type": "bool"
        }
      ],
      "name": "EventNftCreated",
      "type": "event"
    },
    {
      "anonymous": false,
      "inputs": [
        {
          "indexed": false,
          "internalType": "uint256",
          "name": "tokenId",
          "type": "uint256"
        },
        {
          "indexed": false,
          "internalType": "uint256",
          "name": "newPrice",
          "type": "uint256"
        },
        {
          "indexed": false,
          "internalType": "address",
          "name": "newCreator",
          "type": "address"
        },
        {
          "indexed": false,
          "internalType": "bool",
          "name": "newIsTokenListed",
          "type": "bool"
        }
      ],
      "name": "EventNftUpdated",
      "type": "event"
    },
    {
      "anonymous": false,
      "inputs": [
        {
          "indexed": true,
          "internalType": "address",
          "name": "previousOwner",
          "type": "address"
        },
        {
          "indexed": true,
          "internalType": "address",
          "name": "newOwner",
          "type": "address"
        }
      ],
      "name": "OwnershipTransferred",
      "type": "event"
    },
    {
      "anonymous": false,
      "inputs": [
        {
          "indexed": true,
          "internalType": "address",
          "name": "from",
          "type": "address"
        },
        {
          "indexed": true,
          "internalType": "address",
          "name": "to",
          "type": "address"
        },
        {
          "indexed": true,
          "internalType": "uint256",
          "name": "tokenId",
          "type": "uint256"
        }
      ],
      "name": "Transfer",
      "type": "event"
    },
    {
      "inputs": [
        {
          "internalType": "address",
          "name": "to",
          "type": "address"
        },
        {
          "internalType": "uint256",
          "name": "tokenId",
          "type": "uint256"
        }
      ],
      "name": "approve",
      "outputs": [],
      "stateMutability": "nonpayable",
      "type": "function"
    },
    {
      "inputs": [
        {
          "internalType": "address",
          "name": "owner",
          "type": "address"
        }
      ],
      "name": "balanceOf",
      "outputs": [
        {
          "internalType": "uint256",
          "name": "",
          "type": "uint256"
        }
      ],
      "stateMutability": "view",
      "type": "function",
      "constant": true
    },
    {
      "inputs": [
        {
          "internalType": "uint256",
          "name": "tokenId",
          "type": "uint256"
        }
      ],
      "name": "getApproved",
      "outputs": [
        {
          "internalType": "address",
          "name": "",
          "type": "address"
        }
      ],
      "stateMutability": "view",
      "type": "function",
      "constant": true
    },
    {
      "inputs": [
        {
          "internalType": "address",
          "name": "owner",
          "type": "address"
        },
        {
          "internalType": "address",
          "name": "operator",
          "type": "address"
        }
      ],
      "name": "isApprovedForAll",
      "outputs": [
        {
          "internalType": "bool",
          "name": "",
          "type": "bool"
        }
      ],
      "stateMutability": "view",
      "type": "function",
      "constant": true
    },
    {
      "inputs": [],
      "name": "name",
      "outputs": [
        {
          "internalType": "string",
          "name": "",
          "type": "string"
        }
      ],
      "stateMutability": "view",
      "type": "function",
      "constant": true
    },
    {
      "inputs": [],
      "name": "owner",
      "outputs": [
        {
          "internalType": "address",
          "name": "",
          "type": "address"
        }
      ],
      "stateMutability": "view",
      "type": "function",
      "constant": true
    },
    {
      "inputs": [
        {
          "internalType": "uint256",
          "name": "tokenId",
          "type": "uint256"
        }
      ],
      "name": "ownerOf",
      "outputs": [
        {
          "internalType": "address",
          "name": "",
          "type": "address"
        }
      ],
      "stateMutability": "view",
      "type": "function",
      "constant": true
    },
    {
      "inputs": [],
      "name": "renounceOwnership",
      "outputs": [],
      "stateMutability": "nonpayable",
      "type": "function"
    },
    {
      "inputs": [
        {
          "internalType": "address",
          "name": "from",
          "type": "address"
        },
        {
          "internalType": "address",
          "name": "to",
          "type": "address"
        },
        {
          "internalType": "uint256",
          "name": "tokenId",
          "type": "uint256"
        }
      ],
      "name": "safeTransferFrom",
      "outputs": [],
      "stateMutability": "nonpayable",
      "type": "function"
    },
    {
      "inputs": [
        {
          "internalType": "address",
          "name": "from",
          "type": "address"
        },
        {
          "internalType": "address",
          "name": "to",
          "type": "address"
        },
        {
          "internalType": "uint256",
          "name": "tokenId",
          "type": "uint256"
        },
        {
          "internalType": "bytes",
          "name": "data",
          "type": "bytes"
        }
      ],
      "name": "safeTransferFrom",
      "outputs": [],
      "stateMutability": "nonpayable",
      "type": "function"
    },
    {
      "inputs": [
        {
          "internalType": "address",
          "name": "operator",
          "type": "address"
        },
        {
          "internalType": "bool",
          "name": "approved",
          "type": "bool"
        }
      ],
      "name": "setApprovalForAll",
      "outputs": [],
      "stateMutability": "nonpayable",
      "type": "function"
    },
    {
      "inputs": [
        {
          "internalType": "bytes4",
          "name": "interfaceId",
          "type": "bytes4"
        }
      ],
      "name": "supportsInterface",
      "outputs": [
        {
          "internalType": "bool",
          "name": "",
          "type": "bool"
        }
      ],
      "stateMutability": "view",
      "type": "function",
      "constant": true
    },
    {
      "inputs": [],
      "name": "symbol",
      "outputs": [
        {
          "internalType": "string",
          "name": "",
          "type": "string"
        }
      ],
      "stateMutability": "view",
      "type": "function",
      "constant": true
    },
    {
      "inputs": [
        {
          "internalType": "uint256",
          "name": "tokenId",
          "type": "uint256"
        }
      ],
      "name": "tokenURI",
      "outputs": [
        {
          "internalType": "string",
          "name": "",
          "type": "string"
        }
      ],
      "stateMutability": "view",
      "type": "function",
      "constant": true
    },
    {
      "inputs": [
        {
          "internalType": "address",
          "name": "from",
          "type": "address"
        },
        {
          "internalType": "address",
          "name": "to",
          "type": "address"
        },
        {
          "internalType": "uint256",
          "name": "tokenId",
          "type": "uint256"
        }
      ],
      "name": "transferFrom",
      "outputs": [],
      "stateMutability": "nonpayable",
      "type": "function"
    },
    {
      "inputs": [
        {
          "internalType": "address",
          "name": "newOwner",
          "type": "address"
        }
      ],
      "name": "transferOwnership",
      "outputs": [],
      "stateMutability": "nonpayable",
      "type": "function"
    },
    {
      "inputs": [
        {
          "internalType": "uint256",
          "name": "newListingPrice",
          "type": "uint256"
        }
      ],
      "name": "initialiseListingPrice",
      "outputs": [],
      "stateMutability": "nonpayable",
      "type": "function"
    },
    {
      "inputs": [
        {
          "internalType": "uint256",
          "name": "tokenId",
          "type": "uint256"
        }
      ],
      "name": "isTokenNotOnSale",
      "outputs": [
        {
          "internalType": "bool",
          "name": "",
          "type": "bool"
        }
      ],
      "stateMutability": "payable",
      "type": "function",
      "payable": true
    },
    {
      "inputs": [
        {
          "internalType": "uint256",
          "name": "tokenId",
          "type": "uint256"
        }
      ],
      "name": "isTokenAlreadyOnSale",
      "outputs": [
        {
          "internalType": "bool",
          "name": "",
          "type": "bool"
        }
      ],
      "stateMutability": "payable",
      "type": "function",
      "payable": true
    },
    {
      "inputs": [],
      "name": "getNftTotalSupply",
      "outputs": [
        {
          "internalType": "uint256",
          "name": "",
          "type": "uint256"
        }
      ],
      "stateMutability": "view",
      "type": "function",
      "constant": true
    },
    {
      "inputs": [],
      "name": "fetchCurrentTokenIds",
      "outputs": [
        {
          "internalType": "uint256",
          "name": "",
          "type": "uint256"
        }
      ],
      "stateMutability": "view",
      "type": "function",
      "constant": true
    },
    {
      "inputs": [
        {
          "internalType": "uint256",
          "name": "index",
          "type": "uint256"
        }
      ],
      "name": "retrieveTokenByIndex",
      "outputs": [
        {
          "internalType": "uint256",
          "name": "",
          "type": "uint256"
        }
      ],
      "stateMutability": "view",
      "type": "function",
      "constant": true
    },
    {
      "inputs": [
        {
          "internalType": "string",
          "name": "tokenUri",
          "type": "string"
        },
        {
          "internalType": "uint256",
          "name": "tokenPrice",
          "type": "uint256"
        }
      ],
      "name": "mintNftToken",
      "outputs": [
        {
          "internalType": "uint256",
          "name": "",
          "type": "uint256"
        }
      ],
      "stateMutability": "payable",
      "type": "function",
      "payable": true
    },
    {
      "inputs": [
        {
          "internalType": "uint256",
          "name": "tokenId",
          "type": "uint256"
        }
      ],
      "name": "getPriceOfNftToken",
      "outputs": [
        {
          "internalType": "uint256",
          "name": "",
          "type": "uint256"
        }
      ],
      "stateMutability": "view",
      "type": "function",
      "constant": true
    },
    {
      "inputs": [
        {
          "internalType": "uint256",
          "name": "tokenId",
          "type": "uint256"
        }
      ],
      "name": "buyNft",
      "outputs": [],
      "stateMutability": "payable",
      "type": "function",
      "payable": true
    },
    {
      "inputs": [
        {
          "internalType": "uint256",
          "name": "tokenId",
          "type": "uint256"
        }
      ],
      "name": "checkTokenCreatorIsOwner",
      "outputs": [
        {
          "internalType": "bool",
          "name": "",
          "type": "bool"
        }
      ],
      "stateMutability": "view",
      "type": "function",
      "constant": true
    },
    {
      "inputs": [],
      "name": "isValidListingPrice",
      "outputs": [
        {
          "internalType": "bool",
          "name": "",
          "type": "bool"
        }
      ],
      "stateMutability": "payable",
      "type": "function",
      "payable": true
    },
    {
      "inputs": [
        {
          "internalType": "uint256",
          "name": "tokenId",
          "type": "uint256"
        },
        {
          "internalType": "uint256",
          "name": "newTokenPrice",
          "type": "uint256"
        }
      ],
      "name": "setNftOnSale",
      "outputs": [],
      "stateMutability": "payable",
      "type": "function",
      "payable": true
    },
    {
      "inputs": [
        {
          "internalType": "uint256",
          "name": "tokenId",
          "type": "uint256"
        }
      ],
      "name": "removeNftFromSale",
      "outputs": [],
      "stateMutability": "payable",
      "type": "function",
      "payable": true
    },
    {
      "inputs": [],
      "name": "fetchAllNftsOnSale",
      "outputs": [
        {
          "components": [
            {
              "internalType": "uint256",
              "name": "tokenId",
              "type": "uint256"
            },
            {
              "internalType": "uint256",
              "name": "tokenPrice",
              "type": "uint256"
            },
            {
              "internalType": "address",
              "name": "tokenCreator",
              "type": "address"
            },
            {
              "internalType": "bool",
              "name": "isTokenListed",
              "type": "bool"
            }
          ],
          "internalType": "struct EventNftMarket.EventNft[]",
          "name": "",
          "type": "tuple[]"
        }
      ],
      "stateMutability": "view",
      "type": "function",
      "constant": true
    },
    {
      "inputs": [],
      "name": "fetchAllOwnedNFTs",
      "outputs": [
        {
          "components": [
            {
              "internalType": "uint256",
              "name": "tokenId",
              "type": "uint256"
            },
            {
              "internalType": "uint256",
              "name": "tokenPrice",
              "type": "uint256"
            },
            {
              "internalType": "address",
              "name": "tokenCreator",
              "type": "address"
            },
            {
              "internalType": "bool",
              "name": "isTokenListed",
              "type": "bool"
            }
          ],
          "internalType": "struct EventNftMarket.EventNft[]",
          "name": "",
          "type": "tuple[]"
        }
      ],
      "stateMutability": "view",
      "type": "function",
      "constant": true
    },
    {
      "inputs": [],
      "name": "fetchTokenSupply",
      "outputs": [
        {
          "internalType": "uint256",
          "name": "",
          "type": "uint256"
        }
      ],
      "stateMutability": "view",
      "type": "function",
      "constant": true
    },
    {
      "inputs": [
        {
          "internalType": "string",
          "name": "tokenURI",
          "type": "string"
        }
      ],
      "name": "checkTokenExists",
      "outputs": [
        {
          "internalType": "bool",
          "name": "",
          "type": "bool"
        }
      ],
      "stateMutability": "view",
      "type": "function",
      "constant": true
    },
    {
      "inputs": [
        {
          "internalType": "uint256",
          "name": "tokenId",
          "type": "uint256"
        }
      ],
      "name": "returnSingleNftItem",
      "outputs": [
        {
          "components": [
            {
              "internalType": "uint256",
              "name": "tokenId",
              "type": "uint256"
            },
            {
              "internalType": "uint256",
              "name": "tokenPrice",
              "type": "uint256"
            },
            {
              "internalType": "address",
              "name": "tokenCreator",
              "type": "address"
            },
            {
              "internalType": "bool",
              "name": "isTokenListed",
              "type": "bool"
            }
          ],
          "internalType": "struct EventNftMarket.EventNft",
          "name": "",
          "type": "tuple"
        }
      ],
      "stateMutability": "view",
      "type": "function",
      "constant": true
    }
  ],
  "bytecode": "0x6080604052666a94d74f430000600a553480156200001c57600080fd5b5060405180604001604052806011815260200170115d995b9d08151a58dad95d1cc8139195607a1b81525060405180604001604052806005815260200164115513919560da1b8152508160009081620000769190620001a3565b506001620000858282620001a3565b505050620000a26200009c620000a860201b60201c565b620000ac565b6200026f565b3390565b600780546001600160a01b038381166001600160a01b0319831681179093556040519116919082907f8be0079c531659141344cd1fd0a4f28419497f9722a3daafe3b4186f6b6457e090600090a35050565b634e487b7160e01b600052604160045260246000fd5b600181811c908216806200012957607f821691505b6020821081036200014a57634e487b7160e01b600052602260045260246000fd5b50919050565b601f8211156200019e57600081815260208120601f850160051c81016020861015620001795750805b601f850160051c820191505b818110156200019a5782815560010162000185565b5050505b505050565b81516001600160401b03811115620001bf57620001bf620000fe565b620001d781620001d0845462000114565b8462000150565b602080601f8311600181146200020f5760008415620001f65750858301515b600019600386901b1c1916600185901b1785556200019a565b600085815260208120601f198616915b8281101562000240578886015182559484019460019091019084016200021f565b50858210156200025f5787850151600019600388901b60f8161c191681555b5050505050600190811b01905550565b6124df806200027f6000396000f3fe6080604052600436106101f95760003560e01c8063640ae1661161010d578063b88d4fde116100a0578063cd2acaa51161006f578063cd2acaa514610601578063d871ca15146104a5578063e985e9c514610616578063f0d2fad81461065f578063f2fde38b1461067257600080fd5b8063b88d4fde1461050d578063c30c21a71461052d578063c3a66a5b146105ce578063c87b56dd146105e157600080fd5b806387888b5b116100dc57806387888b5b146104a55780638da5cb5b146104ba57806395d89b41146104d8578063a22cb465146104ed57600080fd5b8063640ae1661461043057806370a0823114610450578063715018a6146104705780637b4809081461048557600080fd5b8063243adbdd11610190578063452757c51161015f578063452757c5146103c15780634ae58814146103de57806352ad5bf0146103f1578063546df207146103fb5780636352211e1461041057600080fd5b8063243adbdd1461032257806329ae6c0c146103355780633ea95f2a1461036357806342842e0e146103a157600080fd5b8063095ea7b3116101cc578063095ea7b3146102ad57806309ceadae146102cf578063162f4e81146102ef57806323b872dd1461030257600080fd5b806301ffc9a7146101fe57806304b49c3a1461023357806306fdde0314610253578063081812fc14610275575b600080fd5b34801561020a57600080fd5b5061021e610219366004611d5d565b610692565b60405190151581526020015b60405180910390f35b34801561023f57600080fd5b5061021e61024e366004611e26565b6106e4565b34801561025f57600080fd5b50610268610714565b60405161022a9190611eab565b34801561028157600080fd5b50610295610290366004611ebe565b6107a6565b6040516001600160a01b03909116815260200161022a565b3480156102b957600080fd5b506102cd6102c8366004611ef3565b6107cd565b005b3480156102db57600080fd5b5061021e6102ea366004611ebe565b6108e7565b61021e6102fd366004611ebe565b61090d565b34801561030e57600080fd5b506102cd61031d366004611f1d565b610932565b6102cd610330366004611ebe565b610963565b61021e610343366004611ebe565b6000908152600e6020526040902060020154600160a01b900460ff161590565b34801561036f57600080fd5b5061039361037e366004611ebe565b6000908152600e602052604090206001015490565b60405190815260200161022a565b3480156103ad57600080fd5b506102cd6103bc366004611f1d565b610aba565b3480156103cd57600080fd5b5060605b60405161022a9190611f59565b6103936103ec366004611fd0565b610ad5565b600a54341461021e565b34801561040757600080fd5b506103d1610c45565b34801561041c57600080fd5b5061029561042b366004611ebe565b610d99565b34801561043c57600080fd5b5061039361044b366004611ebe565b610df9565b34801561045c57600080fd5b5061039361046b366004612015565b610e20565b34801561047c57600080fd5b506102cd610ea6565b34801561049157600080fd5b506102cd6104a0366004611ebe565b610eba565b3480156104b157600080fd5b50600b54610393565b3480156104c657600080fd5b506007546001600160a01b0316610295565b3480156104e457600080fd5b50610268610f28565b3480156104f957600080fd5b506102cd610508366004612030565b610f37565b34801561051957600080fd5b506102cd61052836600461206c565b610f46565b34801561053957600080fd5b506105c1610548366004611ebe565b604080516080810182526000808252602082018190529181018290526060810191909152506000908152600e6020908152604091829020825160808101845281548152600182015492810192909252600201546001600160a01b03811692820192909252600160a01b90910460ff161515606082015290565b60405161022a91906120e8565b6102cd6105dc36600461211e565b610f7e565b3480156105ed57600080fd5b506102686105fc366004611ebe565b6110ec565b34801561060d57600080fd5b506103936111fc565b34801561062257600080fd5b5061021e610631366004612140565b6001600160a01b03918216600090815260056020908152604080832093909416825291909152205460ff1690565b6102cd61066d366004611ebe565b61120c565b34801561067e57600080fd5b506102cd61068d366004612015565b611294565b60006001600160e01b031982166380ac58cd60e01b14806106c357506001600160e01b03198216635b5e139f60e01b145b806106de57506301ffc9a760e01b6001600160e01b03198316145b92915050565b6000600d826040516106f69190612173565b9081526040519081900360200190205460ff16151560011492915050565b6060600080546107239061218f565b80601f016020809104026020016040519081016040528092919081815260200182805461074f9061218f565b801561079c5780601f106107715761010080835404028352916020019161079c565b820191906000526020600020905b81548152906001019060200180831161077f57829003601f168201915b5050505050905090565b60006107b18261130a565b506000908152600460205260409020546001600160a01b031690565b60006107d882610d99565b9050806001600160a01b0316836001600160a01b03160361084a5760405162461bcd60e51b815260206004820152602160248201527f4552433732313a20617070726f76616c20746f2063757272656e74206f776e656044820152603960f91b60648201526084015b60405180910390fd5b336001600160a01b038216148061086657506108668133610631565b6108d85760405162461bcd60e51b815260206004820152603e60248201527f4552433732313a20617070726f76652063616c6c6572206973206e6f7420746f60448201527f6b656e206f776e6572206e6f7220617070726f76656420666f7220616c6c00006064820152608401610841565b6108e28383611369565b505050565b60006108f282610d99565b6001600160a01b0316336001600160a01b0316149050919050565b6000908152600e602052604090206002015460ff600160a01b90910416151560011490565b61093c33826113d7565b6109585760405162461bcd60e51b8152600401610841906121c9565b6108e2838383611455565b600061096e82610d99565b9050336001600160a01b038216146109e25760405162461bcd60e51b815260206004820152603160248201527f506c6561736520656e73757265207468617420796f752061726520746865206f6044820152703bb732b91037b3103a3432903a37b5b2b760791b6064820152608401610841565b6000828152600e60205260409020600101543414610a545760405162461bcd60e51b815260206004820152602960248201527f506c65617365207375626d697420612076616c756520707269636520666f72206044820152683a3432903a37b5b2b760b91b6064820152608401610841565b6000828152600e60205260409020600201805460ff60a01b19169055610a7a60086115f1565b610a85813384611455565b6040516001600160a01b038216903480156108fc02916000818181858888f193505050501580156108e2573d6000803e3d6000fd5b6108e283838360405180602001604052806000815250610f46565b6000610ae0836106e4565b15610b3d5760405162461bcd60e51b815260206004820152602760248201527f506c6561736520656e7375726520746861742074686520746f6b656e205552496044820152662065786973747360c81b6064820152608401610841565b600a543414610bc25760405162461bcd60e51b8152602060048201526044602482018190527f506c6561736520656e7375726520746865207072696365206f6620746865206e908201527f657720746f6b656e2069732073657420746f20746865206c697374696e6720706064820152637269636560e01b608482015260a401610841565b33610bd1600980546001019055565b610bdf600880546001019055565b6000610bea60095490565b9050610bf68282611648565b610c008186611662565b610c0a81856116f5565b6001600d86604051610c1c9190612173565b908152604051908190036020019020805491151560ff1990921691909117905591505092915050565b60606000610c52600b5490565b9050600080610c6060085490565b905060008167ffffffffffffffff811115610c7d57610c7d611d7a565b604051908082528060200260200182016040528015610ccf57816020015b604080516080810182526000808252602080830182905292820181905260608201528252600019909201910181610c9b5790505b50905060005b84811015610d90576000610ce882610df9565b6000818152600e60205260409020600281015491925090600160a01b900460ff1615610d7b5760408051608081018252825481526001830154602082015260028301546001600160a01b03811692820192909252600160a01b90910460ff16151560608201528451859088908110610d6257610d62612217565b6020908102919091010152610d78600187612243565b95505b50508080610d8890612256565b915050610cd5565b50949350505050565b6000818152600260205260408120546001600160a01b0316806106de5760405162461bcd60e51b8152602060048201526018602482015277115490cdcc8c4e881a5b9d985b1a59081d1bdad95b88125160421b6044820152606401610841565b6000600b8281548110610e0e57610e0e612217565b90600052602060002001549050919050565b60006001600160a01b038216610e8a5760405162461bcd60e51b815260206004820152602960248201527f4552433732313a2061646472657373207a65726f206973206e6f7420612076616044820152683634b21037bbb732b960b91b6064820152608401610841565b506001600160a01b031660009081526003602052604090205490565b610eae6117af565b610eb86000611809565b565b610ec26117af565b6000808211610f225760405162461bcd60e51b815260206004820152602660248201527f4d616b652073757265207468617420746865206c697374696e67206973203e2060448201526530204757454960d01b6064820152608401610841565b50600a55565b6060600180546107239061218f565b610f4233838361185b565b5050565b610f5033836113d7565b610f6c5760405162461bcd60e51b8152600401610841906121c9565b610f7884848484611929565b50505050565b610f87826108e7565b61102a5760405162461bcd60e51b815260206004820152606260248201527f506c65617365206d616b6520737572652074686174207468652063726561746f60448201527f72206f662074686520746f6b656e206973207468652063757272656e74206f7760648201527f6e6572206265666f726520706c6163696e6720746865206e6674206f6e2073616084820152616c6560f01b60a482015260c401610841565b6110338261090d565b6110a55760405162461bcd60e51b815260206004820152603960248201527f506c65617365206d616b65207375726520746861742074686520746f6b656e2060448201527f6973206e6f7420616c7265616479206f6e2073616c652e2e2e000000000000006064820152608401610841565b6000828152600e6020526040902060028101805460ff60a01b1916600160a01b1790556001018190556110d760085490565b600003610f4257610f42600880546001019055565b60606110f78261130a565b600082815260066020526040812080546111109061218f565b80601f016020809104026020016040519081016040528092919081815260200182805461113c9061218f565b80156111895780601f1061115e57610100808354040283529160200191611189565b820191906000526020600020905b81548152906001019060200180831161116c57829003601f168201915b5050505050905060006111a760408051602081019091526000815290565b905080516000036111b9575092915050565b8151156111eb5780826040516020016111d392919061226f565b60405160208183030381529060405292505050919050565b6111f48461195c565b949350505050565b600061120760095490565b905090565b6112158161090d565b6112915760405162461bcd60e51b815260206004820152604160248201527f4265666f72652072656d6f76696e672066726f6d2073616c652e20506c65617360448201527f65206d616b65207375726520697420697320616c7265616479206f6e2073616c6064820152606560f81b608482015260a401610841565b50565b61129c6117af565b6001600160a01b0381166113015760405162461bcd60e51b815260206004820152602660248201527f4f776e61626c653a206e6577206f776e657220697320746865207a65726f206160448201526564647265737360d01b6064820152608401610841565b61129181611809565b6000818152600260205260409020546001600160a01b03166112915760405162461bcd60e51b8152602060048201526018602482015277115490cdcc8c4e881a5b9d985b1a59081d1bdad95b88125160421b6044820152606401610841565b600081815260046020526040902080546001600160a01b0319166001600160a01b038416908117909155819061139e82610d99565b6001600160a01b03167f8c5be1e5ebec7d5bd14f71427d1e84f3dd0314c0f7b2291e5b200ac8c7c3b92560405160405180910390a45050565b6000806113e383610d99565b9050806001600160a01b0316846001600160a01b0316148061142a57506001600160a01b0380821660009081526005602090815260408083209388168352929052205460ff165b806111f45750836001600160a01b0316611443846107a6565b6001600160a01b031614949350505050565b826001600160a01b031661146882610d99565b6001600160a01b0316146114cc5760405162461bcd60e51b815260206004820152602560248201527f4552433732313a207472616e736665722066726f6d20696e636f72726563742060448201526437bbb732b960d91b6064820152608401610841565b6001600160a01b03821661152e5760405162461bcd60e51b8152602060048201526024808201527f4552433732313a207472616e7366657220746f20746865207a65726f206164646044820152637265737360e01b6064820152608401610841565b611539600082611369565b6001600160a01b038316600090815260036020526040812080546001929061156290849061229e565b90915550506001600160a01b0382166000908152600360205260408120805460019290611590908490612243565b909155505060008181526002602052604080822080546001600160a01b0319166001600160a01b0386811691821790925591518493918716917fddf252ad1be2c89b69c2b068fc378daa952ba7f163c4a11628f55a4df523b3ef91a4505050565b8054806116405760405162461bcd60e51b815260206004820152601b60248201527f436f756e7465723a2064656372656d656e74206f766572666c6f7700000000006044820152606401610841565b600019019055565b610f428282604051806020016040528060008152506119d0565b6000828152600260205260409020546001600160a01b03166116dd5760405162461bcd60e51b815260206004820152602e60248201527f45524337323155524953746f726167653a2055524920736574206f66206e6f6e60448201526d32bc34b9ba32b73a103a37b5b2b760911b6064820152608401610841565b60008281526006602052604090206108e282826122ff565b60408051608080820183528482526020808301858152338486018181526001606080880182815260008c8152600e88528a90209851895594518883015591516002909701805494511515600160a01b026001600160a81b03199095166001600160a01b0390981697909717939093179095558551888152928301879052948201859052928101929092527f3b4ab3277db321b0645c3c3aa653dd70b098949182249f64b89dce020f966a54910160405180910390a1505050565b6007546001600160a01b03163314610eb85760405162461bcd60e51b815260206004820181905260248201527f4f776e61626c653a2063616c6c6572206973206e6f7420746865206f776e65726044820152606401610841565b600780546001600160a01b038381166001600160a01b0319831681179093556040519116919082907f8be0079c531659141344cd1fd0a4f28419497f9722a3daafe3b4186f6b6457e090600090a35050565b816001600160a01b0316836001600160a01b0316036118bc5760405162461bcd60e51b815260206004820152601960248201527f4552433732313a20617070726f766520746f2063616c6c6572000000000000006044820152606401610841565b6001600160a01b03838116600081815260056020908152604080832094871680845294825291829020805460ff191686151590811790915591519182527f17307eab39ab6107e8899845ad3d59bd9653f200f220920489ca2b5937696c31910160405180910390a3505050565b611934848484611455565b61194084848484611a03565b610f785760405162461bcd60e51b8152600401610841906123bf565b60606119678261130a565b600061197e60408051602081019091526000815290565b9050600081511161199e57604051806020016040528060008152506119c9565b806119a884611b04565b6040516020016119b992919061226f565b6040516020818303038152906040525b9392505050565b6119da8383611c05565b6119e76000848484611a03565b6108e25760405162461bcd60e51b8152600401610841906123bf565b60006001600160a01b0384163b15611af957604051630a85bd0160e11b81526001600160a01b0385169063150b7a0290611a47903390899088908890600401612411565b6020604051808303816000875af1925050508015611a82575060408051601f3d908101601f19168201909252611a7f9181019061244e565b60015b611adf573d808015611ab0576040519150601f19603f3d011682016040523d82523d6000602084013e611ab5565b606091505b508051600003611ad75760405162461bcd60e51b8152600401610841906123bf565b805181602001fd5b6001600160e01b031916630a85bd0160e11b1490506111f4565b506001949350505050565b606081600003611b2b5750506040805180820190915260018152600360fc1b602082015290565b8160005b8115611b555780611b3f81612256565b9150611b4e9050600a83612481565b9150611b2f565b60008167ffffffffffffffff811115611b7057611b70611d7a565b6040519080825280601f01601f191660200182016040528015611b9a576020820181803683370190505b5090505b84156111f457611baf60018361229e565b9150611bbc600a86612495565b611bc7906030612243565b60f81b818381518110611bdc57611bdc612217565b60200101906001600160f81b031916908160001a905350611bfe600a86612481565b9450611b9e565b6001600160a01b038216611c5b5760405162461bcd60e51b815260206004820181905260248201527f4552433732313a206d696e7420746f20746865207a65726f20616464726573736044820152606401610841565b6000818152600260205260409020546001600160a01b031615611cc05760405162461bcd60e51b815260206004820152601c60248201527f4552433732313a20746f6b656e20616c7265616479206d696e746564000000006044820152606401610841565b6001600160a01b0382166000908152600360205260408120805460019290611ce9908490612243565b909155505060008181526002602052604080822080546001600160a01b0319166001600160a01b03861690811790915590518392907fddf252ad1be2c89b69c2b068fc378daa952ba7f163c4a11628f55a4df523b3ef908290a45050565b6001600160e01b03198116811461129157600080fd5b600060208284031215611d6f57600080fd5b81356119c981611d47565b634e487b7160e01b600052604160045260246000fd5b600067ffffffffffffffff80841115611dab57611dab611d7a565b604051601f8501601f19908116603f01168101908282118183101715611dd357611dd3611d7a565b81604052809350858152868686011115611dec57600080fd5b858560208301376000602087830101525050509392505050565b600082601f830112611e1757600080fd5b6119c983833560208501611d90565b600060208284031215611e3857600080fd5b813567ffffffffffffffff811115611e4f57600080fd5b6111f484828501611e06565b60005b83811015611e76578181015183820152602001611e5e565b50506000910152565b60008151808452611e97816020860160208601611e5b565b601f01601f19169290920160200192915050565b6020815260006119c96020830184611e7f565b600060208284031215611ed057600080fd5b5035919050565b80356001600160a01b0381168114611eee57600080fd5b919050565b60008060408385031215611f0657600080fd5b611f0f83611ed7565b946020939093013593505050565b600080600060608486031215611f3257600080fd5b611f3b84611ed7565b9250611f4960208501611ed7565b9150604084013590509250925092565b6020808252825182820181905260009190848201906040850190845b81811015611fc457611fb183855180518252602080820151908301526040808201516001600160a01b0316908301526060908101511515910152565b9284019260809290920191600101611f75565b50909695505050505050565b60008060408385031215611fe357600080fd5b823567ffffffffffffffff811115611ffa57600080fd5b61200685828601611e06565b95602094909401359450505050565b60006020828403121561202757600080fd5b6119c982611ed7565b6000806040838503121561204357600080fd5b61204c83611ed7565b91506020830135801515811461206157600080fd5b809150509250929050565b6000806000806080858703121561208257600080fd5b61208b85611ed7565b935061209960208601611ed7565b925060408501359150606085013567ffffffffffffffff8111156120bc57600080fd5b8501601f810187136120cd57600080fd5b6120dc87823560208401611d90565b91505092959194509250565b81518152602080830151908201526040808301516001600160a01b031690820152606080830151151590820152608081016106de565b6000806040838503121561213157600080fd5b50508035926020909101359150565b6000806040838503121561215357600080fd5b61215c83611ed7565b915061216a60208401611ed7565b90509250929050565b60008251612185818460208701611e5b565b9190910192915050565b600181811c908216806121a357607f821691505b6020821081036121c357634e487b7160e01b600052602260045260246000fd5b50919050565b6020808252602e908201527f4552433732313a2063616c6c6572206973206e6f7420746f6b656e206f776e6560408201526d1c881b9bdc88185c1c1c9bdd995960921b606082015260800190565b634e487b7160e01b600052603260045260246000fd5b634e487b7160e01b600052601160045260246000fd5b808201808211156106de576106de61222d565b6000600182016122685761226861222d565b5060010190565b60008351612281818460208801611e5b565b835190830190612295818360208801611e5b565b01949350505050565b818103818111156106de576106de61222d565b601f8211156108e257600081815260208120601f850160051c810160208610156122d85750805b601f850160051c820191505b818110156122f7578281556001016122e4565b505050505050565b815167ffffffffffffffff81111561231957612319611d7a565b61232d81612327845461218f565b846122b1565b602080601f831160018114612362576000841561234a5750858301515b600019600386901b1c1916600185901b1785556122f7565b600085815260208120601f198616915b8281101561239157888601518255948401946001909101908401612372565b50858210156123af5787850151600019600388901b60f8161c191681555b5050505050600190811b01905550565b60208082526032908201527f4552433732313a207472616e7366657220746f206e6f6e20455243373231526560408201527131b2b4bb32b91034b6b83632b6b2b73a32b960711b606082015260800190565b6001600160a01b038581168252841660208201526040810183905260806060820181905260009061244490830184611e7f565b9695505050505050565b60006020828403121561246057600080fd5b81516119c981611d47565b634e487b7160e01b600052601260045260246000fd5b6000826124905761249061246b565b500490565b6000826124a4576124a461246b565b50069056fea264697066735822122011d75708f5cf596fe6dcaaa98c42249a3f055f6af91e297a6667c1ebe3f1957464736f6c63430008110033",
  "immutableReferences": {},
  "source": "// SPDX-License-Identifier: MIT\npragma solidity ^0.8.17;\nimport \"../node_modules/@openzeppelin/contracts/token/ERC721/extensions/ERC721URIStorage.sol\";\nimport \"../node_modules/@openzeppelin/contracts/utils/Counters.sol\";\nimport \"../node_modules/@openzeppelin/contracts/token/ERC721/ERC721.sol\";\nimport \"../node_modules/@openzeppelin/contracts/access/Ownable.sol\";\n\n// Interface for the NFT routines to be invoked\ninterface NftRoutines {\n    function initialiseListingPrice(uint256 newListingPrice) external;\n    function mintNftToken(string memory tokenUri, uint256 tokenPrice) external payable returns (uint256);\n    function setNftOnSale(uint256 tokenIndex, uint256 newTokenPrice) external payable; // 3. Routine to set the nft on sale\n    function buyNft(uint256 tokenInde) external payable; // Routing to buy the NFT given a token Index and price\n    function removeNftFromSale(uint256 tokenIndex) external payable; // Removing an NFT from sale requires that we pay some ether \n    function checkTokenCreatorIsOwner(uint256 tokenId) external returns (bool);\n}\n\ncontract EventNftMarket is ERC721URIStorage, Ownable, NftRoutines {\n    using Counters for Counters.Counter;\n\n    Counters.Counter private listedTokenItems; // Listed Token Items\n    Counters.Counter private tokenIds; // Number that stores how many token's we have\n\n    uint256 ticketListingPrice = 0.030 ether; // Listing price for the event NFT. Initially sell one for 0.030 ETHER\n    uint256[] private listOfNfts; // Store the list of NFTs in an array\n    bool private tokenMinted;\n\n    mapping(string => bool) private usedTokenURIs; // Map string to boolean for checking the used token URis\n    mapping(uint => EventNft) private mappedNftData;\n    mapping(uint => uint) private mappedIdToIndex; // Map an ID to the index of a token\n\n    mapping(address => mapping(uint => uint)) private ownedEventTokens; // Mapping between the address of the owner and an integer that stores the owner tokens ID\n    mapping(uint => uint) private _idToOwnedIndex;\n\n    struct EventNft { // Struct for holding Event NFT data\n        uint256 tokenId;\n        uint256 tokenPrice;\n        address tokenCreator;\n        bool isTokenListed; // Determines if the token is listed for sale or not\n    }\n\n    // 1. Event for Creating New Ticket nft Data\n    event EventNftCreated (\n        uint tokenId,\n        uint price,\n        address creator,\n        bool isTokenListed\n    );\n\n    // 2. Event For Updating NFT data\n    event EventNftUpdated (\n        uint tokenId,\n        uint newPrice,\n        address newCreator,\n        bool newIsTokenListed\n    );\n\n    constructor() ERC721(\"Event Tickets NFT\", \"ETNFT\") {}\n\n    // @description: Set the listing price for a token\n    function initialiseListingPrice(uint256 newListingPrice) public override onlyOwner {\n        uint256 defaultPrice = 0;\n        require(newListingPrice > defaultPrice, \"Make sure that the listing is > 0 GWEI\");\n        ticketListingPrice = newListingPrice;\n    }\n\n    function isTokenNotOnSale(uint256 tokenId) public payable returns (bool) {\n        return mappedNftData[tokenId].isTokenListed == !true;\n    }\n\n    function isTokenAlreadyOnSale(uint256 tokenId) public payable returns (bool) {\n         return mappedNftData[tokenId].isTokenListed == !false;\n    }\n\n    function getNftTotalSupply() public view returns (uint256) {\n        return listOfNfts.length;\n    }\n\n    function fetchCurrentTokenIds() public view returns (uint256) {\n        return tokenIds.current();\n    }\n\n    // @description: Fetch an NFT token by its index\n    function retrieveTokenByIndex(uint index) public view returns (uint) {\n       return listOfNfts[index];\n    }\n\n\n    // @description: Register a new token on the blockchain.\n    // @returns: The ID of that token minted\n    // @ Pre Condition: Must ensure that the token URI (data) exists and the price of the new token is the actual listing price for the token\n    // @ Post Condition: Return the new token Id that is created by invoking the _safeMint() in-built function and the create new nft function\n    // @ Parameters: Token URI & Price of the token\n\n\n    function mintNftToken(string memory tokenUri, uint256 tokenPrice) public payable override returns (uint256) {\n        require(!checkTokenExists(tokenUri), \"Please ensure that the token URI exists\");\n        require(msg.value == ticketListingPrice, \"Please ensure the price of the new token is set to the listing price\");\n        address messageSender = msg.sender;\n\n        tokenIds.increment();\n        listedTokenItems.increment();\n        uint newTokenId = tokenIds.current();\n\n        _safeMint(messageSender, newTokenId);\n        _setTokenURI(newTokenId, tokenUri); // Set the new token URI with the token ID\n\n        createNewNftItem(newTokenId, tokenPrice); // Invoke routine to create the new NFT item below\n        usedTokenURIs[tokenUri] = true;\n\n        return newTokenId;\n    }\n\n    function createNewNftItem(uint256 tokenId, uint256 tokenPrice) private {\n       address currentOwner = msg.sender;\n       mappedNftData[tokenId] = EventNft(tokenId, tokenPrice, currentOwner, true);\n\n       emit EventNftCreated(tokenId, tokenPrice, msg.sender, true); // Emit new created event\n\n    }\n\n    function getPriceOfNftToken(uint256 tokenId) public view returns (uint256) {\n        uint currentPrice = mappedNftData[tokenId].tokenPrice;\n        return currentPrice;\n    }\n\n    function buyNft(uint256 tokenId) public payable {\n        address currentOwner = ERC721.ownerOf(tokenId);\n        require(msg.sender == currentOwner, \"Please ensure that you are the owner of the token\");\n        require(msg.value == getPriceOfNftToken(tokenId), \"Please submit a value price for the token\");\n\n        // Now we need to delist it from the struct\n        mappedNftData[tokenId].isTokenListed = false;\n        listedTokenItems.decrement(); // Decrement the listed items by 1.\n\n         _transfer(currentOwner, msg.sender, tokenId); // Transfer Ownership of the NFT from the current owner to ms.sender\n         payable(currentOwner).transfer(msg.value); // Pay the new owner\n    }\n\n    function checkTokenCreatorIsOwner(uint256 tokenId) public view override returns (bool) {\n        return msg.sender == ERC721.ownerOf(tokenId); // The owner of the token ID is equal to the ERC721 invoked routine of the token ID\n    }\n\n    // Check if the listing price is valid or not\n    function isValidListingPrice() public payable returns (bool) {\n        return msg.value == ticketListingPrice;\n    }\n\n    function setNftOnSale(uint256 tokenId, uint256 newTokenPrice) external payable override {\n        require(checkTokenCreatorIsOwner(tokenId), \"Please make sure that the creator of the token is the current owner before placing the nft on sale\");\n        require(isTokenAlreadyOnSale(tokenId), \"Please make sure that the token is not already on sale...\");\n\n        mappedNftData[tokenId].isTokenListed = true;\n        mappedNftData[tokenId].tokenPrice = newTokenPrice; // Update the new token price\n\n        if(listedTokenItems.current() == 0) { // If the current items on sale is by default 0\n            listedTokenItems.increment();    // Increment Listed Items\n        }\n\n    }\n\n    function removeNftFromSale(uint256 tokenId) external payable override {\n        require(isTokenAlreadyOnSale(tokenId), \"Before removing from sale. Please make sure it is already on sale\");\n    }\n\n\n    // @description: Retrieves all of the event ticket NFT's on sale.\n    // @returns: An array of Event NFT Tokens stored in memory\n\n    function fetchAllNftsOnSale() public view returns (EventNft[] memory) {\n        uint totalNftSupply = getNftTotalSupply();\n        uint currentTokenIndex = 0; // Current index of the token\n        uint currentNftItem = listedTokenItems.current();\n\n        EventNft[] memory nftItems = new EventNft[](currentNftItem);\n\n        for(uint256 index = 0; index < totalNftSupply; index++) {\n\n            uint256 tokenIndex = retrieveTokenByIndex(index);\n\n            EventNft storage tokenItem = mappedNftData[tokenIndex];\n           \n           if(tokenItem.isTokenListed) { // If the token is listed\n              nftItems[currentTokenIndex] = tokenItem; // Set the token index from the nft items array to the token item\n              currentTokenIndex +=1; // Increment number of token indexes\n           }\n        }\n\n        return nftItems; // Return all of the NFT items\n    }\n\n        // Logic for getting all of the user's owned Event Ticket NFT's\n    // @description Fetch all of the user's owned NFTs\n    // @returns: An array of event nft items\n\n    function fetchAllOwnedNFTs() public view returns(EventNft[] memory) {\n       \n    }\n\n    // @description: Return the total supply of event ticket nft's by returning the array length.\n    function fetchTokenSupply() public view returns (uint256) {\n        return listOfNfts.length;\n    }\n\n    function checkTokenExists(string memory tokenURI) public view returns (bool) {\n        return usedTokenURIs[tokenURI] == true;\n    }\n\n    function returnSingleNftItem(uint256 tokenId) public view returns(EventNft memory) {\n        return mappedNftData[tokenId]; // Return the mapped NFT ID to the token ID\n    }\n\n}",
  "sourcePath": "/Users/sabin2000/Documents/ticketblock/frontend/contracts/EventNftMarket.sol",
  "compiler": {
    "name": "solc",
    "version": "0.8.17+commit.8df45f5f.Emscripten.clang"
  },
  "schemaVersion": "3.4.9",
  "updatedAt": "2022-10-27T07:51:41.752Z",
  "networkType": "ethereum",
  "devdoc": {
    "kind": "dev",
    "methods": {
      "approve(address,uint256)": {
        "details": "See {IERC721-approve}."
      },
      "balanceOf(address)": {
        "details": "See {IERC721-balanceOf}."
      },
      "getApproved(uint256)": {
        "details": "See {IERC721-getApproved}."
      },
      "isApprovedForAll(address,address)": {
        "details": "See {IERC721-isApprovedForAll}."
      },
      "name()": {
        "details": "See {IERC721Metadata-name}."
      },
      "owner()": {
        "details": "Returns the address of the current owner."
      },
      "ownerOf(uint256)": {
        "details": "See {IERC721-ownerOf}."
      },
      "renounceOwnership()": {
        "details": "Leaves the contract without owner. It will not be possible to call `onlyOwner` functions anymore. Can only be called by the current owner. NOTE: Renouncing ownership will leave the contract without an owner, thereby removing any functionality that is only available to the owner."
      },
      "safeTransferFrom(address,address,uint256)": {
        "details": "See {IERC721-safeTransferFrom}."
      },
      "safeTransferFrom(address,address,uint256,bytes)": {
        "details": "See {IERC721-safeTransferFrom}."
      },
      "setApprovalForAll(address,bool)": {
        "details": "See {IERC721-setApprovalForAll}."
      },
      "supportsInterface(bytes4)": {
        "details": "See {IERC165-supportsInterface}."
      },
      "symbol()": {
        "details": "See {IERC721Metadata-symbol}."
      },
      "tokenURI(uint256)": {
        "details": "See {IERC721Metadata-tokenURI}."
      },
      "transferFrom(address,address,uint256)": {
        "details": "See {IERC721-transferFrom}."
      },
      "transferOwnership(address)": {
        "details": "Transfers ownership of the contract to a new account (`newOwner`). Can only be called by the current owner."
      }
    },
    "version": 1
  },
  "userdoc": {
    "kind": "user",
    "methods": {},
    "version": 1
  }
}