{
  "contractName": "EventNftMarket",
  "abi": [
    {
      "inputs": [],
      "stateMutability": "nonpayable",
      "type": "constructor"
    },
    {
      "anonymous": false,
      "inputs": [
        {
          "indexed": true,
          "internalType": "address",
          "name": "owner",
          "type": "address"
        },
        {
          "indexed": true,
          "internalType": "address",
          "name": "approved",
          "type": "address"
        },
        {
          "indexed": true,
          "internalType": "uint256",
          "name": "tokenId",
          "type": "uint256"
        }
      ],
      "name": "Approval",
      "type": "event"
    },
    {
      "anonymous": false,
      "inputs": [
        {
          "indexed": true,
          "internalType": "address",
          "name": "owner",
          "type": "address"
        },
        {
          "indexed": true,
          "internalType": "address",
          "name": "operator",
          "type": "address"
        },
        {
          "indexed": false,
          "internalType": "bool",
          "name": "approved",
          "type": "bool"
        }
      ],
      "name": "ApprovalForAll",
      "type": "event"
    },
    {
      "anonymous": false,
      "inputs": [
        {
          "indexed": true,
          "internalType": "address",
          "name": "previousOwner",
          "type": "address"
        },
        {
          "indexed": true,
          "internalType": "address",
          "name": "newOwner",
          "type": "address"
        }
      ],
      "name": "OwnershipTransferred",
      "type": "event"
    },
    {
      "anonymous": false,
      "inputs": [
        {
          "indexed": true,
          "internalType": "address",
          "name": "from",
          "type": "address"
        },
        {
          "indexed": true,
          "internalType": "address",
          "name": "to",
          "type": "address"
        },
        {
          "indexed": true,
          "internalType": "uint256",
          "name": "tokenId",
          "type": "uint256"
        }
      ],
      "name": "Transfer",
      "type": "event"
    },
    {
      "inputs": [
        {
          "internalType": "address",
          "name": "to",
          "type": "address"
        },
        {
          "internalType": "uint256",
          "name": "tokenId",
          "type": "uint256"
        }
      ],
      "name": "approve",
      "outputs": [],
      "stateMutability": "nonpayable",
      "type": "function"
    },
    {
      "inputs": [
        {
          "internalType": "address",
          "name": "owner",
          "type": "address"
        }
      ],
      "name": "balanceOf",
      "outputs": [
        {
          "internalType": "uint256",
          "name": "",
          "type": "uint256"
        }
      ],
      "stateMutability": "view",
      "type": "function"
    },
    {
      "inputs": [
        {
          "internalType": "uint256",
          "name": "tokenId",
          "type": "uint256"
        }
      ],
      "name": "getApproved",
      "outputs": [
        {
          "internalType": "address",
          "name": "",
          "type": "address"
        }
      ],
      "stateMutability": "view",
      "type": "function"
    },
    {
      "inputs": [
        {
          "internalType": "address",
          "name": "owner",
          "type": "address"
        },
        {
          "internalType": "address",
          "name": "operator",
          "type": "address"
        }
      ],
      "name": "isApprovedForAll",
      "outputs": [
        {
          "internalType": "bool",
          "name": "",
          "type": "bool"
        }
      ],
      "stateMutability": "view",
      "type": "function"
    },
    {
      "inputs": [],
      "name": "name",
      "outputs": [
        {
          "internalType": "string",
          "name": "",
          "type": "string"
        }
      ],
      "stateMutability": "view",
      "type": "function"
    },
    {
      "inputs": [],
      "name": "owner",
      "outputs": [
        {
          "internalType": "address",
          "name": "",
          "type": "address"
        }
      ],
      "stateMutability": "view",
      "type": "function"
    },
    {
      "inputs": [
        {
          "internalType": "uint256",
          "name": "tokenId",
          "type": "uint256"
        }
      ],
      "name": "ownerOf",
      "outputs": [
        {
          "internalType": "address",
          "name": "",
          "type": "address"
        }
      ],
      "stateMutability": "view",
      "type": "function"
    },
    {
      "inputs": [],
      "name": "renounceOwnership",
      "outputs": [],
      "stateMutability": "nonpayable",
      "type": "function"
    },
    {
      "inputs": [
        {
          "internalType": "address",
          "name": "from",
          "type": "address"
        },
        {
          "internalType": "address",
          "name": "to",
          "type": "address"
        },
        {
          "internalType": "uint256",
          "name": "tokenId",
          "type": "uint256"
        }
      ],
      "name": "safeTransferFrom",
      "outputs": [],
      "stateMutability": "nonpayable",
      "type": "function"
    },
    {
      "inputs": [
        {
          "internalType": "address",
          "name": "from",
          "type": "address"
        },
        {
          "internalType": "address",
          "name": "to",
          "type": "address"
        },
        {
          "internalType": "uint256",
          "name": "tokenId",
          "type": "uint256"
        },
        {
          "internalType": "bytes",
          "name": "data",
          "type": "bytes"
        }
      ],
      "name": "safeTransferFrom",
      "outputs": [],
      "stateMutability": "nonpayable",
      "type": "function"
    },
    {
      "inputs": [
        {
          "internalType": "address",
          "name": "operator",
          "type": "address"
        },
        {
          "internalType": "bool",
          "name": "approved",
          "type": "bool"
        }
      ],
      "name": "setApprovalForAll",
      "outputs": [],
      "stateMutability": "nonpayable",
      "type": "function"
    },
    {
      "inputs": [
        {
          "internalType": "bytes4",
          "name": "interfaceId",
          "type": "bytes4"
        }
      ],
      "name": "supportsInterface",
      "outputs": [
        {
          "internalType": "bool",
          "name": "",
          "type": "bool"
        }
      ],
      "stateMutability": "view",
      "type": "function"
    },
    {
      "inputs": [],
      "name": "symbol",
      "outputs": [
        {
          "internalType": "string",
          "name": "",
          "type": "string"
        }
      ],
      "stateMutability": "view",
      "type": "function"
    },
    {
      "inputs": [
        {
          "internalType": "uint256",
          "name": "tokenId",
          "type": "uint256"
        }
      ],
      "name": "tokenURI",
      "outputs": [
        {
          "internalType": "string",
          "name": "",
          "type": "string"
        }
      ],
      "stateMutability": "view",
      "type": "function"
    },
    {
      "inputs": [
        {
          "internalType": "address",
          "name": "from",
          "type": "address"
        },
        {
          "internalType": "address",
          "name": "to",
          "type": "address"
        },
        {
          "internalType": "uint256",
          "name": "tokenId",
          "type": "uint256"
        }
      ],
      "name": "transferFrom",
      "outputs": [],
      "stateMutability": "nonpayable",
      "type": "function"
    },
    {
      "inputs": [
        {
          "internalType": "address",
          "name": "newOwner",
          "type": "address"
        }
      ],
      "name": "transferOwnership",
      "outputs": [],
      "stateMutability": "nonpayable",
      "type": "function"
    },
    {
      "inputs": [
        {
          "internalType": "uint256",
          "name": "newListingPrice",
          "type": "uint256"
        }
      ],
      "name": "initialiseListingPrice",
      "outputs": [],
      "stateMutability": "nonpayable",
      "type": "function"
    },
    {
      "inputs": [
        {
          "internalType": "string",
          "name": "tokenUri",
          "type": "string"
        },
        {
          "internalType": "uint256",
          "name": "tokenPrice",
          "type": "uint256"
        }
      ],
      "name": "mintNftToken",
      "outputs": [
        {
          "internalType": "uint256",
          "name": "",
          "type": "uint256"
        }
      ],
      "stateMutability": "payable",
      "type": "function"
    }
  ],
  "bytecode": "0x6080604052666a94d74f430000600a553480156200001c57600080fd5b506040518060400160405280600a815260200169115d995b9d1cc813919560b21b815250604051806040016040528060048152602001631153919560e21b81525081600090816200006e91906200019b565b5060016200007d82826200019b565b5050506200009a62000094620000a060201b60201c565b620000a4565b62000267565b3390565b600780546001600160a01b038381166001600160a01b0319831681179093556040519116919082907f8be0079c531659141344cd1fd0a4f28419497f9722a3daafe3b4186f6b6457e090600090a35050565b634e487b7160e01b600052604160045260246000fd5b600181811c908216806200012157607f821691505b6020821081036200014257634e487b7160e01b600052602260045260246000fd5b50919050565b601f8211156200019657600081815260208120601f850160051c81016020861015620001715750805b601f850160051c820191505b8181101562000192578281556001016200017d565b5050505b505050565b81516001600160401b03811115620001b757620001b7620000f6565b620001cf81620001c884546200010c565b8462000148565b602080601f831160018114620002075760008415620001ee5750858301515b600019600386901b1c1916600185901b17855562000192565b600085815260208120601f198616915b82811015620002385788860151825594840194600190910190840162000217565b5085821015620002575787850151600019600388901b60f8161c191681555b5050505050600190811b01905550565b61152b80620002776000396000f3fe6080604052600436106101095760003560e01c8063715018a611610095578063a22cb46511610064578063a22cb465146102cb578063b88d4fde146102eb578063c87b56dd1461030b578063e985e9c51461032b578063f2fde38b1461034b57600080fd5b8063715018a6146102635780637b480908146102785780638da5cb5b1461029857806395d89b41146102b657600080fd5b806323b872dd116100dc57806323b872dd146101bf57806342842e0e146101df5780634ae58814146101ff5780636352211e1461022357806370a082311461024357600080fd5b806301ffc9a71461010e57806306fdde0314610143578063081812fc14610165578063095ea7b31461019d575b600080fd5b34801561011a57600080fd5b5061012e610129366004610fe3565b61036b565b60405190151581526020015b60405180910390f35b34801561014f57600080fd5b506101586103bd565b60405161013a9190611050565b34801561017157600080fd5b50610185610180366004611063565b61044f565b6040516001600160a01b03909116815260200161013a565b3480156101a957600080fd5b506101bd6101b8366004611098565b610476565b005b3480156101cb57600080fd5b506101bd6101da3660046110c2565b610590565b3480156101eb57600080fd5b506101bd6101fa3660046110c2565b6105c1565b61021561020d36600461118a565b600092915050565b60405190815260200161013a565b34801561022f57600080fd5b5061018561023e366004611063565b6105dc565b34801561024f57600080fd5b5061021561025e3660046111e3565b61063c565b34801561026f57600080fd5b506101bd6106c2565b34801561028457600080fd5b506101bd610293366004611063565b600a55565b3480156102a457600080fd5b506007546001600160a01b0316610185565b3480156102c257600080fd5b506101586106d6565b3480156102d757600080fd5b506101bd6102e63660046111fe565b6106e5565b3480156102f757600080fd5b506101bd61030636600461123a565b6106f4565b34801561031757600080fd5b50610158610326366004611063565b61072c565b34801561033757600080fd5b5061012e6103463660046112b6565b61083c565b34801561035757600080fd5b506101bd6103663660046111e3565b61086a565b60006001600160e01b031982166380ac58cd60e01b148061039c57506001600160e01b03198216635b5e139f60e01b145b806103b757506301ffc9a760e01b6001600160e01b03198316145b92915050565b6060600080546103cc906112e9565b80601f01602080910402602001604051908101604052809291908181526020018280546103f8906112e9565b80156104455780601f1061041a57610100808354040283529160200191610445565b820191906000526020600020905b81548152906001019060200180831161042857829003601f168201915b5050505050905090565b600061045a826108e3565b506000908152600460205260409020546001600160a01b031690565b6000610481826105dc565b9050806001600160a01b0316836001600160a01b0316036104f35760405162461bcd60e51b815260206004820152602160248201527f4552433732313a20617070726f76616c20746f2063757272656e74206f776e656044820152603960f91b60648201526084015b60405180910390fd5b336001600160a01b038216148061050f575061050f813361083c565b6105815760405162461bcd60e51b815260206004820152603e60248201527f4552433732313a20617070726f76652063616c6c6572206973206e6f7420746f60448201527f6b656e206f776e6572206e6f7220617070726f76656420666f7220616c6c000060648201526084016104ea565b61058b8383610942565b505050565b61059a33826109b0565b6105b65760405162461bcd60e51b81526004016104ea90611323565b61058b838383610a0e565b61058b838383604051806020016040528060008152506106f4565b6000818152600260205260408120546001600160a01b0316806103b75760405162461bcd60e51b8152602060048201526018602482015277115490cdcc8c4e881a5b9d985b1a59081d1bdad95b88125160421b60448201526064016104ea565b60006001600160a01b0382166106a65760405162461bcd60e51b815260206004820152602960248201527f4552433732313a2061646472657373207a65726f206973206e6f7420612076616044820152683634b21037bbb732b960b91b60648201526084016104ea565b506001600160a01b031660009081526003602052604090205490565b6106ca610baa565b6106d46000610c04565b565b6060600180546103cc906112e9565b6106f0338383610c56565b5050565b6106fe33836109b0565b61071a5760405162461bcd60e51b81526004016104ea90611323565b61072684848484610d24565b50505050565b6060610737826108e3565b60008281526006602052604081208054610750906112e9565b80601f016020809104026020016040519081016040528092919081815260200182805461077c906112e9565b80156107c95780601f1061079e576101008083540402835291602001916107c9565b820191906000526020600020905b8154815290600101906020018083116107ac57829003601f168201915b5050505050905060006107e760408051602081019091526000815290565b905080516000036107f9575092915050565b81511561082b578082604051602001610813929190611371565b60405160208183030381529060405292505050919050565b61083484610d57565b949350505050565b6001600160a01b03918216600090815260056020908152604080832093909416825291909152205460ff1690565b610872610baa565b6001600160a01b0381166108d75760405162461bcd60e51b815260206004820152602660248201527f4f776e61626c653a206e6577206f776e657220697320746865207a65726f206160448201526564647265737360d01b60648201526084016104ea565b6108e081610c04565b50565b6000818152600260205260409020546001600160a01b03166108e05760405162461bcd60e51b8152602060048201526018602482015277115490cdcc8c4e881a5b9d985b1a59081d1bdad95b88125160421b60448201526064016104ea565b600081815260046020526040902080546001600160a01b0319166001600160a01b0384169081179091558190610977826105dc565b6001600160a01b03167f8c5be1e5ebec7d5bd14f71427d1e84f3dd0314c0f7b2291e5b200ac8c7c3b92560405160405180910390a45050565b6000806109bc836105dc565b9050806001600160a01b0316846001600160a01b031614806109e357506109e3818561083c565b806108345750836001600160a01b03166109fc8461044f565b6001600160a01b031614949350505050565b826001600160a01b0316610a21826105dc565b6001600160a01b031614610a855760405162461bcd60e51b815260206004820152602560248201527f4552433732313a207472616e736665722066726f6d20696e636f72726563742060448201526437bbb732b960d91b60648201526084016104ea565b6001600160a01b038216610ae75760405162461bcd60e51b8152602060048201526024808201527f4552433732313a207472616e7366657220746f20746865207a65726f206164646044820152637265737360e01b60648201526084016104ea565b610af2600082610942565b6001600160a01b0383166000908152600360205260408120805460019290610b1b9084906113b6565b90915550506001600160a01b0382166000908152600360205260408120805460019290610b499084906113c9565b909155505060008181526002602052604080822080546001600160a01b0319166001600160a01b0386811691821790925591518493918716917fddf252ad1be2c89b69c2b068fc378daa952ba7f163c4a11628f55a4df523b3ef91a4505050565b6007546001600160a01b031633146106d45760405162461bcd60e51b815260206004820181905260248201527f4f776e61626c653a2063616c6c6572206973206e6f7420746865206f776e657260448201526064016104ea565b600780546001600160a01b038381166001600160a01b0319831681179093556040519116919082907f8be0079c531659141344cd1fd0a4f28419497f9722a3daafe3b4186f6b6457e090600090a35050565b816001600160a01b0316836001600160a01b031603610cb75760405162461bcd60e51b815260206004820152601960248201527f4552433732313a20617070726f766520746f2063616c6c65720000000000000060448201526064016104ea565b6001600160a01b03838116600081815260056020908152604080832094871680845294825291829020805460ff191686151590811790915591519182527f17307eab39ab6107e8899845ad3d59bd9653f200f220920489ca2b5937696c31910160405180910390a3505050565b610d2f848484610a0e565b610d3b84848484610dcb565b6107265760405162461bcd60e51b81526004016104ea906113dc565b6060610d62826108e3565b6000610d7960408051602081019091526000815290565b90506000815111610d995760405180602001604052806000815250610dc4565b80610da384610ecc565b604051602001610db4929190611371565b6040516020818303038152906040525b9392505050565b60006001600160a01b0384163b15610ec157604051630a85bd0160e11b81526001600160a01b0385169063150b7a0290610e0f90339089908890889060040161142e565b6020604051808303816000875af1925050508015610e4a575060408051601f3d908101601f19168201909252610e479181019061146b565b60015b610ea7573d808015610e78576040519150601f19603f3d011682016040523d82523d6000602084013e610e7d565b606091505b508051600003610e9f5760405162461bcd60e51b81526004016104ea906113dc565b805181602001fd5b6001600160e01b031916630a85bd0160e11b149050610834565b506001949350505050565b606081600003610ef35750506040805180820190915260018152600360fc1b602082015290565b8160005b8115610f1d5780610f0781611488565b9150610f169050600a836114b7565b9150610ef7565b60008167ffffffffffffffff811115610f3857610f386110fe565b6040519080825280601f01601f191660200182016040528015610f62576020820181803683370190505b5090505b841561083457610f776001836113b6565b9150610f84600a866114cb565b610f8f9060306113c9565b60f81b818381518110610fa457610fa46114df565b60200101906001600160f81b031916908160001a905350610fc6600a866114b7565b9450610f66565b6001600160e01b0319811681146108e057600080fd5b600060208284031215610ff557600080fd5b8135610dc481610fcd565b60005b8381101561101b578181015183820152602001611003565b50506000910152565b6000815180845261103c816020860160208601611000565b601f01601f19169290920160200192915050565b602081526000610dc46020830184611024565b60006020828403121561107557600080fd5b5035919050565b80356001600160a01b038116811461109357600080fd5b919050565b600080604083850312156110ab57600080fd5b6110b48361107c565b946020939093013593505050565b6000806000606084860312156110d757600080fd5b6110e08461107c565b92506110ee6020850161107c565b9150604084013590509250925092565b634e487b7160e01b600052604160045260246000fd5b600067ffffffffffffffff8084111561112f5761112f6110fe565b604051601f8501601f19908116603f01168101908282118183101715611157576111576110fe565b8160405280935085815286868601111561117057600080fd5b858560208301376000602087830101525050509392505050565b6000806040838503121561119d57600080fd5b823567ffffffffffffffff8111156111b457600080fd5b8301601f810185136111c557600080fd5b6111d485823560208401611114565b95602094909401359450505050565b6000602082840312156111f557600080fd5b610dc48261107c565b6000806040838503121561121157600080fd5b61121a8361107c565b91506020830135801515811461122f57600080fd5b809150509250929050565b6000806000806080858703121561125057600080fd5b6112598561107c565b93506112676020860161107c565b925060408501359150606085013567ffffffffffffffff81111561128a57600080fd5b8501601f8101871361129b57600080fd5b6112aa87823560208401611114565b91505092959194509250565b600080604083850312156112c957600080fd5b6112d28361107c565b91506112e06020840161107c565b90509250929050565b600181811c908216806112fd57607f821691505b60208210810361131d57634e487b7160e01b600052602260045260246000fd5b50919050565b6020808252602e908201527f4552433732313a2063616c6c6572206973206e6f7420746f6b656e206f776e6560408201526d1c881b9bdc88185c1c1c9bdd995960921b606082015260800190565b60008351611383818460208801611000565b835190830190611397818360208801611000565b01949350505050565b634e487b7160e01b600052601160045260246000fd5b818103818111156103b7576103b76113a0565b808201808211156103b7576103b76113a0565b60208082526032908201527f4552433732313a207472616e7366657220746f206e6f6e20455243373231526560408201527131b2b4bb32b91034b6b83632b6b2b73a32b960711b606082015260800190565b6001600160a01b038581168252841660208201526040810183905260806060820181905260009061146190830184611024565b9695505050505050565b60006020828403121561147d57600080fd5b8151610dc481610fcd565b60006001820161149a5761149a6113a0565b5060010190565b634e487b7160e01b600052601260045260246000fd5b6000826114c6576114c66114a1565b500490565b6000826114da576114da6114a1565b500690565b634e487b7160e01b600052603260045260246000fdfea2646970667358221220156f6032e459ef59cab2bd7e3987c1c8ee5a2e856e457f327eea6af7c16e965364736f6c63430008110033",
  "immutableReferences": {},
  "source": "// SPDX-License-Identifier: MIT\npragma solidity ^0.8.17;\nimport \"../node_modules/@openzeppelin/contracts/token/ERC721/extensions/ERC721URIStorage.sol\";\nimport \"../node_modules/@openzeppelin/contracts/utils/Counters.sol\";\nimport \"../node_modules/@openzeppelin/contracts/token/ERC721/ERC721.sol\";\nimport \"../node_modules/@openzeppelin/contracts/access/Ownable.sol\";\n\ncontract EventNftMarket is ERC721URIStorage, Ownable {\n    using Counters for Counters.Counter;\n\n    Counters.Counter private listedTokens;\n    Counters.Counter private tokenIds; // Number that stores how many token's we have\n\n    uint256 ticketListingPrice = 0.030 ether; // Listing price for the event NFT\n    address[] private listOfNfts;\n\n\n    constructor() ERC721(\"Events NFT\", \"ENFT\") {\n\n    }\n\n    function initialiseListingPrice(uint256 newListingPrice) public {\n        ticketListingPrice = newListingPrice;\n    }\n\n    function mintNftToken(string memory tokenUri, uint256 tokenPrice) public payable returns (uint256) {\n\n    }\n\n}",
  "sourcePath": "/Users/sabin2000/Documents/ticketblock/frontend/contracts/EventNftMarket.sol",
  "compiler": {
    "name": "solc",
    "version": "0.8.17+commit.8df45f5f.Emscripten.clang"
  },
  "schemaVersion": "3.4.9",
  "updatedAt": "2022-10-13T11:37:19.067Z",
  "devdoc": {
    "kind": "dev",
    "methods": {
      "approve(address,uint256)": {
        "details": "See {IERC721-approve}."
      },
      "balanceOf(address)": {
        "details": "See {IERC721-balanceOf}."
      },
      "getApproved(uint256)": {
        "details": "See {IERC721-getApproved}."
      },
      "isApprovedForAll(address,address)": {
        "details": "See {IERC721-isApprovedForAll}."
      },
      "name()": {
        "details": "See {IERC721Metadata-name}."
      },
      "owner()": {
        "details": "Returns the address of the current owner."
      },
      "ownerOf(uint256)": {
        "details": "See {IERC721-ownerOf}."
      },
      "renounceOwnership()": {
        "details": "Leaves the contract without owner. It will not be possible to call `onlyOwner` functions anymore. Can only be called by the current owner. NOTE: Renouncing ownership will leave the contract without an owner, thereby removing any functionality that is only available to the owner."
      },
      "safeTransferFrom(address,address,uint256)": {
        "details": "See {IERC721-safeTransferFrom}."
      },
      "safeTransferFrom(address,address,uint256,bytes)": {
        "details": "See {IERC721-safeTransferFrom}."
      },
      "setApprovalForAll(address,bool)": {
        "details": "See {IERC721-setApprovalForAll}."
      },
      "supportsInterface(bytes4)": {
        "details": "See {IERC165-supportsInterface}."
      },
      "symbol()": {
        "details": "See {IERC721Metadata-symbol}."
      },
      "tokenURI(uint256)": {
        "details": "See {IERC721Metadata-tokenURI}."
      },
      "transferFrom(address,address,uint256)": {
        "details": "See {IERC721-transferFrom}."
      },
      "transferOwnership(address)": {
        "details": "Transfers ownership of the contract to a new account (`newOwner`). Can only be called by the current owner."
      }
    },
    "version": 1
  },
  "userdoc": {
    "kind": "user",
    "methods": {},
    "version": 1
  }
}